{
  "_format": "hh-sol-artifact-1",
  "contractName": "AuthContract",
  "sourceName": "contracts/AuthContract.sol",
  "abi": [
    {
      "anonymous": false,
      "inputs": [
        {
          "indexed": true,
          "internalType": "address",
          "name": "userAddress",
          "type": "address"
        },
        {
          "indexed": false,
          "internalType": "string",
          "name": "email",
          "type": "string"
        }
      ],
      "name": "UserAuthenticated",
      "type": "event"
    },
    {
      "anonymous": false,
      "inputs": [
        {
          "indexed": true,
          "internalType": "address",
          "name": "userAddress",
          "type": "address"
        },
        {
          "indexed": false,
          "internalType": "string",
          "name": "email",
          "type": "string"
        },
        {
          "indexed": false,
          "internalType": "string",
          "name": "userType",
          "type": "string"
        }
      ],
      "name": "UserRegistered",
      "type": "event"
    },
    {
      "inputs": [
        {
          "internalType": "string",
          "name": "_email",
          "type": "string"
        },
        {
          "internalType": "string",
          "name": "_password",
          "type": "string"
        }
      ],
      "name": "authenticateUser",
      "outputs": [
        {
          "internalType": "bool",
          "name": "",
          "type": "bool"
        }
      ],
      "stateMutability": "view",
      "type": "function"
    },
    {
      "inputs": [
        {
          "internalType": "string",
          "name": "_email",
          "type": "string"
        },
        {
          "internalType": "string",
          "name": "_password",
          "type": "string"
        },
        {
          "internalType": "string",
          "name": "_userType",
          "type": "string"
        }
      ],
      "name": "registerUser",
      "outputs": [],
      "stateMutability": "nonpayable",
      "type": "function"
    }
  ],
  "bytecode": "0x608060405234801561001057600080fd5b50610cb7806100206000396000f3fe608060405234801561001057600080fd5b50600436106100365760003560e01c8063516a54351461003b578063d637dcfa1461006b575b600080fd5b61005560048036038101906100509190610663565b610087565b60405161006291906106f6565b60405180910390f35b61008560048036038101906100809190610711565b6102ec565b005b60008060018460405161009a9190610829565b908152602001604051809103902060009054906101000a900473ffffffffffffffffffffffffffffffffffffffff169050600073ffffffffffffffffffffffffffffffffffffffff168173ffffffffffffffffffffffffffffffffffffffff160361013a576040517f08c379a00000000000000000000000000000000000000000000000000000000081526004016101319061089d565b60405180910390fd5b60008060008373ffffffffffffffffffffffffffffffffffffffff1673ffffffffffffffffffffffffffffffffffffffff168152602001908152602001600020604051806060016040529081600082018054610195906108ec565b80601f01602080910402602001604051908101604052809291908181526020018280546101c1906108ec565b801561020e5780601f106101e35761010080835404028352916020019161020e565b820191906000526020600020905b8154815290600101906020018083116101f157829003601f168201915b5050505050815260200160018201548152602001600282018054610231906108ec565b80601f016020809104026020016040519081016040528092919081815260200182805461025d906108ec565b80156102aa5780601f1061027f576101008083540402835291602001916102aa565b820191906000526020600020905b81548152906001019060200180831161028d57829003601f168201915b5050505050815250509050836040516020016102c69190610829565b604051602081830303815290604052805190602001208160200151149250505092915050565b600073ffffffffffffffffffffffffffffffffffffffff166001846040516103149190610829565b908152602001604051809103902060009054906101000a900473ffffffffffffffffffffffffffffffffffffffff1673ffffffffffffffffffffffffffffffffffffffff1614610399576040517f08c379a000000000000000000000000000000000000000000000000000000000815260040161039090610969565b60405180910390fd5b6000826040516020016103ac9190610829565b6040516020818303038152906040528051906020012090506040518060600160405280858152602001828152602001838152506000803373ffffffffffffffffffffffffffffffffffffffff1673ffffffffffffffffffffffffffffffffffffffff16815260200190815260200160002060008201518160000190816104329190610b3f565b506020820151816001015560408201518160020190816104529190610b3f565b50905050336001856040516104679190610829565b908152602001604051809103902060006101000a81548173ffffffffffffffffffffffffffffffffffffffff021916908373ffffffffffffffffffffffffffffffffffffffff1602179055503373ffffffffffffffffffffffffffffffffffffffff167f92822564bab8864c3a47b34e8d23fbce5c46234eb5da261f94087b995ac0f33b85846040516104fb929190610c4a565b60405180910390a250505050565b6000604051905090565b600080fd5b600080fd5b600080fd5b600080fd5b6000601f19601f8301169050919050565b7f4e487b7100000000000000000000000000000000000000000000000000000000600052604160045260246000fd5b61057082610527565b810181811067ffffffffffffffff8211171561058f5761058e610538565b5b80604052505050565b60006105a2610509565b90506105ae8282610567565b919050565b600067ffffffffffffffff8211156105ce576105cd610538565b5b6105d782610527565b9050602081019050919050565b82818337600083830152505050565b6000610606610601846105b3565b610598565b90508281526020810184848401111561062257610621610522565b5b61062d8482856105e4565b509392505050565b600082601f83011261064a5761064961051d565b5b813561065a8482602086016105f3565b91505092915050565b6000806040838503121561067a57610679610513565b5b600083013567ffffffffffffffff81111561069857610697610518565b5b6106a485828601610635565b925050602083013567ffffffffffffffff8111156106c5576106c4610518565b5b6106d185828601610635565b9150509250929050565b60008115159050919050565b6106f0816106db565b82525050565b600060208201905061070b60008301846106e7565b92915050565b60008060006060848603121561072a57610729610513565b5b600084013567ffffffffffffffff81111561074857610747610518565b5b61075486828701610635565b935050602084013567ffffffffffffffff81111561077557610774610518565b5b61078186828701610635565b925050604084013567ffffffffffffffff8111156107a2576107a1610518565b5b6107ae86828701610635565b9150509250925092565b600081519050919050565b600081905092915050565b60005b838110156107ec5780820151818401526020810190506107d1565b60008484015250505050565b6000610803826107b8565b61080d81856107c3565b935061081d8185602086016107ce565b80840191505092915050565b600061083582846107f8565b915081905092915050565b600082825260208201905092915050565b7f55736572206e6f7420666f756e64000000000000000000000000000000000000600082015250565b6000610887600e83610840565b915061089282610851565b602082019050919050565b600060208201905081810360008301526108b68161087a565b9050919050565b7f4e487b7100000000000000000000000000000000000000000000000000000000600052602260045260246000fd5b6000600282049050600182168061090457607f821691505b602082108103610917576109166108bd565b5b50919050565b7f456d61696c20616c726561647920726567697374657265640000000000000000600082015250565b6000610953601883610840565b915061095e8261091d565b602082019050919050565b6000602082019050818103600083015261098281610946565b9050919050565b60008190508160005260206000209050919050565b60006020601f8301049050919050565b600082821b905092915050565b6000600883026109eb7fffffffffffffffffffffffffffffffffffffffffffffffffffffffffffffffff826109ae565b6109f586836109ae565b95508019841693508086168417925050509392505050565b6000819050919050565b6000819050919050565b6000610a3c610a37610a3284610a0d565b610a17565b610a0d565b9050919050565b6000819050919050565b610a5683610a21565b610a6a610a6282610a43565b8484546109bb565b825550505050565b600090565b610a7f610a72565b610a8a818484610a4d565b505050565b5b81811015610aae57610aa3600082610a77565b600181019050610a90565b5050565b601f821115610af357610ac481610989565b610acd8461099e565b81016020851015610adc578190505b610af0610ae88561099e565b830182610a8f565b50505b505050565b600082821c905092915050565b6000610b1660001984600802610af8565b1980831691505092915050565b6000610b2f8383610b05565b9150826002028217905092915050565b610b48826107b8565b67ffffffffffffffff811115610b6157610b60610538565b5b610b6b82546108ec565b610b76828285610ab2565b600060209050601f831160018114610ba95760008415610b97578287015190505b610ba18582610b23565b865550610c09565b601f198416610bb786610989565b60005b82811015610bdf57848901518255600182019150602085019450602081019050610bba565b86831015610bfc5784890151610bf8601f891682610b05565b8355505b6001600288020188555050505b505050505050565b6000610c1c826107b8565b610c268185610840565b9350610c368185602086016107ce565b610c3f81610527565b840191505092915050565b60006040820190508181036000830152610c648185610c11565b90508181036020830152610c788184610c11565b9050939250505056fea2646970667358221220fb1618d2d41a5915b8138d4236772d35f6c5e137503f38227c6db9358ff9f4bf64736f6c63430008140033",
  "linkReferences": {},
  "deployedLinkReferences": {}
}