{
  "_format": "hh-sol-artifact-1",
  "contractName": "PatientDashboard",
  "sourceName": "contracts/Patientdashboard.sol",
  "abi": [
    {
      "anonymous": false,
      "inputs": [
        {
          "indexed": true,
          "internalType": "address",
          "name": "patient",
          "type": "address"
        },
        {
          "indexed": false,
          "internalType": "string",
          "name": "diagnosis",
          "type": "string"
        },
        {
          "indexed": false,
          "internalType": "string",
          "name": "prescription",
          "type": "string"
        },
        {
          "indexed": false,
          "internalType": "string",
          "name": "notes",
          "type": "string"
        }
      ],
      "name": "RecordAdded",
      "type": "event"
    },
    {
      "inputs": [],
      "name": "getHealthRecords",
      "outputs": [
        {
          "components": [
            {
              "internalType": "string",
              "name": "patientName",
              "type": "string"
            },
            {
              "internalType": "string",
              "name": "diagnosis",
              "type": "string"
            },
            {
              "internalType": "string",
              "name": "prescription",
              "type": "string"
            },
            {
              "internalType": "string",
              "name": "notes",
              "type": "string"
            },
            {
              "internalType": "uint256",
              "name": "timestamp",
              "type": "uint256"
            }
          ],
          "internalType": "struct PatientDashboard.HealthRecord[]",
          "name": "",
          "type": "tuple[]"
        }
      ],
      "stateMutability": "view",
      "type": "function"
    },
    {
      "inputs": [
        {
          "internalType": "string",
          "name": "_patientName",
          "type": "string"
        },
        {
          "internalType": "string",
          "name": "_diagnosis",
          "type": "string"
        },
        {
          "internalType": "string",
          "name": "_prescription",
          "type": "string"
        },
        {
          "internalType": "string",
          "name": "_notes",
          "type": "string"
        }
      ],
      "name": "storeHealthRecord",
      "outputs": [],
      "stateMutability": "nonpayable",
      "type": "function"
    }
  ],
  "bytecode": "0x608060405234801561001057600080fd5b50610c94806100206000396000f3fe608060405234801561001057600080fd5b50600436106100365760003560e01c8063118267f11461003b578063f4080e6014610057575b600080fd5b6100556004803603810190610050919061060c565b610075565b005b61005f6101c5565b60405161006c91906108c8565b60405180910390f35b60006040518060a001604052808681526020018581526020018481526020018381526020014281525090506000803373ffffffffffffffffffffffffffffffffffffffff1673ffffffffffffffffffffffffffffffffffffffff168152602001908152602001600020819080600181540180825580915050600190039060005260206000209060050201600090919091909150600082015181600001908161011d9190610af6565b5060208201518160010190816101339190610af6565b5060408201518160020190816101499190610af6565b50606082015181600301908161015f9190610af6565b506080820151816004015550503373ffffffffffffffffffffffffffffffffffffffff167f4173845d038f43d42fe1ac8689f7d3e5cec8a2b2f643897e8a472f0ca3efebb88585856040516101b693929190610c12565b60405180910390a25050505050565b60606000803373ffffffffffffffffffffffffffffffffffffffff1673ffffffffffffffffffffffffffffffffffffffff168152602001908152602001600020805480602002602001604051908101604052809291908181526020016000905b828210156104a957838290600052602060002090600502016040518060a001604052908160008201805461025890610919565b80601f016020809104026020016040519081016040528092919081815260200182805461028490610919565b80156102d15780601f106102a6576101008083540402835291602001916102d1565b820191906000526020600020905b8154815290600101906020018083116102b457829003601f168201915b505050505081526020016001820180546102ea90610919565b80601f016020809104026020016040519081016040528092919081815260200182805461031690610919565b80156103635780601f1061033857610100808354040283529160200191610363565b820191906000526020600020905b81548152906001019060200180831161034657829003601f168201915b5050505050815260200160028201805461037c90610919565b80601f01602080910402602001604051908101604052809291908181526020018280546103a890610919565b80156103f55780601f106103ca576101008083540402835291602001916103f5565b820191906000526020600020905b8154815290600101906020018083116103d857829003601f168201915b5050505050815260200160038201805461040e90610919565b80601f016020809104026020016040519081016040528092919081815260200182805461043a90610919565b80156104875780601f1061045c57610100808354040283529160200191610487565b820191906000526020600020905b81548152906001019060200180831161046a57829003601f168201915b5050505050815260200160048201548152505081526020019060010190610225565b50505050905090565b6000604051905090565b600080fd5b600080fd5b600080fd5b600080fd5b6000601f19601f8301169050919050565b7f4e487b7100000000000000000000000000000000000000000000000000000000600052604160045260246000fd5b610519826104d0565b810181811067ffffffffffffffff82111715610538576105376104e1565b5b80604052505050565b600061054b6104b2565b90506105578282610510565b919050565b600067ffffffffffffffff821115610577576105766104e1565b5b610580826104d0565b9050602081019050919050565b82818337600083830152505050565b60006105af6105aa8461055c565b610541565b9050828152602081018484840111156105cb576105ca6104cb565b5b6105d684828561058d565b509392505050565b600082601f8301126105f3576105f26104c6565b5b813561060384826020860161059c565b91505092915050565b60008060008060808587031215610626576106256104bc565b5b600085013567ffffffffffffffff811115610644576106436104c1565b5b610650878288016105de565b945050602085013567ffffffffffffffff811115610671576106706104c1565b5b61067d878288016105de565b935050604085013567ffffffffffffffff81111561069e5761069d6104c1565b5b6106aa878288016105de565b925050606085013567ffffffffffffffff8111156106cb576106ca6104c1565b5b6106d7878288016105de565b91505092959194509250565b600081519050919050565b600082825260208201905092915050565b6000819050602082019050919050565b600081519050919050565b600082825260208201905092915050565b60005b8381101561074957808201518184015260208101905061072e565b60008484015250505050565b60006107608261070f565b61076a818561071a565b935061077a81856020860161072b565b610783816104d0565b840191505092915050565b6000819050919050565b6107a18161078e565b82525050565b600060a08301600083015184820360008601526107c48282610755565b915050602083015184820360208601526107de8282610755565b915050604083015184820360408601526107f88282610755565b915050606083015184820360608601526108128282610755565b91505060808301516108276080860182610798565b508091505092915050565b600061083e83836107a7565b905092915050565b6000602082019050919050565b600061085e826106e3565b61086881856106ee565b93508360208202850161087a856106ff565b8060005b858110156108b657848403895281516108978582610832565b94506108a283610846565b925060208a0199505060018101905061087e565b50829750879550505050505092915050565b600060208201905081810360008301526108e28184610853565b905092915050565b7f4e487b7100000000000000000000000000000000000000000000000000000000600052602260045260246000fd5b6000600282049050600182168061093157607f821691505b602082108103610944576109436108ea565b5b50919050565b60008190508160005260206000209050919050565b60006020601f8301049050919050565b600082821b905092915050565b6000600883026109ac7fffffffffffffffffffffffffffffffffffffffffffffffffffffffffffffffff8261096f565b6109b6868361096f565b95508019841693508086168417925050509392505050565b6000819050919050565b60006109f36109ee6109e98461078e565b6109ce565b61078e565b9050919050565b6000819050919050565b610a0d836109d8565b610a21610a19826109fa565b84845461097c565b825550505050565b600090565b610a36610a29565b610a41818484610a04565b505050565b5b81811015610a6557610a5a600082610a2e565b600181019050610a47565b5050565b601f821115610aaa57610a7b8161094a565b610a848461095f565b81016020851015610a93578190505b610aa7610a9f8561095f565b830182610a46565b50505b505050565b600082821c905092915050565b6000610acd60001984600802610aaf565b1980831691505092915050565b6000610ae68383610abc565b9150826002028217905092915050565b610aff8261070f565b67ffffffffffffffff811115610b1857610b176104e1565b5b610b228254610919565b610b2d828285610a69565b600060209050601f831160018114610b605760008415610b4e578287015190505b610b588582610ada565b865550610bc0565b601f198416610b6e8661094a565b60005b82811015610b9657848901518255600182019150602085019450602081019050610b71565b86831015610bb35784890151610baf601f891682610abc565b8355505b6001600288020188555050505b505050505050565b600082825260208201905092915050565b6000610be48261070f565b610bee8185610bc8565b9350610bfe81856020860161072b565b610c07816104d0565b840191505092915050565b60006060820190508181036000830152610c2c8186610bd9565b90508181036020830152610c408185610bd9565b90508181036040830152610c548184610bd9565b905094935050505056fea26469706673582212202db4e811368d53ec0ff77f4743a4c6a336de6840111be2ed239f61e49ba9c25c64736f6c63430008140033",
  "linkReferences": {},
  "deployedLinkReferences": {}
}