{
  "_format": "hh-sol-artifact-1",
  "contractName": "ConsultationContract",
  "sourceName": "contracts/ConsultationContract.sol",
  "abi": [
    {
      "anonymous": false,
      "inputs": [
        {
          "indexed": false,
          "internalType": "uint256",
          "name": "id",
          "type": "uint256"
        },
        {
          "indexed": false,
          "internalType": "string",
          "name": "doctorName",
          "type": "string"
        },
        {
          "indexed": false,
          "internalType": "string",
          "name": "patientName",
          "type": "string"
        }
      ],
      "name": "ConsultationStored",
      "type": "event"
    },
    {
      "inputs": [],
      "name": "consultationCount",
      "outputs": [
        {
          "internalType": "uint256",
          "name": "",
          "type": "uint256"
        }
      ],
      "stateMutability": "view",
      "type": "function"
    },
    {
      "inputs": [
        {
          "internalType": "uint256",
          "name": "",
          "type": "uint256"
        }
      ],
      "name": "consultations",
      "outputs": [
        {
          "internalType": "uint256",
          "name": "id",
          "type": "uint256"
        },
        {
          "internalType": "string",
          "name": "doctorName",
          "type": "string"
        },
        {
          "internalType": "string",
          "name": "patientName",
          "type": "string"
        },
        {
          "internalType": "string",
          "name": "specialty",
          "type": "string"
        },
        {
          "internalType": "string",
          "name": "consultationDate",
          "type": "string"
        },
        {
          "internalType": "string",
          "name": "consultationTime",
          "type": "string"
        }
      ],
      "stateMutability": "view",
      "type": "function"
    },
    {
      "inputs": [
        {
          "internalType": "string",
          "name": "_doctorName",
          "type": "string"
        },
        {
          "internalType": "string",
          "name": "_patientName",
          "type": "string"
        },
        {
          "internalType": "string",
          "name": "_specialty",
          "type": "string"
        },
        {
          "internalType": "string",
          "name": "_date",
          "type": "string"
        },
        {
          "internalType": "string",
          "name": "_time",
          "type": "string"
        }
      ],
      "name": "storeConsultation",
      "outputs": [],
      "stateMutability": "nonpayable",
      "type": "function"
    }
  ],
  "bytecode": "0x608060405234801561001057600080fd5b50610c7a806100206000396000f3fe608060405234801561001057600080fd5b50600436106100415760003560e01c8063097b39ac14610046578063593445461461007b578063c0f07fde14610097575b600080fd5b610060600480360381019061005b9190610503565b6100b5565b604051610072969594939291906105cf565b60405180910390f35b61009560048036038101906100909190610788565b610399565b005b61009f6104b3565b6040516100ac919061088f565b60405180910390f35b60006020528060005260406000206000915090508060000154908060010180546100de906108d9565b80601f016020809104026020016040519081016040528092919081815260200182805461010a906108d9565b80156101575780601f1061012c57610100808354040283529160200191610157565b820191906000526020600020905b81548152906001019060200180831161013a57829003601f168201915b50505050509080600201805461016c906108d9565b80601f0160208091040260200160405190810160405280929190818152602001828054610198906108d9565b80156101e55780601f106101ba576101008083540402835291602001916101e5565b820191906000526020600020905b8154815290600101906020018083116101c857829003601f168201915b5050505050908060030180546101fa906108d9565b80601f0160208091040260200160405190810160405280929190818152602001828054610226906108d9565b80156102735780601f1061024857610100808354040283529160200191610273565b820191906000526020600020905b81548152906001019060200180831161025657829003601f168201915b505050505090806004018054610288906108d9565b80601f01602080910402602001604051908101604052809291908181526020018280546102b4906108d9565b80156103015780601f106102d657610100808354040283529160200191610301565b820191906000526020600020905b8154815290600101906020018083116102e457829003601f168201915b505050505090806005018054610316906108d9565b80601f0160208091040260200160405190810160405280929190818152602001828054610342906108d9565b801561038f5780601f106103645761010080835404028352916020019161038f565b820191906000526020600020905b81548152906001019060200180831161037257829003601f168201915b5050505050905086565b600160008154809291906103ac90610939565b91905055506040518060c0016040528060015481526020018681526020018581526020018481526020018381526020018281525060008060015481526020019081526020016000206000820151816000015560208201518160010190816104139190610b2d565b5060408201518160020190816104299190610b2d565b50606082015181600301908161043f9190610b2d565b5060808201518160040190816104559190610b2d565b5060a082015181600501908161046b9190610b2d565b509050507f56cdb733513c9652a30300455f62c32e54b2e78563bbf333761008baf5884a3a60015486866040516104a493929190610bff565b60405180910390a15050505050565b60015481565b6000604051905090565b600080fd5b600080fd5b6000819050919050565b6104e0816104cd565b81146104eb57600080fd5b50565b6000813590506104fd816104d7565b92915050565b600060208284031215610519576105186104c3565b5b6000610527848285016104ee565b91505092915050565b610539816104cd565b82525050565b600081519050919050565b600082825260208201905092915050565b60005b8381101561057957808201518184015260208101905061055e565b60008484015250505050565b6000601f19601f8301169050919050565b60006105a18261053f565b6105ab818561054a565b93506105bb81856020860161055b565b6105c481610585565b840191505092915050565b600060c0820190506105e46000830189610530565b81810360208301526105f68188610596565b9050818103604083015261060a8187610596565b9050818103606083015261061e8186610596565b905081810360808301526106328185610596565b905081810360a08301526106468184610596565b9050979650505050505050565b600080fd5b600080fd5b7f4e487b7100000000000000000000000000000000000000000000000000000000600052604160045260246000fd5b61069582610585565b810181811067ffffffffffffffff821117156106b4576106b361065d565b5b80604052505050565b60006106c76104b9565b90506106d3828261068c565b919050565b600067ffffffffffffffff8211156106f3576106f261065d565b5b6106fc82610585565b9050602081019050919050565b82818337600083830152505050565b600061072b610726846106d8565b6106bd565b90508281526020810184848401111561074757610746610658565b5b610752848285610709565b509392505050565b600082601f83011261076f5761076e610653565b5b813561077f848260208601610718565b91505092915050565b600080600080600060a086880312156107a4576107a36104c3565b5b600086013567ffffffffffffffff8111156107c2576107c16104c8565b5b6107ce8882890161075a565b955050602086013567ffffffffffffffff8111156107ef576107ee6104c8565b5b6107fb8882890161075a565b945050604086013567ffffffffffffffff81111561081c5761081b6104c8565b5b6108288882890161075a565b935050606086013567ffffffffffffffff811115610849576108486104c8565b5b6108558882890161075a565b925050608086013567ffffffffffffffff811115610876576108756104c8565b5b6108828882890161075a565b9150509295509295909350565b60006020820190506108a46000830184610530565b92915050565b7f4e487b7100000000000000000000000000000000000000000000000000000000600052602260045260246000fd5b600060028204905060018216806108f157607f821691505b602082108103610904576109036108aa565b5b50919050565b7f4e487b7100000000000000000000000000000000000000000000000000000000600052601160045260246000fd5b6000610944826104cd565b91507fffffffffffffffffffffffffffffffffffffffffffffffffffffffffffffffff82036109765761097561090a565b5b600182019050919050565b60008190508160005260206000209050919050565b60006020601f8301049050919050565b600082821b905092915050565b6000600883026109e37fffffffffffffffffffffffffffffffffffffffffffffffffffffffffffffffff826109a6565b6109ed86836109a6565b95508019841693508086168417925050509392505050565b6000819050919050565b6000610a2a610a25610a20846104cd565b610a05565b6104cd565b9050919050565b6000819050919050565b610a4483610a0f565b610a58610a5082610a31565b8484546109b3565b825550505050565b600090565b610a6d610a60565b610a78818484610a3b565b505050565b5b81811015610a9c57610a91600082610a65565b600181019050610a7e565b5050565b601f821115610ae157610ab281610981565b610abb84610996565b81016020851015610aca578190505b610ade610ad685610996565b830182610a7d565b50505b505050565b600082821c905092915050565b6000610b0460001984600802610ae6565b1980831691505092915050565b6000610b1d8383610af3565b9150826002028217905092915050565b610b368261053f565b67ffffffffffffffff811115610b4f57610b4e61065d565b5b610b5982546108d9565b610b64828285610aa0565b600060209050601f831160018114610b975760008415610b85578287015190505b610b8f8582610b11565b865550610bf7565b601f198416610ba586610981565b60005b82811015610bcd57848901518255600182019150602085019450602081019050610ba8565b86831015610bea5784890151610be6601f891682610af3565b8355505b6001600288020188555050505b505050505050565b6000606082019050610c146000830186610530565b8181036020830152610c268185610596565b90508181036040830152610c3a8184610596565b905094935050505056fea264697066735822122011af2cddc1f69ef76e207eb55c9b44b98b3237cdfbbbb7f9faf367b36359e9f464736f6c63430008140033",
  "linkReferences": {},
  "deployedLinkReferences": {}
}