{
  "_format": "hh-sol-artifact-1",
  "contractName": "AppointmentBooking",
  "sourceName": "contracts/AppointmentBooking.sol",
  "abi": [
    {
      "anonymous": false,
      "inputs": [
        {
          "indexed": false,
          "internalType": "uint256",
          "name": "id",
          "type": "uint256"
        },
        {
          "indexed": false,
          "internalType": "string",
          "name": "name",
          "type": "string"
        },
        {
          "indexed": false,
          "internalType": "string",
          "name": "doctor",
          "type": "string"
        },
        {
          "indexed": false,
          "internalType": "string",
          "name": "date",
          "type": "string"
        },
        {
          "indexed": false,
          "internalType": "string",
          "name": "time",
          "type": "string"
        }
      ],
      "name": "AppointmentBooked",
      "type": "event"
    },
    {
      "anonymous": false,
      "inputs": [
        {
          "indexed": false,
          "internalType": "uint256",
          "name": "id",
          "type": "uint256"
        }
      ],
      "name": "AppointmentCancelled",
      "type": "event"
    },
    {
      "inputs": [],
      "name": "appointmentCount",
      "outputs": [
        {
          "internalType": "uint256",
          "name": "",
          "type": "uint256"
        }
      ],
      "stateMutability": "view",
      "type": "function"
    },
    {
      "inputs": [
        {
          "internalType": "uint256",
          "name": "",
          "type": "uint256"
        }
      ],
      "name": "appointments",
      "outputs": [
        {
          "internalType": "string",
          "name": "name",
          "type": "string"
        },
        {
          "internalType": "string",
          "name": "email",
          "type": "string"
        },
        {
          "internalType": "string",
          "name": "phone",
          "type": "string"
        },
        {
          "internalType": "string",
          "name": "doctor",
          "type": "string"
        },
        {
          "internalType": "string",
          "name": "date",
          "type": "string"
        },
        {
          "internalType": "string",
          "name": "time",
          "type": "string"
        },
        {
          "internalType": "bool",
          "name": "booked",
          "type": "bool"
        }
      ],
      "stateMutability": "view",
      "type": "function"
    },
    {
      "inputs": [
        {
          "internalType": "string",
          "name": "_name",
          "type": "string"
        },
        {
          "internalType": "string",
          "name": "_email",
          "type": "string"
        },
        {
          "internalType": "string",
          "name": "_phone",
          "type": "string"
        },
        {
          "internalType": "string",
          "name": "_doctor",
          "type": "string"
        },
        {
          "internalType": "string",
          "name": "_date",
          "type": "string"
        },
        {
          "internalType": "string",
          "name": "_time",
          "type": "string"
        }
      ],
      "name": "bookAppointment",
      "outputs": [],
      "stateMutability": "nonpayable",
      "type": "function"
    },
    {
      "inputs": [
        {
          "internalType": "uint256",
          "name": "_id",
          "type": "uint256"
        }
      ],
      "name": "cancelAppointment",
      "outputs": [],
      "stateMutability": "nonpayable",
      "type": "function"
    },
    {
      "inputs": [
        {
          "internalType": "uint256",
          "name": "_id",
          "type": "uint256"
        }
      ],
      "name": "getAppointment",
      "outputs": [
        {
          "components": [
            {
              "internalType": "string",
              "name": "name",
              "type": "string"
            },
            {
              "internalType": "string",
              "name": "email",
              "type": "string"
            },
            {
              "internalType": "string",
              "name": "phone",
              "type": "string"
            },
            {
              "internalType": "string",
              "name": "doctor",
              "type": "string"
            },
            {
              "internalType": "string",
              "name": "date",
              "type": "string"
            },
            {
              "internalType": "string",
              "name": "time",
              "type": "string"
            },
            {
              "internalType": "bool",
              "name": "booked",
              "type": "bool"
            }
          ],
          "internalType": "struct AppointmentBooking.Appointment",
          "name": "",
          "type": "tuple"
        }
      ],
      "stateMutability": "view",
      "type": "function"
    }
  ],
  "bytecode": "0x608060405234801561001057600080fd5b5061149a806100206000396000f3fe608060405234801561001057600080fd5b50600436106100575760003560e01c80630d943da21461005c57806312dc90131461008c578063a7e64405146100c2578063af3ed12d146100de578063eebc3fb2146100fa575b600080fd5b61007660048036038101906100719190610af5565b610118565b6040516100839190610c8c565b60405180910390f35b6100a660048036038101906100a19190610af5565b6104cb565b6040516100b99796959493929190610d07565b60405180910390f35b6100dc60048036038101906100d79190610af5565b61084a565b005b6100f860048036038101906100f39190610ed5565b610914565b005b610102610a66565b60405161010f9190611019565b60405180910390f35b610120610a6c565b6000808381526020019081526020016000206040518060e001604052908160008201805461014d90611063565b80601f016020809104026020016040519081016040528092919081815260200182805461017990611063565b80156101c65780601f1061019b576101008083540402835291602001916101c6565b820191906000526020600020905b8154815290600101906020018083116101a957829003601f168201915b505050505081526020016001820180546101df90611063565b80601f016020809104026020016040519081016040528092919081815260200182805461020b90611063565b80156102585780601f1061022d57610100808354040283529160200191610258565b820191906000526020600020905b81548152906001019060200180831161023b57829003601f168201915b5050505050815260200160028201805461027190611063565b80601f016020809104026020016040519081016040528092919081815260200182805461029d90611063565b80156102ea5780601f106102bf576101008083540402835291602001916102ea565b820191906000526020600020905b8154815290600101906020018083116102cd57829003601f168201915b5050505050815260200160038201805461030390611063565b80601f016020809104026020016040519081016040528092919081815260200182805461032f90611063565b801561037c5780601f106103515761010080835404028352916020019161037c565b820191906000526020600020905b81548152906001019060200180831161035f57829003601f168201915b5050505050815260200160048201805461039590611063565b80601f01602080910402602001604051908101604052809291908181526020018280546103c190611063565b801561040e5780601f106103e35761010080835404028352916020019161040e565b820191906000526020600020905b8154815290600101906020018083116103f157829003601f168201915b5050505050815260200160058201805461042790611063565b80601f016020809104026020016040519081016040528092919081815260200182805461045390611063565b80156104a05780601f10610475576101008083540402835291602001916104a0565b820191906000526020600020905b81548152906001019060200180831161048357829003601f168201915b505050505081526020016006820160009054906101000a900460ff1615151515815250509050919050565b60006020528060005260406000206000915090508060000180546104ee90611063565b80601f016020809104026020016040519081016040528092919081815260200182805461051a90611063565b80156105675780601f1061053c57610100808354040283529160200191610567565b820191906000526020600020905b81548152906001019060200180831161054a57829003601f168201915b50505050509080600101805461057c90611063565b80601f01602080910402602001604051908101604052809291908181526020018280546105a890611063565b80156105f55780601f106105ca576101008083540402835291602001916105f5565b820191906000526020600020905b8154815290600101906020018083116105d857829003601f168201915b50505050509080600201805461060a90611063565b80601f016020809104026020016040519081016040528092919081815260200182805461063690611063565b80156106835780601f1061065857610100808354040283529160200191610683565b820191906000526020600020905b81548152906001019060200180831161066657829003601f168201915b50505050509080600301805461069890611063565b80601f01602080910402602001604051908101604052809291908181526020018280546106c490611063565b80156107115780601f106106e657610100808354040283529160200191610711565b820191906000526020600020905b8154815290600101906020018083116106f457829003601f168201915b50505050509080600401805461072690611063565b80601f016020809104026020016040519081016040528092919081815260200182805461075290611063565b801561079f5780601f106107745761010080835404028352916020019161079f565b820191906000526020600020905b81548152906001019060200180831161078257829003601f168201915b5050505050908060050180546107b490611063565b80601f01602080910402602001604051908101604052809291908181526020018280546107e090611063565b801561082d5780601f106108025761010080835404028352916020019161082d565b820191906000526020600020905b81548152906001019060200180831161081057829003601f168201915b5050505050908060060160009054906101000a900460ff16905087565b60008082815260200190815260200160002060060160009054906101000a900460ff166108ac576040517f08c379a00000000000000000000000000000000000000000000000000000000081526004016108a3906110e0565b60405180910390fd5b600080600083815260200190815260200160002060060160006101000a81548160ff0219169083151502179055507f4b0e2b6047be1a990287b0818b6f06236be270f55a306ec58398d8b9aa7f6e73816040516109099190611019565b60405180910390a150565b600160008154809291906109279061112f565b91905055506040518060e00160405280878152602001868152602001858152602001848152602001838152602001828152602001600115158152506000806001548152602001908152602001600020600082015181600001908161098b9190611323565b5060208201518160010190816109a19190611323565b5060408201518160020190816109b79190611323565b5060608201518160030190816109cd9190611323565b5060808201518160040190816109e39190611323565b5060a08201518160050190816109f99190611323565b5060c08201518160060160006101000a81548160ff0219169083151502179055509050507fc4bdfb970ab924052cdce49187d5de5889e6f2bd12144ab95df10b38078151c560015487858585604051610a569594939291906113f5565b60405180910390a1505050505050565b60015481565b6040518060e001604052806060815260200160608152602001606081526020016060815260200160608152602001606081526020016000151581525090565b6000604051905090565b600080fd5b600080fd5b6000819050919050565b610ad281610abf565b8114610add57600080fd5b50565b600081359050610aef81610ac9565b92915050565b600060208284031215610b0b57610b0a610ab5565b5b6000610b1984828501610ae0565b91505092915050565b600081519050919050565b600082825260208201905092915050565b60005b83811015610b5c578082015181840152602081019050610b41565b60008484015250505050565b6000601f19601f8301169050919050565b6000610b8482610b22565b610b8e8185610b2d565b9350610b9e818560208601610b3e565b610ba781610b68565b840191505092915050565b60008115159050919050565b610bc781610bb2565b82525050565b600060e0830160008301518482036000860152610bea8282610b79565b91505060208301518482036020860152610c048282610b79565b91505060408301518482036040860152610c1e8282610b79565b91505060608301518482036060860152610c388282610b79565b91505060808301518482036080860152610c528282610b79565b91505060a083015184820360a0860152610c6c8282610b79565b91505060c0830151610c8160c0860182610bbe565b508091505092915050565b60006020820190508181036000830152610ca68184610bcd565b905092915050565b600082825260208201905092915050565b6000610cca82610b22565b610cd48185610cae565b9350610ce4818560208601610b3e565b610ced81610b68565b840191505092915050565b610d0181610bb2565b82525050565b600060e0820190508181036000830152610d21818a610cbf565b90508181036020830152610d358189610cbf565b90508181036040830152610d498188610cbf565b90508181036060830152610d5d8187610cbf565b90508181036080830152610d718186610cbf565b905081810360a0830152610d858185610cbf565b9050610d9460c0830184610cf8565b98975050505050505050565b600080fd5b600080fd5b7f4e487b7100000000000000000000000000000000000000000000000000000000600052604160045260246000fd5b610de282610b68565b810181811067ffffffffffffffff82111715610e0157610e00610daa565b5b80604052505050565b6000610e14610aab565b9050610e208282610dd9565b919050565b600067ffffffffffffffff821115610e4057610e3f610daa565b5b610e4982610b68565b9050602081019050919050565b82818337600083830152505050565b6000610e78610e7384610e25565b610e0a565b905082815260208101848484011115610e9457610e93610da5565b5b610e9f848285610e56565b509392505050565b600082601f830112610ebc57610ebb610da0565b5b8135610ecc848260208601610e65565b91505092915050565b60008060008060008060c08789031215610ef257610ef1610ab5565b5b600087013567ffffffffffffffff811115610f1057610f0f610aba565b5b610f1c89828a01610ea7565b965050602087013567ffffffffffffffff811115610f3d57610f3c610aba565b5b610f4989828a01610ea7565b955050604087013567ffffffffffffffff811115610f6a57610f69610aba565b5b610f7689828a01610ea7565b945050606087013567ffffffffffffffff811115610f9757610f96610aba565b5b610fa389828a01610ea7565b935050608087013567ffffffffffffffff811115610fc457610fc3610aba565b5b610fd089828a01610ea7565b92505060a087013567ffffffffffffffff811115610ff157610ff0610aba565b5b610ffd89828a01610ea7565b9150509295509295509295565b61101381610abf565b82525050565b600060208201905061102e600083018461100a565b92915050565b7f4e487b7100000000000000000000000000000000000000000000000000000000600052602260045260246000fd5b6000600282049050600182168061107b57607f821691505b60208210810361108e5761108d611034565b5b50919050565b7f4170706f696e746d656e74206e6f7420666f756e640000000000000000000000600082015250565b60006110ca601583610cae565b91506110d582611094565b602082019050919050565b600060208201905081810360008301526110f9816110bd565b9050919050565b7f4e487b7100000000000000000000000000000000000000000000000000000000600052601160045260246000fd5b600061113a82610abf565b91507fffffffffffffffffffffffffffffffffffffffffffffffffffffffffffffffff820361116c5761116b611100565b5b600182019050919050565b60008190508160005260206000209050919050565b60006020601f8301049050919050565b600082821b905092915050565b6000600883026111d97fffffffffffffffffffffffffffffffffffffffffffffffffffffffffffffffff8261119c565b6111e3868361119c565b95508019841693508086168417925050509392505050565b6000819050919050565b600061122061121b61121684610abf565b6111fb565b610abf565b9050919050565b6000819050919050565b61123a83611205565b61124e61124682611227565b8484546111a9565b825550505050565b600090565b611263611256565b61126e818484611231565b505050565b5b818110156112925761128760008261125b565b600181019050611274565b5050565b601f8211156112d7576112a881611177565b6112b18461118c565b810160208510156112c0578190505b6112d46112cc8561118c565b830182611273565b50505b505050565b600082821c905092915050565b60006112fa600019846008026112dc565b1980831691505092915050565b600061131383836112e9565b9150826002028217905092915050565b61132c82610b22565b67ffffffffffffffff81111561134557611344610daa565b5b61134f8254611063565b61135a828285611296565b600060209050601f83116001811461138d576000841561137b578287015190505b6113858582611307565b8655506113ed565b601f19841661139b86611177565b60005b828110156113c35784890151825560018201915060208501945060208101905061139e565b868310156113e057848901516113dc601f8916826112e9565b8355505b6001600288020188555050505b505050505050565b600060a08201905061140a600083018861100a565b818103602083015261141c8187610cbf565b905081810360408301526114308186610cbf565b905081810360608301526114448185610cbf565b905081810360808301526114588184610cbf565b9050969550505050505056fea2646970667358221220703964b2fd177ab9696aa5e03dd8b637a1764f8fabff993bbbd0fb3c193f15ba64736f6c63430008140033",
  "linkReferences": {},
  "deployedLinkReferences": {}
}