{"contracts/HealthRecordContract.sol":{"HealthRecordContract":{"abi":[{"anonymous":false,"inputs":[{"indexed":false,"internalType":"uint256","name":"id","type":"uint256"},{"indexed":false,"internalType":"string","name":"doctor","type":"string"},{"indexed":false,"internalType":"string","name":"diagnosis","type":"string"}],"name":"HealthRecordStored","type":"event"},{"inputs":[{"internalType":"uint256","name":"","type":"uint256"}],"name":"healthRecords","outputs":[{"internalType":"uint256","name":"id","type":"uint256"},{"internalType":"string","name":"date","type":"string"},{"internalType":"string","name":"doctor","type":"string"},{"internalType":"string","name":"diagnosis","type":"string"},{"internalType":"string","name":"prescription","type":"string"}],"stateMutability":"view","type":"function"},{"inputs":[],"name":"recordCount","outputs":[{"internalType":"uint256","name":"","type":"uint256"}],"stateMutability":"view","type":"function"},{"inputs":[{"internalType":"string","name":"_date","type":"string"},{"internalType":"string","name":"_doctor","type":"string"},{"internalType":"string","name":"_diagnosis","type":"string"},{"internalType":"string","name":"_prescription","type":"string"}],"name":"storeHealthRecord","outputs":[],"stateMutability":"nonpayable","type":"function"}],"evm":{"bytecode":{"linkReferences":{},"object":"608060405234801561001057600080fd5b50610b89806100206000396000f3fe608060405234801561001057600080fd5b50600436106100415760003560e01c8063118267f114610046578063900407bc14610062578063b665c0d314610080575b600080fd5b610060600480360381019061005b9190610567565b6100b4565b005b61006a6101b1565b6040516100779190610657565b60405180910390f35b61009a6004803603810190610095919061069e565b6101b7565b6040516100ab95949392919061074a565b60405180910390f35b600160008154809291906100c7906107e8565b91905055506040518060a0016040528060015481526020018581526020018481526020018381526020018281525060008060015481526020019081526020016000206000820151816000015560208201518160010190816101289190610a3c565b50604082015181600201908161013e9190610a3c565b5060608201518160030190816101549190610a3c565b50608082015181600401908161016a9190610a3c565b509050507f6fb7cee3b1a1364a0bda293044e0678ffcd573e4d83609f9651859a756f8f23760015484846040516101a393929190610b0e565b60405180910390a150505050565b60015481565b60006020528060005260406000206000915090508060000154908060010180546101e09061085f565b80601f016020809104026020016040519081016040528092919081815260200182805461020c9061085f565b80156102595780601f1061022e57610100808354040283529160200191610259565b820191906000526020600020905b81548152906001019060200180831161023c57829003601f168201915b50505050509080600201805461026e9061085f565b80601f016020809104026020016040519081016040528092919081815260200182805461029a9061085f565b80156102e75780601f106102bc576101008083540402835291602001916102e7565b820191906000526020600020905b8154815290600101906020018083116102ca57829003601f168201915b5050505050908060030180546102fc9061085f565b80601f01602080910402602001604051908101604052809291908181526020018280546103289061085f565b80156103755780601f1061034a57610100808354040283529160200191610375565b820191906000526020600020905b81548152906001019060200180831161035857829003601f168201915b50505050509080600401805461038a9061085f565b80601f01602080910402602001604051908101604052809291908181526020018280546103b69061085f565b80156104035780601f106103d857610100808354040283529160200191610403565b820191906000526020600020905b8154815290600101906020018083116103e657829003601f168201915b5050505050905085565b6000604051905090565b600080fd5b600080fd5b600080fd5b600080fd5b6000601f19601f8301169050919050565b7f4e487b7100000000000000000000000000000000000000000000000000000000600052604160045260246000fd5b6104748261042b565b810181811067ffffffffffffffff821117156104935761049261043c565b5b80604052505050565b60006104a661040d565b90506104b2828261046b565b919050565b600067ffffffffffffffff8211156104d2576104d161043c565b5b6104db8261042b565b9050602081019050919050565b82818337600083830152505050565b600061050a610505846104b7565b61049c565b90508281526020810184848401111561052657610525610426565b5b6105318482856104e8565b509392505050565b600082601f83011261054e5761054d610421565b5b813561055e8482602086016104f7565b91505092915050565b6000806000806080858703121561058157610580610417565b5b600085013567ffffffffffffffff81111561059f5761059e61041c565b5b6105ab87828801610539565b945050602085013567ffffffffffffffff8111156105cc576105cb61041c565b5b6105d887828801610539565b935050604085013567ffffffffffffffff8111156105f9576105f861041c565b5b61060587828801610539565b925050606085013567ffffffffffffffff8111156106265761062561041c565b5b61063287828801610539565b91505092959194509250565b6000819050919050565b6106518161063e565b82525050565b600060208201905061066c6000830184610648565b92915050565b61067b8161063e565b811461068657600080fd5b50565b60008135905061069881610672565b92915050565b6000602082840312156106b4576106b3610417565b5b60006106c284828501610689565b91505092915050565b600081519050919050565b600082825260208201905092915050565b60005b838110156107055780820151818401526020810190506106ea565b60008484015250505050565b600061071c826106cb565b61072681856106d6565b93506107368185602086016106e7565b61073f8161042b565b840191505092915050565b600060a08201905061075f6000830188610648565b81810360208301526107718187610711565b905081810360408301526107858186610711565b905081810360608301526107998185610711565b905081810360808301526107ad8184610711565b90509695505050505050565b7f4e487b7100000000000000000000000000000000000000000000000000000000600052601160045260246000fd5b60006107f38261063e565b91507fffffffffffffffffffffffffffffffffffffffffffffffffffffffffffffffff8203610825576108246107b9565b5b600182019050919050565b7f4e487b7100000000000000000000000000000000000000000000000000000000600052602260045260246000fd5b6000600282049050600182168061087757607f821691505b60208210810361088a57610889610830565b5b50919050565b60008190508160005260206000209050919050565b60006020601f8301049050919050565b600082821b905092915050565b6000600883026108f27fffffffffffffffffffffffffffffffffffffffffffffffffffffffffffffffff826108b5565b6108fc86836108b5565b95508019841693508086168417925050509392505050565b6000819050919050565b600061093961093461092f8461063e565b610914565b61063e565b9050919050565b6000819050919050565b6109538361091e565b61096761095f82610940565b8484546108c2565b825550505050565b600090565b61097c61096f565b61098781848461094a565b505050565b5b818110156109ab576109a0600082610974565b60018101905061098d565b5050565b601f8211156109f0576109c181610890565b6109ca846108a5565b810160208510156109d9578190505b6109ed6109e5856108a5565b83018261098c565b50505b505050565b600082821c905092915050565b6000610a13600019846008026109f5565b1980831691505092915050565b6000610a2c8383610a02565b9150826002028217905092915050565b610a45826106cb565b67ffffffffffffffff811115610a5e57610a5d61043c565b5b610a68825461085f565b610a738282856109af565b600060209050601f831160018114610aa65760008415610a94578287015190505b610a9e8582610a20565b865550610b06565b601f198416610ab486610890565b60005b82811015610adc57848901518255600182019150602085019450602081019050610ab7565b86831015610af95784890151610af5601f891682610a02565b8355505b6001600288020188555050505b505050505050565b6000606082019050610b236000830186610648565b8181036020830152610b358185610711565b90508181036040830152610b498184610711565b905094935050505056fea2646970667358221220f005ae06dfb1c171f3458a6002855761907d1d217f8e24690fb78686d57fd58564736f6c63430008140033","opcodes":"PUSH1 0x80 PUSH1 0x40 MSTORE CALLVALUE DUP1 ISZERO PUSH2 0x10 JUMPI PUSH1 0x0 DUP1 REVERT JUMPDEST POP PUSH2 0xB89 DUP1 PUSH2 0x20 PUSH1 0x0 CODECOPY PUSH1 0x0 RETURN INVALID PUSH1 0x80 PUSH1 0x40 MSTORE CALLVALUE DUP1 ISZERO PUSH2 0x10 JUMPI PUSH1 0x0 DUP1 REVERT JUMPDEST POP PUSH1 0x4 CALLDATASIZE LT PUSH2 0x41 JUMPI PUSH1 0x0 CALLDATALOAD PUSH1 0xE0 SHR DUP1 PUSH4 0x118267F1 EQ PUSH2 0x46 JUMPI DUP1 PUSH4 0x900407BC EQ PUSH2 0x62 JUMPI DUP1 PUSH4 0xB665C0D3 EQ PUSH2 0x80 JUMPI JUMPDEST PUSH1 0x0 DUP1 REVERT JUMPDEST PUSH2 0x60 PUSH1 0x4 DUP1 CALLDATASIZE SUB DUP2 ADD SWAP1 PUSH2 0x5B SWAP2 SWAP1 PUSH2 0x567 JUMP JUMPDEST PUSH2 0xB4 JUMP JUMPDEST STOP JUMPDEST PUSH2 0x6A PUSH2 0x1B1 JUMP JUMPDEST PUSH1 0x40 MLOAD PUSH2 0x77 SWAP2 SWAP1 PUSH2 0x657 JUMP JUMPDEST PUSH1 0x40 MLOAD DUP1 SWAP2 SUB SWAP1 RETURN JUMPDEST PUSH2 0x9A PUSH1 0x4 DUP1 CALLDATASIZE SUB DUP2 ADD SWAP1 PUSH2 0x95 SWAP2 SWAP1 PUSH2 0x69E JUMP JUMPDEST PUSH2 0x1B7 JUMP JUMPDEST PUSH1 0x40 MLOAD PUSH2 0xAB SWAP6 SWAP5 SWAP4 SWAP3 SWAP2 SWAP1 PUSH2 0x74A JUMP JUMPDEST PUSH1 0x40 MLOAD DUP1 SWAP2 SUB SWAP1 RETURN JUMPDEST PUSH1 0x1 PUSH1 0x0 DUP2 SLOAD DUP1 SWAP3 SWAP2 SWAP1 PUSH2 0xC7 SWAP1 PUSH2 0x7E8 JUMP JUMPDEST SWAP2 SWAP1 POP SSTORE POP PUSH1 0x40 MLOAD DUP1 PUSH1 0xA0 ADD PUSH1 0x40 MSTORE DUP1 PUSH1 0x1 SLOAD DUP2 MSTORE PUSH1 0x20 ADD DUP6 DUP2 MSTORE PUSH1 0x20 ADD DUP5 DUP2 MSTORE PUSH1 0x20 ADD DUP4 DUP2 MSTORE PUSH1 0x20 ADD DUP3 DUP2 MSTORE POP PUSH1 0x0 DUP1 PUSH1 0x1 SLOAD DUP2 MSTORE PUSH1 0x20 ADD SWAP1 DUP2 MSTORE PUSH1 0x20 ADD PUSH1 0x0 KECCAK256 PUSH1 0x0 DUP3 ADD MLOAD DUP2 PUSH1 0x0 ADD SSTORE PUSH1 0x20 DUP3 ADD MLOAD DUP2 PUSH1 0x1 ADD SWAP1 DUP2 PUSH2 0x128 SWAP2 SWAP1 PUSH2 0xA3C JUMP JUMPDEST POP PUSH1 0x40 DUP3 ADD MLOAD DUP2 PUSH1 0x2 ADD SWAP1 DUP2 PUSH2 0x13E SWAP2 SWAP1 PUSH2 0xA3C JUMP JUMPDEST POP PUSH1 0x60 DUP3 ADD MLOAD DUP2 PUSH1 0x3 ADD SWAP1 DUP2 PUSH2 0x154 SWAP2 SWAP1 PUSH2 0xA3C JUMP JUMPDEST POP PUSH1 0x80 DUP3 ADD MLOAD DUP2 PUSH1 0x4 ADD SWAP1 DUP2 PUSH2 0x16A SWAP2 SWAP1 PUSH2 0xA3C JUMP JUMPDEST POP SWAP1 POP POP PUSH32 0x6FB7CEE3B1A1364A0BDA293044E0678FFCD573E4D83609F9651859A756F8F237 PUSH1 0x1 SLOAD DUP5 DUP5 PUSH1 0x40 MLOAD PUSH2 0x1A3 SWAP4 SWAP3 SWAP2 SWAP1 PUSH2 0xB0E JUMP JUMPDEST PUSH1 0x40 MLOAD DUP1 SWAP2 SUB SWAP1 LOG1 POP POP POP POP JUMP JUMPDEST PUSH1 0x1 SLOAD DUP2 JUMP JUMPDEST PUSH1 0x0 PUSH1 0x20 MSTORE DUP1 PUSH1 0x0 MSTORE PUSH1 0x40 PUSH1 0x0 KECCAK256 PUSH1 0x0 SWAP2 POP SWAP1 POP DUP1 PUSH1 0x0 ADD SLOAD SWAP1 DUP1 PUSH1 0x1 ADD DUP1 SLOAD PUSH2 0x1E0 SWAP1 PUSH2 0x85F JUMP JUMPDEST DUP1 PUSH1 0x1F ADD PUSH1 0x20 DUP1 SWAP2 DIV MUL PUSH1 0x20 ADD PUSH1 0x40 MLOAD SWAP1 DUP2 ADD PUSH1 0x40 MSTORE DUP1 SWAP3 SWAP2 SWAP1 DUP2 DUP2 MSTORE PUSH1 0x20 ADD DUP3 DUP1 SLOAD PUSH2 0x20C SWAP1 PUSH2 0x85F JUMP JUMPDEST DUP1 ISZERO PUSH2 0x259 JUMPI DUP1 PUSH1 0x1F LT PUSH2 0x22E JUMPI PUSH2 0x100 DUP1 DUP4 SLOAD DIV MUL DUP4 MSTORE SWAP2 PUSH1 0x20 ADD SWAP2 PUSH2 0x259 JUMP JUMPDEST DUP3 ADD SWAP2 SWAP1 PUSH1 0x0 MSTORE PUSH1 0x20 PUSH1 0x0 KECCAK256 SWAP1 JUMPDEST DUP2 SLOAD DUP2 MSTORE SWAP1 PUSH1 0x1 ADD SWAP1 PUSH1 0x20 ADD DUP1 DUP4 GT PUSH2 0x23C JUMPI DUP3 SWAP1 SUB PUSH1 0x1F AND DUP3 ADD SWAP2 JUMPDEST POP POP POP POP POP SWAP1 DUP1 PUSH1 0x2 ADD DUP1 SLOAD PUSH2 0x26E SWAP1 PUSH2 0x85F JUMP JUMPDEST DUP1 PUSH1 0x1F ADD PUSH1 0x20 DUP1 SWAP2 DIV MUL PUSH1 0x20 ADD PUSH1 0x40 MLOAD SWAP1 DUP2 ADD PUSH1 0x40 MSTORE DUP1 SWAP3 SWAP2 SWAP1 DUP2 DUP2 MSTORE PUSH1 0x20 ADD DUP3 DUP1 SLOAD PUSH2 0x29A SWAP1 PUSH2 0x85F JUMP JUMPDEST DUP1 ISZERO PUSH2 0x2E7 JUMPI DUP1 PUSH1 0x1F LT PUSH2 0x2BC JUMPI PUSH2 0x100 DUP1 DUP4 SLOAD DIV MUL DUP4 MSTORE SWAP2 PUSH1 0x20 ADD SWAP2 PUSH2 0x2E7 JUMP JUMPDEST DUP3 ADD SWAP2 SWAP1 PUSH1 0x0 MSTORE PUSH1 0x20 PUSH1 0x0 KECCAK256 SWAP1 JUMPDEST DUP2 SLOAD DUP2 MSTORE SWAP1 PUSH1 0x1 ADD SWAP1 PUSH1 0x20 ADD DUP1 DUP4 GT PUSH2 0x2CA JUMPI DUP3 SWAP1 SUB PUSH1 0x1F AND DUP3 ADD SWAP2 JUMPDEST POP POP POP POP POP SWAP1 DUP1 PUSH1 0x3 ADD DUP1 SLOAD PUSH2 0x2FC SWAP1 PUSH2 0x85F JUMP JUMPDEST DUP1 PUSH1 0x1F ADD PUSH1 0x20 DUP1 SWAP2 DIV MUL PUSH1 0x20 ADD PUSH1 0x40 MLOAD SWAP1 DUP2 ADD PUSH1 0x40 MSTORE DUP1 SWAP3 SWAP2 SWAP1 DUP2 DUP2 MSTORE PUSH1 0x20 ADD DUP3 DUP1 SLOAD PUSH2 0x328 SWAP1 PUSH2 0x85F JUMP JUMPDEST DUP1 ISZERO PUSH2 0x375 JUMPI DUP1 PUSH1 0x1F LT PUSH2 0x34A JUMPI PUSH2 0x100 DUP1 DUP4 SLOAD DIV MUL DUP4 MSTORE SWAP2 PUSH1 0x20 ADD SWAP2 PUSH2 0x375 JUMP JUMPDEST DUP3 ADD SWAP2 SWAP1 PUSH1 0x0 MSTORE PUSH1 0x20 PUSH1 0x0 KECCAK256 SWAP1 JUMPDEST DUP2 SLOAD DUP2 MSTORE SWAP1 PUSH1 0x1 ADD SWAP1 PUSH1 0x20 ADD DUP1 DUP4 GT PUSH2 0x358 JUMPI DUP3 SWAP1 SUB PUSH1 0x1F AND DUP3 ADD SWAP2 JUMPDEST POP POP POP POP POP SWAP1 DUP1 PUSH1 0x4 ADD DUP1 SLOAD PUSH2 0x38A SWAP1 PUSH2 0x85F JUMP JUMPDEST DUP1 PUSH1 0x1F ADD PUSH1 0x20 DUP1 SWAP2 DIV MUL PUSH1 0x20 ADD PUSH1 0x40 MLOAD SWAP1 DUP2 ADD PUSH1 0x40 MSTORE DUP1 SWAP3 SWAP2 SWAP1 DUP2 DUP2 MSTORE PUSH1 0x20 ADD DUP3 DUP1 SLOAD PUSH2 0x3B6 SWAP1 PUSH2 0x85F JUMP JUMPDEST DUP1 ISZERO PUSH2 0x403 JUMPI DUP1 PUSH1 0x1F LT PUSH2 0x3D8 JUMPI PUSH2 0x100 DUP1 DUP4 SLOAD DIV MUL DUP4 MSTORE SWAP2 PUSH1 0x20 ADD SWAP2 PUSH2 0x403 JUMP JUMPDEST DUP3 ADD SWAP2 SWAP1 PUSH1 0x0 MSTORE PUSH1 0x20 PUSH1 0x0 KECCAK256 SWAP1 JUMPDEST DUP2 SLOAD DUP2 MSTORE SWAP1 PUSH1 0x1 ADD SWAP1 PUSH1 0x20 ADD DUP1 DUP4 GT PUSH2 0x3E6 JUMPI DUP3 SWAP1 SUB PUSH1 0x1F AND DUP3 ADD SWAP2 JUMPDEST POP POP POP POP POP SWAP1 POP DUP6 JUMP JUMPDEST PUSH1 0x0 PUSH1 0x40 MLOAD SWAP1 POP SWAP1 JUMP JUMPDEST PUSH1 0x0 DUP1 REVERT JUMPDEST PUSH1 0x0 DUP1 REVERT JUMPDEST PUSH1 0x0 DUP1 REVERT JUMPDEST PUSH1 0x0 DUP1 REVERT JUMPDEST PUSH1 0x0 PUSH1 0x1F NOT PUSH1 0x1F DUP4 ADD AND SWAP1 POP SWAP2 SWAP1 POP JUMP JUMPDEST PUSH32 0x4E487B7100000000000000000000000000000000000000000000000000000000 PUSH1 0x0 MSTORE PUSH1 0x41 PUSH1 0x4 MSTORE PUSH1 0x24 PUSH1 0x0 REVERT JUMPDEST PUSH2 0x474 DUP3 PUSH2 0x42B JUMP JUMPDEST DUP2 ADD DUP2 DUP2 LT PUSH8 0xFFFFFFFFFFFFFFFF DUP3 GT OR ISZERO PUSH2 0x493 JUMPI PUSH2 0x492 PUSH2 0x43C JUMP JUMPDEST JUMPDEST DUP1 PUSH1 0x40 MSTORE POP POP POP JUMP JUMPDEST PUSH1 0x0 PUSH2 0x4A6 PUSH2 0x40D JUMP JUMPDEST SWAP1 POP PUSH2 0x4B2 DUP3 DUP3 PUSH2 0x46B JUMP JUMPDEST SWAP2 SWAP1 POP JUMP JUMPDEST PUSH1 0x0 PUSH8 0xFFFFFFFFFFFFFFFF DUP3 GT ISZERO PUSH2 0x4D2 JUMPI PUSH2 0x4D1 PUSH2 0x43C JUMP JUMPDEST JUMPDEST PUSH2 0x4DB DUP3 PUSH2 0x42B JUMP JUMPDEST SWAP1 POP PUSH1 0x20 DUP2 ADD SWAP1 POP SWAP2 SWAP1 POP JUMP JUMPDEST DUP3 DUP2 DUP4 CALLDATACOPY PUSH1 0x0 DUP4 DUP4 ADD MSTORE POP POP POP JUMP JUMPDEST PUSH1 0x0 PUSH2 0x50A PUSH2 0x505 DUP5 PUSH2 0x4B7 JUMP JUMPDEST PUSH2 0x49C JUMP JUMPDEST SWAP1 POP DUP3 DUP2 MSTORE PUSH1 0x20 DUP2 ADD DUP5 DUP5 DUP5 ADD GT ISZERO PUSH2 0x526 JUMPI PUSH2 0x525 PUSH2 0x426 JUMP JUMPDEST JUMPDEST PUSH2 0x531 DUP5 DUP3 DUP6 PUSH2 0x4E8 JUMP JUMPDEST POP SWAP4 SWAP3 POP POP POP JUMP JUMPDEST PUSH1 0x0 DUP3 PUSH1 0x1F DUP4 ADD SLT PUSH2 0x54E JUMPI PUSH2 0x54D PUSH2 0x421 JUMP JUMPDEST JUMPDEST DUP2 CALLDATALOAD PUSH2 0x55E DUP5 DUP3 PUSH1 0x20 DUP7 ADD PUSH2 0x4F7 JUMP JUMPDEST SWAP2 POP POP SWAP3 SWAP2 POP POP JUMP JUMPDEST PUSH1 0x0 DUP1 PUSH1 0x0 DUP1 PUSH1 0x80 DUP6 DUP8 SUB SLT ISZERO PUSH2 0x581 JUMPI PUSH2 0x580 PUSH2 0x417 JUMP JUMPDEST JUMPDEST PUSH1 0x0 DUP6 ADD CALLDATALOAD PUSH8 0xFFFFFFFFFFFFFFFF DUP2 GT ISZERO PUSH2 0x59F JUMPI PUSH2 0x59E PUSH2 0x41C JUMP JUMPDEST JUMPDEST PUSH2 0x5AB DUP8 DUP3 DUP9 ADD PUSH2 0x539 JUMP JUMPDEST SWAP5 POP POP PUSH1 0x20 DUP6 ADD CALLDATALOAD PUSH8 0xFFFFFFFFFFFFFFFF DUP2 GT ISZERO PUSH2 0x5CC JUMPI PUSH2 0x5CB PUSH2 0x41C JUMP JUMPDEST JUMPDEST PUSH2 0x5D8 DUP8 DUP3 DUP9 ADD PUSH2 0x539 JUMP JUMPDEST SWAP4 POP POP PUSH1 0x40 DUP6 ADD CALLDATALOAD PUSH8 0xFFFFFFFFFFFFFFFF DUP2 GT ISZERO PUSH2 0x5F9 JUMPI PUSH2 0x5F8 PUSH2 0x41C JUMP JUMPDEST JUMPDEST PUSH2 0x605 DUP8 DUP3 DUP9 ADD PUSH2 0x539 JUMP JUMPDEST SWAP3 POP POP PUSH1 0x60 DUP6 ADD CALLDATALOAD PUSH8 0xFFFFFFFFFFFFFFFF DUP2 GT ISZERO PUSH2 0x626 JUMPI PUSH2 0x625 PUSH2 0x41C JUMP JUMPDEST JUMPDEST PUSH2 0x632 DUP8 DUP3 DUP9 ADD PUSH2 0x539 JUMP JUMPDEST SWAP2 POP POP SWAP3 SWAP6 SWAP2 SWAP5 POP SWAP3 POP JUMP JUMPDEST PUSH1 0x0 DUP2 SWAP1 POP SWAP2 SWAP1 POP JUMP JUMPDEST PUSH2 0x651 DUP2 PUSH2 0x63E JUMP JUMPDEST DUP3 MSTORE POP POP JUMP JUMPDEST PUSH1 0x0 PUSH1 0x20 DUP3 ADD SWAP1 POP PUSH2 0x66C PUSH1 0x0 DUP4 ADD DUP5 PUSH2 0x648 JUMP JUMPDEST SWAP3 SWAP2 POP POP JUMP JUMPDEST PUSH2 0x67B DUP2 PUSH2 0x63E JUMP JUMPDEST DUP2 EQ PUSH2 0x686 JUMPI PUSH1 0x0 DUP1 REVERT JUMPDEST POP JUMP JUMPDEST PUSH1 0x0 DUP2 CALLDATALOAD SWAP1 POP PUSH2 0x698 DUP2 PUSH2 0x672 JUMP JUMPDEST SWAP3 SWAP2 POP POP JUMP JUMPDEST PUSH1 0x0 PUSH1 0x20 DUP3 DUP5 SUB SLT ISZERO PUSH2 0x6B4 JUMPI PUSH2 0x6B3 PUSH2 0x417 JUMP JUMPDEST JUMPDEST PUSH1 0x0 PUSH2 0x6C2 DUP5 DUP3 DUP6 ADD PUSH2 0x689 JUMP JUMPDEST SWAP2 POP POP SWAP3 SWAP2 POP POP JUMP JUMPDEST PUSH1 0x0 DUP2 MLOAD SWAP1 POP SWAP2 SWAP1 POP JUMP JUMPDEST PUSH1 0x0 DUP3 DUP3 MSTORE PUSH1 0x20 DUP3 ADD SWAP1 POP SWAP3 SWAP2 POP POP JUMP JUMPDEST PUSH1 0x0 JUMPDEST DUP4 DUP2 LT ISZERO PUSH2 0x705 JUMPI DUP1 DUP3 ADD MLOAD DUP2 DUP5 ADD MSTORE PUSH1 0x20 DUP2 ADD SWAP1 POP PUSH2 0x6EA JUMP JUMPDEST PUSH1 0x0 DUP5 DUP5 ADD MSTORE POP POP POP POP JUMP JUMPDEST PUSH1 0x0 PUSH2 0x71C DUP3 PUSH2 0x6CB JUMP JUMPDEST PUSH2 0x726 DUP2 DUP6 PUSH2 0x6D6 JUMP JUMPDEST SWAP4 POP PUSH2 0x736 DUP2 DUP6 PUSH1 0x20 DUP7 ADD PUSH2 0x6E7 JUMP JUMPDEST PUSH2 0x73F DUP2 PUSH2 0x42B JUMP JUMPDEST DUP5 ADD SWAP2 POP POP SWAP3 SWAP2 POP POP JUMP JUMPDEST PUSH1 0x0 PUSH1 0xA0 DUP3 ADD SWAP1 POP PUSH2 0x75F PUSH1 0x0 DUP4 ADD DUP9 PUSH2 0x648 JUMP JUMPDEST DUP2 DUP2 SUB PUSH1 0x20 DUP4 ADD MSTORE PUSH2 0x771 DUP2 DUP8 PUSH2 0x711 JUMP JUMPDEST SWAP1 POP DUP2 DUP2 SUB PUSH1 0x40 DUP4 ADD MSTORE PUSH2 0x785 DUP2 DUP7 PUSH2 0x711 JUMP JUMPDEST SWAP1 POP DUP2 DUP2 SUB PUSH1 0x60 DUP4 ADD MSTORE PUSH2 0x799 DUP2 DUP6 PUSH2 0x711 JUMP JUMPDEST SWAP1 POP DUP2 DUP2 SUB PUSH1 0x80 DUP4 ADD MSTORE PUSH2 0x7AD DUP2 DUP5 PUSH2 0x711 JUMP JUMPDEST SWAP1 POP SWAP7 SWAP6 POP POP POP POP POP POP JUMP JUMPDEST PUSH32 0x4E487B7100000000000000000000000000000000000000000000000000000000 PUSH1 0x0 MSTORE PUSH1 0x11 PUSH1 0x4 MSTORE PUSH1 0x24 PUSH1 0x0 REVERT JUMPDEST PUSH1 0x0 PUSH2 0x7F3 DUP3 PUSH2 0x63E JUMP JUMPDEST SWAP2 POP PUSH32 0xFFFFFFFFFFFFFFFFFFFFFFFFFFFFFFFFFFFFFFFFFFFFFFFFFFFFFFFFFFFFFFFF DUP3 SUB PUSH2 0x825 JUMPI PUSH2 0x824 PUSH2 0x7B9 JUMP JUMPDEST JUMPDEST PUSH1 0x1 DUP3 ADD SWAP1 POP SWAP2 SWAP1 POP JUMP JUMPDEST PUSH32 0x4E487B7100000000000000000000000000000000000000000000000000000000 PUSH1 0x0 MSTORE PUSH1 0x22 PUSH1 0x4 MSTORE PUSH1 0x24 PUSH1 0x0 REVERT JUMPDEST PUSH1 0x0 PUSH1 0x2 DUP3 DIV SWAP1 POP PUSH1 0x1 DUP3 AND DUP1 PUSH2 0x877 JUMPI PUSH1 0x7F DUP3 AND SWAP2 POP JUMPDEST PUSH1 0x20 DUP3 LT DUP2 SUB PUSH2 0x88A JUMPI PUSH2 0x889 PUSH2 0x830 JUMP JUMPDEST JUMPDEST POP SWAP2 SWAP1 POP JUMP JUMPDEST PUSH1 0x0 DUP2 SWAP1 POP DUP2 PUSH1 0x0 MSTORE PUSH1 0x20 PUSH1 0x0 KECCAK256 SWAP1 POP SWAP2 SWAP1 POP JUMP JUMPDEST PUSH1 0x0 PUSH1 0x20 PUSH1 0x1F DUP4 ADD DIV SWAP1 POP SWAP2 SWAP1 POP JUMP JUMPDEST PUSH1 0x0 DUP3 DUP3 SHL SWAP1 POP SWAP3 SWAP2 POP POP JUMP JUMPDEST PUSH1 0x0 PUSH1 0x8 DUP4 MUL PUSH2 0x8F2 PUSH32 0xFFFFFFFFFFFFFFFFFFFFFFFFFFFFFFFFFFFFFFFFFFFFFFFFFFFFFFFFFFFFFFFF DUP3 PUSH2 0x8B5 JUMP JUMPDEST PUSH2 0x8FC DUP7 DUP4 PUSH2 0x8B5 JUMP JUMPDEST SWAP6 POP DUP1 NOT DUP5 AND SWAP4 POP DUP1 DUP7 AND DUP5 OR SWAP3 POP POP POP SWAP4 SWAP3 POP POP POP JUMP JUMPDEST PUSH1 0x0 DUP2 SWAP1 POP SWAP2 SWAP1 POP JUMP JUMPDEST PUSH1 0x0 PUSH2 0x939 PUSH2 0x934 PUSH2 0x92F DUP5 PUSH2 0x63E JUMP JUMPDEST PUSH2 0x914 JUMP JUMPDEST PUSH2 0x63E JUMP JUMPDEST SWAP1 POP SWAP2 SWAP1 POP JUMP JUMPDEST PUSH1 0x0 DUP2 SWAP1 POP SWAP2 SWAP1 POP JUMP JUMPDEST PUSH2 0x953 DUP4 PUSH2 0x91E JUMP JUMPDEST PUSH2 0x967 PUSH2 0x95F DUP3 PUSH2 0x940 JUMP JUMPDEST DUP5 DUP5 SLOAD PUSH2 0x8C2 JUMP JUMPDEST DUP3 SSTORE POP POP POP POP JUMP JUMPDEST PUSH1 0x0 SWAP1 JUMP JUMPDEST PUSH2 0x97C PUSH2 0x96F JUMP JUMPDEST PUSH2 0x987 DUP2 DUP5 DUP5 PUSH2 0x94A JUMP JUMPDEST POP POP POP JUMP JUMPDEST JUMPDEST DUP2 DUP2 LT ISZERO PUSH2 0x9AB JUMPI PUSH2 0x9A0 PUSH1 0x0 DUP3 PUSH2 0x974 JUMP JUMPDEST PUSH1 0x1 DUP2 ADD SWAP1 POP PUSH2 0x98D JUMP JUMPDEST POP POP JUMP JUMPDEST PUSH1 0x1F DUP3 GT ISZERO PUSH2 0x9F0 JUMPI PUSH2 0x9C1 DUP2 PUSH2 0x890 JUMP JUMPDEST PUSH2 0x9CA DUP5 PUSH2 0x8A5 JUMP JUMPDEST DUP2 ADD PUSH1 0x20 DUP6 LT ISZERO PUSH2 0x9D9 JUMPI DUP2 SWAP1 POP JUMPDEST PUSH2 0x9ED PUSH2 0x9E5 DUP6 PUSH2 0x8A5 JUMP JUMPDEST DUP4 ADD DUP3 PUSH2 0x98C JUMP JUMPDEST POP POP JUMPDEST POP POP POP JUMP JUMPDEST PUSH1 0x0 DUP3 DUP3 SHR SWAP1 POP SWAP3 SWAP2 POP POP JUMP JUMPDEST PUSH1 0x0 PUSH2 0xA13 PUSH1 0x0 NOT DUP5 PUSH1 0x8 MUL PUSH2 0x9F5 JUMP JUMPDEST NOT DUP1 DUP4 AND SWAP2 POP POP SWAP3 SWAP2 POP POP JUMP JUMPDEST PUSH1 0x0 PUSH2 0xA2C DUP4 DUP4 PUSH2 0xA02 JUMP JUMPDEST SWAP2 POP DUP3 PUSH1 0x2 MUL DUP3 OR SWAP1 POP SWAP3 SWAP2 POP POP JUMP JUMPDEST PUSH2 0xA45 DUP3 PUSH2 0x6CB JUMP JUMPDEST PUSH8 0xFFFFFFFFFFFFFFFF DUP2 GT ISZERO PUSH2 0xA5E JUMPI PUSH2 0xA5D PUSH2 0x43C JUMP JUMPDEST JUMPDEST PUSH2 0xA68 DUP3 SLOAD PUSH2 0x85F JUMP JUMPDEST PUSH2 0xA73 DUP3 DUP3 DUP6 PUSH2 0x9AF JUMP JUMPDEST PUSH1 0x0 PUSH1 0x20 SWAP1 POP PUSH1 0x1F DUP4 GT PUSH1 0x1 DUP2 EQ PUSH2 0xAA6 JUMPI PUSH1 0x0 DUP5 ISZERO PUSH2 0xA94 JUMPI DUP3 DUP8 ADD MLOAD SWAP1 POP JUMPDEST PUSH2 0xA9E DUP6 DUP3 PUSH2 0xA20 JUMP JUMPDEST DUP7 SSTORE POP PUSH2 0xB06 JUMP JUMPDEST PUSH1 0x1F NOT DUP5 AND PUSH2 0xAB4 DUP7 PUSH2 0x890 JUMP JUMPDEST PUSH1 0x0 JUMPDEST DUP3 DUP2 LT ISZERO PUSH2 0xADC JUMPI DUP5 DUP10 ADD MLOAD DUP3 SSTORE PUSH1 0x1 DUP3 ADD SWAP2 POP PUSH1 0x20 DUP6 ADD SWAP5 POP PUSH1 0x20 DUP2 ADD SWAP1 POP PUSH2 0xAB7 JUMP JUMPDEST DUP7 DUP4 LT ISZERO PUSH2 0xAF9 JUMPI DUP5 DUP10 ADD MLOAD PUSH2 0xAF5 PUSH1 0x1F DUP10 AND DUP3 PUSH2 0xA02 JUMP JUMPDEST DUP4 SSTORE POP JUMPDEST PUSH1 0x1 PUSH1 0x2 DUP9 MUL ADD DUP9 SSTORE POP POP POP JUMPDEST POP POP POP POP POP POP JUMP JUMPDEST PUSH1 0x0 PUSH1 0x60 DUP3 ADD SWAP1 POP PUSH2 0xB23 PUSH1 0x0 DUP4 ADD DUP7 PUSH2 0x648 JUMP JUMPDEST DUP2 DUP2 SUB PUSH1 0x20 DUP4 ADD MSTORE PUSH2 0xB35 DUP2 DUP6 PUSH2 0x711 JUMP JUMPDEST SWAP1 POP DUP2 DUP2 SUB PUSH1 0x40 DUP4 ADD MSTORE PUSH2 0xB49 DUP2 DUP5 PUSH2 0x711 JUMP JUMPDEST SWAP1 POP SWAP5 SWAP4 POP POP POP POP JUMP INVALID LOG2 PUSH5 0x6970667358 0x22 SLT KECCAK256 CREATE SDIV 0xAE MOD 0xDF 0xB1 0xC1 PUSH18 0xF3458A6002855761907D1D217F8E24690FB7 DUP7 DUP7 0xD5 PUSH32 0xD58564736F6C6343000814003300000000000000000000000000000000000000 "},"methodIdentifiers":{"healthRecords(uint256)":"b665c0d3","recordCount()":"900407bc","storeHealthRecord(string,string,string,string)":"118267f1"}}}}}