{"contracts/TestBookingContract.sol":{"TestBookingContract":{"abi":[{"anonymous":false,"inputs":[{"indexed":false,"internalType":"uint256","name":"id","type":"uint256"},{"indexed":false,"internalType":"string","name":"testName","type":"string"},{"indexed":false,"internalType":"uint256","name":"price","type":"uint256"},{"indexed":false,"internalType":"string","name":"userId","type":"string"}],"name":"TestBooked","type":"event"},{"inputs":[{"internalType":"string","name":"_testName","type":"string"},{"internalType":"uint256","name":"_price","type":"uint256"},{"internalType":"string","name":"_userId","type":"string"}],"name":"bookTest","outputs":[],"stateMutability":"nonpayable","type":"function"},{"inputs":[{"internalType":"uint256","name":"_id","type":"uint256"}],"name":"getTestBooking","outputs":[{"internalType":"string","name":"","type":"string"},{"internalType":"uint256","name":"","type":"uint256"},{"internalType":"string","name":"","type":"string"}],"stateMutability":"view","type":"function"},{"inputs":[],"name":"testBookingCount","outputs":[{"internalType":"uint256","name":"","type":"uint256"}],"stateMutability":"view","type":"function"},{"inputs":[{"internalType":"uint256","name":"","type":"uint256"}],"name":"testBookings","outputs":[{"internalType":"uint256","name":"id","type":"uint256"},{"internalType":"string","name":"testName","type":"string"},{"internalType":"uint256","name":"price","type":"uint256"},{"internalType":"string","name":"userId","type":"string"}],"stateMutability":"view","type":"function"}],"evm":{"bytecode":{"linkReferences":{},"object":"608060405234801561001057600080fd5b50610b9c806100206000396000f3fe608060405234801561001057600080fd5b506004361061004c5760003560e01c8063210e9a261461005157806381353e94146100845780638b62915a146100a2578063f492759c146100be575b600080fd5b61006b600480360381019061006691906104d2565b6100f0565b60405161007b949392919061059e565b60405180910390f35b61008c610230565b60405161009991906105f1565b60405180910390f35b6100bc60048036038101906100b79190610741565b610236565b005b6100d860048036038101906100d391906104d2565b61030c565b6040516100e7939291906107cc565b60405180910390f35b600060205280600052604060002060009150905080600001549080600101805461011990610840565b80601f016020809104026020016040519081016040528092919081815260200182805461014590610840565b80156101925780601f1061016757610100808354040283529160200191610192565b820191906000526020600020905b81548152906001019060200180831161017557829003601f168201915b5050505050908060020154908060030180546101ad90610840565b80601f01602080910402602001604051908101604052809291908181526020018280546101d990610840565b80156102265780601f106101fb57610100808354040283529160200191610226565b820191906000526020600020905b81548152906001019060200180831161020957829003601f168201915b5050505050905084565b60015481565b60016000815480929190610249906108a0565b9190505550604051806080016040528060015481526020018481526020018381526020018281525060008060015481526020019081526020016000206000820151816000015560208201518160010190816102a49190610a94565b506040820151816002015560608201518160030190816102c49190610a94565b509050507ff7812a85f9443fa5f85b513689ce019ffa30058c162d792ccc4bec061a319b016001548484846040516102ff949392919061059e565b60405180910390a1505050565b60606000606060008060008681526020019081526020016000206040518060800160405290816000820154815260200160018201805461034b90610840565b80601f016020809104026020016040519081016040528092919081815260200182805461037790610840565b80156103c45780601f10610399576101008083540402835291602001916103c4565b820191906000526020600020905b8154815290600101906020018083116103a757829003601f168201915b50505050508152602001600282015481526020016003820180546103e790610840565b80601f016020809104026020016040519081016040528092919081815260200182805461041390610840565b80156104605780601f1061043557610100808354040283529160200191610460565b820191906000526020600020905b81548152906001019060200180831161044357829003601f168201915b5050505050815250509050806020015181604001518260600151935093509350509193909250565b6000604051905090565b600080fd5b600080fd5b6000819050919050565b6104af8161049c565b81146104ba57600080fd5b50565b6000813590506104cc816104a6565b92915050565b6000602082840312156104e8576104e7610492565b5b60006104f6848285016104bd565b91505092915050565b6105088161049c565b82525050565b600081519050919050565b600082825260208201905092915050565b60005b8381101561054857808201518184015260208101905061052d565b60008484015250505050565b6000601f19601f8301169050919050565b60006105708261050e565b61057a8185610519565b935061058a81856020860161052a565b61059381610554565b840191505092915050565b60006080820190506105b360008301876104ff565b81810360208301526105c58186610565565b90506105d460408301856104ff565b81810360608301526105e68184610565565b905095945050505050565b600060208201905061060660008301846104ff565b92915050565b600080fd5b600080fd5b7f4e487b7100000000000000000000000000000000000000000000000000000000600052604160045260246000fd5b61064e82610554565b810181811067ffffffffffffffff8211171561066d5761066c610616565b5b80604052505050565b6000610680610488565b905061068c8282610645565b919050565b600067ffffffffffffffff8211156106ac576106ab610616565b5b6106b582610554565b9050602081019050919050565b82818337600083830152505050565b60006106e46106df84610691565b610676565b905082815260208101848484011115610700576106ff610611565b5b61070b8482856106c2565b509392505050565b600082601f8301126107285761072761060c565b5b81356107388482602086016106d1565b91505092915050565b60008060006060848603121561075a57610759610492565b5b600084013567ffffffffffffffff81111561077857610777610497565b5b61078486828701610713565b9350506020610795868287016104bd565b925050604084013567ffffffffffffffff8111156107b6576107b5610497565b5b6107c286828701610713565b9150509250925092565b600060608201905081810360008301526107e68186610565565b90506107f560208301856104ff565b81810360408301526108078184610565565b9050949350505050565b7f4e487b7100000000000000000000000000000000000000000000000000000000600052602260045260246000fd5b6000600282049050600182168061085857607f821691505b60208210810361086b5761086a610811565b5b50919050565b7f4e487b7100000000000000000000000000000000000000000000000000000000600052601160045260246000fd5b60006108ab8261049c565b91507fffffffffffffffffffffffffffffffffffffffffffffffffffffffffffffffff82036108dd576108dc610871565b5b600182019050919050565b60008190508160005260206000209050919050565b60006020601f8301049050919050565b600082821b905092915050565b60006008830261094a7fffffffffffffffffffffffffffffffffffffffffffffffffffffffffffffffff8261090d565b610954868361090d565b95508019841693508086168417925050509392505050565b6000819050919050565b600061099161098c6109878461049c565b61096c565b61049c565b9050919050565b6000819050919050565b6109ab83610976565b6109bf6109b782610998565b84845461091a565b825550505050565b600090565b6109d46109c7565b6109df8184846109a2565b505050565b5b81811015610a03576109f86000826109cc565b6001810190506109e5565b5050565b601f821115610a4857610a19816108e8565b610a22846108fd565b81016020851015610a31578190505b610a45610a3d856108fd565b8301826109e4565b50505b505050565b600082821c905092915050565b6000610a6b60001984600802610a4d565b1980831691505092915050565b6000610a848383610a5a565b9150826002028217905092915050565b610a9d8261050e565b67ffffffffffffffff811115610ab657610ab5610616565b5b610ac08254610840565b610acb828285610a07565b600060209050601f831160018114610afe5760008415610aec578287015190505b610af68582610a78565b865550610b5e565b601f198416610b0c866108e8565b60005b82811015610b3457848901518255600182019150602085019450602081019050610b0f565b86831015610b515784890151610b4d601f891682610a5a565b8355505b6001600288020188555050505b50505050505056fea2646970667358221220b12639ef559a1cee0657b80895da8409ac4c327a3dabdfcfa2662ae227e802c864736f6c63430008140033","opcodes":"PUSH1 0x80 PUSH1 0x40 MSTORE CALLVALUE DUP1 ISZERO PUSH2 0x10 JUMPI PUSH1 0x0 DUP1 REVERT JUMPDEST POP PUSH2 0xB9C DUP1 PUSH2 0x20 PUSH1 0x0 CODECOPY PUSH1 0x0 RETURN INVALID PUSH1 0x80 PUSH1 0x40 MSTORE CALLVALUE DUP1 ISZERO PUSH2 0x10 JUMPI PUSH1 0x0 DUP1 REVERT JUMPDEST POP PUSH1 0x4 CALLDATASIZE LT PUSH2 0x4C JUMPI PUSH1 0x0 CALLDATALOAD PUSH1 0xE0 SHR DUP1 PUSH4 0x210E9A26 EQ PUSH2 0x51 JUMPI DUP1 PUSH4 0x81353E94 EQ PUSH2 0x84 JUMPI DUP1 PUSH4 0x8B62915A EQ PUSH2 0xA2 JUMPI DUP1 PUSH4 0xF492759C EQ PUSH2 0xBE JUMPI JUMPDEST PUSH1 0x0 DUP1 REVERT JUMPDEST PUSH2 0x6B PUSH1 0x4 DUP1 CALLDATASIZE SUB DUP2 ADD SWAP1 PUSH2 0x66 SWAP2 SWAP1 PUSH2 0x4D2 JUMP JUMPDEST PUSH2 0xF0 JUMP JUMPDEST PUSH1 0x40 MLOAD PUSH2 0x7B SWAP5 SWAP4 SWAP3 SWAP2 SWAP1 PUSH2 0x59E JUMP JUMPDEST PUSH1 0x40 MLOAD DUP1 SWAP2 SUB SWAP1 RETURN JUMPDEST PUSH2 0x8C PUSH2 0x230 JUMP JUMPDEST PUSH1 0x40 MLOAD PUSH2 0x99 SWAP2 SWAP1 PUSH2 0x5F1 JUMP JUMPDEST PUSH1 0x40 MLOAD DUP1 SWAP2 SUB SWAP1 RETURN JUMPDEST PUSH2 0xBC PUSH1 0x4 DUP1 CALLDATASIZE SUB DUP2 ADD SWAP1 PUSH2 0xB7 SWAP2 SWAP1 PUSH2 0x741 JUMP JUMPDEST PUSH2 0x236 JUMP JUMPDEST STOP JUMPDEST PUSH2 0xD8 PUSH1 0x4 DUP1 CALLDATASIZE SUB DUP2 ADD SWAP1 PUSH2 0xD3 SWAP2 SWAP1 PUSH2 0x4D2 JUMP JUMPDEST PUSH2 0x30C JUMP JUMPDEST PUSH1 0x40 MLOAD PUSH2 0xE7 SWAP4 SWAP3 SWAP2 SWAP1 PUSH2 0x7CC JUMP JUMPDEST PUSH1 0x40 MLOAD DUP1 SWAP2 SUB SWAP1 RETURN JUMPDEST PUSH1 0x0 PUSH1 0x20 MSTORE DUP1 PUSH1 0x0 MSTORE PUSH1 0x40 PUSH1 0x0 KECCAK256 PUSH1 0x0 SWAP2 POP SWAP1 POP DUP1 PUSH1 0x0 ADD SLOAD SWAP1 DUP1 PUSH1 0x1 ADD DUP1 SLOAD PUSH2 0x119 SWAP1 PUSH2 0x840 JUMP JUMPDEST DUP1 PUSH1 0x1F ADD PUSH1 0x20 DUP1 SWAP2 DIV MUL PUSH1 0x20 ADD PUSH1 0x40 MLOAD SWAP1 DUP2 ADD PUSH1 0x40 MSTORE DUP1 SWAP3 SWAP2 SWAP1 DUP2 DUP2 MSTORE PUSH1 0x20 ADD DUP3 DUP1 SLOAD PUSH2 0x145 SWAP1 PUSH2 0x840 JUMP JUMPDEST DUP1 ISZERO PUSH2 0x192 JUMPI DUP1 PUSH1 0x1F LT PUSH2 0x167 JUMPI PUSH2 0x100 DUP1 DUP4 SLOAD DIV MUL DUP4 MSTORE SWAP2 PUSH1 0x20 ADD SWAP2 PUSH2 0x192 JUMP JUMPDEST DUP3 ADD SWAP2 SWAP1 PUSH1 0x0 MSTORE PUSH1 0x20 PUSH1 0x0 KECCAK256 SWAP1 JUMPDEST DUP2 SLOAD DUP2 MSTORE SWAP1 PUSH1 0x1 ADD SWAP1 PUSH1 0x20 ADD DUP1 DUP4 GT PUSH2 0x175 JUMPI DUP3 SWAP1 SUB PUSH1 0x1F AND DUP3 ADD SWAP2 JUMPDEST POP POP POP POP POP SWAP1 DUP1 PUSH1 0x2 ADD SLOAD SWAP1 DUP1 PUSH1 0x3 ADD DUP1 SLOAD PUSH2 0x1AD SWAP1 PUSH2 0x840 JUMP JUMPDEST DUP1 PUSH1 0x1F ADD PUSH1 0x20 DUP1 SWAP2 DIV MUL PUSH1 0x20 ADD PUSH1 0x40 MLOAD SWAP1 DUP2 ADD PUSH1 0x40 MSTORE DUP1 SWAP3 SWAP2 SWAP1 DUP2 DUP2 MSTORE PUSH1 0x20 ADD DUP3 DUP1 SLOAD PUSH2 0x1D9 SWAP1 PUSH2 0x840 JUMP JUMPDEST DUP1 ISZERO PUSH2 0x226 JUMPI DUP1 PUSH1 0x1F LT PUSH2 0x1FB JUMPI PUSH2 0x100 DUP1 DUP4 SLOAD DIV MUL DUP4 MSTORE SWAP2 PUSH1 0x20 ADD SWAP2 PUSH2 0x226 JUMP JUMPDEST DUP3 ADD SWAP2 SWAP1 PUSH1 0x0 MSTORE PUSH1 0x20 PUSH1 0x0 KECCAK256 SWAP1 JUMPDEST DUP2 SLOAD DUP2 MSTORE SWAP1 PUSH1 0x1 ADD SWAP1 PUSH1 0x20 ADD DUP1 DUP4 GT PUSH2 0x209 JUMPI DUP3 SWAP1 SUB PUSH1 0x1F AND DUP3 ADD SWAP2 JUMPDEST POP POP POP POP POP SWAP1 POP DUP5 JUMP JUMPDEST PUSH1 0x1 SLOAD DUP2 JUMP JUMPDEST PUSH1 0x1 PUSH1 0x0 DUP2 SLOAD DUP1 SWAP3 SWAP2 SWAP1 PUSH2 0x249 SWAP1 PUSH2 0x8A0 JUMP JUMPDEST SWAP2 SWAP1 POP SSTORE POP PUSH1 0x40 MLOAD DUP1 PUSH1 0x80 ADD PUSH1 0x40 MSTORE DUP1 PUSH1 0x1 SLOAD DUP2 MSTORE PUSH1 0x20 ADD DUP5 DUP2 MSTORE PUSH1 0x20 ADD DUP4 DUP2 MSTORE PUSH1 0x20 ADD DUP3 DUP2 MSTORE POP PUSH1 0x0 DUP1 PUSH1 0x1 SLOAD DUP2 MSTORE PUSH1 0x20 ADD SWAP1 DUP2 MSTORE PUSH1 0x20 ADD PUSH1 0x0 KECCAK256 PUSH1 0x0 DUP3 ADD MLOAD DUP2 PUSH1 0x0 ADD SSTORE PUSH1 0x20 DUP3 ADD MLOAD DUP2 PUSH1 0x1 ADD SWAP1 DUP2 PUSH2 0x2A4 SWAP2 SWAP1 PUSH2 0xA94 JUMP JUMPDEST POP PUSH1 0x40 DUP3 ADD MLOAD DUP2 PUSH1 0x2 ADD SSTORE PUSH1 0x60 DUP3 ADD MLOAD DUP2 PUSH1 0x3 ADD SWAP1 DUP2 PUSH2 0x2C4 SWAP2 SWAP1 PUSH2 0xA94 JUMP JUMPDEST POP SWAP1 POP POP PUSH32 0xF7812A85F9443FA5F85B513689CE019FFA30058C162D792CCC4BEC061A319B01 PUSH1 0x1 SLOAD DUP5 DUP5 DUP5 PUSH1 0x40 MLOAD PUSH2 0x2FF SWAP5 SWAP4 SWAP3 SWAP2 SWAP1 PUSH2 0x59E JUMP JUMPDEST PUSH1 0x40 MLOAD DUP1 SWAP2 SUB SWAP1 LOG1 POP POP POP JUMP JUMPDEST PUSH1 0x60 PUSH1 0x0 PUSH1 0x60 PUSH1 0x0 DUP1 PUSH1 0x0 DUP7 DUP2 MSTORE PUSH1 0x20 ADD SWAP1 DUP2 MSTORE PUSH1 0x20 ADD PUSH1 0x0 KECCAK256 PUSH1 0x40 MLOAD DUP1 PUSH1 0x80 ADD PUSH1 0x40 MSTORE SWAP1 DUP2 PUSH1 0x0 DUP3 ADD SLOAD DUP2 MSTORE PUSH1 0x20 ADD PUSH1 0x1 DUP3 ADD DUP1 SLOAD PUSH2 0x34B SWAP1 PUSH2 0x840 JUMP JUMPDEST DUP1 PUSH1 0x1F ADD PUSH1 0x20 DUP1 SWAP2 DIV MUL PUSH1 0x20 ADD PUSH1 0x40 MLOAD SWAP1 DUP2 ADD PUSH1 0x40 MSTORE DUP1 SWAP3 SWAP2 SWAP1 DUP2 DUP2 MSTORE PUSH1 0x20 ADD DUP3 DUP1 SLOAD PUSH2 0x377 SWAP1 PUSH2 0x840 JUMP JUMPDEST DUP1 ISZERO PUSH2 0x3C4 JUMPI DUP1 PUSH1 0x1F LT PUSH2 0x399 JUMPI PUSH2 0x100 DUP1 DUP4 SLOAD DIV MUL DUP4 MSTORE SWAP2 PUSH1 0x20 ADD SWAP2 PUSH2 0x3C4 JUMP JUMPDEST DUP3 ADD SWAP2 SWAP1 PUSH1 0x0 MSTORE PUSH1 0x20 PUSH1 0x0 KECCAK256 SWAP1 JUMPDEST DUP2 SLOAD DUP2 MSTORE SWAP1 PUSH1 0x1 ADD SWAP1 PUSH1 0x20 ADD DUP1 DUP4 GT PUSH2 0x3A7 JUMPI DUP3 SWAP1 SUB PUSH1 0x1F AND DUP3 ADD SWAP2 JUMPDEST POP POP POP POP POP DUP2 MSTORE PUSH1 0x20 ADD PUSH1 0x2 DUP3 ADD SLOAD DUP2 MSTORE PUSH1 0x20 ADD PUSH1 0x3 DUP3 ADD DUP1 SLOAD PUSH2 0x3E7 SWAP1 PUSH2 0x840 JUMP JUMPDEST DUP1 PUSH1 0x1F ADD PUSH1 0x20 DUP1 SWAP2 DIV MUL PUSH1 0x20 ADD PUSH1 0x40 MLOAD SWAP1 DUP2 ADD PUSH1 0x40 MSTORE DUP1 SWAP3 SWAP2 SWAP1 DUP2 DUP2 MSTORE PUSH1 0x20 ADD DUP3 DUP1 SLOAD PUSH2 0x413 SWAP1 PUSH2 0x840 JUMP JUMPDEST DUP1 ISZERO PUSH2 0x460 JUMPI DUP1 PUSH1 0x1F LT PUSH2 0x435 JUMPI PUSH2 0x100 DUP1 DUP4 SLOAD DIV MUL DUP4 MSTORE SWAP2 PUSH1 0x20 ADD SWAP2 PUSH2 0x460 JUMP JUMPDEST DUP3 ADD SWAP2 SWAP1 PUSH1 0x0 MSTORE PUSH1 0x20 PUSH1 0x0 KECCAK256 SWAP1 JUMPDEST DUP2 SLOAD DUP2 MSTORE SWAP1 PUSH1 0x1 ADD SWAP1 PUSH1 0x20 ADD DUP1 DUP4 GT PUSH2 0x443 JUMPI DUP3 SWAP1 SUB PUSH1 0x1F AND DUP3 ADD SWAP2 JUMPDEST POP POP POP POP POP DUP2 MSTORE POP POP SWAP1 POP DUP1 PUSH1 0x20 ADD MLOAD DUP2 PUSH1 0x40 ADD MLOAD DUP3 PUSH1 0x60 ADD MLOAD SWAP4 POP SWAP4 POP SWAP4 POP POP SWAP2 SWAP4 SWAP1 SWAP3 POP JUMP JUMPDEST PUSH1 0x0 PUSH1 0x40 MLOAD SWAP1 POP SWAP1 JUMP JUMPDEST PUSH1 0x0 DUP1 REVERT JUMPDEST PUSH1 0x0 DUP1 REVERT JUMPDEST PUSH1 0x0 DUP2 SWAP1 POP SWAP2 SWAP1 POP JUMP JUMPDEST PUSH2 0x4AF DUP2 PUSH2 0x49C JUMP JUMPDEST DUP2 EQ PUSH2 0x4BA JUMPI PUSH1 0x0 DUP1 REVERT JUMPDEST POP JUMP JUMPDEST PUSH1 0x0 DUP2 CALLDATALOAD SWAP1 POP PUSH2 0x4CC DUP2 PUSH2 0x4A6 JUMP JUMPDEST SWAP3 SWAP2 POP POP JUMP JUMPDEST PUSH1 0x0 PUSH1 0x20 DUP3 DUP5 SUB SLT ISZERO PUSH2 0x4E8 JUMPI PUSH2 0x4E7 PUSH2 0x492 JUMP JUMPDEST JUMPDEST PUSH1 0x0 PUSH2 0x4F6 DUP5 DUP3 DUP6 ADD PUSH2 0x4BD JUMP JUMPDEST SWAP2 POP POP SWAP3 SWAP2 POP POP JUMP JUMPDEST PUSH2 0x508 DUP2 PUSH2 0x49C JUMP JUMPDEST DUP3 MSTORE POP POP JUMP JUMPDEST PUSH1 0x0 DUP2 MLOAD SWAP1 POP SWAP2 SWAP1 POP JUMP JUMPDEST PUSH1 0x0 DUP3 DUP3 MSTORE PUSH1 0x20 DUP3 ADD SWAP1 POP SWAP3 SWAP2 POP POP JUMP JUMPDEST PUSH1 0x0 JUMPDEST DUP4 DUP2 LT ISZERO PUSH2 0x548 JUMPI DUP1 DUP3 ADD MLOAD DUP2 DUP5 ADD MSTORE PUSH1 0x20 DUP2 ADD SWAP1 POP PUSH2 0x52D JUMP JUMPDEST PUSH1 0x0 DUP5 DUP5 ADD MSTORE POP POP POP POP JUMP JUMPDEST PUSH1 0x0 PUSH1 0x1F NOT PUSH1 0x1F DUP4 ADD AND SWAP1 POP SWAP2 SWAP1 POP JUMP JUMPDEST PUSH1 0x0 PUSH2 0x570 DUP3 PUSH2 0x50E JUMP JUMPDEST PUSH2 0x57A DUP2 DUP6 PUSH2 0x519 JUMP JUMPDEST SWAP4 POP PUSH2 0x58A DUP2 DUP6 PUSH1 0x20 DUP7 ADD PUSH2 0x52A JUMP JUMPDEST PUSH2 0x593 DUP2 PUSH2 0x554 JUMP JUMPDEST DUP5 ADD SWAP2 POP POP SWAP3 SWAP2 POP POP JUMP JUMPDEST PUSH1 0x0 PUSH1 0x80 DUP3 ADD SWAP1 POP PUSH2 0x5B3 PUSH1 0x0 DUP4 ADD DUP8 PUSH2 0x4FF JUMP JUMPDEST DUP2 DUP2 SUB PUSH1 0x20 DUP4 ADD MSTORE PUSH2 0x5C5 DUP2 DUP7 PUSH2 0x565 JUMP JUMPDEST SWAP1 POP PUSH2 0x5D4 PUSH1 0x40 DUP4 ADD DUP6 PUSH2 0x4FF JUMP JUMPDEST DUP2 DUP2 SUB PUSH1 0x60 DUP4 ADD MSTORE PUSH2 0x5E6 DUP2 DUP5 PUSH2 0x565 JUMP JUMPDEST SWAP1 POP SWAP6 SWAP5 POP POP POP POP POP JUMP JUMPDEST PUSH1 0x0 PUSH1 0x20 DUP3 ADD SWAP1 POP PUSH2 0x606 PUSH1 0x0 DUP4 ADD DUP5 PUSH2 0x4FF JUMP JUMPDEST SWAP3 SWAP2 POP POP JUMP JUMPDEST PUSH1 0x0 DUP1 REVERT JUMPDEST PUSH1 0x0 DUP1 REVERT JUMPDEST PUSH32 0x4E487B7100000000000000000000000000000000000000000000000000000000 PUSH1 0x0 MSTORE PUSH1 0x41 PUSH1 0x4 MSTORE PUSH1 0x24 PUSH1 0x0 REVERT JUMPDEST PUSH2 0x64E DUP3 PUSH2 0x554 JUMP JUMPDEST DUP2 ADD DUP2 DUP2 LT PUSH8 0xFFFFFFFFFFFFFFFF DUP3 GT OR ISZERO PUSH2 0x66D JUMPI PUSH2 0x66C PUSH2 0x616 JUMP JUMPDEST JUMPDEST DUP1 PUSH1 0x40 MSTORE POP POP POP JUMP JUMPDEST PUSH1 0x0 PUSH2 0x680 PUSH2 0x488 JUMP JUMPDEST SWAP1 POP PUSH2 0x68C DUP3 DUP3 PUSH2 0x645 JUMP JUMPDEST SWAP2 SWAP1 POP JUMP JUMPDEST PUSH1 0x0 PUSH8 0xFFFFFFFFFFFFFFFF DUP3 GT ISZERO PUSH2 0x6AC JUMPI PUSH2 0x6AB PUSH2 0x616 JUMP JUMPDEST JUMPDEST PUSH2 0x6B5 DUP3 PUSH2 0x554 JUMP JUMPDEST SWAP1 POP PUSH1 0x20 DUP2 ADD SWAP1 POP SWAP2 SWAP1 POP JUMP JUMPDEST DUP3 DUP2 DUP4 CALLDATACOPY PUSH1 0x0 DUP4 DUP4 ADD MSTORE POP POP POP JUMP JUMPDEST PUSH1 0x0 PUSH2 0x6E4 PUSH2 0x6DF DUP5 PUSH2 0x691 JUMP JUMPDEST PUSH2 0x676 JUMP JUMPDEST SWAP1 POP DUP3 DUP2 MSTORE PUSH1 0x20 DUP2 ADD DUP5 DUP5 DUP5 ADD GT ISZERO PUSH2 0x700 JUMPI PUSH2 0x6FF PUSH2 0x611 JUMP JUMPDEST JUMPDEST PUSH2 0x70B DUP5 DUP3 DUP6 PUSH2 0x6C2 JUMP JUMPDEST POP SWAP4 SWAP3 POP POP POP JUMP JUMPDEST PUSH1 0x0 DUP3 PUSH1 0x1F DUP4 ADD SLT PUSH2 0x728 JUMPI PUSH2 0x727 PUSH2 0x60C JUMP JUMPDEST JUMPDEST DUP2 CALLDATALOAD PUSH2 0x738 DUP5 DUP3 PUSH1 0x20 DUP7 ADD PUSH2 0x6D1 JUMP JUMPDEST SWAP2 POP POP SWAP3 SWAP2 POP POP JUMP JUMPDEST PUSH1 0x0 DUP1 PUSH1 0x0 PUSH1 0x60 DUP5 DUP7 SUB SLT ISZERO PUSH2 0x75A JUMPI PUSH2 0x759 PUSH2 0x492 JUMP JUMPDEST JUMPDEST PUSH1 0x0 DUP5 ADD CALLDATALOAD PUSH8 0xFFFFFFFFFFFFFFFF DUP2 GT ISZERO PUSH2 0x778 JUMPI PUSH2 0x777 PUSH2 0x497 JUMP JUMPDEST JUMPDEST PUSH2 0x784 DUP7 DUP3 DUP8 ADD PUSH2 0x713 JUMP JUMPDEST SWAP4 POP POP PUSH1 0x20 PUSH2 0x795 DUP7 DUP3 DUP8 ADD PUSH2 0x4BD JUMP JUMPDEST SWAP3 POP POP PUSH1 0x40 DUP5 ADD CALLDATALOAD PUSH8 0xFFFFFFFFFFFFFFFF DUP2 GT ISZERO PUSH2 0x7B6 JUMPI PUSH2 0x7B5 PUSH2 0x497 JUMP JUMPDEST JUMPDEST PUSH2 0x7C2 DUP7 DUP3 DUP8 ADD PUSH2 0x713 JUMP JUMPDEST SWAP2 POP POP SWAP3 POP SWAP3 POP SWAP3 JUMP JUMPDEST PUSH1 0x0 PUSH1 0x60 DUP3 ADD SWAP1 POP DUP2 DUP2 SUB PUSH1 0x0 DUP4 ADD MSTORE PUSH2 0x7E6 DUP2 DUP7 PUSH2 0x565 JUMP JUMPDEST SWAP1 POP PUSH2 0x7F5 PUSH1 0x20 DUP4 ADD DUP6 PUSH2 0x4FF JUMP JUMPDEST DUP2 DUP2 SUB PUSH1 0x40 DUP4 ADD MSTORE PUSH2 0x807 DUP2 DUP5 PUSH2 0x565 JUMP JUMPDEST SWAP1 POP SWAP5 SWAP4 POP POP POP POP JUMP JUMPDEST PUSH32 0x4E487B7100000000000000000000000000000000000000000000000000000000 PUSH1 0x0 MSTORE PUSH1 0x22 PUSH1 0x4 MSTORE PUSH1 0x24 PUSH1 0x0 REVERT JUMPDEST PUSH1 0x0 PUSH1 0x2 DUP3 DIV SWAP1 POP PUSH1 0x1 DUP3 AND DUP1 PUSH2 0x858 JUMPI PUSH1 0x7F DUP3 AND SWAP2 POP JUMPDEST PUSH1 0x20 DUP3 LT DUP2 SUB PUSH2 0x86B JUMPI PUSH2 0x86A PUSH2 0x811 JUMP JUMPDEST JUMPDEST POP SWAP2 SWAP1 POP JUMP JUMPDEST PUSH32 0x4E487B7100000000000000000000000000000000000000000000000000000000 PUSH1 0x0 MSTORE PUSH1 0x11 PUSH1 0x4 MSTORE PUSH1 0x24 PUSH1 0x0 REVERT JUMPDEST PUSH1 0x0 PUSH2 0x8AB DUP3 PUSH2 0x49C JUMP JUMPDEST SWAP2 POP PUSH32 0xFFFFFFFFFFFFFFFFFFFFFFFFFFFFFFFFFFFFFFFFFFFFFFFFFFFFFFFFFFFFFFFF DUP3 SUB PUSH2 0x8DD JUMPI PUSH2 0x8DC PUSH2 0x871 JUMP JUMPDEST JUMPDEST PUSH1 0x1 DUP3 ADD SWAP1 POP SWAP2 SWAP1 POP JUMP JUMPDEST PUSH1 0x0 DUP2 SWAP1 POP DUP2 PUSH1 0x0 MSTORE PUSH1 0x20 PUSH1 0x0 KECCAK256 SWAP1 POP SWAP2 SWAP1 POP JUMP JUMPDEST PUSH1 0x0 PUSH1 0x20 PUSH1 0x1F DUP4 ADD DIV SWAP1 POP SWAP2 SWAP1 POP JUMP JUMPDEST PUSH1 0x0 DUP3 DUP3 SHL SWAP1 POP SWAP3 SWAP2 POP POP JUMP JUMPDEST PUSH1 0x0 PUSH1 0x8 DUP4 MUL PUSH2 0x94A PUSH32 0xFFFFFFFFFFFFFFFFFFFFFFFFFFFFFFFFFFFFFFFFFFFFFFFFFFFFFFFFFFFFFFFF DUP3 PUSH2 0x90D JUMP JUMPDEST PUSH2 0x954 DUP7 DUP4 PUSH2 0x90D JUMP JUMPDEST SWAP6 POP DUP1 NOT DUP5 AND SWAP4 POP DUP1 DUP7 AND DUP5 OR SWAP3 POP POP POP SWAP4 SWAP3 POP POP POP JUMP JUMPDEST PUSH1 0x0 DUP2 SWAP1 POP SWAP2 SWAP1 POP JUMP JUMPDEST PUSH1 0x0 PUSH2 0x991 PUSH2 0x98C PUSH2 0x987 DUP5 PUSH2 0x49C JUMP JUMPDEST PUSH2 0x96C JUMP JUMPDEST PUSH2 0x49C JUMP JUMPDEST SWAP1 POP SWAP2 SWAP1 POP JUMP JUMPDEST PUSH1 0x0 DUP2 SWAP1 POP SWAP2 SWAP1 POP JUMP JUMPDEST PUSH2 0x9AB DUP4 PUSH2 0x976 JUMP JUMPDEST PUSH2 0x9BF PUSH2 0x9B7 DUP3 PUSH2 0x998 JUMP JUMPDEST DUP5 DUP5 SLOAD PUSH2 0x91A JUMP JUMPDEST DUP3 SSTORE POP POP POP POP JUMP JUMPDEST PUSH1 0x0 SWAP1 JUMP JUMPDEST PUSH2 0x9D4 PUSH2 0x9C7 JUMP JUMPDEST PUSH2 0x9DF DUP2 DUP5 DUP5 PUSH2 0x9A2 JUMP JUMPDEST POP POP POP JUMP JUMPDEST JUMPDEST DUP2 DUP2 LT ISZERO PUSH2 0xA03 JUMPI PUSH2 0x9F8 PUSH1 0x0 DUP3 PUSH2 0x9CC JUMP JUMPDEST PUSH1 0x1 DUP2 ADD SWAP1 POP PUSH2 0x9E5 JUMP JUMPDEST POP POP JUMP JUMPDEST PUSH1 0x1F DUP3 GT ISZERO PUSH2 0xA48 JUMPI PUSH2 0xA19 DUP2 PUSH2 0x8E8 JUMP JUMPDEST PUSH2 0xA22 DUP5 PUSH2 0x8FD JUMP JUMPDEST DUP2 ADD PUSH1 0x20 DUP6 LT ISZERO PUSH2 0xA31 JUMPI DUP2 SWAP1 POP JUMPDEST PUSH2 0xA45 PUSH2 0xA3D DUP6 PUSH2 0x8FD JUMP JUMPDEST DUP4 ADD DUP3 PUSH2 0x9E4 JUMP JUMPDEST POP POP JUMPDEST POP POP POP JUMP JUMPDEST PUSH1 0x0 DUP3 DUP3 SHR SWAP1 POP SWAP3 SWAP2 POP POP JUMP JUMPDEST PUSH1 0x0 PUSH2 0xA6B PUSH1 0x0 NOT DUP5 PUSH1 0x8 MUL PUSH2 0xA4D JUMP JUMPDEST NOT DUP1 DUP4 AND SWAP2 POP POP SWAP3 SWAP2 POP POP JUMP JUMPDEST PUSH1 0x0 PUSH2 0xA84 DUP4 DUP4 PUSH2 0xA5A JUMP JUMPDEST SWAP2 POP DUP3 PUSH1 0x2 MUL DUP3 OR SWAP1 POP SWAP3 SWAP2 POP POP JUMP JUMPDEST PUSH2 0xA9D DUP3 PUSH2 0x50E JUMP JUMPDEST PUSH8 0xFFFFFFFFFFFFFFFF DUP2 GT ISZERO PUSH2 0xAB6 JUMPI PUSH2 0xAB5 PUSH2 0x616 JUMP JUMPDEST JUMPDEST PUSH2 0xAC0 DUP3 SLOAD PUSH2 0x840 JUMP JUMPDEST PUSH2 0xACB DUP3 DUP3 DUP6 PUSH2 0xA07 JUMP JUMPDEST PUSH1 0x0 PUSH1 0x20 SWAP1 POP PUSH1 0x1F DUP4 GT PUSH1 0x1 DUP2 EQ PUSH2 0xAFE JUMPI PUSH1 0x0 DUP5 ISZERO PUSH2 0xAEC JUMPI DUP3 DUP8 ADD MLOAD SWAP1 POP JUMPDEST PUSH2 0xAF6 DUP6 DUP3 PUSH2 0xA78 JUMP JUMPDEST DUP7 SSTORE POP PUSH2 0xB5E JUMP JUMPDEST PUSH1 0x1F NOT DUP5 AND PUSH2 0xB0C DUP7 PUSH2 0x8E8 JUMP JUMPDEST PUSH1 0x0 JUMPDEST DUP3 DUP2 LT ISZERO PUSH2 0xB34 JUMPI DUP5 DUP10 ADD MLOAD DUP3 SSTORE PUSH1 0x1 DUP3 ADD SWAP2 POP PUSH1 0x20 DUP6 ADD SWAP5 POP PUSH1 0x20 DUP2 ADD SWAP1 POP PUSH2 0xB0F JUMP JUMPDEST DUP7 DUP4 LT ISZERO PUSH2 0xB51 JUMPI DUP5 DUP10 ADD MLOAD PUSH2 0xB4D PUSH1 0x1F DUP10 AND DUP3 PUSH2 0xA5A JUMP JUMPDEST DUP4 SSTORE POP JUMPDEST PUSH1 0x1 PUSH1 0x2 DUP9 MUL ADD DUP9 SSTORE POP POP POP JUMPDEST POP POP POP POP POP POP JUMP INVALID LOG2 PUSH5 0x6970667358 0x22 SLT KECCAK256 0xB1 0x26 CODECOPY 0xEF SSTORE SWAP11 SHR 0xEE MOD JUMPI 0xB8 ADDMOD SWAP6 0xDA DUP5 MULMOD 0xAC 0x4C ORIGIN PUSH27 0x3DABDFCFA2662AE227E802C864736F6C6343000814003300000000 "},"methodIdentifiers":{"bookTest(string,uint256,string)":"8b62915a","getTestBooking(uint256)":"f492759c","testBookingCount()":"81353e94","testBookings(uint256)":"210e9a26"}}}}}