{"contracts/DoctorDashboard.sol":{"DoctorDashboard":{"abi":[{"anonymous":false,"inputs":[{"indexed":true,"internalType":"address","name":"doctor","type":"address"},{"indexed":false,"internalType":"string","name":"patientName","type":"string"},{"indexed":false,"internalType":"string","name":"diagnosis","type":"string"},{"indexed":false,"internalType":"string","name":"prescription","type":"string"},{"indexed":false,"internalType":"string","name":"notes","type":"string"}],"name":"RecordAdded","type":"event"},{"inputs":[],"name":"getRecords","outputs":[{"components":[{"internalType":"string","name":"patientName","type":"string"},{"internalType":"string","name":"diagnosis","type":"string"},{"internalType":"string","name":"prescription","type":"string"},{"internalType":"string","name":"notes","type":"string"},{"internalType":"uint256","name":"timestamp","type":"uint256"}],"internalType":"struct DoctorDashboard.PatientRecord[]","name":"","type":"tuple[]"}],"stateMutability":"view","type":"function"},{"inputs":[{"internalType":"string","name":"_patientName","type":"string"},{"internalType":"string","name":"_diagnosis","type":"string"},{"internalType":"string","name":"_prescription","type":"string"},{"internalType":"string","name":"_notes","type":"string"}],"name":"storeRecord","outputs":[],"stateMutability":"nonpayable","type":"function"}],"evm":{"bytecode":{"linkReferences":{},"object":"608060405234801561001057600080fd5b50610cab806100206000396000f3fe608060405234801561001057600080fd5b50600436106100365760003560e01c80630ad105ce1461003b5780638eff3c2914610057575b600080fd5b6100556004803603810190610050919061060e565b610075565b005b61005f6101c7565b60405161006c91906108ca565b60405180910390f35b60006040518060a001604052808681526020018581526020018481526020018381526020014281525090506000803373ffffffffffffffffffffffffffffffffffffffff1673ffffffffffffffffffffffffffffffffffffffff168152602001908152602001600020819080600181540180825580915050600190039060005260206000209060050201600090919091909150600082015181600001908161011d9190610af8565b5060208201518160010190816101339190610af8565b5060408201518160020190816101499190610af8565b50606082015181600301908161015f9190610af8565b506080820151816004015550503373ffffffffffffffffffffffffffffffffffffffff167f773897eff2eb39f4408a94dd5d2dd2935d444fe50d9a5088af4817425c4d8cfe868686866040516101b89493929190610c14565b60405180910390a25050505050565b60606000803373ffffffffffffffffffffffffffffffffffffffff1673ffffffffffffffffffffffffffffffffffffffff168152602001908152602001600020805480602002602001604051908101604052809291908181526020016000905b828210156104ab57838290600052602060002090600502016040518060a001604052908160008201805461025a9061091b565b80601f01602080910402602001604051908101604052809291908181526020018280546102869061091b565b80156102d35780601f106102a8576101008083540402835291602001916102d3565b820191906000526020600020905b8154815290600101906020018083116102b657829003601f168201915b505050505081526020016001820180546102ec9061091b565b80601f01602080910402602001604051908101604052809291908181526020018280546103189061091b565b80156103655780601f1061033a57610100808354040283529160200191610365565b820191906000526020600020905b81548152906001019060200180831161034857829003601f168201915b5050505050815260200160028201805461037e9061091b565b80601f01602080910402602001604051908101604052809291908181526020018280546103aa9061091b565b80156103f75780601f106103cc576101008083540402835291602001916103f7565b820191906000526020600020905b8154815290600101906020018083116103da57829003601f168201915b505050505081526020016003820180546104109061091b565b80601f016020809104026020016040519081016040528092919081815260200182805461043c9061091b565b80156104895780601f1061045e57610100808354040283529160200191610489565b820191906000526020600020905b81548152906001019060200180831161046c57829003601f168201915b5050505050815260200160048201548152505081526020019060010190610227565b50505050905090565b6000604051905090565b600080fd5b600080fd5b600080fd5b600080fd5b6000601f19601f8301169050919050565b7f4e487b7100000000000000000000000000000000000000000000000000000000600052604160045260246000fd5b61051b826104d2565b810181811067ffffffffffffffff8211171561053a576105396104e3565b5b80604052505050565b600061054d6104b4565b90506105598282610512565b919050565b600067ffffffffffffffff821115610579576105786104e3565b5b610582826104d2565b9050602081019050919050565b82818337600083830152505050565b60006105b16105ac8461055e565b610543565b9050828152602081018484840111156105cd576105cc6104cd565b5b6105d884828561058f565b509392505050565b600082601f8301126105f5576105f46104c8565b5b813561060584826020860161059e565b91505092915050565b60008060008060808587031215610628576106276104be565b5b600085013567ffffffffffffffff811115610646576106456104c3565b5b610652878288016105e0565b945050602085013567ffffffffffffffff811115610673576106726104c3565b5b61067f878288016105e0565b935050604085013567ffffffffffffffff8111156106a05761069f6104c3565b5b6106ac878288016105e0565b925050606085013567ffffffffffffffff8111156106cd576106cc6104c3565b5b6106d9878288016105e0565b91505092959194509250565b600081519050919050565b600082825260208201905092915050565b6000819050602082019050919050565b600081519050919050565b600082825260208201905092915050565b60005b8381101561074b578082015181840152602081019050610730565b60008484015250505050565b600061076282610711565b61076c818561071c565b935061077c81856020860161072d565b610785816104d2565b840191505092915050565b6000819050919050565b6107a381610790565b82525050565b600060a08301600083015184820360008601526107c68282610757565b915050602083015184820360208601526107e08282610757565b915050604083015184820360408601526107fa8282610757565b915050606083015184820360608601526108148282610757565b9150506080830151610829608086018261079a565b508091505092915050565b600061084083836107a9565b905092915050565b6000602082019050919050565b6000610860826106e5565b61086a81856106f0565b93508360208202850161087c85610701565b8060005b858110156108b857848403895281516108998582610834565b94506108a483610848565b925060208a01995050600181019050610880565b50829750879550505050505092915050565b600060208201905081810360008301526108e48184610855565b905092915050565b7f4e487b7100000000000000000000000000000000000000000000000000000000600052602260045260246000fd5b6000600282049050600182168061093357607f821691505b602082108103610946576109456108ec565b5b50919050565b60008190508160005260206000209050919050565b60006020601f8301049050919050565b600082821b905092915050565b6000600883026109ae7fffffffffffffffffffffffffffffffffffffffffffffffffffffffffffffffff82610971565b6109b88683610971565b95508019841693508086168417925050509392505050565b6000819050919050565b60006109f56109f06109eb84610790565b6109d0565b610790565b9050919050565b6000819050919050565b610a0f836109da565b610a23610a1b826109fc565b84845461097e565b825550505050565b600090565b610a38610a2b565b610a43818484610a06565b505050565b5b81811015610a6757610a5c600082610a30565b600181019050610a49565b5050565b601f821115610aac57610a7d8161094c565b610a8684610961565b81016020851015610a95578190505b610aa9610aa185610961565b830182610a48565b50505b505050565b600082821c905092915050565b6000610acf60001984600802610ab1565b1980831691505092915050565b6000610ae88383610abe565b9150826002028217905092915050565b610b0182610711565b67ffffffffffffffff811115610b1a57610b196104e3565b5b610b24825461091b565b610b2f828285610a6b565b600060209050601f831160018114610b625760008415610b50578287015190505b610b5a8582610adc565b865550610bc2565b601f198416610b708661094c565b60005b82811015610b9857848901518255600182019150602085019450602081019050610b73565b86831015610bb55784890151610bb1601f891682610abe565b8355505b6001600288020188555050505b505050505050565b600082825260208201905092915050565b6000610be682610711565b610bf08185610bca565b9350610c0081856020860161072d565b610c09816104d2565b840191505092915050565b60006080820190508181036000830152610c2e8187610bdb565b90508181036020830152610c428186610bdb565b90508181036040830152610c568185610bdb565b90508181036060830152610c6a8184610bdb565b90509594505050505056fea26469706673582212208a0235844300bd4f4b46dfac5ac4b7f8640d1cd0db2f57bbea8dc0afac52b94164736f6c63430008140033","opcodes":"PUSH1 0x80 PUSH1 0x40 MSTORE CALLVALUE DUP1 ISZERO PUSH2 0x10 JUMPI PUSH1 0x0 DUP1 REVERT JUMPDEST POP PUSH2 0xCAB DUP1 PUSH2 0x20 PUSH1 0x0 CODECOPY PUSH1 0x0 RETURN INVALID PUSH1 0x80 PUSH1 0x40 MSTORE CALLVALUE DUP1 ISZERO PUSH2 0x10 JUMPI PUSH1 0x0 DUP1 REVERT JUMPDEST POP PUSH1 0x4 CALLDATASIZE LT PUSH2 0x36 JUMPI PUSH1 0x0 CALLDATALOAD PUSH1 0xE0 SHR DUP1 PUSH4 0xAD105CE EQ PUSH2 0x3B JUMPI DUP1 PUSH4 0x8EFF3C29 EQ PUSH2 0x57 JUMPI JUMPDEST PUSH1 0x0 DUP1 REVERT JUMPDEST PUSH2 0x55 PUSH1 0x4 DUP1 CALLDATASIZE SUB DUP2 ADD SWAP1 PUSH2 0x50 SWAP2 SWAP1 PUSH2 0x60E JUMP JUMPDEST PUSH2 0x75 JUMP JUMPDEST STOP JUMPDEST PUSH2 0x5F PUSH2 0x1C7 JUMP JUMPDEST PUSH1 0x40 MLOAD PUSH2 0x6C SWAP2 SWAP1 PUSH2 0x8CA JUMP JUMPDEST PUSH1 0x40 MLOAD DUP1 SWAP2 SUB SWAP1 RETURN JUMPDEST PUSH1 0x0 PUSH1 0x40 MLOAD DUP1 PUSH1 0xA0 ADD PUSH1 0x40 MSTORE DUP1 DUP7 DUP2 MSTORE PUSH1 0x20 ADD DUP6 DUP2 MSTORE PUSH1 0x20 ADD DUP5 DUP2 MSTORE PUSH1 0x20 ADD DUP4 DUP2 MSTORE PUSH1 0x20 ADD TIMESTAMP DUP2 MSTORE POP SWAP1 POP PUSH1 0x0 DUP1 CALLER PUSH20 0xFFFFFFFFFFFFFFFFFFFFFFFFFFFFFFFFFFFFFFFF AND PUSH20 0xFFFFFFFFFFFFFFFFFFFFFFFFFFFFFFFFFFFFFFFF AND DUP2 MSTORE PUSH1 0x20 ADD SWAP1 DUP2 MSTORE PUSH1 0x20 ADD PUSH1 0x0 KECCAK256 DUP2 SWAP1 DUP1 PUSH1 0x1 DUP2 SLOAD ADD DUP1 DUP3 SSTORE DUP1 SWAP2 POP POP PUSH1 0x1 SWAP1 SUB SWAP1 PUSH1 0x0 MSTORE PUSH1 0x20 PUSH1 0x0 KECCAK256 SWAP1 PUSH1 0x5 MUL ADD PUSH1 0x0 SWAP1 SWAP2 SWAP1 SWAP2 SWAP1 SWAP2 POP PUSH1 0x0 DUP3 ADD MLOAD DUP2 PUSH1 0x0 ADD SWAP1 DUP2 PUSH2 0x11D SWAP2 SWAP1 PUSH2 0xAF8 JUMP JUMPDEST POP PUSH1 0x20 DUP3 ADD MLOAD DUP2 PUSH1 0x1 ADD SWAP1 DUP2 PUSH2 0x133 SWAP2 SWAP1 PUSH2 0xAF8 JUMP JUMPDEST POP PUSH1 0x40 DUP3 ADD MLOAD DUP2 PUSH1 0x2 ADD SWAP1 DUP2 PUSH2 0x149 SWAP2 SWAP1 PUSH2 0xAF8 JUMP JUMPDEST POP PUSH1 0x60 DUP3 ADD MLOAD DUP2 PUSH1 0x3 ADD SWAP1 DUP2 PUSH2 0x15F SWAP2 SWAP1 PUSH2 0xAF8 JUMP JUMPDEST POP PUSH1 0x80 DUP3 ADD MLOAD DUP2 PUSH1 0x4 ADD SSTORE POP POP CALLER PUSH20 0xFFFFFFFFFFFFFFFFFFFFFFFFFFFFFFFFFFFFFFFF AND PUSH32 0x773897EFF2EB39F4408A94DD5D2DD2935D444FE50D9A5088AF4817425C4D8CFE DUP7 DUP7 DUP7 DUP7 PUSH1 0x40 MLOAD PUSH2 0x1B8 SWAP5 SWAP4 SWAP3 SWAP2 SWAP1 PUSH2 0xC14 JUMP JUMPDEST PUSH1 0x40 MLOAD DUP1 SWAP2 SUB SWAP1 LOG2 POP POP POP POP POP JUMP JUMPDEST PUSH1 0x60 PUSH1 0x0 DUP1 CALLER PUSH20 0xFFFFFFFFFFFFFFFFFFFFFFFFFFFFFFFFFFFFFFFF AND PUSH20 0xFFFFFFFFFFFFFFFFFFFFFFFFFFFFFFFFFFFFFFFF AND DUP2 MSTORE PUSH1 0x20 ADD SWAP1 DUP2 MSTORE PUSH1 0x20 ADD PUSH1 0x0 KECCAK256 DUP1 SLOAD DUP1 PUSH1 0x20 MUL PUSH1 0x20 ADD PUSH1 0x40 MLOAD SWAP1 DUP2 ADD PUSH1 0x40 MSTORE DUP1 SWAP3 SWAP2 SWAP1 DUP2 DUP2 MSTORE PUSH1 0x20 ADD PUSH1 0x0 SWAP1 JUMPDEST DUP3 DUP3 LT ISZERO PUSH2 0x4AB JUMPI DUP4 DUP3 SWAP1 PUSH1 0x0 MSTORE PUSH1 0x20 PUSH1 0x0 KECCAK256 SWAP1 PUSH1 0x5 MUL ADD PUSH1 0x40 MLOAD DUP1 PUSH1 0xA0 ADD PUSH1 0x40 MSTORE SWAP1 DUP2 PUSH1 0x0 DUP3 ADD DUP1 SLOAD PUSH2 0x25A SWAP1 PUSH2 0x91B JUMP JUMPDEST DUP1 PUSH1 0x1F ADD PUSH1 0x20 DUP1 SWAP2 DIV MUL PUSH1 0x20 ADD PUSH1 0x40 MLOAD SWAP1 DUP2 ADD PUSH1 0x40 MSTORE DUP1 SWAP3 SWAP2 SWAP1 DUP2 DUP2 MSTORE PUSH1 0x20 ADD DUP3 DUP1 SLOAD PUSH2 0x286 SWAP1 PUSH2 0x91B JUMP JUMPDEST DUP1 ISZERO PUSH2 0x2D3 JUMPI DUP1 PUSH1 0x1F LT PUSH2 0x2A8 JUMPI PUSH2 0x100 DUP1 DUP4 SLOAD DIV MUL DUP4 MSTORE SWAP2 PUSH1 0x20 ADD SWAP2 PUSH2 0x2D3 JUMP JUMPDEST DUP3 ADD SWAP2 SWAP1 PUSH1 0x0 MSTORE PUSH1 0x20 PUSH1 0x0 KECCAK256 SWAP1 JUMPDEST DUP2 SLOAD DUP2 MSTORE SWAP1 PUSH1 0x1 ADD SWAP1 PUSH1 0x20 ADD DUP1 DUP4 GT PUSH2 0x2B6 JUMPI DUP3 SWAP1 SUB PUSH1 0x1F AND DUP3 ADD SWAP2 JUMPDEST POP POP POP POP POP DUP2 MSTORE PUSH1 0x20 ADD PUSH1 0x1 DUP3 ADD DUP1 SLOAD PUSH2 0x2EC SWAP1 PUSH2 0x91B JUMP JUMPDEST DUP1 PUSH1 0x1F ADD PUSH1 0x20 DUP1 SWAP2 DIV MUL PUSH1 0x20 ADD PUSH1 0x40 MLOAD SWAP1 DUP2 ADD PUSH1 0x40 MSTORE DUP1 SWAP3 SWAP2 SWAP1 DUP2 DUP2 MSTORE PUSH1 0x20 ADD DUP3 DUP1 SLOAD PUSH2 0x318 SWAP1 PUSH2 0x91B JUMP JUMPDEST DUP1 ISZERO PUSH2 0x365 JUMPI DUP1 PUSH1 0x1F LT PUSH2 0x33A JUMPI PUSH2 0x100 DUP1 DUP4 SLOAD DIV MUL DUP4 MSTORE SWAP2 PUSH1 0x20 ADD SWAP2 PUSH2 0x365 JUMP JUMPDEST DUP3 ADD SWAP2 SWAP1 PUSH1 0x0 MSTORE PUSH1 0x20 PUSH1 0x0 KECCAK256 SWAP1 JUMPDEST DUP2 SLOAD DUP2 MSTORE SWAP1 PUSH1 0x1 ADD SWAP1 PUSH1 0x20 ADD DUP1 DUP4 GT PUSH2 0x348 JUMPI DUP3 SWAP1 SUB PUSH1 0x1F AND DUP3 ADD SWAP2 JUMPDEST POP POP POP POP POP DUP2 MSTORE PUSH1 0x20 ADD PUSH1 0x2 DUP3 ADD DUP1 SLOAD PUSH2 0x37E SWAP1 PUSH2 0x91B JUMP JUMPDEST DUP1 PUSH1 0x1F ADD PUSH1 0x20 DUP1 SWAP2 DIV MUL PUSH1 0x20 ADD PUSH1 0x40 MLOAD SWAP1 DUP2 ADD PUSH1 0x40 MSTORE DUP1 SWAP3 SWAP2 SWAP1 DUP2 DUP2 MSTORE PUSH1 0x20 ADD DUP3 DUP1 SLOAD PUSH2 0x3AA SWAP1 PUSH2 0x91B JUMP JUMPDEST DUP1 ISZERO PUSH2 0x3F7 JUMPI DUP1 PUSH1 0x1F LT PUSH2 0x3CC JUMPI PUSH2 0x100 DUP1 DUP4 SLOAD DIV MUL DUP4 MSTORE SWAP2 PUSH1 0x20 ADD SWAP2 PUSH2 0x3F7 JUMP JUMPDEST DUP3 ADD SWAP2 SWAP1 PUSH1 0x0 MSTORE PUSH1 0x20 PUSH1 0x0 KECCAK256 SWAP1 JUMPDEST DUP2 SLOAD DUP2 MSTORE SWAP1 PUSH1 0x1 ADD SWAP1 PUSH1 0x20 ADD DUP1 DUP4 GT PUSH2 0x3DA JUMPI DUP3 SWAP1 SUB PUSH1 0x1F AND DUP3 ADD SWAP2 JUMPDEST POP POP POP POP POP DUP2 MSTORE PUSH1 0x20 ADD PUSH1 0x3 DUP3 ADD DUP1 SLOAD PUSH2 0x410 SWAP1 PUSH2 0x91B JUMP JUMPDEST DUP1 PUSH1 0x1F ADD PUSH1 0x20 DUP1 SWAP2 DIV MUL PUSH1 0x20 ADD PUSH1 0x40 MLOAD SWAP1 DUP2 ADD PUSH1 0x40 MSTORE DUP1 SWAP3 SWAP2 SWAP1 DUP2 DUP2 MSTORE PUSH1 0x20 ADD DUP3 DUP1 SLOAD PUSH2 0x43C SWAP1 PUSH2 0x91B JUMP JUMPDEST DUP1 ISZERO PUSH2 0x489 JUMPI DUP1 PUSH1 0x1F LT PUSH2 0x45E JUMPI PUSH2 0x100 DUP1 DUP4 SLOAD DIV MUL DUP4 MSTORE SWAP2 PUSH1 0x20 ADD SWAP2 PUSH2 0x489 JUMP JUMPDEST DUP3 ADD SWAP2 SWAP1 PUSH1 0x0 MSTORE PUSH1 0x20 PUSH1 0x0 KECCAK256 SWAP1 JUMPDEST DUP2 SLOAD DUP2 MSTORE SWAP1 PUSH1 0x1 ADD SWAP1 PUSH1 0x20 ADD DUP1 DUP4 GT PUSH2 0x46C JUMPI DUP3 SWAP1 SUB PUSH1 0x1F AND DUP3 ADD SWAP2 JUMPDEST POP POP POP POP POP DUP2 MSTORE PUSH1 0x20 ADD PUSH1 0x4 DUP3 ADD SLOAD DUP2 MSTORE POP POP DUP2 MSTORE PUSH1 0x20 ADD SWAP1 PUSH1 0x1 ADD SWAP1 PUSH2 0x227 JUMP JUMPDEST POP POP POP POP SWAP1 POP SWAP1 JUMP JUMPDEST PUSH1 0x0 PUSH1 0x40 MLOAD SWAP1 POP SWAP1 JUMP JUMPDEST PUSH1 0x0 DUP1 REVERT JUMPDEST PUSH1 0x0 DUP1 REVERT JUMPDEST PUSH1 0x0 DUP1 REVERT JUMPDEST PUSH1 0x0 DUP1 REVERT JUMPDEST PUSH1 0x0 PUSH1 0x1F NOT PUSH1 0x1F DUP4 ADD AND SWAP1 POP SWAP2 SWAP1 POP JUMP JUMPDEST PUSH32 0x4E487B7100000000000000000000000000000000000000000000000000000000 PUSH1 0x0 MSTORE PUSH1 0x41 PUSH1 0x4 MSTORE PUSH1 0x24 PUSH1 0x0 REVERT JUMPDEST PUSH2 0x51B DUP3 PUSH2 0x4D2 JUMP JUMPDEST DUP2 ADD DUP2 DUP2 LT PUSH8 0xFFFFFFFFFFFFFFFF DUP3 GT OR ISZERO PUSH2 0x53A JUMPI PUSH2 0x539 PUSH2 0x4E3 JUMP JUMPDEST JUMPDEST DUP1 PUSH1 0x40 MSTORE POP POP POP JUMP JUMPDEST PUSH1 0x0 PUSH2 0x54D PUSH2 0x4B4 JUMP JUMPDEST SWAP1 POP PUSH2 0x559 DUP3 DUP3 PUSH2 0x512 JUMP JUMPDEST SWAP2 SWAP1 POP JUMP JUMPDEST PUSH1 0x0 PUSH8 0xFFFFFFFFFFFFFFFF DUP3 GT ISZERO PUSH2 0x579 JUMPI PUSH2 0x578 PUSH2 0x4E3 JUMP JUMPDEST JUMPDEST PUSH2 0x582 DUP3 PUSH2 0x4D2 JUMP JUMPDEST SWAP1 POP PUSH1 0x20 DUP2 ADD SWAP1 POP SWAP2 SWAP1 POP JUMP JUMPDEST DUP3 DUP2 DUP4 CALLDATACOPY PUSH1 0x0 DUP4 DUP4 ADD MSTORE POP POP POP JUMP JUMPDEST PUSH1 0x0 PUSH2 0x5B1 PUSH2 0x5AC DUP5 PUSH2 0x55E JUMP JUMPDEST PUSH2 0x543 JUMP JUMPDEST SWAP1 POP DUP3 DUP2 MSTORE PUSH1 0x20 DUP2 ADD DUP5 DUP5 DUP5 ADD GT ISZERO PUSH2 0x5CD JUMPI PUSH2 0x5CC PUSH2 0x4CD JUMP JUMPDEST JUMPDEST PUSH2 0x5D8 DUP5 DUP3 DUP6 PUSH2 0x58F JUMP JUMPDEST POP SWAP4 SWAP3 POP POP POP JUMP JUMPDEST PUSH1 0x0 DUP3 PUSH1 0x1F DUP4 ADD SLT PUSH2 0x5F5 JUMPI PUSH2 0x5F4 PUSH2 0x4C8 JUMP JUMPDEST JUMPDEST DUP2 CALLDATALOAD PUSH2 0x605 DUP5 DUP3 PUSH1 0x20 DUP7 ADD PUSH2 0x59E JUMP JUMPDEST SWAP2 POP POP SWAP3 SWAP2 POP POP JUMP JUMPDEST PUSH1 0x0 DUP1 PUSH1 0x0 DUP1 PUSH1 0x80 DUP6 DUP8 SUB SLT ISZERO PUSH2 0x628 JUMPI PUSH2 0x627 PUSH2 0x4BE JUMP JUMPDEST JUMPDEST PUSH1 0x0 DUP6 ADD CALLDATALOAD PUSH8 0xFFFFFFFFFFFFFFFF DUP2 GT ISZERO PUSH2 0x646 JUMPI PUSH2 0x645 PUSH2 0x4C3 JUMP JUMPDEST JUMPDEST PUSH2 0x652 DUP8 DUP3 DUP9 ADD PUSH2 0x5E0 JUMP JUMPDEST SWAP5 POP POP PUSH1 0x20 DUP6 ADD CALLDATALOAD PUSH8 0xFFFFFFFFFFFFFFFF DUP2 GT ISZERO PUSH2 0x673 JUMPI PUSH2 0x672 PUSH2 0x4C3 JUMP JUMPDEST JUMPDEST PUSH2 0x67F DUP8 DUP3 DUP9 ADD PUSH2 0x5E0 JUMP JUMPDEST SWAP4 POP POP PUSH1 0x40 DUP6 ADD CALLDATALOAD PUSH8 0xFFFFFFFFFFFFFFFF DUP2 GT ISZERO PUSH2 0x6A0 JUMPI PUSH2 0x69F PUSH2 0x4C3 JUMP JUMPDEST JUMPDEST PUSH2 0x6AC DUP8 DUP3 DUP9 ADD PUSH2 0x5E0 JUMP JUMPDEST SWAP3 POP POP PUSH1 0x60 DUP6 ADD CALLDATALOAD PUSH8 0xFFFFFFFFFFFFFFFF DUP2 GT ISZERO PUSH2 0x6CD JUMPI PUSH2 0x6CC PUSH2 0x4C3 JUMP JUMPDEST JUMPDEST PUSH2 0x6D9 DUP8 DUP3 DUP9 ADD PUSH2 0x5E0 JUMP JUMPDEST SWAP2 POP POP SWAP3 SWAP6 SWAP2 SWAP5 POP SWAP3 POP JUMP JUMPDEST PUSH1 0x0 DUP2 MLOAD SWAP1 POP SWAP2 SWAP1 POP JUMP JUMPDEST PUSH1 0x0 DUP3 DUP3 MSTORE PUSH1 0x20 DUP3 ADD SWAP1 POP SWAP3 SWAP2 POP POP JUMP JUMPDEST PUSH1 0x0 DUP2 SWAP1 POP PUSH1 0x20 DUP3 ADD SWAP1 POP SWAP2 SWAP1 POP JUMP JUMPDEST PUSH1 0x0 DUP2 MLOAD SWAP1 POP SWAP2 SWAP1 POP JUMP JUMPDEST PUSH1 0x0 DUP3 DUP3 MSTORE PUSH1 0x20 DUP3 ADD SWAP1 POP SWAP3 SWAP2 POP POP JUMP JUMPDEST PUSH1 0x0 JUMPDEST DUP4 DUP2 LT ISZERO PUSH2 0x74B JUMPI DUP1 DUP3 ADD MLOAD DUP2 DUP5 ADD MSTORE PUSH1 0x20 DUP2 ADD SWAP1 POP PUSH2 0x730 JUMP JUMPDEST PUSH1 0x0 DUP5 DUP5 ADD MSTORE POP POP POP POP JUMP JUMPDEST PUSH1 0x0 PUSH2 0x762 DUP3 PUSH2 0x711 JUMP JUMPDEST PUSH2 0x76C DUP2 DUP6 PUSH2 0x71C JUMP JUMPDEST SWAP4 POP PUSH2 0x77C DUP2 DUP6 PUSH1 0x20 DUP7 ADD PUSH2 0x72D JUMP JUMPDEST PUSH2 0x785 DUP2 PUSH2 0x4D2 JUMP JUMPDEST DUP5 ADD SWAP2 POP POP SWAP3 SWAP2 POP POP JUMP JUMPDEST PUSH1 0x0 DUP2 SWAP1 POP SWAP2 SWAP1 POP JUMP JUMPDEST PUSH2 0x7A3 DUP2 PUSH2 0x790 JUMP JUMPDEST DUP3 MSTORE POP POP JUMP JUMPDEST PUSH1 0x0 PUSH1 0xA0 DUP4 ADD PUSH1 0x0 DUP4 ADD MLOAD DUP5 DUP3 SUB PUSH1 0x0 DUP7 ADD MSTORE PUSH2 0x7C6 DUP3 DUP3 PUSH2 0x757 JUMP JUMPDEST SWAP2 POP POP PUSH1 0x20 DUP4 ADD MLOAD DUP5 DUP3 SUB PUSH1 0x20 DUP7 ADD MSTORE PUSH2 0x7E0 DUP3 DUP3 PUSH2 0x757 JUMP JUMPDEST SWAP2 POP POP PUSH1 0x40 DUP4 ADD MLOAD DUP5 DUP3 SUB PUSH1 0x40 DUP7 ADD MSTORE PUSH2 0x7FA DUP3 DUP3 PUSH2 0x757 JUMP JUMPDEST SWAP2 POP POP PUSH1 0x60 DUP4 ADD MLOAD DUP5 DUP3 SUB PUSH1 0x60 DUP7 ADD MSTORE PUSH2 0x814 DUP3 DUP3 PUSH2 0x757 JUMP JUMPDEST SWAP2 POP POP PUSH1 0x80 DUP4 ADD MLOAD PUSH2 0x829 PUSH1 0x80 DUP7 ADD DUP3 PUSH2 0x79A JUMP JUMPDEST POP DUP1 SWAP2 POP POP SWAP3 SWAP2 POP POP JUMP JUMPDEST PUSH1 0x0 PUSH2 0x840 DUP4 DUP4 PUSH2 0x7A9 JUMP JUMPDEST SWAP1 POP SWAP3 SWAP2 POP POP JUMP JUMPDEST PUSH1 0x0 PUSH1 0x20 DUP3 ADD SWAP1 POP SWAP2 SWAP1 POP JUMP JUMPDEST PUSH1 0x0 PUSH2 0x860 DUP3 PUSH2 0x6E5 JUMP JUMPDEST PUSH2 0x86A DUP2 DUP6 PUSH2 0x6F0 JUMP JUMPDEST SWAP4 POP DUP4 PUSH1 0x20 DUP3 MUL DUP6 ADD PUSH2 0x87C DUP6 PUSH2 0x701 JUMP JUMPDEST DUP1 PUSH1 0x0 JUMPDEST DUP6 DUP2 LT ISZERO PUSH2 0x8B8 JUMPI DUP5 DUP5 SUB DUP10 MSTORE DUP2 MLOAD PUSH2 0x899 DUP6 DUP3 PUSH2 0x834 JUMP JUMPDEST SWAP5 POP PUSH2 0x8A4 DUP4 PUSH2 0x848 JUMP JUMPDEST SWAP3 POP PUSH1 0x20 DUP11 ADD SWAP10 POP POP PUSH1 0x1 DUP2 ADD SWAP1 POP PUSH2 0x880 JUMP JUMPDEST POP DUP3 SWAP8 POP DUP8 SWAP6 POP POP POP POP POP POP SWAP3 SWAP2 POP POP JUMP JUMPDEST PUSH1 0x0 PUSH1 0x20 DUP3 ADD SWAP1 POP DUP2 DUP2 SUB PUSH1 0x0 DUP4 ADD MSTORE PUSH2 0x8E4 DUP2 DUP5 PUSH2 0x855 JUMP JUMPDEST SWAP1 POP SWAP3 SWAP2 POP POP JUMP JUMPDEST PUSH32 0x4E487B7100000000000000000000000000000000000000000000000000000000 PUSH1 0x0 MSTORE PUSH1 0x22 PUSH1 0x4 MSTORE PUSH1 0x24 PUSH1 0x0 REVERT JUMPDEST PUSH1 0x0 PUSH1 0x2 DUP3 DIV SWAP1 POP PUSH1 0x1 DUP3 AND DUP1 PUSH2 0x933 JUMPI PUSH1 0x7F DUP3 AND SWAP2 POP JUMPDEST PUSH1 0x20 DUP3 LT DUP2 SUB PUSH2 0x946 JUMPI PUSH2 0x945 PUSH2 0x8EC JUMP JUMPDEST JUMPDEST POP SWAP2 SWAP1 POP JUMP JUMPDEST PUSH1 0x0 DUP2 SWAP1 POP DUP2 PUSH1 0x0 MSTORE PUSH1 0x20 PUSH1 0x0 KECCAK256 SWAP1 POP SWAP2 SWAP1 POP JUMP JUMPDEST PUSH1 0x0 PUSH1 0x20 PUSH1 0x1F DUP4 ADD DIV SWAP1 POP SWAP2 SWAP1 POP JUMP JUMPDEST PUSH1 0x0 DUP3 DUP3 SHL SWAP1 POP SWAP3 SWAP2 POP POP JUMP JUMPDEST PUSH1 0x0 PUSH1 0x8 DUP4 MUL PUSH2 0x9AE PUSH32 0xFFFFFFFFFFFFFFFFFFFFFFFFFFFFFFFFFFFFFFFFFFFFFFFFFFFFFFFFFFFFFFFF DUP3 PUSH2 0x971 JUMP JUMPDEST PUSH2 0x9B8 DUP7 DUP4 PUSH2 0x971 JUMP JUMPDEST SWAP6 POP DUP1 NOT DUP5 AND SWAP4 POP DUP1 DUP7 AND DUP5 OR SWAP3 POP POP POP SWAP4 SWAP3 POP POP POP JUMP JUMPDEST PUSH1 0x0 DUP2 SWAP1 POP SWAP2 SWAP1 POP JUMP JUMPDEST PUSH1 0x0 PUSH2 0x9F5 PUSH2 0x9F0 PUSH2 0x9EB DUP5 PUSH2 0x790 JUMP JUMPDEST PUSH2 0x9D0 JUMP JUMPDEST PUSH2 0x790 JUMP JUMPDEST SWAP1 POP SWAP2 SWAP1 POP JUMP JUMPDEST PUSH1 0x0 DUP2 SWAP1 POP SWAP2 SWAP1 POP JUMP JUMPDEST PUSH2 0xA0F DUP4 PUSH2 0x9DA JUMP JUMPDEST PUSH2 0xA23 PUSH2 0xA1B DUP3 PUSH2 0x9FC JUMP JUMPDEST DUP5 DUP5 SLOAD PUSH2 0x97E JUMP JUMPDEST DUP3 SSTORE POP POP POP POP JUMP JUMPDEST PUSH1 0x0 SWAP1 JUMP JUMPDEST PUSH2 0xA38 PUSH2 0xA2B JUMP JUMPDEST PUSH2 0xA43 DUP2 DUP5 DUP5 PUSH2 0xA06 JUMP JUMPDEST POP POP POP JUMP JUMPDEST JUMPDEST DUP2 DUP2 LT ISZERO PUSH2 0xA67 JUMPI PUSH2 0xA5C PUSH1 0x0 DUP3 PUSH2 0xA30 JUMP JUMPDEST PUSH1 0x1 DUP2 ADD SWAP1 POP PUSH2 0xA49 JUMP JUMPDEST POP POP JUMP JUMPDEST PUSH1 0x1F DUP3 GT ISZERO PUSH2 0xAAC JUMPI PUSH2 0xA7D DUP2 PUSH2 0x94C JUMP JUMPDEST PUSH2 0xA86 DUP5 PUSH2 0x961 JUMP JUMPDEST DUP2 ADD PUSH1 0x20 DUP6 LT ISZERO PUSH2 0xA95 JUMPI DUP2 SWAP1 POP JUMPDEST PUSH2 0xAA9 PUSH2 0xAA1 DUP6 PUSH2 0x961 JUMP JUMPDEST DUP4 ADD DUP3 PUSH2 0xA48 JUMP JUMPDEST POP POP JUMPDEST POP POP POP JUMP JUMPDEST PUSH1 0x0 DUP3 DUP3 SHR SWAP1 POP SWAP3 SWAP2 POP POP JUMP JUMPDEST PUSH1 0x0 PUSH2 0xACF PUSH1 0x0 NOT DUP5 PUSH1 0x8 MUL PUSH2 0xAB1 JUMP JUMPDEST NOT DUP1 DUP4 AND SWAP2 POP POP SWAP3 SWAP2 POP POP JUMP JUMPDEST PUSH1 0x0 PUSH2 0xAE8 DUP4 DUP4 PUSH2 0xABE JUMP JUMPDEST SWAP2 POP DUP3 PUSH1 0x2 MUL DUP3 OR SWAP1 POP SWAP3 SWAP2 POP POP JUMP JUMPDEST PUSH2 0xB01 DUP3 PUSH2 0x711 JUMP JUMPDEST PUSH8 0xFFFFFFFFFFFFFFFF DUP2 GT ISZERO PUSH2 0xB1A JUMPI PUSH2 0xB19 PUSH2 0x4E3 JUMP JUMPDEST JUMPDEST PUSH2 0xB24 DUP3 SLOAD PUSH2 0x91B JUMP JUMPDEST PUSH2 0xB2F DUP3 DUP3 DUP6 PUSH2 0xA6B JUMP JUMPDEST PUSH1 0x0 PUSH1 0x20 SWAP1 POP PUSH1 0x1F DUP4 GT PUSH1 0x1 DUP2 EQ PUSH2 0xB62 JUMPI PUSH1 0x0 DUP5 ISZERO PUSH2 0xB50 JUMPI DUP3 DUP8 ADD MLOAD SWAP1 POP JUMPDEST PUSH2 0xB5A DUP6 DUP3 PUSH2 0xADC JUMP JUMPDEST DUP7 SSTORE POP PUSH2 0xBC2 JUMP JUMPDEST PUSH1 0x1F NOT DUP5 AND PUSH2 0xB70 DUP7 PUSH2 0x94C JUMP JUMPDEST PUSH1 0x0 JUMPDEST DUP3 DUP2 LT ISZERO PUSH2 0xB98 JUMPI DUP5 DUP10 ADD MLOAD DUP3 SSTORE PUSH1 0x1 DUP3 ADD SWAP2 POP PUSH1 0x20 DUP6 ADD SWAP5 POP PUSH1 0x20 DUP2 ADD SWAP1 POP PUSH2 0xB73 JUMP JUMPDEST DUP7 DUP4 LT ISZERO PUSH2 0xBB5 JUMPI DUP5 DUP10 ADD MLOAD PUSH2 0xBB1 PUSH1 0x1F DUP10 AND DUP3 PUSH2 0xABE JUMP JUMPDEST DUP4 SSTORE POP JUMPDEST PUSH1 0x1 PUSH1 0x2 DUP9 MUL ADD DUP9 SSTORE POP POP POP JUMPDEST POP POP POP POP POP POP JUMP JUMPDEST PUSH1 0x0 DUP3 DUP3 MSTORE PUSH1 0x20 DUP3 ADD SWAP1 POP SWAP3 SWAP2 POP POP JUMP JUMPDEST PUSH1 0x0 PUSH2 0xBE6 DUP3 PUSH2 0x711 JUMP JUMPDEST PUSH2 0xBF0 DUP2 DUP6 PUSH2 0xBCA JUMP JUMPDEST SWAP4 POP PUSH2 0xC00 DUP2 DUP6 PUSH1 0x20 DUP7 ADD PUSH2 0x72D JUMP JUMPDEST PUSH2 0xC09 DUP2 PUSH2 0x4D2 JUMP JUMPDEST DUP5 ADD SWAP2 POP POP SWAP3 SWAP2 POP POP JUMP JUMPDEST PUSH1 0x0 PUSH1 0x80 DUP3 ADD SWAP1 POP DUP2 DUP2 SUB PUSH1 0x0 DUP4 ADD MSTORE PUSH2 0xC2E DUP2 DUP8 PUSH2 0xBDB JUMP JUMPDEST SWAP1 POP DUP2 DUP2 SUB PUSH1 0x20 DUP4 ADD MSTORE PUSH2 0xC42 DUP2 DUP7 PUSH2 0xBDB JUMP JUMPDEST SWAP1 POP DUP2 DUP2 SUB PUSH1 0x40 DUP4 ADD MSTORE PUSH2 0xC56 DUP2 DUP6 PUSH2 0xBDB JUMP JUMPDEST SWAP1 POP DUP2 DUP2 SUB PUSH1 0x60 DUP4 ADD MSTORE PUSH2 0xC6A DUP2 DUP5 PUSH2 0xBDB JUMP JUMPDEST SWAP1 POP SWAP6 SWAP5 POP POP POP POP POP JUMP INVALID LOG2 PUSH5 0x6970667358 0x22 SLT KECCAK256 DUP11 MUL CALLDATALOAD DUP5 NUMBER STOP 0xBD 0x4F 0x4B CHAINID 0xDF 0xAC GAS 0xC4 0xB7 0xF8 PUSH5 0xD1CD0DB2F JUMPI 0xBB 0xEA DUP14 0xC0 0xAF 0xAC MSTORE 0xB9 COINBASE PUSH5 0x736F6C6343 STOP ADDMOD EQ STOP CALLER "},"methodIdentifiers":{"getRecords()":"8eff3c29","storeRecord(string,string,string,string)":"0ad105ce"}}}}}