{"contracts/LabBookingContract.sol":{"LabBookingContract":{"abi":[{"anonymous":false,"inputs":[{"indexed":false,"internalType":"uint256","name":"id","type":"uint256"},{"indexed":false,"internalType":"string","name":"name","type":"string"},{"indexed":false,"internalType":"string","name":"testType","type":"string"}],"name":"LabBookingStored","type":"event"},{"inputs":[],"name":"bookingCount","outputs":[{"internalType":"uint256","name":"","type":"uint256"}],"stateMutability":"view","type":"function"},{"inputs":[{"internalType":"uint256","name":"","type":"uint256"}],"name":"bookings","outputs":[{"internalType":"uint256","name":"id","type":"uint256"},{"internalType":"string","name":"name","type":"string"},{"internalType":"string","name":"email","type":"string"},{"internalType":"string","name":"phone","type":"string"},{"internalType":"string","name":"testType","type":"string"},{"internalType":"string","name":"appointmentDate","type":"string"},{"internalType":"string","name":"appointmentTime","type":"string"}],"stateMutability":"view","type":"function"},{"inputs":[{"internalType":"string","name":"_name","type":"string"},{"internalType":"string","name":"_email","type":"string"},{"internalType":"string","name":"_phone","type":"string"},{"internalType":"string","name":"_testType","type":"string"},{"internalType":"string","name":"_appointmentDate","type":"string"},{"internalType":"string","name":"_appointmentTime","type":"string"}],"name":"storeLabBooking","outputs":[],"stateMutability":"nonpayable","type":"function"}],"evm":{"bytecode":{"linkReferences":{},"object":"608060405234801561001057600080fd5b50610d69806100206000396000f3fe608060405234801561001057600080fd5b50600436106100415760003560e01c80630c27bfba146100465780631dab301e146100625780636d75917214610098575b600080fd5b610060600480360381019061005b91906106bf565b6100b6565b005b61007c6004803603810190610077919061082a565b6101ed565b60405161008f97969594939291906108e5565b60405180910390f35b6100a061055f565b6040516100ad919061097e565b60405180910390f35b600160008154809291906100c9906109c8565b91905055506040518060e0016040528060015481526020018781526020018681526020018581526020018481526020018381526020018281525060008060015481526020019081526020016000206000820151816000015560208201518160010190816101369190610c1c565b50604082015181600201908161014c9190610c1c565b5060608201518160030190816101629190610c1c565b5060808201518160040190816101789190610c1c565b5060a082015181600501908161018e9190610c1c565b5060c08201518160060190816101a49190610c1c565b509050507fb1880d62e421f96f680c72f6e62d86ff09d85c42ebb2c67022c10772000a789b60015487856040516101dd93929190610cee565b60405180910390a1505050505050565b600060205280600052604060002060009150905080600001549080600101805461021690610a3f565b80601f016020809104026020016040519081016040528092919081815260200182805461024290610a3f565b801561028f5780601f106102645761010080835404028352916020019161028f565b820191906000526020600020905b81548152906001019060200180831161027257829003601f168201915b5050505050908060020180546102a490610a3f565b80601f01602080910402602001604051908101604052809291908181526020018280546102d090610a3f565b801561031d5780601f106102f25761010080835404028352916020019161031d565b820191906000526020600020905b81548152906001019060200180831161030057829003601f168201915b50505050509080600301805461033290610a3f565b80601f016020809104026020016040519081016040528092919081815260200182805461035e90610a3f565b80156103ab5780601f10610380576101008083540402835291602001916103ab565b820191906000526020600020905b81548152906001019060200180831161038e57829003601f168201915b5050505050908060040180546103c090610a3f565b80601f01602080910402602001604051908101604052809291908181526020018280546103ec90610a3f565b80156104395780601f1061040e57610100808354040283529160200191610439565b820191906000526020600020905b81548152906001019060200180831161041c57829003601f168201915b50505050509080600501805461044e90610a3f565b80601f016020809104026020016040519081016040528092919081815260200182805461047a90610a3f565b80156104c75780601f1061049c576101008083540402835291602001916104c7565b820191906000526020600020905b8154815290600101906020018083116104aa57829003601f168201915b5050505050908060060180546104dc90610a3f565b80601f016020809104026020016040519081016040528092919081815260200182805461050890610a3f565b80156105555780601f1061052a57610100808354040283529160200191610555565b820191906000526020600020905b81548152906001019060200180831161053857829003601f168201915b5050505050905087565b60015481565b6000604051905090565b600080fd5b600080fd5b600080fd5b600080fd5b6000601f19601f8301169050919050565b7f4e487b7100000000000000000000000000000000000000000000000000000000600052604160045260246000fd5b6105cc82610583565b810181811067ffffffffffffffff821117156105eb576105ea610594565b5b80604052505050565b60006105fe610565565b905061060a82826105c3565b919050565b600067ffffffffffffffff82111561062a57610629610594565b5b61063382610583565b9050602081019050919050565b82818337600083830152505050565b600061066261065d8461060f565b6105f4565b90508281526020810184848401111561067e5761067d61057e565b5b610689848285610640565b509392505050565b600082601f8301126106a6576106a5610579565b5b81356106b684826020860161064f565b91505092915050565b60008060008060008060c087890312156106dc576106db61056f565b5b600087013567ffffffffffffffff8111156106fa576106f9610574565b5b61070689828a01610691565b965050602087013567ffffffffffffffff81111561072757610726610574565b5b61073389828a01610691565b955050604087013567ffffffffffffffff81111561075457610753610574565b5b61076089828a01610691565b945050606087013567ffffffffffffffff81111561078157610780610574565b5b61078d89828a01610691565b935050608087013567ffffffffffffffff8111156107ae576107ad610574565b5b6107ba89828a01610691565b92505060a087013567ffffffffffffffff8111156107db576107da610574565b5b6107e789828a01610691565b9150509295509295509295565b6000819050919050565b610807816107f4565b811461081257600080fd5b50565b600081359050610824816107fe565b92915050565b6000602082840312156108405761083f61056f565b5b600061084e84828501610815565b91505092915050565b610860816107f4565b82525050565b600081519050919050565b600082825260208201905092915050565b60005b838110156108a0578082015181840152602081019050610885565b60008484015250505050565b60006108b782610866565b6108c18185610871565b93506108d1818560208601610882565b6108da81610583565b840191505092915050565b600060e0820190506108fa600083018a610857565b818103602083015261090c81896108ac565b9050818103604083015261092081886108ac565b9050818103606083015261093481876108ac565b9050818103608083015261094881866108ac565b905081810360a083015261095c81856108ac565b905081810360c083015261097081846108ac565b905098975050505050505050565b60006020820190506109936000830184610857565b92915050565b7f4e487b7100000000000000000000000000000000000000000000000000000000600052601160045260246000fd5b60006109d3826107f4565b91507fffffffffffffffffffffffffffffffffffffffffffffffffffffffffffffffff8203610a0557610a04610999565b5b600182019050919050565b7f4e487b7100000000000000000000000000000000000000000000000000000000600052602260045260246000fd5b60006002820490506001821680610a5757607f821691505b602082108103610a6a57610a69610a10565b5b50919050565b60008190508160005260206000209050919050565b60006020601f8301049050919050565b600082821b905092915050565b600060088302610ad27fffffffffffffffffffffffffffffffffffffffffffffffffffffffffffffffff82610a95565b610adc8683610a95565b95508019841693508086168417925050509392505050565b6000819050919050565b6000610b19610b14610b0f846107f4565b610af4565b6107f4565b9050919050565b6000819050919050565b610b3383610afe565b610b47610b3f82610b20565b848454610aa2565b825550505050565b600090565b610b5c610b4f565b610b67818484610b2a565b505050565b5b81811015610b8b57610b80600082610b54565b600181019050610b6d565b5050565b601f821115610bd057610ba181610a70565b610baa84610a85565b81016020851015610bb9578190505b610bcd610bc585610a85565b830182610b6c565b50505b505050565b600082821c905092915050565b6000610bf360001984600802610bd5565b1980831691505092915050565b6000610c0c8383610be2565b9150826002028217905092915050565b610c2582610866565b67ffffffffffffffff811115610c3e57610c3d610594565b5b610c488254610a3f565b610c53828285610b8f565b600060209050601f831160018114610c865760008415610c74578287015190505b610c7e8582610c00565b865550610ce6565b601f198416610c9486610a70565b60005b82811015610cbc57848901518255600182019150602085019450602081019050610c97565b86831015610cd95784890151610cd5601f891682610be2565b8355505b6001600288020188555050505b505050505050565b6000606082019050610d036000830186610857565b8181036020830152610d1581856108ac565b90508181036040830152610d2981846108ac565b905094935050505056fea2646970667358221220e42c0a05c3b9f087676a90bfe14fe4c0c78c8fb6b9b69af261d6a4c782a0eeca64736f6c63430008140033","opcodes":"PUSH1 0x80 PUSH1 0x40 MSTORE CALLVALUE DUP1 ISZERO PUSH2 0x10 JUMPI PUSH1 0x0 DUP1 REVERT JUMPDEST POP PUSH2 0xD69 DUP1 PUSH2 0x20 PUSH1 0x0 CODECOPY PUSH1 0x0 RETURN INVALID PUSH1 0x80 PUSH1 0x40 MSTORE CALLVALUE DUP1 ISZERO PUSH2 0x10 JUMPI PUSH1 0x0 DUP1 REVERT JUMPDEST POP PUSH1 0x4 CALLDATASIZE LT PUSH2 0x41 JUMPI PUSH1 0x0 CALLDATALOAD PUSH1 0xE0 SHR DUP1 PUSH4 0xC27BFBA EQ PUSH2 0x46 JUMPI DUP1 PUSH4 0x1DAB301E EQ PUSH2 0x62 JUMPI DUP1 PUSH4 0x6D759172 EQ PUSH2 0x98 JUMPI JUMPDEST PUSH1 0x0 DUP1 REVERT JUMPDEST PUSH2 0x60 PUSH1 0x4 DUP1 CALLDATASIZE SUB DUP2 ADD SWAP1 PUSH2 0x5B SWAP2 SWAP1 PUSH2 0x6BF JUMP JUMPDEST PUSH2 0xB6 JUMP JUMPDEST STOP JUMPDEST PUSH2 0x7C PUSH1 0x4 DUP1 CALLDATASIZE SUB DUP2 ADD SWAP1 PUSH2 0x77 SWAP2 SWAP1 PUSH2 0x82A JUMP JUMPDEST PUSH2 0x1ED JUMP JUMPDEST PUSH1 0x40 MLOAD PUSH2 0x8F SWAP8 SWAP7 SWAP6 SWAP5 SWAP4 SWAP3 SWAP2 SWAP1 PUSH2 0x8E5 JUMP JUMPDEST PUSH1 0x40 MLOAD DUP1 SWAP2 SUB SWAP1 RETURN JUMPDEST PUSH2 0xA0 PUSH2 0x55F JUMP JUMPDEST PUSH1 0x40 MLOAD PUSH2 0xAD SWAP2 SWAP1 PUSH2 0x97E JUMP JUMPDEST PUSH1 0x40 MLOAD DUP1 SWAP2 SUB SWAP1 RETURN JUMPDEST PUSH1 0x1 PUSH1 0x0 DUP2 SLOAD DUP1 SWAP3 SWAP2 SWAP1 PUSH2 0xC9 SWAP1 PUSH2 0x9C8 JUMP JUMPDEST SWAP2 SWAP1 POP SSTORE POP PUSH1 0x40 MLOAD DUP1 PUSH1 0xE0 ADD PUSH1 0x40 MSTORE DUP1 PUSH1 0x1 SLOAD DUP2 MSTORE PUSH1 0x20 ADD DUP8 DUP2 MSTORE PUSH1 0x20 ADD DUP7 DUP2 MSTORE PUSH1 0x20 ADD DUP6 DUP2 MSTORE PUSH1 0x20 ADD DUP5 DUP2 MSTORE PUSH1 0x20 ADD DUP4 DUP2 MSTORE PUSH1 0x20 ADD DUP3 DUP2 MSTORE POP PUSH1 0x0 DUP1 PUSH1 0x1 SLOAD DUP2 MSTORE PUSH1 0x20 ADD SWAP1 DUP2 MSTORE PUSH1 0x20 ADD PUSH1 0x0 KECCAK256 PUSH1 0x0 DUP3 ADD MLOAD DUP2 PUSH1 0x0 ADD SSTORE PUSH1 0x20 DUP3 ADD MLOAD DUP2 PUSH1 0x1 ADD SWAP1 DUP2 PUSH2 0x136 SWAP2 SWAP1 PUSH2 0xC1C JUMP JUMPDEST POP PUSH1 0x40 DUP3 ADD MLOAD DUP2 PUSH1 0x2 ADD SWAP1 DUP2 PUSH2 0x14C SWAP2 SWAP1 PUSH2 0xC1C JUMP JUMPDEST POP PUSH1 0x60 DUP3 ADD MLOAD DUP2 PUSH1 0x3 ADD SWAP1 DUP2 PUSH2 0x162 SWAP2 SWAP1 PUSH2 0xC1C JUMP JUMPDEST POP PUSH1 0x80 DUP3 ADD MLOAD DUP2 PUSH1 0x4 ADD SWAP1 DUP2 PUSH2 0x178 SWAP2 SWAP1 PUSH2 0xC1C JUMP JUMPDEST POP PUSH1 0xA0 DUP3 ADD MLOAD DUP2 PUSH1 0x5 ADD SWAP1 DUP2 PUSH2 0x18E SWAP2 SWAP1 PUSH2 0xC1C JUMP JUMPDEST POP PUSH1 0xC0 DUP3 ADD MLOAD DUP2 PUSH1 0x6 ADD SWAP1 DUP2 PUSH2 0x1A4 SWAP2 SWAP1 PUSH2 0xC1C JUMP JUMPDEST POP SWAP1 POP POP PUSH32 0xB1880D62E421F96F680C72F6E62D86FF09D85C42EBB2C67022C10772000A789B PUSH1 0x1 SLOAD DUP8 DUP6 PUSH1 0x40 MLOAD PUSH2 0x1DD SWAP4 SWAP3 SWAP2 SWAP1 PUSH2 0xCEE JUMP JUMPDEST PUSH1 0x40 MLOAD DUP1 SWAP2 SUB SWAP1 LOG1 POP POP POP POP POP POP JUMP JUMPDEST PUSH1 0x0 PUSH1 0x20 MSTORE DUP1 PUSH1 0x0 MSTORE PUSH1 0x40 PUSH1 0x0 KECCAK256 PUSH1 0x0 SWAP2 POP SWAP1 POP DUP1 PUSH1 0x0 ADD SLOAD SWAP1 DUP1 PUSH1 0x1 ADD DUP1 SLOAD PUSH2 0x216 SWAP1 PUSH2 0xA3F JUMP JUMPDEST DUP1 PUSH1 0x1F ADD PUSH1 0x20 DUP1 SWAP2 DIV MUL PUSH1 0x20 ADD PUSH1 0x40 MLOAD SWAP1 DUP2 ADD PUSH1 0x40 MSTORE DUP1 SWAP3 SWAP2 SWAP1 DUP2 DUP2 MSTORE PUSH1 0x20 ADD DUP3 DUP1 SLOAD PUSH2 0x242 SWAP1 PUSH2 0xA3F JUMP JUMPDEST DUP1 ISZERO PUSH2 0x28F JUMPI DUP1 PUSH1 0x1F LT PUSH2 0x264 JUMPI PUSH2 0x100 DUP1 DUP4 SLOAD DIV MUL DUP4 MSTORE SWAP2 PUSH1 0x20 ADD SWAP2 PUSH2 0x28F JUMP JUMPDEST DUP3 ADD SWAP2 SWAP1 PUSH1 0x0 MSTORE PUSH1 0x20 PUSH1 0x0 KECCAK256 SWAP1 JUMPDEST DUP2 SLOAD DUP2 MSTORE SWAP1 PUSH1 0x1 ADD SWAP1 PUSH1 0x20 ADD DUP1 DUP4 GT PUSH2 0x272 JUMPI DUP3 SWAP1 SUB PUSH1 0x1F AND DUP3 ADD SWAP2 JUMPDEST POP POP POP POP POP SWAP1 DUP1 PUSH1 0x2 ADD DUP1 SLOAD PUSH2 0x2A4 SWAP1 PUSH2 0xA3F JUMP JUMPDEST DUP1 PUSH1 0x1F ADD PUSH1 0x20 DUP1 SWAP2 DIV MUL PUSH1 0x20 ADD PUSH1 0x40 MLOAD SWAP1 DUP2 ADD PUSH1 0x40 MSTORE DUP1 SWAP3 SWAP2 SWAP1 DUP2 DUP2 MSTORE PUSH1 0x20 ADD DUP3 DUP1 SLOAD PUSH2 0x2D0 SWAP1 PUSH2 0xA3F JUMP JUMPDEST DUP1 ISZERO PUSH2 0x31D JUMPI DUP1 PUSH1 0x1F LT PUSH2 0x2F2 JUMPI PUSH2 0x100 DUP1 DUP4 SLOAD DIV MUL DUP4 MSTORE SWAP2 PUSH1 0x20 ADD SWAP2 PUSH2 0x31D JUMP JUMPDEST DUP3 ADD SWAP2 SWAP1 PUSH1 0x0 MSTORE PUSH1 0x20 PUSH1 0x0 KECCAK256 SWAP1 JUMPDEST DUP2 SLOAD DUP2 MSTORE SWAP1 PUSH1 0x1 ADD SWAP1 PUSH1 0x20 ADD DUP1 DUP4 GT PUSH2 0x300 JUMPI DUP3 SWAP1 SUB PUSH1 0x1F AND DUP3 ADD SWAP2 JUMPDEST POP POP POP POP POP SWAP1 DUP1 PUSH1 0x3 ADD DUP1 SLOAD PUSH2 0x332 SWAP1 PUSH2 0xA3F JUMP JUMPDEST DUP1 PUSH1 0x1F ADD PUSH1 0x20 DUP1 SWAP2 DIV MUL PUSH1 0x20 ADD PUSH1 0x40 MLOAD SWAP1 DUP2 ADD PUSH1 0x40 MSTORE DUP1 SWAP3 SWAP2 SWAP1 DUP2 DUP2 MSTORE PUSH1 0x20 ADD DUP3 DUP1 SLOAD PUSH2 0x35E SWAP1 PUSH2 0xA3F JUMP JUMPDEST DUP1 ISZERO PUSH2 0x3AB JUMPI DUP1 PUSH1 0x1F LT PUSH2 0x380 JUMPI PUSH2 0x100 DUP1 DUP4 SLOAD DIV MUL DUP4 MSTORE SWAP2 PUSH1 0x20 ADD SWAP2 PUSH2 0x3AB JUMP JUMPDEST DUP3 ADD SWAP2 SWAP1 PUSH1 0x0 MSTORE PUSH1 0x20 PUSH1 0x0 KECCAK256 SWAP1 JUMPDEST DUP2 SLOAD DUP2 MSTORE SWAP1 PUSH1 0x1 ADD SWAP1 PUSH1 0x20 ADD DUP1 DUP4 GT PUSH2 0x38E JUMPI DUP3 SWAP1 SUB PUSH1 0x1F AND DUP3 ADD SWAP2 JUMPDEST POP POP POP POP POP SWAP1 DUP1 PUSH1 0x4 ADD DUP1 SLOAD PUSH2 0x3C0 SWAP1 PUSH2 0xA3F JUMP JUMPDEST DUP1 PUSH1 0x1F ADD PUSH1 0x20 DUP1 SWAP2 DIV MUL PUSH1 0x20 ADD PUSH1 0x40 MLOAD SWAP1 DUP2 ADD PUSH1 0x40 MSTORE DUP1 SWAP3 SWAP2 SWAP1 DUP2 DUP2 MSTORE PUSH1 0x20 ADD DUP3 DUP1 SLOAD PUSH2 0x3EC SWAP1 PUSH2 0xA3F JUMP JUMPDEST DUP1 ISZERO PUSH2 0x439 JUMPI DUP1 PUSH1 0x1F LT PUSH2 0x40E JUMPI PUSH2 0x100 DUP1 DUP4 SLOAD DIV MUL DUP4 MSTORE SWAP2 PUSH1 0x20 ADD SWAP2 PUSH2 0x439 JUMP JUMPDEST DUP3 ADD SWAP2 SWAP1 PUSH1 0x0 MSTORE PUSH1 0x20 PUSH1 0x0 KECCAK256 SWAP1 JUMPDEST DUP2 SLOAD DUP2 MSTORE SWAP1 PUSH1 0x1 ADD SWAP1 PUSH1 0x20 ADD DUP1 DUP4 GT PUSH2 0x41C JUMPI DUP3 SWAP1 SUB PUSH1 0x1F AND DUP3 ADD SWAP2 JUMPDEST POP POP POP POP POP SWAP1 DUP1 PUSH1 0x5 ADD DUP1 SLOAD PUSH2 0x44E SWAP1 PUSH2 0xA3F JUMP JUMPDEST DUP1 PUSH1 0x1F ADD PUSH1 0x20 DUP1 SWAP2 DIV MUL PUSH1 0x20 ADD PUSH1 0x40 MLOAD SWAP1 DUP2 ADD PUSH1 0x40 MSTORE DUP1 SWAP3 SWAP2 SWAP1 DUP2 DUP2 MSTORE PUSH1 0x20 ADD DUP3 DUP1 SLOAD PUSH2 0x47A SWAP1 PUSH2 0xA3F JUMP JUMPDEST DUP1 ISZERO PUSH2 0x4C7 JUMPI DUP1 PUSH1 0x1F LT PUSH2 0x49C JUMPI PUSH2 0x100 DUP1 DUP4 SLOAD DIV MUL DUP4 MSTORE SWAP2 PUSH1 0x20 ADD SWAP2 PUSH2 0x4C7 JUMP JUMPDEST DUP3 ADD SWAP2 SWAP1 PUSH1 0x0 MSTORE PUSH1 0x20 PUSH1 0x0 KECCAK256 SWAP1 JUMPDEST DUP2 SLOAD DUP2 MSTORE SWAP1 PUSH1 0x1 ADD SWAP1 PUSH1 0x20 ADD DUP1 DUP4 GT PUSH2 0x4AA JUMPI DUP3 SWAP1 SUB PUSH1 0x1F AND DUP3 ADD SWAP2 JUMPDEST POP POP POP POP POP SWAP1 DUP1 PUSH1 0x6 ADD DUP1 SLOAD PUSH2 0x4DC SWAP1 PUSH2 0xA3F JUMP JUMPDEST DUP1 PUSH1 0x1F ADD PUSH1 0x20 DUP1 SWAP2 DIV MUL PUSH1 0x20 ADD PUSH1 0x40 MLOAD SWAP1 DUP2 ADD PUSH1 0x40 MSTORE DUP1 SWAP3 SWAP2 SWAP1 DUP2 DUP2 MSTORE PUSH1 0x20 ADD DUP3 DUP1 SLOAD PUSH2 0x508 SWAP1 PUSH2 0xA3F JUMP JUMPDEST DUP1 ISZERO PUSH2 0x555 JUMPI DUP1 PUSH1 0x1F LT PUSH2 0x52A JUMPI PUSH2 0x100 DUP1 DUP4 SLOAD DIV MUL DUP4 MSTORE SWAP2 PUSH1 0x20 ADD SWAP2 PUSH2 0x555 JUMP JUMPDEST DUP3 ADD SWAP2 SWAP1 PUSH1 0x0 MSTORE PUSH1 0x20 PUSH1 0x0 KECCAK256 SWAP1 JUMPDEST DUP2 SLOAD DUP2 MSTORE SWAP1 PUSH1 0x1 ADD SWAP1 PUSH1 0x20 ADD DUP1 DUP4 GT PUSH2 0x538 JUMPI DUP3 SWAP1 SUB PUSH1 0x1F AND DUP3 ADD SWAP2 JUMPDEST POP POP POP POP POP SWAP1 POP DUP8 JUMP JUMPDEST PUSH1 0x1 SLOAD DUP2 JUMP JUMPDEST PUSH1 0x0 PUSH1 0x40 MLOAD SWAP1 POP SWAP1 JUMP JUMPDEST PUSH1 0x0 DUP1 REVERT JUMPDEST PUSH1 0x0 DUP1 REVERT JUMPDEST PUSH1 0x0 DUP1 REVERT JUMPDEST PUSH1 0x0 DUP1 REVERT JUMPDEST PUSH1 0x0 PUSH1 0x1F NOT PUSH1 0x1F DUP4 ADD AND SWAP1 POP SWAP2 SWAP1 POP JUMP JUMPDEST PUSH32 0x4E487B7100000000000000000000000000000000000000000000000000000000 PUSH1 0x0 MSTORE PUSH1 0x41 PUSH1 0x4 MSTORE PUSH1 0x24 PUSH1 0x0 REVERT JUMPDEST PUSH2 0x5CC DUP3 PUSH2 0x583 JUMP JUMPDEST DUP2 ADD DUP2 DUP2 LT PUSH8 0xFFFFFFFFFFFFFFFF DUP3 GT OR ISZERO PUSH2 0x5EB JUMPI PUSH2 0x5EA PUSH2 0x594 JUMP JUMPDEST JUMPDEST DUP1 PUSH1 0x40 MSTORE POP POP POP JUMP JUMPDEST PUSH1 0x0 PUSH2 0x5FE PUSH2 0x565 JUMP JUMPDEST SWAP1 POP PUSH2 0x60A DUP3 DUP3 PUSH2 0x5C3 JUMP JUMPDEST SWAP2 SWAP1 POP JUMP JUMPDEST PUSH1 0x0 PUSH8 0xFFFFFFFFFFFFFFFF DUP3 GT ISZERO PUSH2 0x62A JUMPI PUSH2 0x629 PUSH2 0x594 JUMP JUMPDEST JUMPDEST PUSH2 0x633 DUP3 PUSH2 0x583 JUMP JUMPDEST SWAP1 POP PUSH1 0x20 DUP2 ADD SWAP1 POP SWAP2 SWAP1 POP JUMP JUMPDEST DUP3 DUP2 DUP4 CALLDATACOPY PUSH1 0x0 DUP4 DUP4 ADD MSTORE POP POP POP JUMP JUMPDEST PUSH1 0x0 PUSH2 0x662 PUSH2 0x65D DUP5 PUSH2 0x60F JUMP JUMPDEST PUSH2 0x5F4 JUMP JUMPDEST SWAP1 POP DUP3 DUP2 MSTORE PUSH1 0x20 DUP2 ADD DUP5 DUP5 DUP5 ADD GT ISZERO PUSH2 0x67E JUMPI PUSH2 0x67D PUSH2 0x57E JUMP JUMPDEST JUMPDEST PUSH2 0x689 DUP5 DUP3 DUP6 PUSH2 0x640 JUMP JUMPDEST POP SWAP4 SWAP3 POP POP POP JUMP JUMPDEST PUSH1 0x0 DUP3 PUSH1 0x1F DUP4 ADD SLT PUSH2 0x6A6 JUMPI PUSH2 0x6A5 PUSH2 0x579 JUMP JUMPDEST JUMPDEST DUP2 CALLDATALOAD PUSH2 0x6B6 DUP5 DUP3 PUSH1 0x20 DUP7 ADD PUSH2 0x64F JUMP JUMPDEST SWAP2 POP POP SWAP3 SWAP2 POP POP JUMP JUMPDEST PUSH1 0x0 DUP1 PUSH1 0x0 DUP1 PUSH1 0x0 DUP1 PUSH1 0xC0 DUP8 DUP10 SUB SLT ISZERO PUSH2 0x6DC JUMPI PUSH2 0x6DB PUSH2 0x56F JUMP JUMPDEST JUMPDEST PUSH1 0x0 DUP8 ADD CALLDATALOAD PUSH8 0xFFFFFFFFFFFFFFFF DUP2 GT ISZERO PUSH2 0x6FA JUMPI PUSH2 0x6F9 PUSH2 0x574 JUMP JUMPDEST JUMPDEST PUSH2 0x706 DUP10 DUP3 DUP11 ADD PUSH2 0x691 JUMP JUMPDEST SWAP7 POP POP PUSH1 0x20 DUP8 ADD CALLDATALOAD PUSH8 0xFFFFFFFFFFFFFFFF DUP2 GT ISZERO PUSH2 0x727 JUMPI PUSH2 0x726 PUSH2 0x574 JUMP JUMPDEST JUMPDEST PUSH2 0x733 DUP10 DUP3 DUP11 ADD PUSH2 0x691 JUMP JUMPDEST SWAP6 POP POP PUSH1 0x40 DUP8 ADD CALLDATALOAD PUSH8 0xFFFFFFFFFFFFFFFF DUP2 GT ISZERO PUSH2 0x754 JUMPI PUSH2 0x753 PUSH2 0x574 JUMP JUMPDEST JUMPDEST PUSH2 0x760 DUP10 DUP3 DUP11 ADD PUSH2 0x691 JUMP JUMPDEST SWAP5 POP POP PUSH1 0x60 DUP8 ADD CALLDATALOAD PUSH8 0xFFFFFFFFFFFFFFFF DUP2 GT ISZERO PUSH2 0x781 JUMPI PUSH2 0x780 PUSH2 0x574 JUMP JUMPDEST JUMPDEST PUSH2 0x78D DUP10 DUP3 DUP11 ADD PUSH2 0x691 JUMP JUMPDEST SWAP4 POP POP PUSH1 0x80 DUP8 ADD CALLDATALOAD PUSH8 0xFFFFFFFFFFFFFFFF DUP2 GT ISZERO PUSH2 0x7AE JUMPI PUSH2 0x7AD PUSH2 0x574 JUMP JUMPDEST JUMPDEST PUSH2 0x7BA DUP10 DUP3 DUP11 ADD PUSH2 0x691 JUMP JUMPDEST SWAP3 POP POP PUSH1 0xA0 DUP8 ADD CALLDATALOAD PUSH8 0xFFFFFFFFFFFFFFFF DUP2 GT ISZERO PUSH2 0x7DB JUMPI PUSH2 0x7DA PUSH2 0x574 JUMP JUMPDEST JUMPDEST PUSH2 0x7E7 DUP10 DUP3 DUP11 ADD PUSH2 0x691 JUMP JUMPDEST SWAP2 POP POP SWAP3 SWAP6 POP SWAP3 SWAP6 POP SWAP3 SWAP6 JUMP JUMPDEST PUSH1 0x0 DUP2 SWAP1 POP SWAP2 SWAP1 POP JUMP JUMPDEST PUSH2 0x807 DUP2 PUSH2 0x7F4 JUMP JUMPDEST DUP2 EQ PUSH2 0x812 JUMPI PUSH1 0x0 DUP1 REVERT JUMPDEST POP JUMP JUMPDEST PUSH1 0x0 DUP2 CALLDATALOAD SWAP1 POP PUSH2 0x824 DUP2 PUSH2 0x7FE JUMP JUMPDEST SWAP3 SWAP2 POP POP JUMP JUMPDEST PUSH1 0x0 PUSH1 0x20 DUP3 DUP5 SUB SLT ISZERO PUSH2 0x840 JUMPI PUSH2 0x83F PUSH2 0x56F JUMP JUMPDEST JUMPDEST PUSH1 0x0 PUSH2 0x84E DUP5 DUP3 DUP6 ADD PUSH2 0x815 JUMP JUMPDEST SWAP2 POP POP SWAP3 SWAP2 POP POP JUMP JUMPDEST PUSH2 0x860 DUP2 PUSH2 0x7F4 JUMP JUMPDEST DUP3 MSTORE POP POP JUMP JUMPDEST PUSH1 0x0 DUP2 MLOAD SWAP1 POP SWAP2 SWAP1 POP JUMP JUMPDEST PUSH1 0x0 DUP3 DUP3 MSTORE PUSH1 0x20 DUP3 ADD SWAP1 POP SWAP3 SWAP2 POP POP JUMP JUMPDEST PUSH1 0x0 JUMPDEST DUP4 DUP2 LT ISZERO PUSH2 0x8A0 JUMPI DUP1 DUP3 ADD MLOAD DUP2 DUP5 ADD MSTORE PUSH1 0x20 DUP2 ADD SWAP1 POP PUSH2 0x885 JUMP JUMPDEST PUSH1 0x0 DUP5 DUP5 ADD MSTORE POP POP POP POP JUMP JUMPDEST PUSH1 0x0 PUSH2 0x8B7 DUP3 PUSH2 0x866 JUMP JUMPDEST PUSH2 0x8C1 DUP2 DUP6 PUSH2 0x871 JUMP JUMPDEST SWAP4 POP PUSH2 0x8D1 DUP2 DUP6 PUSH1 0x20 DUP7 ADD PUSH2 0x882 JUMP JUMPDEST PUSH2 0x8DA DUP2 PUSH2 0x583 JUMP JUMPDEST DUP5 ADD SWAP2 POP POP SWAP3 SWAP2 POP POP JUMP JUMPDEST PUSH1 0x0 PUSH1 0xE0 DUP3 ADD SWAP1 POP PUSH2 0x8FA PUSH1 0x0 DUP4 ADD DUP11 PUSH2 0x857 JUMP JUMPDEST DUP2 DUP2 SUB PUSH1 0x20 DUP4 ADD MSTORE PUSH2 0x90C DUP2 DUP10 PUSH2 0x8AC JUMP JUMPDEST SWAP1 POP DUP2 DUP2 SUB PUSH1 0x40 DUP4 ADD MSTORE PUSH2 0x920 DUP2 DUP9 PUSH2 0x8AC JUMP JUMPDEST SWAP1 POP DUP2 DUP2 SUB PUSH1 0x60 DUP4 ADD MSTORE PUSH2 0x934 DUP2 DUP8 PUSH2 0x8AC JUMP JUMPDEST SWAP1 POP DUP2 DUP2 SUB PUSH1 0x80 DUP4 ADD MSTORE PUSH2 0x948 DUP2 DUP7 PUSH2 0x8AC JUMP JUMPDEST SWAP1 POP DUP2 DUP2 SUB PUSH1 0xA0 DUP4 ADD MSTORE PUSH2 0x95C DUP2 DUP6 PUSH2 0x8AC JUMP JUMPDEST SWAP1 POP DUP2 DUP2 SUB PUSH1 0xC0 DUP4 ADD MSTORE PUSH2 0x970 DUP2 DUP5 PUSH2 0x8AC JUMP JUMPDEST SWAP1 POP SWAP9 SWAP8 POP POP POP POP POP POP POP POP JUMP JUMPDEST PUSH1 0x0 PUSH1 0x20 DUP3 ADD SWAP1 POP PUSH2 0x993 PUSH1 0x0 DUP4 ADD DUP5 PUSH2 0x857 JUMP JUMPDEST SWAP3 SWAP2 POP POP JUMP JUMPDEST PUSH32 0x4E487B7100000000000000000000000000000000000000000000000000000000 PUSH1 0x0 MSTORE PUSH1 0x11 PUSH1 0x4 MSTORE PUSH1 0x24 PUSH1 0x0 REVERT JUMPDEST PUSH1 0x0 PUSH2 0x9D3 DUP3 PUSH2 0x7F4 JUMP JUMPDEST SWAP2 POP PUSH32 0xFFFFFFFFFFFFFFFFFFFFFFFFFFFFFFFFFFFFFFFFFFFFFFFFFFFFFFFFFFFFFFFF DUP3 SUB PUSH2 0xA05 JUMPI PUSH2 0xA04 PUSH2 0x999 JUMP JUMPDEST JUMPDEST PUSH1 0x1 DUP3 ADD SWAP1 POP SWAP2 SWAP1 POP JUMP JUMPDEST PUSH32 0x4E487B7100000000000000000000000000000000000000000000000000000000 PUSH1 0x0 MSTORE PUSH1 0x22 PUSH1 0x4 MSTORE PUSH1 0x24 PUSH1 0x0 REVERT JUMPDEST PUSH1 0x0 PUSH1 0x2 DUP3 DIV SWAP1 POP PUSH1 0x1 DUP3 AND DUP1 PUSH2 0xA57 JUMPI PUSH1 0x7F DUP3 AND SWAP2 POP JUMPDEST PUSH1 0x20 DUP3 LT DUP2 SUB PUSH2 0xA6A JUMPI PUSH2 0xA69 PUSH2 0xA10 JUMP JUMPDEST JUMPDEST POP SWAP2 SWAP1 POP JUMP JUMPDEST PUSH1 0x0 DUP2 SWAP1 POP DUP2 PUSH1 0x0 MSTORE PUSH1 0x20 PUSH1 0x0 KECCAK256 SWAP1 POP SWAP2 SWAP1 POP JUMP JUMPDEST PUSH1 0x0 PUSH1 0x20 PUSH1 0x1F DUP4 ADD DIV SWAP1 POP SWAP2 SWAP1 POP JUMP JUMPDEST PUSH1 0x0 DUP3 DUP3 SHL SWAP1 POP SWAP3 SWAP2 POP POP JUMP JUMPDEST PUSH1 0x0 PUSH1 0x8 DUP4 MUL PUSH2 0xAD2 PUSH32 0xFFFFFFFFFFFFFFFFFFFFFFFFFFFFFFFFFFFFFFFFFFFFFFFFFFFFFFFFFFFFFFFF DUP3 PUSH2 0xA95 JUMP JUMPDEST PUSH2 0xADC DUP7 DUP4 PUSH2 0xA95 JUMP JUMPDEST SWAP6 POP DUP1 NOT DUP5 AND SWAP4 POP DUP1 DUP7 AND DUP5 OR SWAP3 POP POP POP SWAP4 SWAP3 POP POP POP JUMP JUMPDEST PUSH1 0x0 DUP2 SWAP1 POP SWAP2 SWAP1 POP JUMP JUMPDEST PUSH1 0x0 PUSH2 0xB19 PUSH2 0xB14 PUSH2 0xB0F DUP5 PUSH2 0x7F4 JUMP JUMPDEST PUSH2 0xAF4 JUMP JUMPDEST PUSH2 0x7F4 JUMP JUMPDEST SWAP1 POP SWAP2 SWAP1 POP JUMP JUMPDEST PUSH1 0x0 DUP2 SWAP1 POP SWAP2 SWAP1 POP JUMP JUMPDEST PUSH2 0xB33 DUP4 PUSH2 0xAFE JUMP JUMPDEST PUSH2 0xB47 PUSH2 0xB3F DUP3 PUSH2 0xB20 JUMP JUMPDEST DUP5 DUP5 SLOAD PUSH2 0xAA2 JUMP JUMPDEST DUP3 SSTORE POP POP POP POP JUMP JUMPDEST PUSH1 0x0 SWAP1 JUMP JUMPDEST PUSH2 0xB5C PUSH2 0xB4F JUMP JUMPDEST PUSH2 0xB67 DUP2 DUP5 DUP5 PUSH2 0xB2A JUMP JUMPDEST POP POP POP JUMP JUMPDEST JUMPDEST DUP2 DUP2 LT ISZERO PUSH2 0xB8B JUMPI PUSH2 0xB80 PUSH1 0x0 DUP3 PUSH2 0xB54 JUMP JUMPDEST PUSH1 0x1 DUP2 ADD SWAP1 POP PUSH2 0xB6D JUMP JUMPDEST POP POP JUMP JUMPDEST PUSH1 0x1F DUP3 GT ISZERO PUSH2 0xBD0 JUMPI PUSH2 0xBA1 DUP2 PUSH2 0xA70 JUMP JUMPDEST PUSH2 0xBAA DUP5 PUSH2 0xA85 JUMP JUMPDEST DUP2 ADD PUSH1 0x20 DUP6 LT ISZERO PUSH2 0xBB9 JUMPI DUP2 SWAP1 POP JUMPDEST PUSH2 0xBCD PUSH2 0xBC5 DUP6 PUSH2 0xA85 JUMP JUMPDEST DUP4 ADD DUP3 PUSH2 0xB6C JUMP JUMPDEST POP POP JUMPDEST POP POP POP JUMP JUMPDEST PUSH1 0x0 DUP3 DUP3 SHR SWAP1 POP SWAP3 SWAP2 POP POP JUMP JUMPDEST PUSH1 0x0 PUSH2 0xBF3 PUSH1 0x0 NOT DUP5 PUSH1 0x8 MUL PUSH2 0xBD5 JUMP JUMPDEST NOT DUP1 DUP4 AND SWAP2 POP POP SWAP3 SWAP2 POP POP JUMP JUMPDEST PUSH1 0x0 PUSH2 0xC0C DUP4 DUP4 PUSH2 0xBE2 JUMP JUMPDEST SWAP2 POP DUP3 PUSH1 0x2 MUL DUP3 OR SWAP1 POP SWAP3 SWAP2 POP POP JUMP JUMPDEST PUSH2 0xC25 DUP3 PUSH2 0x866 JUMP JUMPDEST PUSH8 0xFFFFFFFFFFFFFFFF DUP2 GT ISZERO PUSH2 0xC3E JUMPI PUSH2 0xC3D PUSH2 0x594 JUMP JUMPDEST JUMPDEST PUSH2 0xC48 DUP3 SLOAD PUSH2 0xA3F JUMP JUMPDEST PUSH2 0xC53 DUP3 DUP3 DUP6 PUSH2 0xB8F JUMP JUMPDEST PUSH1 0x0 PUSH1 0x20 SWAP1 POP PUSH1 0x1F DUP4 GT PUSH1 0x1 DUP2 EQ PUSH2 0xC86 JUMPI PUSH1 0x0 DUP5 ISZERO PUSH2 0xC74 JUMPI DUP3 DUP8 ADD MLOAD SWAP1 POP JUMPDEST PUSH2 0xC7E DUP6 DUP3 PUSH2 0xC00 JUMP JUMPDEST DUP7 SSTORE POP PUSH2 0xCE6 JUMP JUMPDEST PUSH1 0x1F NOT DUP5 AND PUSH2 0xC94 DUP7 PUSH2 0xA70 JUMP JUMPDEST PUSH1 0x0 JUMPDEST DUP3 DUP2 LT ISZERO PUSH2 0xCBC JUMPI DUP5 DUP10 ADD MLOAD DUP3 SSTORE PUSH1 0x1 DUP3 ADD SWAP2 POP PUSH1 0x20 DUP6 ADD SWAP5 POP PUSH1 0x20 DUP2 ADD SWAP1 POP PUSH2 0xC97 JUMP JUMPDEST DUP7 DUP4 LT ISZERO PUSH2 0xCD9 JUMPI DUP5 DUP10 ADD MLOAD PUSH2 0xCD5 PUSH1 0x1F DUP10 AND DUP3 PUSH2 0xBE2 JUMP JUMPDEST DUP4 SSTORE POP JUMPDEST PUSH1 0x1 PUSH1 0x2 DUP9 MUL ADD DUP9 SSTORE POP POP POP JUMPDEST POP POP POP POP POP POP JUMP JUMPDEST PUSH1 0x0 PUSH1 0x60 DUP3 ADD SWAP1 POP PUSH2 0xD03 PUSH1 0x0 DUP4 ADD DUP7 PUSH2 0x857 JUMP JUMPDEST DUP2 DUP2 SUB PUSH1 0x20 DUP4 ADD MSTORE PUSH2 0xD15 DUP2 DUP6 PUSH2 0x8AC JUMP JUMPDEST SWAP1 POP DUP2 DUP2 SUB PUSH1 0x40 DUP4 ADD MSTORE PUSH2 0xD29 DUP2 DUP5 PUSH2 0x8AC JUMP JUMPDEST SWAP1 POP SWAP5 SWAP4 POP POP POP POP JUMP INVALID LOG2 PUSH5 0x6970667358 0x22 SLT KECCAK256 0xE4 0x2C EXP SDIV 0xC3 0xB9 CREATE DUP8 PUSH8 0x6A90BFE14FE4C0C7 DUP13 DUP16 0xB6 0xB9 0xB6 SWAP11 CALLCODE PUSH2 0xD6A4 0xC7 DUP3 LOG0 0xEE 0xCA PUSH5 0x736F6C6343 STOP ADDMOD EQ STOP CALLER "},"methodIdentifiers":{"bookingCount()":"6d759172","bookings(uint256)":"1dab301e","storeLabBooking(string,string,string,string,string,string)":"0c27bfba"}}}}}