{"contracts/AuthContract.sol":{"AuthContract":{"abi":[{"anonymous":false,"inputs":[{"indexed":true,"internalType":"address","name":"userAddress","type":"address"},{"indexed":false,"internalType":"string","name":"email","type":"string"}],"name":"UserAuthenticated","type":"event"},{"anonymous":false,"inputs":[{"indexed":true,"internalType":"address","name":"userAddress","type":"address"},{"indexed":false,"internalType":"string","name":"email","type":"string"},{"indexed":false,"internalType":"string","name":"userType","type":"string"}],"name":"UserRegistered","type":"event"},{"inputs":[{"internalType":"string","name":"_email","type":"string"},{"internalType":"string","name":"_password","type":"string"}],"name":"authenticateUser","outputs":[{"internalType":"bool","name":"","type":"bool"}],"stateMutability":"view","type":"function"},{"inputs":[{"internalType":"string","name":"_email","type":"string"},{"internalType":"string","name":"_password","type":"string"},{"internalType":"string","name":"_userType","type":"string"}],"name":"registerUser","outputs":[],"stateMutability":"nonpayable","type":"function"}],"evm":{"bytecode":{"linkReferences":{},"object":"608060405234801561001057600080fd5b50610cb7806100206000396000f3fe608060405234801561001057600080fd5b50600436106100365760003560e01c8063516a54351461003b578063d637dcfa1461006b575b600080fd5b61005560048036038101906100509190610663565b610087565b60405161006291906106f6565b60405180910390f35b61008560048036038101906100809190610711565b6102ec565b005b60008060018460405161009a9190610829565b908152602001604051809103902060009054906101000a900473ffffffffffffffffffffffffffffffffffffffff169050600073ffffffffffffffffffffffffffffffffffffffff168173ffffffffffffffffffffffffffffffffffffffff160361013a576040517f08c379a00000000000000000000000000000000000000000000000000000000081526004016101319061089d565b60405180910390fd5b60008060008373ffffffffffffffffffffffffffffffffffffffff1673ffffffffffffffffffffffffffffffffffffffff168152602001908152602001600020604051806060016040529081600082018054610195906108ec565b80601f01602080910402602001604051908101604052809291908181526020018280546101c1906108ec565b801561020e5780601f106101e35761010080835404028352916020019161020e565b820191906000526020600020905b8154815290600101906020018083116101f157829003601f168201915b5050505050815260200160018201548152602001600282018054610231906108ec565b80601f016020809104026020016040519081016040528092919081815260200182805461025d906108ec565b80156102aa5780601f1061027f576101008083540402835291602001916102aa565b820191906000526020600020905b81548152906001019060200180831161028d57829003601f168201915b5050505050815250509050836040516020016102c69190610829565b604051602081830303815290604052805190602001208160200151149250505092915050565b600073ffffffffffffffffffffffffffffffffffffffff166001846040516103149190610829565b908152602001604051809103902060009054906101000a900473ffffffffffffffffffffffffffffffffffffffff1673ffffffffffffffffffffffffffffffffffffffff1614610399576040517f08c379a000000000000000000000000000000000000000000000000000000000815260040161039090610969565b60405180910390fd5b6000826040516020016103ac9190610829565b6040516020818303038152906040528051906020012090506040518060600160405280858152602001828152602001838152506000803373ffffffffffffffffffffffffffffffffffffffff1673ffffffffffffffffffffffffffffffffffffffff16815260200190815260200160002060008201518160000190816104329190610b3f565b506020820151816001015560408201518160020190816104529190610b3f565b50905050336001856040516104679190610829565b908152602001604051809103902060006101000a81548173ffffffffffffffffffffffffffffffffffffffff021916908373ffffffffffffffffffffffffffffffffffffffff1602179055503373ffffffffffffffffffffffffffffffffffffffff167f92822564bab8864c3a47b34e8d23fbce5c46234eb5da261f94087b995ac0f33b85846040516104fb929190610c4a565b60405180910390a250505050565b6000604051905090565b600080fd5b600080fd5b600080fd5b600080fd5b6000601f19601f8301169050919050565b7f4e487b7100000000000000000000000000000000000000000000000000000000600052604160045260246000fd5b61057082610527565b810181811067ffffffffffffffff8211171561058f5761058e610538565b5b80604052505050565b60006105a2610509565b90506105ae8282610567565b919050565b600067ffffffffffffffff8211156105ce576105cd610538565b5b6105d782610527565b9050602081019050919050565b82818337600083830152505050565b6000610606610601846105b3565b610598565b90508281526020810184848401111561062257610621610522565b5b61062d8482856105e4565b509392505050565b600082601f83011261064a5761064961051d565b5b813561065a8482602086016105f3565b91505092915050565b6000806040838503121561067a57610679610513565b5b600083013567ffffffffffffffff81111561069857610697610518565b5b6106a485828601610635565b925050602083013567ffffffffffffffff8111156106c5576106c4610518565b5b6106d185828601610635565b9150509250929050565b60008115159050919050565b6106f0816106db565b82525050565b600060208201905061070b60008301846106e7565b92915050565b60008060006060848603121561072a57610729610513565b5b600084013567ffffffffffffffff81111561074857610747610518565b5b61075486828701610635565b935050602084013567ffffffffffffffff81111561077557610774610518565b5b61078186828701610635565b925050604084013567ffffffffffffffff8111156107a2576107a1610518565b5b6107ae86828701610635565b9150509250925092565b600081519050919050565b600081905092915050565b60005b838110156107ec5780820151818401526020810190506107d1565b60008484015250505050565b6000610803826107b8565b61080d81856107c3565b935061081d8185602086016107ce565b80840191505092915050565b600061083582846107f8565b915081905092915050565b600082825260208201905092915050565b7f55736572206e6f7420666f756e64000000000000000000000000000000000000600082015250565b6000610887600e83610840565b915061089282610851565b602082019050919050565b600060208201905081810360008301526108b68161087a565b9050919050565b7f4e487b7100000000000000000000000000000000000000000000000000000000600052602260045260246000fd5b6000600282049050600182168061090457607f821691505b602082108103610917576109166108bd565b5b50919050565b7f456d61696c20616c726561647920726567697374657265640000000000000000600082015250565b6000610953601883610840565b915061095e8261091d565b602082019050919050565b6000602082019050818103600083015261098281610946565b9050919050565b60008190508160005260206000209050919050565b60006020601f8301049050919050565b600082821b905092915050565b6000600883026109eb7fffffffffffffffffffffffffffffffffffffffffffffffffffffffffffffffff826109ae565b6109f586836109ae565b95508019841693508086168417925050509392505050565b6000819050919050565b6000819050919050565b6000610a3c610a37610a3284610a0d565b610a17565b610a0d565b9050919050565b6000819050919050565b610a5683610a21565b610a6a610a6282610a43565b8484546109bb565b825550505050565b600090565b610a7f610a72565b610a8a818484610a4d565b505050565b5b81811015610aae57610aa3600082610a77565b600181019050610a90565b5050565b601f821115610af357610ac481610989565b610acd8461099e565b81016020851015610adc578190505b610af0610ae88561099e565b830182610a8f565b50505b505050565b600082821c905092915050565b6000610b1660001984600802610af8565b1980831691505092915050565b6000610b2f8383610b05565b9150826002028217905092915050565b610b48826107b8565b67ffffffffffffffff811115610b6157610b60610538565b5b610b6b82546108ec565b610b76828285610ab2565b600060209050601f831160018114610ba95760008415610b97578287015190505b610ba18582610b23565b865550610c09565b601f198416610bb786610989565b60005b82811015610bdf57848901518255600182019150602085019450602081019050610bba565b86831015610bfc5784890151610bf8601f891682610b05565b8355505b6001600288020188555050505b505050505050565b6000610c1c826107b8565b610c268185610840565b9350610c368185602086016107ce565b610c3f81610527565b840191505092915050565b60006040820190508181036000830152610c648185610c11565b90508181036020830152610c788184610c11565b9050939250505056fea2646970667358221220fb1618d2d41a5915b8138d4236772d35f6c5e137503f38227c6db9358ff9f4bf64736f6c63430008140033","opcodes":"PUSH1 0x80 PUSH1 0x40 MSTORE CALLVALUE DUP1 ISZERO PUSH2 0x10 JUMPI PUSH1 0x0 DUP1 REVERT JUMPDEST POP PUSH2 0xCB7 DUP1 PUSH2 0x20 PUSH1 0x0 CODECOPY PUSH1 0x0 RETURN INVALID PUSH1 0x80 PUSH1 0x40 MSTORE CALLVALUE DUP1 ISZERO PUSH2 0x10 JUMPI PUSH1 0x0 DUP1 REVERT JUMPDEST POP PUSH1 0x4 CALLDATASIZE LT PUSH2 0x36 JUMPI PUSH1 0x0 CALLDATALOAD PUSH1 0xE0 SHR DUP1 PUSH4 0x516A5435 EQ PUSH2 0x3B JUMPI DUP1 PUSH4 0xD637DCFA EQ PUSH2 0x6B JUMPI JUMPDEST PUSH1 0x0 DUP1 REVERT JUMPDEST PUSH2 0x55 PUSH1 0x4 DUP1 CALLDATASIZE SUB DUP2 ADD SWAP1 PUSH2 0x50 SWAP2 SWAP1 PUSH2 0x663 JUMP JUMPDEST PUSH2 0x87 JUMP JUMPDEST PUSH1 0x40 MLOAD PUSH2 0x62 SWAP2 SWAP1 PUSH2 0x6F6 JUMP JUMPDEST PUSH1 0x40 MLOAD DUP1 SWAP2 SUB SWAP1 RETURN JUMPDEST PUSH2 0x85 PUSH1 0x4 DUP1 CALLDATASIZE SUB DUP2 ADD SWAP1 PUSH2 0x80 SWAP2 SWAP1 PUSH2 0x711 JUMP JUMPDEST PUSH2 0x2EC JUMP JUMPDEST STOP JUMPDEST PUSH1 0x0 DUP1 PUSH1 0x1 DUP5 PUSH1 0x40 MLOAD PUSH2 0x9A SWAP2 SWAP1 PUSH2 0x829 JUMP JUMPDEST SWAP1 DUP2 MSTORE PUSH1 0x20 ADD PUSH1 0x40 MLOAD DUP1 SWAP2 SUB SWAP1 KECCAK256 PUSH1 0x0 SWAP1 SLOAD SWAP1 PUSH2 0x100 EXP SWAP1 DIV PUSH20 0xFFFFFFFFFFFFFFFFFFFFFFFFFFFFFFFFFFFFFFFF AND SWAP1 POP PUSH1 0x0 PUSH20 0xFFFFFFFFFFFFFFFFFFFFFFFFFFFFFFFFFFFFFFFF AND DUP2 PUSH20 0xFFFFFFFFFFFFFFFFFFFFFFFFFFFFFFFFFFFFFFFF AND SUB PUSH2 0x13A JUMPI PUSH1 0x40 MLOAD PUSH32 0x8C379A000000000000000000000000000000000000000000000000000000000 DUP2 MSTORE PUSH1 0x4 ADD PUSH2 0x131 SWAP1 PUSH2 0x89D JUMP JUMPDEST PUSH1 0x40 MLOAD DUP1 SWAP2 SUB SWAP1 REVERT JUMPDEST PUSH1 0x0 DUP1 PUSH1 0x0 DUP4 PUSH20 0xFFFFFFFFFFFFFFFFFFFFFFFFFFFFFFFFFFFFFFFF AND PUSH20 0xFFFFFFFFFFFFFFFFFFFFFFFFFFFFFFFFFFFFFFFF AND DUP2 MSTORE PUSH1 0x20 ADD SWAP1 DUP2 MSTORE PUSH1 0x20 ADD PUSH1 0x0 KECCAK256 PUSH1 0x40 MLOAD DUP1 PUSH1 0x60 ADD PUSH1 0x40 MSTORE SWAP1 DUP2 PUSH1 0x0 DUP3 ADD DUP1 SLOAD PUSH2 0x195 SWAP1 PUSH2 0x8EC JUMP JUMPDEST DUP1 PUSH1 0x1F ADD PUSH1 0x20 DUP1 SWAP2 DIV MUL PUSH1 0x20 ADD PUSH1 0x40 MLOAD SWAP1 DUP2 ADD PUSH1 0x40 MSTORE DUP1 SWAP3 SWAP2 SWAP1 DUP2 DUP2 MSTORE PUSH1 0x20 ADD DUP3 DUP1 SLOAD PUSH2 0x1C1 SWAP1 PUSH2 0x8EC JUMP JUMPDEST DUP1 ISZERO PUSH2 0x20E JUMPI DUP1 PUSH1 0x1F LT PUSH2 0x1E3 JUMPI PUSH2 0x100 DUP1 DUP4 SLOAD DIV MUL DUP4 MSTORE SWAP2 PUSH1 0x20 ADD SWAP2 PUSH2 0x20E JUMP JUMPDEST DUP3 ADD SWAP2 SWAP1 PUSH1 0x0 MSTORE PUSH1 0x20 PUSH1 0x0 KECCAK256 SWAP1 JUMPDEST DUP2 SLOAD DUP2 MSTORE SWAP1 PUSH1 0x1 ADD SWAP1 PUSH1 0x20 ADD DUP1 DUP4 GT PUSH2 0x1F1 JUMPI DUP3 SWAP1 SUB PUSH1 0x1F AND DUP3 ADD SWAP2 JUMPDEST POP POP POP POP POP DUP2 MSTORE PUSH1 0x20 ADD PUSH1 0x1 DUP3 ADD SLOAD DUP2 MSTORE PUSH1 0x20 ADD PUSH1 0x2 DUP3 ADD DUP1 SLOAD PUSH2 0x231 SWAP1 PUSH2 0x8EC JUMP JUMPDEST DUP1 PUSH1 0x1F ADD PUSH1 0x20 DUP1 SWAP2 DIV MUL PUSH1 0x20 ADD PUSH1 0x40 MLOAD SWAP1 DUP2 ADD PUSH1 0x40 MSTORE DUP1 SWAP3 SWAP2 SWAP1 DUP2 DUP2 MSTORE PUSH1 0x20 ADD DUP3 DUP1 SLOAD PUSH2 0x25D SWAP1 PUSH2 0x8EC JUMP JUMPDEST DUP1 ISZERO PUSH2 0x2AA JUMPI DUP1 PUSH1 0x1F LT PUSH2 0x27F JUMPI PUSH2 0x100 DUP1 DUP4 SLOAD DIV MUL DUP4 MSTORE SWAP2 PUSH1 0x20 ADD SWAP2 PUSH2 0x2AA JUMP JUMPDEST DUP3 ADD SWAP2 SWAP1 PUSH1 0x0 MSTORE PUSH1 0x20 PUSH1 0x0 KECCAK256 SWAP1 JUMPDEST DUP2 SLOAD DUP2 MSTORE SWAP1 PUSH1 0x1 ADD SWAP1 PUSH1 0x20 ADD DUP1 DUP4 GT PUSH2 0x28D JUMPI DUP3 SWAP1 SUB PUSH1 0x1F AND DUP3 ADD SWAP2 JUMPDEST POP POP POP POP POP DUP2 MSTORE POP POP SWAP1 POP DUP4 PUSH1 0x40 MLOAD PUSH1 0x20 ADD PUSH2 0x2C6 SWAP2 SWAP1 PUSH2 0x829 JUMP JUMPDEST PUSH1 0x40 MLOAD PUSH1 0x20 DUP2 DUP4 SUB SUB DUP2 MSTORE SWAP1 PUSH1 0x40 MSTORE DUP1 MLOAD SWAP1 PUSH1 0x20 ADD KECCAK256 DUP2 PUSH1 0x20 ADD MLOAD EQ SWAP3 POP POP POP SWAP3 SWAP2 POP POP JUMP JUMPDEST PUSH1 0x0 PUSH20 0xFFFFFFFFFFFFFFFFFFFFFFFFFFFFFFFFFFFFFFFF AND PUSH1 0x1 DUP5 PUSH1 0x40 MLOAD PUSH2 0x314 SWAP2 SWAP1 PUSH2 0x829 JUMP JUMPDEST SWAP1 DUP2 MSTORE PUSH1 0x20 ADD PUSH1 0x40 MLOAD DUP1 SWAP2 SUB SWAP1 KECCAK256 PUSH1 0x0 SWAP1 SLOAD SWAP1 PUSH2 0x100 EXP SWAP1 DIV PUSH20 0xFFFFFFFFFFFFFFFFFFFFFFFFFFFFFFFFFFFFFFFF AND PUSH20 0xFFFFFFFFFFFFFFFFFFFFFFFFFFFFFFFFFFFFFFFF AND EQ PUSH2 0x399 JUMPI PUSH1 0x40 MLOAD PUSH32 0x8C379A000000000000000000000000000000000000000000000000000000000 DUP2 MSTORE PUSH1 0x4 ADD PUSH2 0x390 SWAP1 PUSH2 0x969 JUMP JUMPDEST PUSH1 0x40 MLOAD DUP1 SWAP2 SUB SWAP1 REVERT JUMPDEST PUSH1 0x0 DUP3 PUSH1 0x40 MLOAD PUSH1 0x20 ADD PUSH2 0x3AC SWAP2 SWAP1 PUSH2 0x829 JUMP JUMPDEST PUSH1 0x40 MLOAD PUSH1 0x20 DUP2 DUP4 SUB SUB DUP2 MSTORE SWAP1 PUSH1 0x40 MSTORE DUP1 MLOAD SWAP1 PUSH1 0x20 ADD KECCAK256 SWAP1 POP PUSH1 0x40 MLOAD DUP1 PUSH1 0x60 ADD PUSH1 0x40 MSTORE DUP1 DUP6 DUP2 MSTORE PUSH1 0x20 ADD DUP3 DUP2 MSTORE PUSH1 0x20 ADD DUP4 DUP2 MSTORE POP PUSH1 0x0 DUP1 CALLER PUSH20 0xFFFFFFFFFFFFFFFFFFFFFFFFFFFFFFFFFFFFFFFF AND PUSH20 0xFFFFFFFFFFFFFFFFFFFFFFFFFFFFFFFFFFFFFFFF AND DUP2 MSTORE PUSH1 0x20 ADD SWAP1 DUP2 MSTORE PUSH1 0x20 ADD PUSH1 0x0 KECCAK256 PUSH1 0x0 DUP3 ADD MLOAD DUP2 PUSH1 0x0 ADD SWAP1 DUP2 PUSH2 0x432 SWAP2 SWAP1 PUSH2 0xB3F JUMP JUMPDEST POP PUSH1 0x20 DUP3 ADD MLOAD DUP2 PUSH1 0x1 ADD SSTORE PUSH1 0x40 DUP3 ADD MLOAD DUP2 PUSH1 0x2 ADD SWAP1 DUP2 PUSH2 0x452 SWAP2 SWAP1 PUSH2 0xB3F JUMP JUMPDEST POP SWAP1 POP POP CALLER PUSH1 0x1 DUP6 PUSH1 0x40 MLOAD PUSH2 0x467 SWAP2 SWAP1 PUSH2 0x829 JUMP JUMPDEST SWAP1 DUP2 MSTORE PUSH1 0x20 ADD PUSH1 0x40 MLOAD DUP1 SWAP2 SUB SWAP1 KECCAK256 PUSH1 0x0 PUSH2 0x100 EXP DUP2 SLOAD DUP2 PUSH20 0xFFFFFFFFFFFFFFFFFFFFFFFFFFFFFFFFFFFFFFFF MUL NOT AND SWAP1 DUP4 PUSH20 0xFFFFFFFFFFFFFFFFFFFFFFFFFFFFFFFFFFFFFFFF AND MUL OR SWAP1 SSTORE POP CALLER PUSH20 0xFFFFFFFFFFFFFFFFFFFFFFFFFFFFFFFFFFFFFFFF AND PUSH32 0x92822564BAB8864C3A47B34E8D23FBCE5C46234EB5DA261F94087B995AC0F33B DUP6 DUP5 PUSH1 0x40 MLOAD PUSH2 0x4FB SWAP3 SWAP2 SWAP1 PUSH2 0xC4A JUMP JUMPDEST PUSH1 0x40 MLOAD DUP1 SWAP2 SUB SWAP1 LOG2 POP POP POP POP JUMP JUMPDEST PUSH1 0x0 PUSH1 0x40 MLOAD SWAP1 POP SWAP1 JUMP JUMPDEST PUSH1 0x0 DUP1 REVERT JUMPDEST PUSH1 0x0 DUP1 REVERT JUMPDEST PUSH1 0x0 DUP1 REVERT JUMPDEST PUSH1 0x0 DUP1 REVERT JUMPDEST PUSH1 0x0 PUSH1 0x1F NOT PUSH1 0x1F DUP4 ADD AND SWAP1 POP SWAP2 SWAP1 POP JUMP JUMPDEST PUSH32 0x4E487B7100000000000000000000000000000000000000000000000000000000 PUSH1 0x0 MSTORE PUSH1 0x41 PUSH1 0x4 MSTORE PUSH1 0x24 PUSH1 0x0 REVERT JUMPDEST PUSH2 0x570 DUP3 PUSH2 0x527 JUMP JUMPDEST DUP2 ADD DUP2 DUP2 LT PUSH8 0xFFFFFFFFFFFFFFFF DUP3 GT OR ISZERO PUSH2 0x58F JUMPI PUSH2 0x58E PUSH2 0x538 JUMP JUMPDEST JUMPDEST DUP1 PUSH1 0x40 MSTORE POP POP POP JUMP JUMPDEST PUSH1 0x0 PUSH2 0x5A2 PUSH2 0x509 JUMP JUMPDEST SWAP1 POP PUSH2 0x5AE DUP3 DUP3 PUSH2 0x567 JUMP JUMPDEST SWAP2 SWAP1 POP JUMP JUMPDEST PUSH1 0x0 PUSH8 0xFFFFFFFFFFFFFFFF DUP3 GT ISZERO PUSH2 0x5CE JUMPI PUSH2 0x5CD PUSH2 0x538 JUMP JUMPDEST JUMPDEST PUSH2 0x5D7 DUP3 PUSH2 0x527 JUMP JUMPDEST SWAP1 POP PUSH1 0x20 DUP2 ADD SWAP1 POP SWAP2 SWAP1 POP JUMP JUMPDEST DUP3 DUP2 DUP4 CALLDATACOPY PUSH1 0x0 DUP4 DUP4 ADD MSTORE POP POP POP JUMP JUMPDEST PUSH1 0x0 PUSH2 0x606 PUSH2 0x601 DUP5 PUSH2 0x5B3 JUMP JUMPDEST PUSH2 0x598 JUMP JUMPDEST SWAP1 POP DUP3 DUP2 MSTORE PUSH1 0x20 DUP2 ADD DUP5 DUP5 DUP5 ADD GT ISZERO PUSH2 0x622 JUMPI PUSH2 0x621 PUSH2 0x522 JUMP JUMPDEST JUMPDEST PUSH2 0x62D DUP5 DUP3 DUP6 PUSH2 0x5E4 JUMP JUMPDEST POP SWAP4 SWAP3 POP POP POP JUMP JUMPDEST PUSH1 0x0 DUP3 PUSH1 0x1F DUP4 ADD SLT PUSH2 0x64A JUMPI PUSH2 0x649 PUSH2 0x51D JUMP JUMPDEST JUMPDEST DUP2 CALLDATALOAD PUSH2 0x65A DUP5 DUP3 PUSH1 0x20 DUP7 ADD PUSH2 0x5F3 JUMP JUMPDEST SWAP2 POP POP SWAP3 SWAP2 POP POP JUMP JUMPDEST PUSH1 0x0 DUP1 PUSH1 0x40 DUP4 DUP6 SUB SLT ISZERO PUSH2 0x67A JUMPI PUSH2 0x679 PUSH2 0x513 JUMP JUMPDEST JUMPDEST PUSH1 0x0 DUP4 ADD CALLDATALOAD PUSH8 0xFFFFFFFFFFFFFFFF DUP2 GT ISZERO PUSH2 0x698 JUMPI PUSH2 0x697 PUSH2 0x518 JUMP JUMPDEST JUMPDEST PUSH2 0x6A4 DUP6 DUP3 DUP7 ADD PUSH2 0x635 JUMP JUMPDEST SWAP3 POP POP PUSH1 0x20 DUP4 ADD CALLDATALOAD PUSH8 0xFFFFFFFFFFFFFFFF DUP2 GT ISZERO PUSH2 0x6C5 JUMPI PUSH2 0x6C4 PUSH2 0x518 JUMP JUMPDEST JUMPDEST PUSH2 0x6D1 DUP6 DUP3 DUP7 ADD PUSH2 0x635 JUMP JUMPDEST SWAP2 POP POP SWAP3 POP SWAP3 SWAP1 POP JUMP JUMPDEST PUSH1 0x0 DUP2 ISZERO ISZERO SWAP1 POP SWAP2 SWAP1 POP JUMP JUMPDEST PUSH2 0x6F0 DUP2 PUSH2 0x6DB JUMP JUMPDEST DUP3 MSTORE POP POP JUMP JUMPDEST PUSH1 0x0 PUSH1 0x20 DUP3 ADD SWAP1 POP PUSH2 0x70B PUSH1 0x0 DUP4 ADD DUP5 PUSH2 0x6E7 JUMP JUMPDEST SWAP3 SWAP2 POP POP JUMP JUMPDEST PUSH1 0x0 DUP1 PUSH1 0x0 PUSH1 0x60 DUP5 DUP7 SUB SLT ISZERO PUSH2 0x72A JUMPI PUSH2 0x729 PUSH2 0x513 JUMP JUMPDEST JUMPDEST PUSH1 0x0 DUP5 ADD CALLDATALOAD PUSH8 0xFFFFFFFFFFFFFFFF DUP2 GT ISZERO PUSH2 0x748 JUMPI PUSH2 0x747 PUSH2 0x518 JUMP JUMPDEST JUMPDEST PUSH2 0x754 DUP7 DUP3 DUP8 ADD PUSH2 0x635 JUMP JUMPDEST SWAP4 POP POP PUSH1 0x20 DUP5 ADD CALLDATALOAD PUSH8 0xFFFFFFFFFFFFFFFF DUP2 GT ISZERO PUSH2 0x775 JUMPI PUSH2 0x774 PUSH2 0x518 JUMP JUMPDEST JUMPDEST PUSH2 0x781 DUP7 DUP3 DUP8 ADD PUSH2 0x635 JUMP JUMPDEST SWAP3 POP POP PUSH1 0x40 DUP5 ADD CALLDATALOAD PUSH8 0xFFFFFFFFFFFFFFFF DUP2 GT ISZERO PUSH2 0x7A2 JUMPI PUSH2 0x7A1 PUSH2 0x518 JUMP JUMPDEST JUMPDEST PUSH2 0x7AE DUP7 DUP3 DUP8 ADD PUSH2 0x635 JUMP JUMPDEST SWAP2 POP POP SWAP3 POP SWAP3 POP SWAP3 JUMP JUMPDEST PUSH1 0x0 DUP2 MLOAD SWAP1 POP SWAP2 SWAP1 POP JUMP JUMPDEST PUSH1 0x0 DUP2 SWAP1 POP SWAP3 SWAP2 POP POP JUMP JUMPDEST PUSH1 0x0 JUMPDEST DUP4 DUP2 LT ISZERO PUSH2 0x7EC JUMPI DUP1 DUP3 ADD MLOAD DUP2 DUP5 ADD MSTORE PUSH1 0x20 DUP2 ADD SWAP1 POP PUSH2 0x7D1 JUMP JUMPDEST PUSH1 0x0 DUP5 DUP5 ADD MSTORE POP POP POP POP JUMP JUMPDEST PUSH1 0x0 PUSH2 0x803 DUP3 PUSH2 0x7B8 JUMP JUMPDEST PUSH2 0x80D DUP2 DUP6 PUSH2 0x7C3 JUMP JUMPDEST SWAP4 POP PUSH2 0x81D DUP2 DUP6 PUSH1 0x20 DUP7 ADD PUSH2 0x7CE JUMP JUMPDEST DUP1 DUP5 ADD SWAP2 POP POP SWAP3 SWAP2 POP POP JUMP JUMPDEST PUSH1 0x0 PUSH2 0x835 DUP3 DUP5 PUSH2 0x7F8 JUMP JUMPDEST SWAP2 POP DUP2 SWAP1 POP SWAP3 SWAP2 POP POP JUMP JUMPDEST PUSH1 0x0 DUP3 DUP3 MSTORE PUSH1 0x20 DUP3 ADD SWAP1 POP SWAP3 SWAP2 POP POP JUMP JUMPDEST PUSH32 0x55736572206E6F7420666F756E64000000000000000000000000000000000000 PUSH1 0x0 DUP3 ADD MSTORE POP JUMP JUMPDEST PUSH1 0x0 PUSH2 0x887 PUSH1 0xE DUP4 PUSH2 0x840 JUMP JUMPDEST SWAP2 POP PUSH2 0x892 DUP3 PUSH2 0x851 JUMP JUMPDEST PUSH1 0x20 DUP3 ADD SWAP1 POP SWAP2 SWAP1 POP JUMP JUMPDEST PUSH1 0x0 PUSH1 0x20 DUP3 ADD SWAP1 POP DUP2 DUP2 SUB PUSH1 0x0 DUP4 ADD MSTORE PUSH2 0x8B6 DUP2 PUSH2 0x87A JUMP JUMPDEST SWAP1 POP SWAP2 SWAP1 POP JUMP JUMPDEST PUSH32 0x4E487B7100000000000000000000000000000000000000000000000000000000 PUSH1 0x0 MSTORE PUSH1 0x22 PUSH1 0x4 MSTORE PUSH1 0x24 PUSH1 0x0 REVERT JUMPDEST PUSH1 0x0 PUSH1 0x2 DUP3 DIV SWAP1 POP PUSH1 0x1 DUP3 AND DUP1 PUSH2 0x904 JUMPI PUSH1 0x7F DUP3 AND SWAP2 POP JUMPDEST PUSH1 0x20 DUP3 LT DUP2 SUB PUSH2 0x917 JUMPI PUSH2 0x916 PUSH2 0x8BD JUMP JUMPDEST JUMPDEST POP SWAP2 SWAP1 POP JUMP JUMPDEST PUSH32 0x456D61696C20616C726561647920726567697374657265640000000000000000 PUSH1 0x0 DUP3 ADD MSTORE POP JUMP JUMPDEST PUSH1 0x0 PUSH2 0x953 PUSH1 0x18 DUP4 PUSH2 0x840 JUMP JUMPDEST SWAP2 POP PUSH2 0x95E DUP3 PUSH2 0x91D JUMP JUMPDEST PUSH1 0x20 DUP3 ADD SWAP1 POP SWAP2 SWAP1 POP JUMP JUMPDEST PUSH1 0x0 PUSH1 0x20 DUP3 ADD SWAP1 POP DUP2 DUP2 SUB PUSH1 0x0 DUP4 ADD MSTORE PUSH2 0x982 DUP2 PUSH2 0x946 JUMP JUMPDEST SWAP1 POP SWAP2 SWAP1 POP JUMP JUMPDEST PUSH1 0x0 DUP2 SWAP1 POP DUP2 PUSH1 0x0 MSTORE PUSH1 0x20 PUSH1 0x0 KECCAK256 SWAP1 POP SWAP2 SWAP1 POP JUMP JUMPDEST PUSH1 0x0 PUSH1 0x20 PUSH1 0x1F DUP4 ADD DIV SWAP1 POP SWAP2 SWAP1 POP JUMP JUMPDEST PUSH1 0x0 DUP3 DUP3 SHL SWAP1 POP SWAP3 SWAP2 POP POP JUMP JUMPDEST PUSH1 0x0 PUSH1 0x8 DUP4 MUL PUSH2 0x9EB PUSH32 0xFFFFFFFFFFFFFFFFFFFFFFFFFFFFFFFFFFFFFFFFFFFFFFFFFFFFFFFFFFFFFFFF DUP3 PUSH2 0x9AE JUMP JUMPDEST PUSH2 0x9F5 DUP7 DUP4 PUSH2 0x9AE JUMP JUMPDEST SWAP6 POP DUP1 NOT DUP5 AND SWAP4 POP DUP1 DUP7 AND DUP5 OR SWAP3 POP POP POP SWAP4 SWAP3 POP POP POP JUMP JUMPDEST PUSH1 0x0 DUP2 SWAP1 POP SWAP2 SWAP1 POP JUMP JUMPDEST PUSH1 0x0 DUP2 SWAP1 POP SWAP2 SWAP1 POP JUMP JUMPDEST PUSH1 0x0 PUSH2 0xA3C PUSH2 0xA37 PUSH2 0xA32 DUP5 PUSH2 0xA0D JUMP JUMPDEST PUSH2 0xA17 JUMP JUMPDEST PUSH2 0xA0D JUMP JUMPDEST SWAP1 POP SWAP2 SWAP1 POP JUMP JUMPDEST PUSH1 0x0 DUP2 SWAP1 POP SWAP2 SWAP1 POP JUMP JUMPDEST PUSH2 0xA56 DUP4 PUSH2 0xA21 JUMP JUMPDEST PUSH2 0xA6A PUSH2 0xA62 DUP3 PUSH2 0xA43 JUMP JUMPDEST DUP5 DUP5 SLOAD PUSH2 0x9BB JUMP JUMPDEST DUP3 SSTORE POP POP POP POP JUMP JUMPDEST PUSH1 0x0 SWAP1 JUMP JUMPDEST PUSH2 0xA7F PUSH2 0xA72 JUMP JUMPDEST PUSH2 0xA8A DUP2 DUP5 DUP5 PUSH2 0xA4D JUMP JUMPDEST POP POP POP JUMP JUMPDEST JUMPDEST DUP2 DUP2 LT ISZERO PUSH2 0xAAE JUMPI PUSH2 0xAA3 PUSH1 0x0 DUP3 PUSH2 0xA77 JUMP JUMPDEST PUSH1 0x1 DUP2 ADD SWAP1 POP PUSH2 0xA90 JUMP JUMPDEST POP POP JUMP JUMPDEST PUSH1 0x1F DUP3 GT ISZERO PUSH2 0xAF3 JUMPI PUSH2 0xAC4 DUP2 PUSH2 0x989 JUMP JUMPDEST PUSH2 0xACD DUP5 PUSH2 0x99E JUMP JUMPDEST DUP2 ADD PUSH1 0x20 DUP6 LT ISZERO PUSH2 0xADC JUMPI DUP2 SWAP1 POP JUMPDEST PUSH2 0xAF0 PUSH2 0xAE8 DUP6 PUSH2 0x99E JUMP JUMPDEST DUP4 ADD DUP3 PUSH2 0xA8F JUMP JUMPDEST POP POP JUMPDEST POP POP POP JUMP JUMPDEST PUSH1 0x0 DUP3 DUP3 SHR SWAP1 POP SWAP3 SWAP2 POP POP JUMP JUMPDEST PUSH1 0x0 PUSH2 0xB16 PUSH1 0x0 NOT DUP5 PUSH1 0x8 MUL PUSH2 0xAF8 JUMP JUMPDEST NOT DUP1 DUP4 AND SWAP2 POP POP SWAP3 SWAP2 POP POP JUMP JUMPDEST PUSH1 0x0 PUSH2 0xB2F DUP4 DUP4 PUSH2 0xB05 JUMP JUMPDEST SWAP2 POP DUP3 PUSH1 0x2 MUL DUP3 OR SWAP1 POP SWAP3 SWAP2 POP POP JUMP JUMPDEST PUSH2 0xB48 DUP3 PUSH2 0x7B8 JUMP JUMPDEST PUSH8 0xFFFFFFFFFFFFFFFF DUP2 GT ISZERO PUSH2 0xB61 JUMPI PUSH2 0xB60 PUSH2 0x538 JUMP JUMPDEST JUMPDEST PUSH2 0xB6B DUP3 SLOAD PUSH2 0x8EC JUMP JUMPDEST PUSH2 0xB76 DUP3 DUP3 DUP6 PUSH2 0xAB2 JUMP JUMPDEST PUSH1 0x0 PUSH1 0x20 SWAP1 POP PUSH1 0x1F DUP4 GT PUSH1 0x1 DUP2 EQ PUSH2 0xBA9 JUMPI PUSH1 0x0 DUP5 ISZERO PUSH2 0xB97 JUMPI DUP3 DUP8 ADD MLOAD SWAP1 POP JUMPDEST PUSH2 0xBA1 DUP6 DUP3 PUSH2 0xB23 JUMP JUMPDEST DUP7 SSTORE POP PUSH2 0xC09 JUMP JUMPDEST PUSH1 0x1F NOT DUP5 AND PUSH2 0xBB7 DUP7 PUSH2 0x989 JUMP JUMPDEST PUSH1 0x0 JUMPDEST DUP3 DUP2 LT ISZERO PUSH2 0xBDF JUMPI DUP5 DUP10 ADD MLOAD DUP3 SSTORE PUSH1 0x1 DUP3 ADD SWAP2 POP PUSH1 0x20 DUP6 ADD SWAP5 POP PUSH1 0x20 DUP2 ADD SWAP1 POP PUSH2 0xBBA JUMP JUMPDEST DUP7 DUP4 LT ISZERO PUSH2 0xBFC JUMPI DUP5 DUP10 ADD MLOAD PUSH2 0xBF8 PUSH1 0x1F DUP10 AND DUP3 PUSH2 0xB05 JUMP JUMPDEST DUP4 SSTORE POP JUMPDEST PUSH1 0x1 PUSH1 0x2 DUP9 MUL ADD DUP9 SSTORE POP POP POP JUMPDEST POP POP POP POP POP POP JUMP JUMPDEST PUSH1 0x0 PUSH2 0xC1C DUP3 PUSH2 0x7B8 JUMP JUMPDEST PUSH2 0xC26 DUP2 DUP6 PUSH2 0x840 JUMP JUMPDEST SWAP4 POP PUSH2 0xC36 DUP2 DUP6 PUSH1 0x20 DUP7 ADD PUSH2 0x7CE JUMP JUMPDEST PUSH2 0xC3F DUP2 PUSH2 0x527 JUMP JUMPDEST DUP5 ADD SWAP2 POP POP SWAP3 SWAP2 POP POP JUMP JUMPDEST PUSH1 0x0 PUSH1 0x40 DUP3 ADD SWAP1 POP DUP2 DUP2 SUB PUSH1 0x0 DUP4 ADD MSTORE PUSH2 0xC64 DUP2 DUP6 PUSH2 0xC11 JUMP JUMPDEST SWAP1 POP DUP2 DUP2 SUB PUSH1 0x20 DUP4 ADD MSTORE PUSH2 0xC78 DUP2 DUP5 PUSH2 0xC11 JUMP JUMPDEST SWAP1 POP SWAP4 SWAP3 POP POP POP JUMP INVALID LOG2 PUSH5 0x6970667358 0x22 SLT KECCAK256 0xFB AND XOR 0xD2 0xD4 BYTE MSIZE ISZERO 0xB8 SGT DUP14 TIMESTAMP CALLDATASIZE PUSH24 0x2D35F6C5E137503F38227C6DB9358FF9F4BF64736F6C6343 STOP ADDMOD EQ STOP CALLER "},"methodIdentifiers":{"authenticateUser(string,string)":"516a5435","registerUser(string,string,string)":"d637dcfa"}}}}}