{"contracts/PrescriptionContract.sol":{"PrescriptionContract":{"abi":[{"anonymous":false,"inputs":[{"indexed":false,"internalType":"uint256","name":"id","type":"uint256"},{"indexed":false,"internalType":"string","name":"patientName","type":"string"},{"indexed":false,"internalType":"string","name":"diagnosis","type":"string"},{"indexed":false,"internalType":"string","name":"prescription","type":"string"}],"name":"PrescriptionAdded","type":"event"},{"inputs":[{"internalType":"uint256","name":"_id","type":"uint256"}],"name":"getPrescription","outputs":[{"internalType":"string","name":"","type":"string"},{"internalType":"uint256","name":"","type":"uint256"},{"internalType":"string","name":"","type":"string"},{"internalType":"string","name":"","type":"string"},{"internalType":"string","name":"","type":"string"},{"internalType":"string","name":"","type":"string"}],"stateMutability":"view","type":"function"},{"inputs":[],"name":"prescriptionCount","outputs":[{"internalType":"uint256","name":"","type":"uint256"}],"stateMutability":"view","type":"function"},{"inputs":[{"internalType":"uint256","name":"","type":"uint256"}],"name":"prescriptions","outputs":[{"internalType":"uint256","name":"id","type":"uint256"},{"internalType":"string","name":"patientName","type":"string"},{"internalType":"uint256","name":"age","type":"uint256"},{"internalType":"string","name":"symptoms","type":"string"},{"internalType":"string","name":"diagnosis","type":"string"},{"internalType":"string","name":"prescription","type":"string"},{"internalType":"string","name":"notes","type":"string"}],"stateMutability":"view","type":"function"},{"inputs":[{"internalType":"string","name":"_patientName","type":"string"},{"internalType":"uint256","name":"_age","type":"uint256"},{"internalType":"string","name":"_symptoms","type":"string"},{"internalType":"string","name":"_diagnosis","type":"string"},{"internalType":"string","name":"_prescription","type":"string"},{"internalType":"string","name":"_notes","type":"string"}],"name":"storePrescription","outputs":[],"stateMutability":"nonpayable","type":"function"}],"evm":{"bytecode":{"linkReferences":{},"object":"608060405234801561001057600080fd5b506110da806100206000396000f3fe608060405234801561001057600080fd5b506004361061004c5760003560e01c806331dfc91b146100515780636f16af1014610087578063a64ac374146100bc578063b6558498146100d8575b600080fd5b61006b600480360381019061006691906108aa565b6100f6565b60405161007e9796959493929190610976565b60405180910390f35b6100a1600480360381019061009c91906108aa565b6103e0565b6040516100b396959493929190610a08565b60405180910390f35b6100d660048036038101906100d19190610bc1565b61072d565b005b6100e061085a565b6040516100ed9190610cda565b60405180910390f35b600060205280600052604060002060009150905080600001549080600101805461011f90610d24565b80601f016020809104026020016040519081016040528092919081815260200182805461014b90610d24565b80156101985780601f1061016d57610100808354040283529160200191610198565b820191906000526020600020905b81548152906001019060200180831161017b57829003601f168201915b5050505050908060020154908060030180546101b390610d24565b80601f01602080910402602001604051908101604052809291908181526020018280546101df90610d24565b801561022c5780601f106102015761010080835404028352916020019161022c565b820191906000526020600020905b81548152906001019060200180831161020f57829003601f168201915b50505050509080600401805461024190610d24565b80601f016020809104026020016040519081016040528092919081815260200182805461026d90610d24565b80156102ba5780601f1061028f576101008083540402835291602001916102ba565b820191906000526020600020905b81548152906001019060200180831161029d57829003601f168201915b5050505050908060050180546102cf90610d24565b80601f01602080910402602001604051908101604052809291908181526020018280546102fb90610d24565b80156103485780601f1061031d57610100808354040283529160200191610348565b820191906000526020600020905b81548152906001019060200180831161032b57829003601f168201915b50505050509080600601805461035d90610d24565b80601f016020809104026020016040519081016040528092919081815260200182805461038990610d24565b80156103d65780601f106103ab576101008083540402835291602001916103d6565b820191906000526020600020905b8154815290600101906020018083116103b957829003601f168201915b5050505050905087565b6060600060608060608060008060008981526020019081526020016000206040518060e00160405290816000820154815260200160018201805461042390610d24565b80601f016020809104026020016040519081016040528092919081815260200182805461044f90610d24565b801561049c5780601f106104715761010080835404028352916020019161049c565b820191906000526020600020905b81548152906001019060200180831161047f57829003601f168201915b50505050508152602001600282015481526020016003820180546104bf90610d24565b80601f01602080910402602001604051908101604052809291908181526020018280546104eb90610d24565b80156105385780601f1061050d57610100808354040283529160200191610538565b820191906000526020600020905b81548152906001019060200180831161051b57829003601f168201915b5050505050815260200160048201805461055190610d24565b80601f016020809104026020016040519081016040528092919081815260200182805461057d90610d24565b80156105ca5780601f1061059f576101008083540402835291602001916105ca565b820191906000526020600020905b8154815290600101906020018083116105ad57829003601f168201915b505050505081526020016005820180546105e390610d24565b80601f016020809104026020016040519081016040528092919081815260200182805461060f90610d24565b801561065c5780601f106106315761010080835404028352916020019161065c565b820191906000526020600020905b81548152906001019060200180831161063f57829003601f168201915b5050505050815260200160068201805461067590610d24565b80601f01602080910402602001604051908101604052809291908181526020018280546106a190610d24565b80156106ee5780601f106106c3576101008083540402835291602001916106ee565b820191906000526020600020905b8154815290600101906020018083116106d157829003601f168201915b505050505081525050905080602001518160400151826060015183608001518460a001518560c001519650965096509650965096505091939550919395565b6001600081548092919061074090610d84565b91905055506040518060e0016040528060015481526020018781526020018681526020018581526020018481526020018381526020018281525060008060015481526020019081526020016000206000820151816000015560208201518160010190816107ad9190610f78565b506040820151816002015560608201518160030190816107cd9190610f78565b5060808201518160040190816107e39190610f78565b5060a08201518160050190816107f99190610f78565b5060c082015181600601908161080f9190610f78565b509050507f5ac6def3d77423f587903b63f476335d670329fb8dae7e9267df94de8855363760015487858560405161084a949392919061104a565b60405180910390a1505050505050565b60015481565b6000604051905090565b600080fd5b600080fd5b6000819050919050565b61088781610874565b811461089257600080fd5b50565b6000813590506108a48161087e565b92915050565b6000602082840312156108c0576108bf61086a565b5b60006108ce84828501610895565b91505092915050565b6108e081610874565b82525050565b600081519050919050565b600082825260208201905092915050565b60005b83811015610920578082015181840152602081019050610905565b60008484015250505050565b6000601f19601f8301169050919050565b6000610948826108e6565b61095281856108f1565b9350610962818560208601610902565b61096b8161092c565b840191505092915050565b600060e08201905061098b600083018a6108d7565b818103602083015261099d818961093d565b90506109ac60408301886108d7565b81810360608301526109be818761093d565b905081810360808301526109d2818661093d565b905081810360a08301526109e6818561093d565b905081810360c08301526109fa818461093d565b905098975050505050505050565b600060c0820190508181036000830152610a22818961093d565b9050610a3160208301886108d7565b8181036040830152610a43818761093d565b90508181036060830152610a57818661093d565b90508181036080830152610a6b818561093d565b905081810360a0830152610a7f818461093d565b9050979650505050505050565b600080fd5b600080fd5b7f4e487b7100000000000000000000000000000000000000000000000000000000600052604160045260246000fd5b610ace8261092c565b810181811067ffffffffffffffff82111715610aed57610aec610a96565b5b80604052505050565b6000610b00610860565b9050610b0c8282610ac5565b919050565b600067ffffffffffffffff821115610b2c57610b2b610a96565b5b610b358261092c565b9050602081019050919050565b82818337600083830152505050565b6000610b64610b5f84610b11565b610af6565b905082815260208101848484011115610b8057610b7f610a91565b5b610b8b848285610b42565b509392505050565b600082601f830112610ba857610ba7610a8c565b5b8135610bb8848260208601610b51565b91505092915050565b60008060008060008060c08789031215610bde57610bdd61086a565b5b600087013567ffffffffffffffff811115610bfc57610bfb61086f565b5b610c0889828a01610b93565b9650506020610c1989828a01610895565b955050604087013567ffffffffffffffff811115610c3a57610c3961086f565b5b610c4689828a01610b93565b945050606087013567ffffffffffffffff811115610c6757610c6661086f565b5b610c7389828a01610b93565b935050608087013567ffffffffffffffff811115610c9457610c9361086f565b5b610ca089828a01610b93565b92505060a087013567ffffffffffffffff811115610cc157610cc061086f565b5b610ccd89828a01610b93565b9150509295509295509295565b6000602082019050610cef60008301846108d7565b92915050565b7f4e487b7100000000000000000000000000000000000000000000000000000000600052602260045260246000fd5b60006002820490506001821680610d3c57607f821691505b602082108103610d4f57610d4e610cf5565b5b50919050565b7f4e487b7100000000000000000000000000000000000000000000000000000000600052601160045260246000fd5b6000610d8f82610874565b91507fffffffffffffffffffffffffffffffffffffffffffffffffffffffffffffffff8203610dc157610dc0610d55565b5b600182019050919050565b60008190508160005260206000209050919050565b60006020601f8301049050919050565b600082821b905092915050565b600060088302610e2e7fffffffffffffffffffffffffffffffffffffffffffffffffffffffffffffffff82610df1565b610e388683610df1565b95508019841693508086168417925050509392505050565b6000819050919050565b6000610e75610e70610e6b84610874565b610e50565b610874565b9050919050565b6000819050919050565b610e8f83610e5a565b610ea3610e9b82610e7c565b848454610dfe565b825550505050565b600090565b610eb8610eab565b610ec3818484610e86565b505050565b5b81811015610ee757610edc600082610eb0565b600181019050610ec9565b5050565b601f821115610f2c57610efd81610dcc565b610f0684610de1565b81016020851015610f15578190505b610f29610f2185610de1565b830182610ec8565b50505b505050565b600082821c905092915050565b6000610f4f60001984600802610f31565b1980831691505092915050565b6000610f688383610f3e565b9150826002028217905092915050565b610f81826108e6565b67ffffffffffffffff811115610f9a57610f99610a96565b5b610fa48254610d24565b610faf828285610eeb565b600060209050601f831160018114610fe25760008415610fd0578287015190505b610fda8582610f5c565b865550611042565b601f198416610ff086610dcc565b60005b8281101561101857848901518255600182019150602085019450602081019050610ff3565b868310156110355784890151611031601f891682610f3e565b8355505b6001600288020188555050505b505050505050565b600060808201905061105f60008301876108d7565b8181036020830152611071818661093d565b90508181036040830152611085818561093d565b90508181036060830152611099818461093d565b90509594505050505056fea2646970667358221220bfc51be9d65c571fe3f1e421a9177807f4233a8069a375ea043280bf7d4b669d64736f6c63430008140033","opcodes":"PUSH1 0x80 PUSH1 0x40 MSTORE CALLVALUE DUP1 ISZERO PUSH2 0x10 JUMPI PUSH1 0x0 DUP1 REVERT JUMPDEST POP PUSH2 0x10DA DUP1 PUSH2 0x20 PUSH1 0x0 CODECOPY PUSH1 0x0 RETURN INVALID PUSH1 0x80 PUSH1 0x40 MSTORE CALLVALUE DUP1 ISZERO PUSH2 0x10 JUMPI PUSH1 0x0 DUP1 REVERT JUMPDEST POP PUSH1 0x4 CALLDATASIZE LT PUSH2 0x4C JUMPI PUSH1 0x0 CALLDATALOAD PUSH1 0xE0 SHR DUP1 PUSH4 0x31DFC91B EQ PUSH2 0x51 JUMPI DUP1 PUSH4 0x6F16AF10 EQ PUSH2 0x87 JUMPI DUP1 PUSH4 0xA64AC374 EQ PUSH2 0xBC JUMPI DUP1 PUSH4 0xB6558498 EQ PUSH2 0xD8 JUMPI JUMPDEST PUSH1 0x0 DUP1 REVERT JUMPDEST PUSH2 0x6B PUSH1 0x4 DUP1 CALLDATASIZE SUB DUP2 ADD SWAP1 PUSH2 0x66 SWAP2 SWAP1 PUSH2 0x8AA JUMP JUMPDEST PUSH2 0xF6 JUMP JUMPDEST PUSH1 0x40 MLOAD PUSH2 0x7E SWAP8 SWAP7 SWAP6 SWAP5 SWAP4 SWAP3 SWAP2 SWAP1 PUSH2 0x976 JUMP JUMPDEST PUSH1 0x40 MLOAD DUP1 SWAP2 SUB SWAP1 RETURN JUMPDEST PUSH2 0xA1 PUSH1 0x4 DUP1 CALLDATASIZE SUB DUP2 ADD SWAP1 PUSH2 0x9C SWAP2 SWAP1 PUSH2 0x8AA JUMP JUMPDEST PUSH2 0x3E0 JUMP JUMPDEST PUSH1 0x40 MLOAD PUSH2 0xB3 SWAP7 SWAP6 SWAP5 SWAP4 SWAP3 SWAP2 SWAP1 PUSH2 0xA08 JUMP JUMPDEST PUSH1 0x40 MLOAD DUP1 SWAP2 SUB SWAP1 RETURN JUMPDEST PUSH2 0xD6 PUSH1 0x4 DUP1 CALLDATASIZE SUB DUP2 ADD SWAP1 PUSH2 0xD1 SWAP2 SWAP1 PUSH2 0xBC1 JUMP JUMPDEST PUSH2 0x72D JUMP JUMPDEST STOP JUMPDEST PUSH2 0xE0 PUSH2 0x85A JUMP JUMPDEST PUSH1 0x40 MLOAD PUSH2 0xED SWAP2 SWAP1 PUSH2 0xCDA JUMP JUMPDEST PUSH1 0x40 MLOAD DUP1 SWAP2 SUB SWAP1 RETURN JUMPDEST PUSH1 0x0 PUSH1 0x20 MSTORE DUP1 PUSH1 0x0 MSTORE PUSH1 0x40 PUSH1 0x0 KECCAK256 PUSH1 0x0 SWAP2 POP SWAP1 POP DUP1 PUSH1 0x0 ADD SLOAD SWAP1 DUP1 PUSH1 0x1 ADD DUP1 SLOAD PUSH2 0x11F SWAP1 PUSH2 0xD24 JUMP JUMPDEST DUP1 PUSH1 0x1F ADD PUSH1 0x20 DUP1 SWAP2 DIV MUL PUSH1 0x20 ADD PUSH1 0x40 MLOAD SWAP1 DUP2 ADD PUSH1 0x40 MSTORE DUP1 SWAP3 SWAP2 SWAP1 DUP2 DUP2 MSTORE PUSH1 0x20 ADD DUP3 DUP1 SLOAD PUSH2 0x14B SWAP1 PUSH2 0xD24 JUMP JUMPDEST DUP1 ISZERO PUSH2 0x198 JUMPI DUP1 PUSH1 0x1F LT PUSH2 0x16D JUMPI PUSH2 0x100 DUP1 DUP4 SLOAD DIV MUL DUP4 MSTORE SWAP2 PUSH1 0x20 ADD SWAP2 PUSH2 0x198 JUMP JUMPDEST DUP3 ADD SWAP2 SWAP1 PUSH1 0x0 MSTORE PUSH1 0x20 PUSH1 0x0 KECCAK256 SWAP1 JUMPDEST DUP2 SLOAD DUP2 MSTORE SWAP1 PUSH1 0x1 ADD SWAP1 PUSH1 0x20 ADD DUP1 DUP4 GT PUSH2 0x17B JUMPI DUP3 SWAP1 SUB PUSH1 0x1F AND DUP3 ADD SWAP2 JUMPDEST POP POP POP POP POP SWAP1 DUP1 PUSH1 0x2 ADD SLOAD SWAP1 DUP1 PUSH1 0x3 ADD DUP1 SLOAD PUSH2 0x1B3 SWAP1 PUSH2 0xD24 JUMP JUMPDEST DUP1 PUSH1 0x1F ADD PUSH1 0x20 DUP1 SWAP2 DIV MUL PUSH1 0x20 ADD PUSH1 0x40 MLOAD SWAP1 DUP2 ADD PUSH1 0x40 MSTORE DUP1 SWAP3 SWAP2 SWAP1 DUP2 DUP2 MSTORE PUSH1 0x20 ADD DUP3 DUP1 SLOAD PUSH2 0x1DF SWAP1 PUSH2 0xD24 JUMP JUMPDEST DUP1 ISZERO PUSH2 0x22C JUMPI DUP1 PUSH1 0x1F LT PUSH2 0x201 JUMPI PUSH2 0x100 DUP1 DUP4 SLOAD DIV MUL DUP4 MSTORE SWAP2 PUSH1 0x20 ADD SWAP2 PUSH2 0x22C JUMP JUMPDEST DUP3 ADD SWAP2 SWAP1 PUSH1 0x0 MSTORE PUSH1 0x20 PUSH1 0x0 KECCAK256 SWAP1 JUMPDEST DUP2 SLOAD DUP2 MSTORE SWAP1 PUSH1 0x1 ADD SWAP1 PUSH1 0x20 ADD DUP1 DUP4 GT PUSH2 0x20F JUMPI DUP3 SWAP1 SUB PUSH1 0x1F AND DUP3 ADD SWAP2 JUMPDEST POP POP POP POP POP SWAP1 DUP1 PUSH1 0x4 ADD DUP1 SLOAD PUSH2 0x241 SWAP1 PUSH2 0xD24 JUMP JUMPDEST DUP1 PUSH1 0x1F ADD PUSH1 0x20 DUP1 SWAP2 DIV MUL PUSH1 0x20 ADD PUSH1 0x40 MLOAD SWAP1 DUP2 ADD PUSH1 0x40 MSTORE DUP1 SWAP3 SWAP2 SWAP1 DUP2 DUP2 MSTORE PUSH1 0x20 ADD DUP3 DUP1 SLOAD PUSH2 0x26D SWAP1 PUSH2 0xD24 JUMP JUMPDEST DUP1 ISZERO PUSH2 0x2BA JUMPI DUP1 PUSH1 0x1F LT PUSH2 0x28F JUMPI PUSH2 0x100 DUP1 DUP4 SLOAD DIV MUL DUP4 MSTORE SWAP2 PUSH1 0x20 ADD SWAP2 PUSH2 0x2BA JUMP JUMPDEST DUP3 ADD SWAP2 SWAP1 PUSH1 0x0 MSTORE PUSH1 0x20 PUSH1 0x0 KECCAK256 SWAP1 JUMPDEST DUP2 SLOAD DUP2 MSTORE SWAP1 PUSH1 0x1 ADD SWAP1 PUSH1 0x20 ADD DUP1 DUP4 GT PUSH2 0x29D JUMPI DUP3 SWAP1 SUB PUSH1 0x1F AND DUP3 ADD SWAP2 JUMPDEST POP POP POP POP POP SWAP1 DUP1 PUSH1 0x5 ADD DUP1 SLOAD PUSH2 0x2CF SWAP1 PUSH2 0xD24 JUMP JUMPDEST DUP1 PUSH1 0x1F ADD PUSH1 0x20 DUP1 SWAP2 DIV MUL PUSH1 0x20 ADD PUSH1 0x40 MLOAD SWAP1 DUP2 ADD PUSH1 0x40 MSTORE DUP1 SWAP3 SWAP2 SWAP1 DUP2 DUP2 MSTORE PUSH1 0x20 ADD DUP3 DUP1 SLOAD PUSH2 0x2FB SWAP1 PUSH2 0xD24 JUMP JUMPDEST DUP1 ISZERO PUSH2 0x348 JUMPI DUP1 PUSH1 0x1F LT PUSH2 0x31D JUMPI PUSH2 0x100 DUP1 DUP4 SLOAD DIV MUL DUP4 MSTORE SWAP2 PUSH1 0x20 ADD SWAP2 PUSH2 0x348 JUMP JUMPDEST DUP3 ADD SWAP2 SWAP1 PUSH1 0x0 MSTORE PUSH1 0x20 PUSH1 0x0 KECCAK256 SWAP1 JUMPDEST DUP2 SLOAD DUP2 MSTORE SWAP1 PUSH1 0x1 ADD SWAP1 PUSH1 0x20 ADD DUP1 DUP4 GT PUSH2 0x32B JUMPI DUP3 SWAP1 SUB PUSH1 0x1F AND DUP3 ADD SWAP2 JUMPDEST POP POP POP POP POP SWAP1 DUP1 PUSH1 0x6 ADD DUP1 SLOAD PUSH2 0x35D SWAP1 PUSH2 0xD24 JUMP JUMPDEST DUP1 PUSH1 0x1F ADD PUSH1 0x20 DUP1 SWAP2 DIV MUL PUSH1 0x20 ADD PUSH1 0x40 MLOAD SWAP1 DUP2 ADD PUSH1 0x40 MSTORE DUP1 SWAP3 SWAP2 SWAP1 DUP2 DUP2 MSTORE PUSH1 0x20 ADD DUP3 DUP1 SLOAD PUSH2 0x389 SWAP1 PUSH2 0xD24 JUMP JUMPDEST DUP1 ISZERO PUSH2 0x3D6 JUMPI DUP1 PUSH1 0x1F LT PUSH2 0x3AB JUMPI PUSH2 0x100 DUP1 DUP4 SLOAD DIV MUL DUP4 MSTORE SWAP2 PUSH1 0x20 ADD SWAP2 PUSH2 0x3D6 JUMP JUMPDEST DUP3 ADD SWAP2 SWAP1 PUSH1 0x0 MSTORE PUSH1 0x20 PUSH1 0x0 KECCAK256 SWAP1 JUMPDEST DUP2 SLOAD DUP2 MSTORE SWAP1 PUSH1 0x1 ADD SWAP1 PUSH1 0x20 ADD DUP1 DUP4 GT PUSH2 0x3B9 JUMPI DUP3 SWAP1 SUB PUSH1 0x1F AND DUP3 ADD SWAP2 JUMPDEST POP POP POP POP POP SWAP1 POP DUP8 JUMP JUMPDEST PUSH1 0x60 PUSH1 0x0 PUSH1 0x60 DUP1 PUSH1 0x60 DUP1 PUSH1 0x0 DUP1 PUSH1 0x0 DUP10 DUP2 MSTORE PUSH1 0x20 ADD SWAP1 DUP2 MSTORE PUSH1 0x20 ADD PUSH1 0x0 KECCAK256 PUSH1 0x40 MLOAD DUP1 PUSH1 0xE0 ADD PUSH1 0x40 MSTORE SWAP1 DUP2 PUSH1 0x0 DUP3 ADD SLOAD DUP2 MSTORE PUSH1 0x20 ADD PUSH1 0x1 DUP3 ADD DUP1 SLOAD PUSH2 0x423 SWAP1 PUSH2 0xD24 JUMP JUMPDEST DUP1 PUSH1 0x1F ADD PUSH1 0x20 DUP1 SWAP2 DIV MUL PUSH1 0x20 ADD PUSH1 0x40 MLOAD SWAP1 DUP2 ADD PUSH1 0x40 MSTORE DUP1 SWAP3 SWAP2 SWAP1 DUP2 DUP2 MSTORE PUSH1 0x20 ADD DUP3 DUP1 SLOAD PUSH2 0x44F SWAP1 PUSH2 0xD24 JUMP JUMPDEST DUP1 ISZERO PUSH2 0x49C JUMPI DUP1 PUSH1 0x1F LT PUSH2 0x471 JUMPI PUSH2 0x100 DUP1 DUP4 SLOAD DIV MUL DUP4 MSTORE SWAP2 PUSH1 0x20 ADD SWAP2 PUSH2 0x49C JUMP JUMPDEST DUP3 ADD SWAP2 SWAP1 PUSH1 0x0 MSTORE PUSH1 0x20 PUSH1 0x0 KECCAK256 SWAP1 JUMPDEST DUP2 SLOAD DUP2 MSTORE SWAP1 PUSH1 0x1 ADD SWAP1 PUSH1 0x20 ADD DUP1 DUP4 GT PUSH2 0x47F JUMPI DUP3 SWAP1 SUB PUSH1 0x1F AND DUP3 ADD SWAP2 JUMPDEST POP POP POP POP POP DUP2 MSTORE PUSH1 0x20 ADD PUSH1 0x2 DUP3 ADD SLOAD DUP2 MSTORE PUSH1 0x20 ADD PUSH1 0x3 DUP3 ADD DUP1 SLOAD PUSH2 0x4BF SWAP1 PUSH2 0xD24 JUMP JUMPDEST DUP1 PUSH1 0x1F ADD PUSH1 0x20 DUP1 SWAP2 DIV MUL PUSH1 0x20 ADD PUSH1 0x40 MLOAD SWAP1 DUP2 ADD PUSH1 0x40 MSTORE DUP1 SWAP3 SWAP2 SWAP1 DUP2 DUP2 MSTORE PUSH1 0x20 ADD DUP3 DUP1 SLOAD PUSH2 0x4EB SWAP1 PUSH2 0xD24 JUMP JUMPDEST DUP1 ISZERO PUSH2 0x538 JUMPI DUP1 PUSH1 0x1F LT PUSH2 0x50D JUMPI PUSH2 0x100 DUP1 DUP4 SLOAD DIV MUL DUP4 MSTORE SWAP2 PUSH1 0x20 ADD SWAP2 PUSH2 0x538 JUMP JUMPDEST DUP3 ADD SWAP2 SWAP1 PUSH1 0x0 MSTORE PUSH1 0x20 PUSH1 0x0 KECCAK256 SWAP1 JUMPDEST DUP2 SLOAD DUP2 MSTORE SWAP1 PUSH1 0x1 ADD SWAP1 PUSH1 0x20 ADD DUP1 DUP4 GT PUSH2 0x51B JUMPI DUP3 SWAP1 SUB PUSH1 0x1F AND DUP3 ADD SWAP2 JUMPDEST POP POP POP POP POP DUP2 MSTORE PUSH1 0x20 ADD PUSH1 0x4 DUP3 ADD DUP1 SLOAD PUSH2 0x551 SWAP1 PUSH2 0xD24 JUMP JUMPDEST DUP1 PUSH1 0x1F ADD PUSH1 0x20 DUP1 SWAP2 DIV MUL PUSH1 0x20 ADD PUSH1 0x40 MLOAD SWAP1 DUP2 ADD PUSH1 0x40 MSTORE DUP1 SWAP3 SWAP2 SWAP1 DUP2 DUP2 MSTORE PUSH1 0x20 ADD DUP3 DUP1 SLOAD PUSH2 0x57D SWAP1 PUSH2 0xD24 JUMP JUMPDEST DUP1 ISZERO PUSH2 0x5CA JUMPI DUP1 PUSH1 0x1F LT PUSH2 0x59F JUMPI PUSH2 0x100 DUP1 DUP4 SLOAD DIV MUL DUP4 MSTORE SWAP2 PUSH1 0x20 ADD SWAP2 PUSH2 0x5CA JUMP JUMPDEST DUP3 ADD SWAP2 SWAP1 PUSH1 0x0 MSTORE PUSH1 0x20 PUSH1 0x0 KECCAK256 SWAP1 JUMPDEST DUP2 SLOAD DUP2 MSTORE SWAP1 PUSH1 0x1 ADD SWAP1 PUSH1 0x20 ADD DUP1 DUP4 GT PUSH2 0x5AD JUMPI DUP3 SWAP1 SUB PUSH1 0x1F AND DUP3 ADD SWAP2 JUMPDEST POP POP POP POP POP DUP2 MSTORE PUSH1 0x20 ADD PUSH1 0x5 DUP3 ADD DUP1 SLOAD PUSH2 0x5E3 SWAP1 PUSH2 0xD24 JUMP JUMPDEST DUP1 PUSH1 0x1F ADD PUSH1 0x20 DUP1 SWAP2 DIV MUL PUSH1 0x20 ADD PUSH1 0x40 MLOAD SWAP1 DUP2 ADD PUSH1 0x40 MSTORE DUP1 SWAP3 SWAP2 SWAP1 DUP2 DUP2 MSTORE PUSH1 0x20 ADD DUP3 DUP1 SLOAD PUSH2 0x60F SWAP1 PUSH2 0xD24 JUMP JUMPDEST DUP1 ISZERO PUSH2 0x65C JUMPI DUP1 PUSH1 0x1F LT PUSH2 0x631 JUMPI PUSH2 0x100 DUP1 DUP4 SLOAD DIV MUL DUP4 MSTORE SWAP2 PUSH1 0x20 ADD SWAP2 PUSH2 0x65C JUMP JUMPDEST DUP3 ADD SWAP2 SWAP1 PUSH1 0x0 MSTORE PUSH1 0x20 PUSH1 0x0 KECCAK256 SWAP1 JUMPDEST DUP2 SLOAD DUP2 MSTORE SWAP1 PUSH1 0x1 ADD SWAP1 PUSH1 0x20 ADD DUP1 DUP4 GT PUSH2 0x63F JUMPI DUP3 SWAP1 SUB PUSH1 0x1F AND DUP3 ADD SWAP2 JUMPDEST POP POP POP POP POP DUP2 MSTORE PUSH1 0x20 ADD PUSH1 0x6 DUP3 ADD DUP1 SLOAD PUSH2 0x675 SWAP1 PUSH2 0xD24 JUMP JUMPDEST DUP1 PUSH1 0x1F ADD PUSH1 0x20 DUP1 SWAP2 DIV MUL PUSH1 0x20 ADD PUSH1 0x40 MLOAD SWAP1 DUP2 ADD PUSH1 0x40 MSTORE DUP1 SWAP3 SWAP2 SWAP1 DUP2 DUP2 MSTORE PUSH1 0x20 ADD DUP3 DUP1 SLOAD PUSH2 0x6A1 SWAP1 PUSH2 0xD24 JUMP JUMPDEST DUP1 ISZERO PUSH2 0x6EE JUMPI DUP1 PUSH1 0x1F LT PUSH2 0x6C3 JUMPI PUSH2 0x100 DUP1 DUP4 SLOAD DIV MUL DUP4 MSTORE SWAP2 PUSH1 0x20 ADD SWAP2 PUSH2 0x6EE JUMP JUMPDEST DUP3 ADD SWAP2 SWAP1 PUSH1 0x0 MSTORE PUSH1 0x20 PUSH1 0x0 KECCAK256 SWAP1 JUMPDEST DUP2 SLOAD DUP2 MSTORE SWAP1 PUSH1 0x1 ADD SWAP1 PUSH1 0x20 ADD DUP1 DUP4 GT PUSH2 0x6D1 JUMPI DUP3 SWAP1 SUB PUSH1 0x1F AND DUP3 ADD SWAP2 JUMPDEST POP POP POP POP POP DUP2 MSTORE POP POP SWAP1 POP DUP1 PUSH1 0x20 ADD MLOAD DUP2 PUSH1 0x40 ADD MLOAD DUP3 PUSH1 0x60 ADD MLOAD DUP4 PUSH1 0x80 ADD MLOAD DUP5 PUSH1 0xA0 ADD MLOAD DUP6 PUSH1 0xC0 ADD MLOAD SWAP7 POP SWAP7 POP SWAP7 POP SWAP7 POP SWAP7 POP SWAP7 POP POP SWAP2 SWAP4 SWAP6 POP SWAP2 SWAP4 SWAP6 JUMP JUMPDEST PUSH1 0x1 PUSH1 0x0 DUP2 SLOAD DUP1 SWAP3 SWAP2 SWAP1 PUSH2 0x740 SWAP1 PUSH2 0xD84 JUMP JUMPDEST SWAP2 SWAP1 POP SSTORE POP PUSH1 0x40 MLOAD DUP1 PUSH1 0xE0 ADD PUSH1 0x40 MSTORE DUP1 PUSH1 0x1 SLOAD DUP2 MSTORE PUSH1 0x20 ADD DUP8 DUP2 MSTORE PUSH1 0x20 ADD DUP7 DUP2 MSTORE PUSH1 0x20 ADD DUP6 DUP2 MSTORE PUSH1 0x20 ADD DUP5 DUP2 MSTORE PUSH1 0x20 ADD DUP4 DUP2 MSTORE PUSH1 0x20 ADD DUP3 DUP2 MSTORE POP PUSH1 0x0 DUP1 PUSH1 0x1 SLOAD DUP2 MSTORE PUSH1 0x20 ADD SWAP1 DUP2 MSTORE PUSH1 0x20 ADD PUSH1 0x0 KECCAK256 PUSH1 0x0 DUP3 ADD MLOAD DUP2 PUSH1 0x0 ADD SSTORE PUSH1 0x20 DUP3 ADD MLOAD DUP2 PUSH1 0x1 ADD SWAP1 DUP2 PUSH2 0x7AD SWAP2 SWAP1 PUSH2 0xF78 JUMP JUMPDEST POP PUSH1 0x40 DUP3 ADD MLOAD DUP2 PUSH1 0x2 ADD SSTORE PUSH1 0x60 DUP3 ADD MLOAD DUP2 PUSH1 0x3 ADD SWAP1 DUP2 PUSH2 0x7CD SWAP2 SWAP1 PUSH2 0xF78 JUMP JUMPDEST POP PUSH1 0x80 DUP3 ADD MLOAD DUP2 PUSH1 0x4 ADD SWAP1 DUP2 PUSH2 0x7E3 SWAP2 SWAP1 PUSH2 0xF78 JUMP JUMPDEST POP PUSH1 0xA0 DUP3 ADD MLOAD DUP2 PUSH1 0x5 ADD SWAP1 DUP2 PUSH2 0x7F9 SWAP2 SWAP1 PUSH2 0xF78 JUMP JUMPDEST POP PUSH1 0xC0 DUP3 ADD MLOAD DUP2 PUSH1 0x6 ADD SWAP1 DUP2 PUSH2 0x80F SWAP2 SWAP1 PUSH2 0xF78 JUMP JUMPDEST POP SWAP1 POP POP PUSH32 0x5AC6DEF3D77423F587903B63F476335D670329FB8DAE7E9267DF94DE88553637 PUSH1 0x1 SLOAD DUP8 DUP6 DUP6 PUSH1 0x40 MLOAD PUSH2 0x84A SWAP5 SWAP4 SWAP3 SWAP2 SWAP1 PUSH2 0x104A JUMP JUMPDEST PUSH1 0x40 MLOAD DUP1 SWAP2 SUB SWAP1 LOG1 POP POP POP POP POP POP JUMP JUMPDEST PUSH1 0x1 SLOAD DUP2 JUMP JUMPDEST PUSH1 0x0 PUSH1 0x40 MLOAD SWAP1 POP SWAP1 JUMP JUMPDEST PUSH1 0x0 DUP1 REVERT JUMPDEST PUSH1 0x0 DUP1 REVERT JUMPDEST PUSH1 0x0 DUP2 SWAP1 POP SWAP2 SWAP1 POP JUMP JUMPDEST PUSH2 0x887 DUP2 PUSH2 0x874 JUMP JUMPDEST DUP2 EQ PUSH2 0x892 JUMPI PUSH1 0x0 DUP1 REVERT JUMPDEST POP JUMP JUMPDEST PUSH1 0x0 DUP2 CALLDATALOAD SWAP1 POP PUSH2 0x8A4 DUP2 PUSH2 0x87E JUMP JUMPDEST SWAP3 SWAP2 POP POP JUMP JUMPDEST PUSH1 0x0 PUSH1 0x20 DUP3 DUP5 SUB SLT ISZERO PUSH2 0x8C0 JUMPI PUSH2 0x8BF PUSH2 0x86A JUMP JUMPDEST JUMPDEST PUSH1 0x0 PUSH2 0x8CE DUP5 DUP3 DUP6 ADD PUSH2 0x895 JUMP JUMPDEST SWAP2 POP POP SWAP3 SWAP2 POP POP JUMP JUMPDEST PUSH2 0x8E0 DUP2 PUSH2 0x874 JUMP JUMPDEST DUP3 MSTORE POP POP JUMP JUMPDEST PUSH1 0x0 DUP2 MLOAD SWAP1 POP SWAP2 SWAP1 POP JUMP JUMPDEST PUSH1 0x0 DUP3 DUP3 MSTORE PUSH1 0x20 DUP3 ADD SWAP1 POP SWAP3 SWAP2 POP POP JUMP JUMPDEST PUSH1 0x0 JUMPDEST DUP4 DUP2 LT ISZERO PUSH2 0x920 JUMPI DUP1 DUP3 ADD MLOAD DUP2 DUP5 ADD MSTORE PUSH1 0x20 DUP2 ADD SWAP1 POP PUSH2 0x905 JUMP JUMPDEST PUSH1 0x0 DUP5 DUP5 ADD MSTORE POP POP POP POP JUMP JUMPDEST PUSH1 0x0 PUSH1 0x1F NOT PUSH1 0x1F DUP4 ADD AND SWAP1 POP SWAP2 SWAP1 POP JUMP JUMPDEST PUSH1 0x0 PUSH2 0x948 DUP3 PUSH2 0x8E6 JUMP JUMPDEST PUSH2 0x952 DUP2 DUP6 PUSH2 0x8F1 JUMP JUMPDEST SWAP4 POP PUSH2 0x962 DUP2 DUP6 PUSH1 0x20 DUP7 ADD PUSH2 0x902 JUMP JUMPDEST PUSH2 0x96B DUP2 PUSH2 0x92C JUMP JUMPDEST DUP5 ADD SWAP2 POP POP SWAP3 SWAP2 POP POP JUMP JUMPDEST PUSH1 0x0 PUSH1 0xE0 DUP3 ADD SWAP1 POP PUSH2 0x98B PUSH1 0x0 DUP4 ADD DUP11 PUSH2 0x8D7 JUMP JUMPDEST DUP2 DUP2 SUB PUSH1 0x20 DUP4 ADD MSTORE PUSH2 0x99D DUP2 DUP10 PUSH2 0x93D JUMP JUMPDEST SWAP1 POP PUSH2 0x9AC PUSH1 0x40 DUP4 ADD DUP9 PUSH2 0x8D7 JUMP JUMPDEST DUP2 DUP2 SUB PUSH1 0x60 DUP4 ADD MSTORE PUSH2 0x9BE DUP2 DUP8 PUSH2 0x93D JUMP JUMPDEST SWAP1 POP DUP2 DUP2 SUB PUSH1 0x80 DUP4 ADD MSTORE PUSH2 0x9D2 DUP2 DUP7 PUSH2 0x93D JUMP JUMPDEST SWAP1 POP DUP2 DUP2 SUB PUSH1 0xA0 DUP4 ADD MSTORE PUSH2 0x9E6 DUP2 DUP6 PUSH2 0x93D JUMP JUMPDEST SWAP1 POP DUP2 DUP2 SUB PUSH1 0xC0 DUP4 ADD MSTORE PUSH2 0x9FA DUP2 DUP5 PUSH2 0x93D JUMP JUMPDEST SWAP1 POP SWAP9 SWAP8 POP POP POP POP POP POP POP POP JUMP JUMPDEST PUSH1 0x0 PUSH1 0xC0 DUP3 ADD SWAP1 POP DUP2 DUP2 SUB PUSH1 0x0 DUP4 ADD MSTORE PUSH2 0xA22 DUP2 DUP10 PUSH2 0x93D JUMP JUMPDEST SWAP1 POP PUSH2 0xA31 PUSH1 0x20 DUP4 ADD DUP9 PUSH2 0x8D7 JUMP JUMPDEST DUP2 DUP2 SUB PUSH1 0x40 DUP4 ADD MSTORE PUSH2 0xA43 DUP2 DUP8 PUSH2 0x93D JUMP JUMPDEST SWAP1 POP DUP2 DUP2 SUB PUSH1 0x60 DUP4 ADD MSTORE PUSH2 0xA57 DUP2 DUP7 PUSH2 0x93D JUMP JUMPDEST SWAP1 POP DUP2 DUP2 SUB PUSH1 0x80 DUP4 ADD MSTORE PUSH2 0xA6B DUP2 DUP6 PUSH2 0x93D JUMP JUMPDEST SWAP1 POP DUP2 DUP2 SUB PUSH1 0xA0 DUP4 ADD MSTORE PUSH2 0xA7F DUP2 DUP5 PUSH2 0x93D JUMP JUMPDEST SWAP1 POP SWAP8 SWAP7 POP POP POP POP POP POP POP JUMP JUMPDEST PUSH1 0x0 DUP1 REVERT JUMPDEST PUSH1 0x0 DUP1 REVERT JUMPDEST PUSH32 0x4E487B7100000000000000000000000000000000000000000000000000000000 PUSH1 0x0 MSTORE PUSH1 0x41 PUSH1 0x4 MSTORE PUSH1 0x24 PUSH1 0x0 REVERT JUMPDEST PUSH2 0xACE DUP3 PUSH2 0x92C JUMP JUMPDEST DUP2 ADD DUP2 DUP2 LT PUSH8 0xFFFFFFFFFFFFFFFF DUP3 GT OR ISZERO PUSH2 0xAED JUMPI PUSH2 0xAEC PUSH2 0xA96 JUMP JUMPDEST JUMPDEST DUP1 PUSH1 0x40 MSTORE POP POP POP JUMP JUMPDEST PUSH1 0x0 PUSH2 0xB00 PUSH2 0x860 JUMP JUMPDEST SWAP1 POP PUSH2 0xB0C DUP3 DUP3 PUSH2 0xAC5 JUMP JUMPDEST SWAP2 SWAP1 POP JUMP JUMPDEST PUSH1 0x0 PUSH8 0xFFFFFFFFFFFFFFFF DUP3 GT ISZERO PUSH2 0xB2C JUMPI PUSH2 0xB2B PUSH2 0xA96 JUMP JUMPDEST JUMPDEST PUSH2 0xB35 DUP3 PUSH2 0x92C JUMP JUMPDEST SWAP1 POP PUSH1 0x20 DUP2 ADD SWAP1 POP SWAP2 SWAP1 POP JUMP JUMPDEST DUP3 DUP2 DUP4 CALLDATACOPY PUSH1 0x0 DUP4 DUP4 ADD MSTORE POP POP POP JUMP JUMPDEST PUSH1 0x0 PUSH2 0xB64 PUSH2 0xB5F DUP5 PUSH2 0xB11 JUMP JUMPDEST PUSH2 0xAF6 JUMP JUMPDEST SWAP1 POP DUP3 DUP2 MSTORE PUSH1 0x20 DUP2 ADD DUP5 DUP5 DUP5 ADD GT ISZERO PUSH2 0xB80 JUMPI PUSH2 0xB7F PUSH2 0xA91 JUMP JUMPDEST JUMPDEST PUSH2 0xB8B DUP5 DUP3 DUP6 PUSH2 0xB42 JUMP JUMPDEST POP SWAP4 SWAP3 POP POP POP JUMP JUMPDEST PUSH1 0x0 DUP3 PUSH1 0x1F DUP4 ADD SLT PUSH2 0xBA8 JUMPI PUSH2 0xBA7 PUSH2 0xA8C JUMP JUMPDEST JUMPDEST DUP2 CALLDATALOAD PUSH2 0xBB8 DUP5 DUP3 PUSH1 0x20 DUP7 ADD PUSH2 0xB51 JUMP JUMPDEST SWAP2 POP POP SWAP3 SWAP2 POP POP JUMP JUMPDEST PUSH1 0x0 DUP1 PUSH1 0x0 DUP1 PUSH1 0x0 DUP1 PUSH1 0xC0 DUP8 DUP10 SUB SLT ISZERO PUSH2 0xBDE JUMPI PUSH2 0xBDD PUSH2 0x86A JUMP JUMPDEST JUMPDEST PUSH1 0x0 DUP8 ADD CALLDATALOAD PUSH8 0xFFFFFFFFFFFFFFFF DUP2 GT ISZERO PUSH2 0xBFC JUMPI PUSH2 0xBFB PUSH2 0x86F JUMP JUMPDEST JUMPDEST PUSH2 0xC08 DUP10 DUP3 DUP11 ADD PUSH2 0xB93 JUMP JUMPDEST SWAP7 POP POP PUSH1 0x20 PUSH2 0xC19 DUP10 DUP3 DUP11 ADD PUSH2 0x895 JUMP JUMPDEST SWAP6 POP POP PUSH1 0x40 DUP8 ADD CALLDATALOAD PUSH8 0xFFFFFFFFFFFFFFFF DUP2 GT ISZERO PUSH2 0xC3A JUMPI PUSH2 0xC39 PUSH2 0x86F JUMP JUMPDEST JUMPDEST PUSH2 0xC46 DUP10 DUP3 DUP11 ADD PUSH2 0xB93 JUMP JUMPDEST SWAP5 POP POP PUSH1 0x60 DUP8 ADD CALLDATALOAD PUSH8 0xFFFFFFFFFFFFFFFF DUP2 GT ISZERO PUSH2 0xC67 JUMPI PUSH2 0xC66 PUSH2 0x86F JUMP JUMPDEST JUMPDEST PUSH2 0xC73 DUP10 DUP3 DUP11 ADD PUSH2 0xB93 JUMP JUMPDEST SWAP4 POP POP PUSH1 0x80 DUP8 ADD CALLDATALOAD PUSH8 0xFFFFFFFFFFFFFFFF DUP2 GT ISZERO PUSH2 0xC94 JUMPI PUSH2 0xC93 PUSH2 0x86F JUMP JUMPDEST JUMPDEST PUSH2 0xCA0 DUP10 DUP3 DUP11 ADD PUSH2 0xB93 JUMP JUMPDEST SWAP3 POP POP PUSH1 0xA0 DUP8 ADD CALLDATALOAD PUSH8 0xFFFFFFFFFFFFFFFF DUP2 GT ISZERO PUSH2 0xCC1 JUMPI PUSH2 0xCC0 PUSH2 0x86F JUMP JUMPDEST JUMPDEST PUSH2 0xCCD DUP10 DUP3 DUP11 ADD PUSH2 0xB93 JUMP JUMPDEST SWAP2 POP POP SWAP3 SWAP6 POP SWAP3 SWAP6 POP SWAP3 SWAP6 JUMP JUMPDEST PUSH1 0x0 PUSH1 0x20 DUP3 ADD SWAP1 POP PUSH2 0xCEF PUSH1 0x0 DUP4 ADD DUP5 PUSH2 0x8D7 JUMP JUMPDEST SWAP3 SWAP2 POP POP JUMP JUMPDEST PUSH32 0x4E487B7100000000000000000000000000000000000000000000000000000000 PUSH1 0x0 MSTORE PUSH1 0x22 PUSH1 0x4 MSTORE PUSH1 0x24 PUSH1 0x0 REVERT JUMPDEST PUSH1 0x0 PUSH1 0x2 DUP3 DIV SWAP1 POP PUSH1 0x1 DUP3 AND DUP1 PUSH2 0xD3C JUMPI PUSH1 0x7F DUP3 AND SWAP2 POP JUMPDEST PUSH1 0x20 DUP3 LT DUP2 SUB PUSH2 0xD4F JUMPI PUSH2 0xD4E PUSH2 0xCF5 JUMP JUMPDEST JUMPDEST POP SWAP2 SWAP1 POP JUMP JUMPDEST PUSH32 0x4E487B7100000000000000000000000000000000000000000000000000000000 PUSH1 0x0 MSTORE PUSH1 0x11 PUSH1 0x4 MSTORE PUSH1 0x24 PUSH1 0x0 REVERT JUMPDEST PUSH1 0x0 PUSH2 0xD8F DUP3 PUSH2 0x874 JUMP JUMPDEST SWAP2 POP PUSH32 0xFFFFFFFFFFFFFFFFFFFFFFFFFFFFFFFFFFFFFFFFFFFFFFFFFFFFFFFFFFFFFFFF DUP3 SUB PUSH2 0xDC1 JUMPI PUSH2 0xDC0 PUSH2 0xD55 JUMP JUMPDEST JUMPDEST PUSH1 0x1 DUP3 ADD SWAP1 POP SWAP2 SWAP1 POP JUMP JUMPDEST PUSH1 0x0 DUP2 SWAP1 POP DUP2 PUSH1 0x0 MSTORE PUSH1 0x20 PUSH1 0x0 KECCAK256 SWAP1 POP SWAP2 SWAP1 POP JUMP JUMPDEST PUSH1 0x0 PUSH1 0x20 PUSH1 0x1F DUP4 ADD DIV SWAP1 POP SWAP2 SWAP1 POP JUMP JUMPDEST PUSH1 0x0 DUP3 DUP3 SHL SWAP1 POP SWAP3 SWAP2 POP POP JUMP JUMPDEST PUSH1 0x0 PUSH1 0x8 DUP4 MUL PUSH2 0xE2E PUSH32 0xFFFFFFFFFFFFFFFFFFFFFFFFFFFFFFFFFFFFFFFFFFFFFFFFFFFFFFFFFFFFFFFF DUP3 PUSH2 0xDF1 JUMP JUMPDEST PUSH2 0xE38 DUP7 DUP4 PUSH2 0xDF1 JUMP JUMPDEST SWAP6 POP DUP1 NOT DUP5 AND SWAP4 POP DUP1 DUP7 AND DUP5 OR SWAP3 POP POP POP SWAP4 SWAP3 POP POP POP JUMP JUMPDEST PUSH1 0x0 DUP2 SWAP1 POP SWAP2 SWAP1 POP JUMP JUMPDEST PUSH1 0x0 PUSH2 0xE75 PUSH2 0xE70 PUSH2 0xE6B DUP5 PUSH2 0x874 JUMP JUMPDEST PUSH2 0xE50 JUMP JUMPDEST PUSH2 0x874 JUMP JUMPDEST SWAP1 POP SWAP2 SWAP1 POP JUMP JUMPDEST PUSH1 0x0 DUP2 SWAP1 POP SWAP2 SWAP1 POP JUMP JUMPDEST PUSH2 0xE8F DUP4 PUSH2 0xE5A JUMP JUMPDEST PUSH2 0xEA3 PUSH2 0xE9B DUP3 PUSH2 0xE7C JUMP JUMPDEST DUP5 DUP5 SLOAD PUSH2 0xDFE JUMP JUMPDEST DUP3 SSTORE POP POP POP POP JUMP JUMPDEST PUSH1 0x0 SWAP1 JUMP JUMPDEST PUSH2 0xEB8 PUSH2 0xEAB JUMP JUMPDEST PUSH2 0xEC3 DUP2 DUP5 DUP5 PUSH2 0xE86 JUMP JUMPDEST POP POP POP JUMP JUMPDEST JUMPDEST DUP2 DUP2 LT ISZERO PUSH2 0xEE7 JUMPI PUSH2 0xEDC PUSH1 0x0 DUP3 PUSH2 0xEB0 JUMP JUMPDEST PUSH1 0x1 DUP2 ADD SWAP1 POP PUSH2 0xEC9 JUMP JUMPDEST POP POP JUMP JUMPDEST PUSH1 0x1F DUP3 GT ISZERO PUSH2 0xF2C JUMPI PUSH2 0xEFD DUP2 PUSH2 0xDCC JUMP JUMPDEST PUSH2 0xF06 DUP5 PUSH2 0xDE1 JUMP JUMPDEST DUP2 ADD PUSH1 0x20 DUP6 LT ISZERO PUSH2 0xF15 JUMPI DUP2 SWAP1 POP JUMPDEST PUSH2 0xF29 PUSH2 0xF21 DUP6 PUSH2 0xDE1 JUMP JUMPDEST DUP4 ADD DUP3 PUSH2 0xEC8 JUMP JUMPDEST POP POP JUMPDEST POP POP POP JUMP JUMPDEST PUSH1 0x0 DUP3 DUP3 SHR SWAP1 POP SWAP3 SWAP2 POP POP JUMP JUMPDEST PUSH1 0x0 PUSH2 0xF4F PUSH1 0x0 NOT DUP5 PUSH1 0x8 MUL PUSH2 0xF31 JUMP JUMPDEST NOT DUP1 DUP4 AND SWAP2 POP POP SWAP3 SWAP2 POP POP JUMP JUMPDEST PUSH1 0x0 PUSH2 0xF68 DUP4 DUP4 PUSH2 0xF3E JUMP JUMPDEST SWAP2 POP DUP3 PUSH1 0x2 MUL DUP3 OR SWAP1 POP SWAP3 SWAP2 POP POP JUMP JUMPDEST PUSH2 0xF81 DUP3 PUSH2 0x8E6 JUMP JUMPDEST PUSH8 0xFFFFFFFFFFFFFFFF DUP2 GT ISZERO PUSH2 0xF9A JUMPI PUSH2 0xF99 PUSH2 0xA96 JUMP JUMPDEST JUMPDEST PUSH2 0xFA4 DUP3 SLOAD PUSH2 0xD24 JUMP JUMPDEST PUSH2 0xFAF DUP3 DUP3 DUP6 PUSH2 0xEEB JUMP JUMPDEST PUSH1 0x0 PUSH1 0x20 SWAP1 POP PUSH1 0x1F DUP4 GT PUSH1 0x1 DUP2 EQ PUSH2 0xFE2 JUMPI PUSH1 0x0 DUP5 ISZERO PUSH2 0xFD0 JUMPI DUP3 DUP8 ADD MLOAD SWAP1 POP JUMPDEST PUSH2 0xFDA DUP6 DUP3 PUSH2 0xF5C JUMP JUMPDEST DUP7 SSTORE POP PUSH2 0x1042 JUMP JUMPDEST PUSH1 0x1F NOT DUP5 AND PUSH2 0xFF0 DUP7 PUSH2 0xDCC JUMP JUMPDEST PUSH1 0x0 JUMPDEST DUP3 DUP2 LT ISZERO PUSH2 0x1018 JUMPI DUP5 DUP10 ADD MLOAD DUP3 SSTORE PUSH1 0x1 DUP3 ADD SWAP2 POP PUSH1 0x20 DUP6 ADD SWAP5 POP PUSH1 0x20 DUP2 ADD SWAP1 POP PUSH2 0xFF3 JUMP JUMPDEST DUP7 DUP4 LT ISZERO PUSH2 0x1035 JUMPI DUP5 DUP10 ADD MLOAD PUSH2 0x1031 PUSH1 0x1F DUP10 AND DUP3 PUSH2 0xF3E JUMP JUMPDEST DUP4 SSTORE POP JUMPDEST PUSH1 0x1 PUSH1 0x2 DUP9 MUL ADD DUP9 SSTORE POP POP POP JUMPDEST POP POP POP POP POP POP JUMP JUMPDEST PUSH1 0x0 PUSH1 0x80 DUP3 ADD SWAP1 POP PUSH2 0x105F PUSH1 0x0 DUP4 ADD DUP8 PUSH2 0x8D7 JUMP JUMPDEST DUP2 DUP2 SUB PUSH1 0x20 DUP4 ADD MSTORE PUSH2 0x1071 DUP2 DUP7 PUSH2 0x93D JUMP JUMPDEST SWAP1 POP DUP2 DUP2 SUB PUSH1 0x40 DUP4 ADD MSTORE PUSH2 0x1085 DUP2 DUP6 PUSH2 0x93D JUMP JUMPDEST SWAP1 POP DUP2 DUP2 SUB PUSH1 0x60 DUP4 ADD MSTORE PUSH2 0x1099 DUP2 DUP5 PUSH2 0x93D JUMP JUMPDEST SWAP1 POP SWAP6 SWAP5 POP POP POP POP POP JUMP INVALID LOG2 PUSH5 0x6970667358 0x22 SLT KECCAK256 0xBF 0xC5 SHL 0xE9 0xD6 0x5C JUMPI 0x1F 0xE3 CALL 0xE4 0x21 0xA9 OR PUSH25 0x7F4233A8069A375EA043280BF7D4B669D64736F6C63430008 EQ STOP CALLER "},"methodIdentifiers":{"getPrescription(uint256)":"6f16af10","prescriptionCount()":"b6558498","prescriptions(uint256)":"31dfc91b","storePrescription(string,uint256,string,string,string,string)":"a64ac374"}}}}}