{
  "_format": "hh-sol-artifact-1",
  "contractName": "TestBookingContract",
  "sourceName": "contracts/TestBookingContract.sol",
  "abi": [
    {
      "anonymous": false,
      "inputs": [
        {
          "indexed": false,
          "internalType": "uint256",
          "name": "id",
          "type": "uint256"
        },
        {
          "indexed": false,
          "internalType": "string",
          "name": "testName",
          "type": "string"
        },
        {
          "indexed": false,
          "internalType": "uint256",
          "name": "price",
          "type": "uint256"
        },
        {
          "indexed": false,
          "internalType": "string",
          "name": "userId",
          "type": "string"
        }
      ],
      "name": "TestBooked",
      "type": "event"
    },
    {
      "inputs": [
        {
          "internalType": "string",
          "name": "_testName",
          "type": "string"
        },
        {
          "internalType": "uint256",
          "name": "_price",
          "type": "uint256"
        },
        {
          "internalType": "string",
          "name": "_userId",
          "type": "string"
        }
      ],
      "name": "bookTest",
      "outputs": [],
      "stateMutability": "nonpayable",
      "type": "function"
    },
    {
      "inputs": [
        {
          "internalType": "uint256",
          "name": "_id",
          "type": "uint256"
        }
      ],
      "name": "getTestBooking",
      "outputs": [
        {
          "internalType": "string",
          "name": "",
          "type": "string"
        },
        {
          "internalType": "uint256",
          "name": "",
          "type": "uint256"
        },
        {
          "internalType": "string",
          "name": "",
          "type": "string"
        }
      ],
      "stateMutability": "view",
      "type": "function"
    },
    {
      "inputs": [],
      "name": "testBookingCount",
      "outputs": [
        {
          "internalType": "uint256",
          "name": "",
          "type": "uint256"
        }
      ],
      "stateMutability": "view",
      "type": "function"
    },
    {
      "inputs": [
        {
          "internalType": "uint256",
          "name": "",
          "type": "uint256"
        }
      ],
      "name": "testBookings",
      "outputs": [
        {
          "internalType": "uint256",
          "name": "id",
          "type": "uint256"
        },
        {
          "internalType": "string",
          "name": "testName",
          "type": "string"
        },
        {
          "internalType": "uint256",
          "name": "price",
          "type": "uint256"
        },
        {
          "internalType": "string",
          "name": "userId",
          "type": "string"
        }
      ],
      "stateMutability": "view",
      "type": "function"
    }
  ],
  "bytecode": "0x608060405234801561001057600080fd5b50610b9c806100206000396000f3fe608060405234801561001057600080fd5b506004361061004c5760003560e01c8063210e9a261461005157806381353e94146100845780638b62915a146100a2578063f492759c146100be575b600080fd5b61006b600480360381019061006691906104d2565b6100f0565b60405161007b949392919061059e565b60405180910390f35b61008c610230565b60405161009991906105f1565b60405180910390f35b6100bc60048036038101906100b79190610741565b610236565b005b6100d860048036038101906100d391906104d2565b61030c565b6040516100e7939291906107cc565b60405180910390f35b600060205280600052604060002060009150905080600001549080600101805461011990610840565b80601f016020809104026020016040519081016040528092919081815260200182805461014590610840565b80156101925780601f1061016757610100808354040283529160200191610192565b820191906000526020600020905b81548152906001019060200180831161017557829003601f168201915b5050505050908060020154908060030180546101ad90610840565b80601f01602080910402602001604051908101604052809291908181526020018280546101d990610840565b80156102265780601f106101fb57610100808354040283529160200191610226565b820191906000526020600020905b81548152906001019060200180831161020957829003601f168201915b5050505050905084565b60015481565b60016000815480929190610249906108a0565b9190505550604051806080016040528060015481526020018481526020018381526020018281525060008060015481526020019081526020016000206000820151816000015560208201518160010190816102a49190610a94565b506040820151816002015560608201518160030190816102c49190610a94565b509050507ff7812a85f9443fa5f85b513689ce019ffa30058c162d792ccc4bec061a319b016001548484846040516102ff949392919061059e565b60405180910390a1505050565b60606000606060008060008681526020019081526020016000206040518060800160405290816000820154815260200160018201805461034b90610840565b80601f016020809104026020016040519081016040528092919081815260200182805461037790610840565b80156103c45780601f10610399576101008083540402835291602001916103c4565b820191906000526020600020905b8154815290600101906020018083116103a757829003601f168201915b50505050508152602001600282015481526020016003820180546103e790610840565b80601f016020809104026020016040519081016040528092919081815260200182805461041390610840565b80156104605780601f1061043557610100808354040283529160200191610460565b820191906000526020600020905b81548152906001019060200180831161044357829003601f168201915b5050505050815250509050806020015181604001518260600151935093509350509193909250565b6000604051905090565b600080fd5b600080fd5b6000819050919050565b6104af8161049c565b81146104ba57600080fd5b50565b6000813590506104cc816104a6565b92915050565b6000602082840312156104e8576104e7610492565b5b60006104f6848285016104bd565b91505092915050565b6105088161049c565b82525050565b600081519050919050565b600082825260208201905092915050565b60005b8381101561054857808201518184015260208101905061052d565b60008484015250505050565b6000601f19601f8301169050919050565b60006105708261050e565b61057a8185610519565b935061058a81856020860161052a565b61059381610554565b840191505092915050565b60006080820190506105b360008301876104ff565b81810360208301526105c58186610565565b90506105d460408301856104ff565b81810360608301526105e68184610565565b905095945050505050565b600060208201905061060660008301846104ff565b92915050565b600080fd5b600080fd5b7f4e487b7100000000000000000000000000000000000000000000000000000000600052604160045260246000fd5b61064e82610554565b810181811067ffffffffffffffff8211171561066d5761066c610616565b5b80604052505050565b6000610680610488565b905061068c8282610645565b919050565b600067ffffffffffffffff8211156106ac576106ab610616565b5b6106b582610554565b9050602081019050919050565b82818337600083830152505050565b60006106e46106df84610691565b610676565b905082815260208101848484011115610700576106ff610611565b5b61070b8482856106c2565b509392505050565b600082601f8301126107285761072761060c565b5b81356107388482602086016106d1565b91505092915050565b60008060006060848603121561075a57610759610492565b5b600084013567ffffffffffffffff81111561077857610777610497565b5b61078486828701610713565b9350506020610795868287016104bd565b925050604084013567ffffffffffffffff8111156107b6576107b5610497565b5b6107c286828701610713565b9150509250925092565b600060608201905081810360008301526107e68186610565565b90506107f560208301856104ff565b81810360408301526108078184610565565b9050949350505050565b7f4e487b7100000000000000000000000000000000000000000000000000000000600052602260045260246000fd5b6000600282049050600182168061085857607f821691505b60208210810361086b5761086a610811565b5b50919050565b7f4e487b7100000000000000000000000000000000000000000000000000000000600052601160045260246000fd5b60006108ab8261049c565b91507fffffffffffffffffffffffffffffffffffffffffffffffffffffffffffffffff82036108dd576108dc610871565b5b600182019050919050565b60008190508160005260206000209050919050565b60006020601f8301049050919050565b600082821b905092915050565b60006008830261094a7fffffffffffffffffffffffffffffffffffffffffffffffffffffffffffffffff8261090d565b610954868361090d565b95508019841693508086168417925050509392505050565b6000819050919050565b600061099161098c6109878461049c565b61096c565b61049c565b9050919050565b6000819050919050565b6109ab83610976565b6109bf6109b782610998565b84845461091a565b825550505050565b600090565b6109d46109c7565b6109df8184846109a2565b505050565b5b81811015610a03576109f86000826109cc565b6001810190506109e5565b5050565b601f821115610a4857610a19816108e8565b610a22846108fd565b81016020851015610a31578190505b610a45610a3d856108fd565b8301826109e4565b50505b505050565b600082821c905092915050565b6000610a6b60001984600802610a4d565b1980831691505092915050565b6000610a848383610a5a565b9150826002028217905092915050565b610a9d8261050e565b67ffffffffffffffff811115610ab657610ab5610616565b5b610ac08254610840565b610acb828285610a07565b600060209050601f831160018114610afe5760008415610aec578287015190505b610af68582610a78565b865550610b5e565b601f198416610b0c866108e8565b60005b82811015610b3457848901518255600182019150602085019450602081019050610b0f565b86831015610b515784890151610b4d601f891682610a5a565b8355505b6001600288020188555050505b50505050505056fea2646970667358221220b12639ef559a1cee0657b80895da8409ac4c327a3dabdfcfa2662ae227e802c864736f6c63430008140033",
  "linkReferences": {},
  "deployedLinkReferences": {}
}