{
  "_format": "hh-sol-artifact-1",
  "contractName": "AdminDashboard",
  "sourceName": "contracts/AdminDashboard.sol",
  "abi": [
    {
      "anonymous": false,
      "inputs": [
        {
          "indexed": false,
          "internalType": "string",
          "name": "testName",
          "type": "string"
        },
        {
          "indexed": false,
          "internalType": "string",
          "name": "userEmail",
          "type": "string"
        }
      ],
      "name": "LabBookingAdded",
      "type": "event"
    },
    {
      "anonymous": false,
      "inputs": [
        {
          "indexed": false,
          "internalType": "string",
          "name": "patientName",
          "type": "string"
        },
        {
          "indexed": false,
          "internalType": "string",
          "name": "diagnosis",
          "type": "string"
        },
        {
          "indexed": false,
          "internalType": "string",
          "name": "prescription",
          "type": "string"
        }
      ],
      "name": "PatientRecordAdded",
      "type": "event"
    },
    {
      "anonymous": false,
      "inputs": [
        {
          "indexed": true,
          "internalType": "address",
          "name": "userAddress",
          "type": "address"
        },
        {
          "indexed": false,
          "internalType": "string",
          "name": "name",
          "type": "string"
        },
        {
          "indexed": false,
          "internalType": "string",
          "name": "email",
          "type": "string"
        },
        {
          "indexed": false,
          "internalType": "string",
          "name": "role",
          "type": "string"
        }
      ],
      "name": "UserAdded",
      "type": "event"
    },
    {
      "inputs": [
        {
          "internalType": "string",
          "name": "_testName",
          "type": "string"
        },
        {
          "internalType": "string",
          "name": "_userEmail",
          "type": "string"
        }
      ],
      "name": "addLabBooking",
      "outputs": [],
      "stateMutability": "nonpayable",
      "type": "function"
    },
    {
      "inputs": [
        {
          "internalType": "string",
          "name": "_patientName",
          "type": "string"
        },
        {
          "internalType": "string",
          "name": "_diagnosis",
          "type": "string"
        },
        {
          "internalType": "string",
          "name": "_prescription",
          "type": "string"
        }
      ],
      "name": "addPatientRecord",
      "outputs": [],
      "stateMutability": "nonpayable",
      "type": "function"
    },
    {
      "inputs": [
        {
          "internalType": "string",
          "name": "_name",
          "type": "string"
        },
        {
          "internalType": "string",
          "name": "_email",
          "type": "string"
        },
        {
          "internalType": "string",
          "name": "_role",
          "type": "string"
        }
      ],
      "name": "addUser",
      "outputs": [],
      "stateMutability": "nonpayable",
      "type": "function"
    },
    {
      "inputs": [],
      "name": "getLabBookings",
      "outputs": [
        {
          "components": [
            {
              "internalType": "string",
              "name": "testName",
              "type": "string"
            },
            {
              "internalType": "string",
              "name": "userEmail",
              "type": "string"
            },
            {
              "internalType": "uint256",
              "name": "timestamp",
              "type": "uint256"
            }
          ],
          "internalType": "struct AdminDashboard.LabBooking[]",
          "name": "",
          "type": "tuple[]"
        }
      ],
      "stateMutability": "view",
      "type": "function"
    },
    {
      "inputs": [],
      "name": "getPatientRecords",
      "outputs": [
        {
          "components": [
            {
              "internalType": "string",
              "name": "patientName",
              "type": "string"
            },
            {
              "internalType": "string",
              "name": "diagnosis",
              "type": "string"
            },
            {
              "internalType": "string",
              "name": "prescription",
              "type": "string"
            },
            {
              "internalType": "uint256",
              "name": "timestamp",
              "type": "uint256"
            }
          ],
          "internalType": "struct AdminDashboard.PatientRecord[]",
          "name": "",
          "type": "tuple[]"
        }
      ],
      "stateMutability": "view",
      "type": "function"
    },
    {
      "inputs": [
        {
          "internalType": "uint256",
          "name": "",
          "type": "uint256"
        }
      ],
      "name": "labBookings",
      "outputs": [
        {
          "internalType": "string",
          "name": "testName",
          "type": "string"
        },
        {
          "internalType": "string",
          "name": "userEmail",
          "type": "string"
        },
        {
          "internalType": "uint256",
          "name": "timestamp",
          "type": "uint256"
        }
      ],
      "stateMutability": "view",
      "type": "function"
    },
    {
      "inputs": [
        {
          "internalType": "uint256",
          "name": "",
          "type": "uint256"
        }
      ],
      "name": "patientRecords",
      "outputs": [
        {
          "internalType": "string",
          "name": "patientName",
          "type": "string"
        },
        {
          "internalType": "string",
          "name": "diagnosis",
          "type": "string"
        },
        {
          "internalType": "string",
          "name": "prescription",
          "type": "string"
        },
        {
          "internalType": "uint256",
          "name": "timestamp",
          "type": "uint256"
        }
      ],
      "stateMutability": "view",
      "type": "function"
    },
    {
      "inputs": [
        {
          "internalType": "address",
          "name": "",
          "type": "address"
        }
      ],
      "name": "users",
      "outputs": [
        {
          "internalType": "string",
          "name": "name",
          "type": "string"
        },
        {
          "internalType": "string",
          "name": "email",
          "type": "string"
        },
        {
          "internalType": "string",
          "name": "role",
          "type": "string"
        }
      ],
      "stateMutability": "view",
      "type": "function"
    }
  ],
  "bytecode": "0x608060405234801561001057600080fd5b506117e2806100206000396000f3fe608060405234801561001057600080fd5b50600436106100885760003560e01c806395c5fed41161005b57806395c5fed414610115578063a87430ba14610131578063b054fff214610163578063d3d188a11461018157610088565b8063026605491461008d57806302f1e4db146100a95780632857b51f146100c557806353a2598b146100e3575b600080fd5b6100a760048036038101906100a29190610e28565b6101b4565b005b6100c360048036038101906100be9190610ea0565b61026f565b005b6100cd610349565b6040516100da9190611112565b60405180910390f35b6100fd60048036038101906100f89190611160565b610568565b60405161010c939291906111e6565b60405180910390f35b61012f600480360381019061012a9190610ea0565b6106b2565b005b61014b60048036038101906101469190611289565b6107a7565b60405161015a939291906112b6565b60405180910390f35b61016b610969565b604051610178919061141b565b60405180910390f35b61019b60048036038101906101969190611160565b610af6565b6040516101ab949392919061143d565b60405180910390f35b60026040518060600160405280848152602001838152602001428152509080600181540180825580915050600190039060005260206000209060030201600090919091909150600082015181600001908161020f91906116a3565b50602082015181600101908161022591906116a3565b506040820151816002015550507faa6b767a224df730564b3dd9e62ba9610b1f927950bf7546de905eaff876fa458282604051610263929190611775565b60405180910390a15050565b6001604051806080016040528085815260200184815260200183815260200142815250908060018154018082558091505060019003906000526020600020906004020160009091909190915060008201518160000190816102d091906116a3565b5060208201518160010190816102e691906116a3565b5060408201518160020190816102fc91906116a3565b506060820151816003015550507f41d9aafc2c6b8818d44b1e4632a550c45bdd0f8495ad3c8ceea3f566b9ba173183838360405161033c939291906112b6565b60405180910390a1505050565b60606001805480602002602001604051908101604052809291908181526020016000905b8282101561055f57838290600052602060002090600402016040518060800160405290816000820180546103a0906114c6565b80601f01602080910402602001604051908101604052809291908181526020018280546103cc906114c6565b80156104195780601f106103ee57610100808354040283529160200191610419565b820191906000526020600020905b8154815290600101906020018083116103fc57829003601f168201915b50505050508152602001600182018054610432906114c6565b80601f016020809104026020016040519081016040528092919081815260200182805461045e906114c6565b80156104ab5780601f10610480576101008083540402835291602001916104ab565b820191906000526020600020905b81548152906001019060200180831161048e57829003601f168201915b505050505081526020016002820180546104c4906114c6565b80601f01602080910402602001604051908101604052809291908181526020018280546104f0906114c6565b801561053d5780601f106105125761010080835404028352916020019161053d565b820191906000526020600020905b81548152906001019060200180831161052057829003601f168201915b505050505081526020016003820154815250508152602001906001019061036d565b50505050905090565b6002818154811061057857600080fd5b906000526020600020906003020160009150905080600001805461059b906114c6565b80601f01602080910402602001604051908101604052809291908181526020018280546105c7906114c6565b80156106145780601f106105e957610100808354040283529160200191610614565b820191906000526020600020905b8154815290600101906020018083116105f757829003601f168201915b505050505090806001018054610629906114c6565b80601f0160208091040260200160405190810160405280929190818152602001828054610655906114c6565b80156106a25780601f10610677576101008083540402835291602001916106a2565b820191906000526020600020905b81548152906001019060200180831161068557829003601f168201915b5050505050908060020154905083565b6040518060600160405280848152602001838152602001828152506000803373ffffffffffffffffffffffffffffffffffffffff1673ffffffffffffffffffffffffffffffffffffffff168152602001908152602001600020600082015181600001908161072091906116a3565b50602082015181600101908161073691906116a3565b50604082015181600201908161074c91906116a3565b509050503373ffffffffffffffffffffffffffffffffffffffff167f7c1f1acc946af35ee1335c400b20f647ccb811619308e1c626cbd88fb38a429184848460405161079a939291906112b6565b60405180910390a2505050565b60006020528060005260406000206000915090508060000180546107ca906114c6565b80601f01602080910402602001604051908101604052809291908181526020018280546107f6906114c6565b80156108435780601f1061081857610100808354040283529160200191610843565b820191906000526020600020905b81548152906001019060200180831161082657829003601f168201915b505050505090806001018054610858906114c6565b80601f0160208091040260200160405190810160405280929190818152602001828054610884906114c6565b80156108d15780601f106108a6576101008083540402835291602001916108d1565b820191906000526020600020905b8154815290600101906020018083116108b457829003601f168201915b5050505050908060020180546108e6906114c6565b80601f0160208091040260200160405190810160405280929190818152602001828054610912906114c6565b801561095f5780601f106109345761010080835404028352916020019161095f565b820191906000526020600020905b81548152906001019060200180831161094257829003601f168201915b5050505050905083565b60606002805480602002602001604051908101604052809291908181526020016000905b82821015610aed57838290600052602060002090600302016040518060600160405290816000820180546109c0906114c6565b80601f01602080910402602001604051908101604052809291908181526020018280546109ec906114c6565b8015610a395780601f10610a0e57610100808354040283529160200191610a39565b820191906000526020600020905b815481529060010190602001808311610a1c57829003601f168201915b50505050508152602001600182018054610a52906114c6565b80601f0160208091040260200160405190810160405280929190818152602001828054610a7e906114c6565b8015610acb5780601f10610aa057610100808354040283529160200191610acb565b820191906000526020600020905b815481529060010190602001808311610aae57829003601f168201915b505050505081526020016002820154815250508152602001906001019061098d565b50505050905090565b60018181548110610b0657600080fd5b9060005260206000209060040201600091509050806000018054610b29906114c6565b80601f0160208091040260200160405190810160405280929190818152602001828054610b55906114c6565b8015610ba25780601f10610b7757610100808354040283529160200191610ba2565b820191906000526020600020905b815481529060010190602001808311610b8557829003601f168201915b505050505090806001018054610bb7906114c6565b80601f0160208091040260200160405190810160405280929190818152602001828054610be3906114c6565b8015610c305780601f10610c0557610100808354040283529160200191610c30565b820191906000526020600020905b815481529060010190602001808311610c1357829003601f168201915b505050505090806002018054610c45906114c6565b80601f0160208091040260200160405190810160405280929190818152602001828054610c71906114c6565b8015610cbe5780601f10610c9357610100808354040283529160200191610cbe565b820191906000526020600020905b815481529060010190602001808311610ca157829003601f168201915b5050505050908060030154905084565b6000604051905090565b600080fd5b600080fd5b600080fd5b600080fd5b6000601f19601f8301169050919050565b7f4e487b7100000000000000000000000000000000000000000000000000000000600052604160045260246000fd5b610d3582610cec565b810181811067ffffffffffffffff82111715610d5457610d53610cfd565b5b80604052505050565b6000610d67610cce565b9050610d738282610d2c565b919050565b600067ffffffffffffffff821115610d9357610d92610cfd565b5b610d9c82610cec565b9050602081019050919050565b82818337600083830152505050565b6000610dcb610dc684610d78565b610d5d565b905082815260208101848484011115610de757610de6610ce7565b5b610df2848285610da9565b509392505050565b600082601f830112610e0f57610e0e610ce2565b5b8135610e1f848260208601610db8565b91505092915050565b60008060408385031215610e3f57610e3e610cd8565b5b600083013567ffffffffffffffff811115610e5d57610e5c610cdd565b5b610e6985828601610dfa565b925050602083013567ffffffffffffffff811115610e8a57610e89610cdd565b5b610e9685828601610dfa565b9150509250929050565b600080600060608486031215610eb957610eb8610cd8565b5b600084013567ffffffffffffffff811115610ed757610ed6610cdd565b5b610ee386828701610dfa565b935050602084013567ffffffffffffffff811115610f0457610f03610cdd565b5b610f1086828701610dfa565b925050604084013567ffffffffffffffff811115610f3157610f30610cdd565b5b610f3d86828701610dfa565b9150509250925092565b600081519050919050565b600082825260208201905092915050565b6000819050602082019050919050565b600081519050919050565b600082825260208201905092915050565b60005b83811015610fad578082015181840152602081019050610f92565b60008484015250505050565b6000610fc482610f73565b610fce8185610f7e565b9350610fde818560208601610f8f565b610fe781610cec565b840191505092915050565b6000819050919050565b61100581610ff2565b82525050565b600060808301600083015184820360008601526110288282610fb9565b915050602083015184820360208601526110428282610fb9565b9150506040830151848203604086015261105c8282610fb9565b91505060608301516110716060860182610ffc565b508091505092915050565b6000611088838361100b565b905092915050565b6000602082019050919050565b60006110a882610f47565b6110b28185610f52565b9350836020820285016110c485610f63565b8060005b8581101561110057848403895281516110e1858261107c565b94506110ec83611090565b925060208a019950506001810190506110c8565b50829750879550505050505092915050565b6000602082019050818103600083015261112c818461109d565b905092915050565b61113d81610ff2565b811461114857600080fd5b50565b60008135905061115a81611134565b92915050565b60006020828403121561117657611175610cd8565b5b60006111848482850161114b565b91505092915050565b600082825260208201905092915050565b60006111a982610f73565b6111b3818561118d565b93506111c3818560208601610f8f565b6111cc81610cec565b840191505092915050565b6111e081610ff2565b82525050565b60006060820190508181036000830152611200818661119e565b90508181036020830152611214818561119e565b905061122360408301846111d7565b949350505050565b600073ffffffffffffffffffffffffffffffffffffffff82169050919050565b60006112568261122b565b9050919050565b6112668161124b565b811461127157600080fd5b50565b6000813590506112838161125d565b92915050565b60006020828403121561129f5761129e610cd8565b5b60006112ad84828501611274565b91505092915050565b600060608201905081810360008301526112d0818661119e565b905081810360208301526112e4818561119e565b905081810360408301526112f8818461119e565b9050949350505050565b600081519050919050565b600082825260208201905092915050565b6000819050602082019050919050565b6000606083016000830151848203600086015261134b8282610fb9565b915050602083015184820360208601526113658282610fb9565b915050604083015161137a6040860182610ffc565b508091505092915050565b6000611391838361132e565b905092915050565b6000602082019050919050565b60006113b182611302565b6113bb818561130d565b9350836020820285016113cd8561131e565b8060005b8581101561140957848403895281516113ea8582611385565b94506113f583611399565b925060208a019950506001810190506113d1565b50829750879550505050505092915050565b6000602082019050818103600083015261143581846113a6565b905092915050565b60006080820190508181036000830152611457818761119e565b9050818103602083015261146b818661119e565b9050818103604083015261147f818561119e565b905061148e60608301846111d7565b95945050505050565b7f4e487b7100000000000000000000000000000000000000000000000000000000600052602260045260246000fd5b600060028204905060018216806114de57607f821691505b6020821081036114f1576114f0611497565b5b50919050565b60008190508160005260206000209050919050565b60006020601f8301049050919050565b600082821b905092915050565b6000600883026115597fffffffffffffffffffffffffffffffffffffffffffffffffffffffffffffffff8261151c565b611563868361151c565b95508019841693508086168417925050509392505050565b6000819050919050565b60006115a061159b61159684610ff2565b61157b565b610ff2565b9050919050565b6000819050919050565b6115ba83611585565b6115ce6115c6826115a7565b848454611529565b825550505050565b600090565b6115e36115d6565b6115ee8184846115b1565b505050565b5b81811015611612576116076000826115db565b6001810190506115f4565b5050565b601f82111561165757611628816114f7565b6116318461150c565b81016020851015611640578190505b61165461164c8561150c565b8301826115f3565b50505b505050565b600082821c905092915050565b600061167a6000198460080261165c565b1980831691505092915050565b60006116938383611669565b9150826002028217905092915050565b6116ac82610f73565b67ffffffffffffffff8111156116c5576116c4610cfd565b5b6116cf82546114c6565b6116da828285611616565b600060209050601f83116001811461170d57600084156116fb578287015190505b6117058582611687565b86555061176d565b601f19841661171b866114f7565b60005b828110156117435784890151825560018201915060208501945060208101905061171e565b86831015611760578489015161175c601f891682611669565b8355505b6001600288020188555050505b505050505050565b6000604082019050818103600083015261178f818561119e565b905081810360208301526117a3818461119e565b9050939250505056fea2646970667358221220f4c6329f94bbc12dc00364683801885773808264010ec51575fe1c9464eed26e64736f6c63430008140033",
  "linkReferences": {},
  "deployedLinkReferences": {}
}