{
  "_format": "hh-sol-artifact-1",
  "contractName": "MedicineContract",
  "sourceName": "contracts/MedicineContract.sol",
  "abi": [
    {
      "anonymous": false,
      "inputs": [
        {
          "indexed": false,
          "internalType": "uint256",
          "name": "id",
          "type": "uint256"
        },
        {
          "indexed": false,
          "internalType": "string",
          "name": "buyer",
          "type": "string"
        },
        {
          "indexed": false,
          "internalType": "string",
          "name": "medicineName",
          "type": "string"
        },
        {
          "indexed": false,
          "internalType": "uint256",
          "name": "quantity",
          "type": "uint256"
        },
        {
          "indexed": false,
          "internalType": "uint256",
          "name": "totalPrice",
          "type": "uint256"
        }
      ],
      "name": "MedicinePurchased",
      "type": "event"
    },
    {
      "inputs": [
        {
          "internalType": "string",
          "name": "_buyer",
          "type": "string"
        },
        {
          "internalType": "string",
          "name": "_medicineName",
          "type": "string"
        },
        {
          "internalType": "uint256",
          "name": "_quantity",
          "type": "uint256"
        },
        {
          "internalType": "uint256",
          "name": "_totalPrice",
          "type": "uint256"
        }
      ],
      "name": "storeTransaction",
      "outputs": [],
      "stateMutability": "nonpayable",
      "type": "function"
    },
    {
      "inputs": [],
      "name": "transactionCount",
      "outputs": [
        {
          "internalType": "uint256",
          "name": "",
          "type": "uint256"
        }
      ],
      "stateMutability": "view",
      "type": "function"
    },
    {
      "inputs": [
        {
          "internalType": "uint256",
          "name": "",
          "type": "uint256"
        }
      ],
      "name": "transactions",
      "outputs": [
        {
          "internalType": "uint256",
          "name": "id",
          "type": "uint256"
        },
        {
          "internalType": "string",
          "name": "buyer",
          "type": "string"
        },
        {
          "internalType": "string",
          "name": "medicineName",
          "type": "string"
        },
        {
          "internalType": "uint256",
          "name": "quantity",
          "type": "uint256"
        },
        {
          "internalType": "uint256",
          "name": "totalPrice",
          "type": "uint256"
        }
      ],
      "stateMutability": "view",
      "type": "function"
    }
  ],
  "bytecode": "0x608060405234801561001057600080fd5b506109da806100206000396000f3fe608060405234801561001057600080fd5b50600436106100415760003560e01c80637535af80146100465780639ace38c214610062578063b77bf60014610096575b600080fd5b610060600480360381019061005b9190610479565b6100b4565b005b61007c60048036038101906100779190610518565b61019d565b60405161008d9594939291906105d3565b60405180910390f35b61009e6102e3565b6040516100ab9190610634565b60405180910390f35b600160008154809291906100c79061067e565b91905055506040518060a00160405280600154815260200185815260200184815260200183815260200182815250600080600154815260200190815260200160002060008201518160000155602082015181600101908161012891906108d2565b50604082015181600201908161013e91906108d2565b5060608201518160030155608082015181600401559050507ff62412bfd125ff2b2d56c7377b9de48b99d514f77f0b129ae14cc59d172e302f6001548585858560405161018f9594939291906105d3565b60405180910390a150505050565b60006020528060005260406000206000915090508060000154908060010180546101c6906106f5565b80601f01602080910402602001604051908101604052809291908181526020018280546101f2906106f5565b801561023f5780601f106102145761010080835404028352916020019161023f565b820191906000526020600020905b81548152906001019060200180831161022257829003601f168201915b505050505090806002018054610254906106f5565b80601f0160208091040260200160405190810160405280929190818152602001828054610280906106f5565b80156102cd5780601f106102a2576101008083540402835291602001916102cd565b820191906000526020600020905b8154815290600101906020018083116102b057829003601f168201915b5050505050908060030154908060040154905085565b60015481565b6000604051905090565b600080fd5b600080fd5b600080fd5b600080fd5b6000601f19601f8301169050919050565b7f4e487b7100000000000000000000000000000000000000000000000000000000600052604160045260246000fd5b61035082610307565b810181811067ffffffffffffffff8211171561036f5761036e610318565b5b80604052505050565b60006103826102e9565b905061038e8282610347565b919050565b600067ffffffffffffffff8211156103ae576103ad610318565b5b6103b782610307565b9050602081019050919050565b82818337600083830152505050565b60006103e66103e184610393565b610378565b90508281526020810184848401111561040257610401610302565b5b61040d8482856103c4565b509392505050565b600082601f83011261042a576104296102fd565b5b813561043a8482602086016103d3565b91505092915050565b6000819050919050565b61045681610443565b811461046157600080fd5b50565b6000813590506104738161044d565b92915050565b60008060008060808587031215610493576104926102f3565b5b600085013567ffffffffffffffff8111156104b1576104b06102f8565b5b6104bd87828801610415565b945050602085013567ffffffffffffffff8111156104de576104dd6102f8565b5b6104ea87828801610415565b93505060406104fb87828801610464565b925050606061050c87828801610464565b91505092959194509250565b60006020828403121561052e5761052d6102f3565b5b600061053c84828501610464565b91505092915050565b61054e81610443565b82525050565b600081519050919050565b600082825260208201905092915050565b60005b8381101561058e578082015181840152602081019050610573565b60008484015250505050565b60006105a582610554565b6105af818561055f565b93506105bf818560208601610570565b6105c881610307565b840191505092915050565b600060a0820190506105e86000830188610545565b81810360208301526105fa818761059a565b9050818103604083015261060e818661059a565b905061061d6060830185610545565b61062a6080830184610545565b9695505050505050565b60006020820190506106496000830184610545565b92915050565b7f4e487b7100000000000000000000000000000000000000000000000000000000600052601160045260246000fd5b600061068982610443565b91507fffffffffffffffffffffffffffffffffffffffffffffffffffffffffffffffff82036106bb576106ba61064f565b5b600182019050919050565b7f4e487b7100000000000000000000000000000000000000000000000000000000600052602260045260246000fd5b6000600282049050600182168061070d57607f821691505b6020821081036107205761071f6106c6565b5b50919050565b60008190508160005260206000209050919050565b60006020601f8301049050919050565b600082821b905092915050565b6000600883026107887fffffffffffffffffffffffffffffffffffffffffffffffffffffffffffffffff8261074b565b610792868361074b565b95508019841693508086168417925050509392505050565b6000819050919050565b60006107cf6107ca6107c584610443565b6107aa565b610443565b9050919050565b6000819050919050565b6107e9836107b4565b6107fd6107f5826107d6565b848454610758565b825550505050565b600090565b610812610805565b61081d8184846107e0565b505050565b5b818110156108415761083660008261080a565b600181019050610823565b5050565b601f8211156108865761085781610726565b6108608461073b565b8101602085101561086f578190505b61088361087b8561073b565b830182610822565b50505b505050565b600082821c905092915050565b60006108a96000198460080261088b565b1980831691505092915050565b60006108c28383610898565b9150826002028217905092915050565b6108db82610554565b67ffffffffffffffff8111156108f4576108f3610318565b5b6108fe82546106f5565b610909828285610845565b600060209050601f83116001811461093c576000841561092a578287015190505b61093485826108b6565b86555061099c565b601f19841661094a86610726565b60005b828110156109725784890151825560018201915060208501945060208101905061094d565b8683101561098f578489015161098b601f891682610898565b8355505b6001600288020188555050505b50505050505056fea2646970667358221220616a0a2c805939fd4ae895b397353c17c4ca600ed88c2920c91e166a76ea135264736f6c63430008140033",
  "linkReferences": {},
  "deployedLinkReferences": {}
}