{
  "_format": "hh-sol-artifact-1",
  "contractName": "PatientRecord",
  "sourceName": "contracts/PatientRecord.sol",
  "abi": [
    {
      "anonymous": false,
      "inputs": [
        {
          "indexed": false,
          "internalType": "uint256",
          "name": "id",
          "type": "uint256"
        },
        {
          "indexed": false,
          "internalType": "string",
          "name": "name",
          "type": "string"
        },
        {
          "indexed": false,
          "internalType": "uint256",
          "name": "age",
          "type": "uint256"
        },
        {
          "indexed": false,
          "internalType": "string",
          "name": "gender",
          "type": "string"
        },
        {
          "indexed": false,
          "internalType": "string",
          "name": "medicalHistory",
          "type": "string"
        },
        {
          "indexed": false,
          "internalType": "string",
          "name": "lastVisit",
          "type": "string"
        }
      ],
      "name": "PatientAdded",
      "type": "event"
    },
    {
      "inputs": [
        {
          "internalType": "uint256",
          "name": "_id",
          "type": "uint256"
        }
      ],
      "name": "getPatientRecord",
      "outputs": [
        {
          "internalType": "string",
          "name": "",
          "type": "string"
        },
        {
          "internalType": "uint256",
          "name": "",
          "type": "uint256"
        },
        {
          "internalType": "string",
          "name": "",
          "type": "string"
        },
        {
          "internalType": "string",
          "name": "",
          "type": "string"
        },
        {
          "internalType": "string",
          "name": "",
          "type": "string"
        }
      ],
      "stateMutability": "view",
      "type": "function"
    },
    {
      "inputs": [],
      "name": "patientCount",
      "outputs": [
        {
          "internalType": "uint256",
          "name": "",
          "type": "uint256"
        }
      ],
      "stateMutability": "view",
      "type": "function"
    },
    {
      "inputs": [
        {
          "internalType": "uint256",
          "name": "",
          "type": "uint256"
        }
      ],
      "name": "patientRecords",
      "outputs": [
        {
          "internalType": "uint256",
          "name": "id",
          "type": "uint256"
        },
        {
          "internalType": "string",
          "name": "name",
          "type": "string"
        },
        {
          "internalType": "uint256",
          "name": "age",
          "type": "uint256"
        },
        {
          "internalType": "string",
          "name": "gender",
          "type": "string"
        },
        {
          "internalType": "string",
          "name": "medicalHistory",
          "type": "string"
        },
        {
          "internalType": "string",
          "name": "lastVisit",
          "type": "string"
        }
      ],
      "stateMutability": "view",
      "type": "function"
    },
    {
      "inputs": [
        {
          "internalType": "string",
          "name": "_name",
          "type": "string"
        },
        {
          "internalType": "uint256",
          "name": "_age",
          "type": "uint256"
        },
        {
          "internalType": "string",
          "name": "_gender",
          "type": "string"
        },
        {
          "internalType": "string",
          "name": "_medicalHistory",
          "type": "string"
        },
        {
          "internalType": "string",
          "name": "_lastVisit",
          "type": "string"
        }
      ],
      "name": "storePatientRecord",
      "outputs": [],
      "stateMutability": "nonpayable",
      "type": "function"
    }
  ],
  "bytecode": "0x608060405234801561001057600080fd5b50610ee5806100206000396000f3fe608060405234801561001057600080fd5b506004361061004c5760003560e01c8063a0303c4114610051578063a720aca71461006f578063b9fff11b1461008b578063d3d188a1146100bf575b600080fd5b6100596100f4565b6040516100669190610736565b60405180910390f35b610089600480360381019061008491906108d7565b6100fa565b005b6100a560048036038101906100a091906109c2565b61020e565b6040516100b6959493929190610a6e565b60405180910390f35b6100d960048036038101906100d491906109c2565b6104c1565b6040516100eb96959493929190610add565b60405180910390f35b60015481565b6001600081548092919061010d90610b89565b91905055506040518060c0016040528060015481526020018681526020018581526020018481526020018381526020018281525060008060015481526020019081526020016000206000820151816000015560208201518160010190816101749190610ddd565b506040820151816002015560608201518160030190816101949190610ddd565b5060808201518160040190816101aa9190610ddd565b5060a08201518160050190816101c09190610ddd565b509050507ff79f8a905c0b4d971d0cfb0e88f3af5158e14bc8a7e3037cee3a3cb1b543c9db60015486868686866040516101ff96959493929190610add565b60405180910390a15050505050565b60606000606080606060008060008881526020019081526020016000206040518060c00160405290816000820154815260200160018201805461025090610c00565b80601f016020809104026020016040519081016040528092919081815260200182805461027c90610c00565b80156102c95780601f1061029e576101008083540402835291602001916102c9565b820191906000526020600020905b8154815290600101906020018083116102ac57829003601f168201915b50505050508152602001600282015481526020016003820180546102ec90610c00565b80601f016020809104026020016040519081016040528092919081815260200182805461031890610c00565b80156103655780601f1061033a57610100808354040283529160200191610365565b820191906000526020600020905b81548152906001019060200180831161034857829003601f168201915b5050505050815260200160048201805461037e90610c00565b80601f01602080910402602001604051908101604052809291908181526020018280546103aa90610c00565b80156103f75780601f106103cc576101008083540402835291602001916103f7565b820191906000526020600020905b8154815290600101906020018083116103da57829003601f168201915b5050505050815260200160058201805461041090610c00565b80601f016020809104026020016040519081016040528092919081815260200182805461043c90610c00565b80156104895780601f1061045e57610100808354040283529160200191610489565b820191906000526020600020905b81548152906001019060200180831161046c57829003601f168201915b505050505081525050905080602001518160400151826060015183608001518460a00151955095509550955095505091939590929450565b60006020528060005260406000206000915090508060000154908060010180546104ea90610c00565b80601f016020809104026020016040519081016040528092919081815260200182805461051690610c00565b80156105635780601f1061053857610100808354040283529160200191610563565b820191906000526020600020905b81548152906001019060200180831161054657829003601f168201915b50505050509080600201549080600301805461057e90610c00565b80601f01602080910402602001604051908101604052809291908181526020018280546105aa90610c00565b80156105f75780601f106105cc576101008083540402835291602001916105f7565b820191906000526020600020905b8154815290600101906020018083116105da57829003601f168201915b50505050509080600401805461060c90610c00565b80601f016020809104026020016040519081016040528092919081815260200182805461063890610c00565b80156106855780601f1061065a57610100808354040283529160200191610685565b820191906000526020600020905b81548152906001019060200180831161066857829003601f168201915b50505050509080600501805461069a90610c00565b80601f01602080910402602001604051908101604052809291908181526020018280546106c690610c00565b80156107135780601f106106e857610100808354040283529160200191610713565b820191906000526020600020905b8154815290600101906020018083116106f657829003601f168201915b5050505050905086565b6000819050919050565b6107308161071d565b82525050565b600060208201905061074b6000830184610727565b92915050565b6000604051905090565b600080fd5b600080fd5b600080fd5b600080fd5b6000601f19601f8301169050919050565b7f4e487b7100000000000000000000000000000000000000000000000000000000600052604160045260246000fd5b6107b88261076f565b810181811067ffffffffffffffff821117156107d7576107d6610780565b5b80604052505050565b60006107ea610751565b90506107f682826107af565b919050565b600067ffffffffffffffff82111561081657610815610780565b5b61081f8261076f565b9050602081019050919050565b82818337600083830152505050565b600061084e610849846107fb565b6107e0565b90508281526020810184848401111561086a5761086961076a565b5b61087584828561082c565b509392505050565b600082601f83011261089257610891610765565b5b81356108a284826020860161083b565b91505092915050565b6108b48161071d565b81146108bf57600080fd5b50565b6000813590506108d1816108ab565b92915050565b600080600080600060a086880312156108f3576108f261075b565b5b600086013567ffffffffffffffff81111561091157610910610760565b5b61091d8882890161087d565b955050602061092e888289016108c2565b945050604086013567ffffffffffffffff81111561094f5761094e610760565b5b61095b8882890161087d565b935050606086013567ffffffffffffffff81111561097c5761097b610760565b5b6109888882890161087d565b925050608086013567ffffffffffffffff8111156109a9576109a8610760565b5b6109b58882890161087d565b9150509295509295909350565b6000602082840312156109d8576109d761075b565b5b60006109e6848285016108c2565b91505092915050565b600081519050919050565b600082825260208201905092915050565b60005b83811015610a29578082015181840152602081019050610a0e565b60008484015250505050565b6000610a40826109ef565b610a4a81856109fa565b9350610a5a818560208601610a0b565b610a638161076f565b840191505092915050565b600060a0820190508181036000830152610a888188610a35565b9050610a976020830187610727565b8181036040830152610aa98186610a35565b90508181036060830152610abd8185610a35565b90508181036080830152610ad18184610a35565b90509695505050505050565b600060c082019050610af26000830189610727565b8181036020830152610b048188610a35565b9050610b136040830187610727565b8181036060830152610b258186610a35565b90508181036080830152610b398185610a35565b905081810360a0830152610b4d8184610a35565b9050979650505050505050565b7f4e487b7100000000000000000000000000000000000000000000000000000000600052601160045260246000fd5b6000610b948261071d565b91507fffffffffffffffffffffffffffffffffffffffffffffffffffffffffffffffff8203610bc657610bc5610b5a565b5b600182019050919050565b7f4e487b7100000000000000000000000000000000000000000000000000000000600052602260045260246000fd5b60006002820490506001821680610c1857607f821691505b602082108103610c2b57610c2a610bd1565b5b50919050565b60008190508160005260206000209050919050565b60006020601f8301049050919050565b600082821b905092915050565b600060088302610c937fffffffffffffffffffffffffffffffffffffffffffffffffffffffffffffffff82610c56565b610c9d8683610c56565b95508019841693508086168417925050509392505050565b6000819050919050565b6000610cda610cd5610cd08461071d565b610cb5565b61071d565b9050919050565b6000819050919050565b610cf483610cbf565b610d08610d0082610ce1565b848454610c63565b825550505050565b600090565b610d1d610d10565b610d28818484610ceb565b505050565b5b81811015610d4c57610d41600082610d15565b600181019050610d2e565b5050565b601f821115610d9157610d6281610c31565b610d6b84610c46565b81016020851015610d7a578190505b610d8e610d8685610c46565b830182610d2d565b50505b505050565b600082821c905092915050565b6000610db460001984600802610d96565b1980831691505092915050565b6000610dcd8383610da3565b9150826002028217905092915050565b610de6826109ef565b67ffffffffffffffff811115610dff57610dfe610780565b5b610e098254610c00565b610e14828285610d50565b600060209050601f831160018114610e475760008415610e35578287015190505b610e3f8582610dc1565b865550610ea7565b601f198416610e5586610c31565b60005b82811015610e7d57848901518255600182019150602085019450602081019050610e58565b86831015610e9a5784890151610e96601f891682610da3565b8355505b6001600288020188555050505b50505050505056fea2646970667358221220a198055b1c6b246eba00b24375d28744cd6d74396dafbe81d59d73465d41da3d64736f6c63430008140033",
  "linkReferences": {},
  "deployedLinkReferences": {}
}