{
  "_format": "hh-sol-artifact-1",
  "contractName": "UserManage",
  "sourceName": "contracts/UserManage.sol",
  "abi": [
    {
      "anonymous": false,
      "inputs": [
        {
          "indexed": true,
          "internalType": "address",
          "name": "userAddress",
          "type": "address"
        },
        {
          "indexed": false,
          "internalType": "string",
          "name": "email",
          "type": "string"
        }
      ],
      "name": "UserDeleted",
      "type": "event"
    },
    {
      "anonymous": false,
      "inputs": [
        {
          "indexed": true,
          "internalType": "address",
          "name": "userAddress",
          "type": "address"
        },
        {
          "indexed": false,
          "internalType": "string",
          "name": "name",
          "type": "string"
        },
        {
          "indexed": false,
          "internalType": "string",
          "name": "email",
          "type": "string"
        },
        {
          "indexed": false,
          "internalType": "string",
          "name": "role",
          "type": "string"
        }
      ],
      "name": "UserRegistered",
      "type": "event"
    },
    {
      "anonymous": false,
      "inputs": [
        {
          "indexed": true,
          "internalType": "address",
          "name": "userAddress",
          "type": "address"
        },
        {
          "indexed": false,
          "internalType": "string",
          "name": "name",
          "type": "string"
        },
        {
          "indexed": false,
          "internalType": "string",
          "name": "email",
          "type": "string"
        },
        {
          "indexed": false,
          "internalType": "string",
          "name": "role",
          "type": "string"
        }
      ],
      "name": "UserUpdated",
      "type": "event"
    },
    {
      "inputs": [
        {
          "internalType": "string",
          "name": "_email",
          "type": "string"
        }
      ],
      "name": "deleteUser",
      "outputs": [],
      "stateMutability": "nonpayable",
      "type": "function"
    },
    {
      "inputs": [
        {
          "internalType": "string",
          "name": "_name",
          "type": "string"
        },
        {
          "internalType": "string",
          "name": "_email",
          "type": "string"
        },
        {
          "internalType": "string",
          "name": "_role",
          "type": "string"
        },
        {
          "internalType": "string",
          "name": "_password",
          "type": "string"
        }
      ],
      "name": "registerUser",
      "outputs": [],
      "stateMutability": "nonpayable",
      "type": "function"
    },
    {
      "inputs": [
        {
          "internalType": "string",
          "name": "_name",
          "type": "string"
        },
        {
          "internalType": "string",
          "name": "_email",
          "type": "string"
        },
        {
          "internalType": "string",
          "name": "_role",
          "type": "string"
        }
      ],
      "name": "updateUser",
      "outputs": [],
      "stateMutability": "nonpayable",
      "type": "function"
    },
    {
      "inputs": [
        {
          "internalType": "string",
          "name": "_email",
          "type": "string"
        },
        {
          "internalType": "string",
          "name": "_password",
          "type": "string"
        }
      ],
      "name": "verifyUser",
      "outputs": [
        {
          "internalType": "bool",
          "name": "",
          "type": "bool"
        }
      ],
      "stateMutability": "view",
      "type": "function"
    }
  ],
  "bytecode": "0x608060405234801561001057600080fd5b5061138e806100206000396000f3fe608060405234801561001057600080fd5b506004361061004c5760003560e01c80633f360b411461005157806360903be61461008157806393e54a561461009d578063d3695161146100b9575b600080fd5b61006b60048036038101906100669190610b77565b6100d5565b6040516100789190610c0a565b60405180910390f35b61009b60048036038101906100969190610c25565b6103e7565b005b6100b760048036038101906100b29190610ccc565b61056a565b005b6100d360048036038101906100ce9190610da3565b6107cf565b005b6000806001846040516100e89190610e5d565b908152602001604051809103902060009054906101000a900473ffffffffffffffffffffffffffffffffffffffff169050600073ffffffffffffffffffffffffffffffffffffffff168173ffffffffffffffffffffffffffffffffffffffff1603610188576040517f08c379a000000000000000000000000000000000000000000000000000000000815260040161017f90610ed1565b60405180910390fd5b60008060008373ffffffffffffffffffffffffffffffffffffffff1673ffffffffffffffffffffffffffffffffffffffff1681526020019081526020016000206040518060a00160405290816000820180546101e390610f20565b80601f016020809104026020016040519081016040528092919081815260200182805461020f90610f20565b801561025c5780601f106102315761010080835404028352916020019161025c565b820191906000526020600020905b81548152906001019060200180831161023f57829003601f168201915b5050505050815260200160018201805461027590610f20565b80601f01602080910402602001604051908101604052809291908181526020018280546102a190610f20565b80156102ee5780601f106102c3576101008083540402835291602001916102ee565b820191906000526020600020905b8154815290600101906020018083116102d157829003601f168201915b5050505050815260200160028201805461030790610f20565b80601f016020809104026020016040519081016040528092919081815260200182805461033390610f20565b80156103805780601f1061035557610100808354040283529160200191610380565b820191906000526020600020905b81548152906001019060200180831161036357829003601f168201915b50505050508152602001600382015481526020016004820160009054906101000a900460ff1615151515815250509050836040516020016103c19190610e5d565b604051602081830303815290604052805190602001208160600151149250505092915050565b6000803373ffffffffffffffffffffffffffffffffffffffff1673ffffffffffffffffffffffffffffffffffffffff16815260200190815260200160002060040160009054906101000a900460ff16610475576040517f08c379a000000000000000000000000000000000000000000000000000000000815260040161046c90610f9d565b60405180910390fd5b826000803373ffffffffffffffffffffffffffffffffffffffff1673ffffffffffffffffffffffffffffffffffffffff16815260200190815260200160002060000190816104c39190611173565b50806000803373ffffffffffffffffffffffffffffffffffffffff1673ffffffffffffffffffffffffffffffffffffffff16815260200190815260200160002060020190816105129190611173565b503373ffffffffffffffffffffffffffffffffffffffff167f4b314ef62dce971c911709f34a09ad2379c819e66e3529f09fcf90464b46498e84848460405161055d9392919061127e565b60405180910390a2505050565b600073ffffffffffffffffffffffffffffffffffffffff166001846040516105929190610e5d565b908152602001604051809103902060009054906101000a900473ffffffffffffffffffffffffffffffffffffffff1673ffffffffffffffffffffffffffffffffffffffff1614610617576040517f08c379a000000000000000000000000000000000000000000000000000000000815260040161060e90611316565b60405180910390fd5b60008160405160200161062a9190610e5d565b6040516020818303038152906040528051906020012090506040518060a00160405280868152602001858152602001848152602001828152602001600115158152506000803373ffffffffffffffffffffffffffffffffffffffff1673ffffffffffffffffffffffffffffffffffffffff16815260200190815260200160002060008201518160000190816106bf9190611173565b5060208201518160010190816106d59190611173565b5060408201518160020190816106eb9190611173565b506060820151816003015560808201518160040160006101000a81548160ff0219169083151502179055509050503360018560405161072a9190610e5d565b908152602001604051809103902060006101000a81548173ffffffffffffffffffffffffffffffffffffffff021916908373ffffffffffffffffffffffffffffffffffffffff1602179055503373ffffffffffffffffffffffffffffffffffffffff167f509c70f523067009f7db7f46db6956d7af8b679323680dc3821a8bad001ac1e18686866040516107c09392919061127e565b60405180910390a25050505050565b60006001826040516107e19190610e5d565b908152602001604051809103902060009054906101000a900473ffffffffffffffffffffffffffffffffffffffff1690506000808273ffffffffffffffffffffffffffffffffffffffff1673ffffffffffffffffffffffffffffffffffffffff16815260200190815260200160002060040160009054906101000a900460ff166108a0576040517f08c379a000000000000000000000000000000000000000000000000000000000815260040161089790610f9d565b60405180910390fd5b6000808273ffffffffffffffffffffffffffffffffffffffff1673ffffffffffffffffffffffffffffffffffffffff168152602001908152602001600020600080820160006108ef91906109c0565b6001820160006108ff91906109c0565b60028201600061090f91906109c0565b60038201600090556004820160006101000a81549060ff0219169055505060018260405161093d9190610e5d565b908152602001604051809103902060006101000a81549073ffffffffffffffffffffffffffffffffffffffff02191690558073ffffffffffffffffffffffffffffffffffffffff167f32b931fea2d04014124dfdebbcff93ed4b64527a35af5d25c75a1a79b2f5b3bf836040516109b49190611336565b60405180910390a25050565b5080546109cc90610f20565b6000825580601f106109de57506109fd565b601f0160209004906000526020600020908101906109fc9190610a00565b5b50565b5b80821115610a19576000816000905550600101610a01565b5090565b6000604051905090565b600080fd5b600080fd5b600080fd5b600080fd5b6000601f19601f8301169050919050565b7f4e487b7100000000000000000000000000000000000000000000000000000000600052604160045260246000fd5b610a8482610a3b565b810181811067ffffffffffffffff82111715610aa357610aa2610a4c565b5b80604052505050565b6000610ab6610a1d565b9050610ac28282610a7b565b919050565b600067ffffffffffffffff821115610ae257610ae1610a4c565b5b610aeb82610a3b565b9050602081019050919050565b82818337600083830152505050565b6000610b1a610b1584610ac7565b610aac565b905082815260208101848484011115610b3657610b35610a36565b5b610b41848285610af8565b509392505050565b600082601f830112610b5e57610b5d610a31565b5b8135610b6e848260208601610b07565b91505092915050565b60008060408385031215610b8e57610b8d610a27565b5b600083013567ffffffffffffffff811115610bac57610bab610a2c565b5b610bb885828601610b49565b925050602083013567ffffffffffffffff811115610bd957610bd8610a2c565b5b610be585828601610b49565b9150509250929050565b60008115159050919050565b610c0481610bef565b82525050565b6000602082019050610c1f6000830184610bfb565b92915050565b600080600060608486031215610c3e57610c3d610a27565b5b600084013567ffffffffffffffff811115610c5c57610c5b610a2c565b5b610c6886828701610b49565b935050602084013567ffffffffffffffff811115610c8957610c88610a2c565b5b610c9586828701610b49565b925050604084013567ffffffffffffffff811115610cb657610cb5610a2c565b5b610cc286828701610b49565b9150509250925092565b60008060008060808587031215610ce657610ce5610a27565b5b600085013567ffffffffffffffff811115610d0457610d03610a2c565b5b610d1087828801610b49565b945050602085013567ffffffffffffffff811115610d3157610d30610a2c565b5b610d3d87828801610b49565b935050604085013567ffffffffffffffff811115610d5e57610d5d610a2c565b5b610d6a87828801610b49565b925050606085013567ffffffffffffffff811115610d8b57610d8a610a2c565b5b610d9787828801610b49565b91505092959194509250565b600060208284031215610db957610db8610a27565b5b600082013567ffffffffffffffff811115610dd757610dd6610a2c565b5b610de384828501610b49565b91505092915050565b600081519050919050565b600081905092915050565b60005b83811015610e20578082015181840152602081019050610e05565b60008484015250505050565b6000610e3782610dec565b610e418185610df7565b9350610e51818560208601610e02565b80840191505092915050565b6000610e698284610e2c565b915081905092915050565b600082825260208201905092915050565b7f55736572206e6f7420666f756e64000000000000000000000000000000000000600082015250565b6000610ebb600e83610e74565b9150610ec682610e85565b602082019050919050565b60006020820190508181036000830152610eea81610eae565b9050919050565b7f4e487b7100000000000000000000000000000000000000000000000000000000600052602260045260246000fd5b60006002820490506001821680610f3857607f821691505b602082108103610f4b57610f4a610ef1565b5b50919050565b7f5573657220646f6573206e6f7420657869737400000000000000000000000000600082015250565b6000610f87601383610e74565b9150610f9282610f51565b602082019050919050565b60006020820190508181036000830152610fb681610f7a565b9050919050565b60008190508160005260206000209050919050565b60006020601f8301049050919050565b600082821b905092915050565b60006008830261101f7fffffffffffffffffffffffffffffffffffffffffffffffffffffffffffffffff82610fe2565b6110298683610fe2565b95508019841693508086168417925050509392505050565b6000819050919050565b6000819050919050565b600061107061106b61106684611041565b61104b565b611041565b9050919050565b6000819050919050565b61108a83611055565b61109e61109682611077565b848454610fef565b825550505050565b600090565b6110b36110a6565b6110be818484611081565b505050565b5b818110156110e2576110d76000826110ab565b6001810190506110c4565b5050565b601f821115611127576110f881610fbd565b61110184610fd2565b81016020851015611110578190505b61112461111c85610fd2565b8301826110c3565b50505b505050565b600082821c905092915050565b600061114a6000198460080261112c565b1980831691505092915050565b60006111638383611139565b9150826002028217905092915050565b61117c82610dec565b67ffffffffffffffff81111561119557611194610a4c565b5b61119f8254610f20565b6111aa8282856110e6565b600060209050601f8311600181146111dd57600084156111cb578287015190505b6111d58582611157565b86555061123d565b601f1984166111eb86610fbd565b60005b82811015611213578489015182556001820191506020850194506020810190506111ee565b86831015611230578489015161122c601f891682611139565b8355505b6001600288020188555050505b505050505050565b600061125082610dec565b61125a8185610e74565b935061126a818560208601610e02565b61127381610a3b565b840191505092915050565b600060608201905081810360008301526112988186611245565b905081810360208301526112ac8185611245565b905081810360408301526112c08184611245565b9050949350505050565b7f456d61696c20616c726561647920726567697374657265640000000000000000600082015250565b6000611300601883610e74565b915061130b826112ca565b602082019050919050565b6000602082019050818103600083015261132f816112f3565b9050919050565b600060208201905081810360008301526113508184611245565b90509291505056fea2646970667358221220c0db0df73083505085d76d99a15874b48452d886caa1e8e6ba6355d7776f96a664736f6c63430008140033",
  "linkReferences": {},
  "deployedLinkReferences": {}
}