{
  "_format": "hh-sol-artifact-1",
  "contractName": "PatientContract",
  "sourceName": "contracts/PatientContract.sol",
  "abi": [
    {
      "anonymous": false,
      "inputs": [
        {
          "indexed": false,
          "internalType": "uint256",
          "name": "id",
          "type": "uint256"
        },
        {
          "indexed": false,
          "internalType": "string",
          "name": "name",
          "type": "string"
        },
        {
          "indexed": false,
          "internalType": "uint256",
          "name": "age",
          "type": "uint256"
        },
        {
          "indexed": false,
          "internalType": "string",
          "name": "gender",
          "type": "string"
        },
        {
          "indexed": false,
          "internalType": "string",
          "name": "medicalHistory",
          "type": "string"
        }
      ],
      "name": "PatientAdded",
      "type": "event"
    },
    {
      "inputs": [
        {
          "internalType": "uint256",
          "name": "_id",
          "type": "uint256"
        }
      ],
      "name": "getPatient",
      "outputs": [
        {
          "internalType": "string",
          "name": "",
          "type": "string"
        },
        {
          "internalType": "uint256",
          "name": "",
          "type": "uint256"
        },
        {
          "internalType": "string",
          "name": "",
          "type": "string"
        },
        {
          "internalType": "string",
          "name": "",
          "type": "string"
        }
      ],
      "stateMutability": "view",
      "type": "function"
    },
    {
      "inputs": [],
      "name": "patientCount",
      "outputs": [
        {
          "internalType": "uint256",
          "name": "",
          "type": "uint256"
        }
      ],
      "stateMutability": "view",
      "type": "function"
    },
    {
      "inputs": [
        {
          "internalType": "uint256",
          "name": "",
          "type": "uint256"
        }
      ],
      "name": "patientRecords",
      "outputs": [
        {
          "internalType": "uint256",
          "name": "id",
          "type": "uint256"
        },
        {
          "internalType": "string",
          "name": "name",
          "type": "string"
        },
        {
          "internalType": "uint256",
          "name": "age",
          "type": "uint256"
        },
        {
          "internalType": "string",
          "name": "gender",
          "type": "string"
        },
        {
          "internalType": "string",
          "name": "medicalHistory",
          "type": "string"
        }
      ],
      "stateMutability": "view",
      "type": "function"
    },
    {
      "inputs": [
        {
          "internalType": "string",
          "name": "_name",
          "type": "string"
        },
        {
          "internalType": "uint256",
          "name": "_age",
          "type": "uint256"
        },
        {
          "internalType": "string",
          "name": "_gender",
          "type": "string"
        },
        {
          "internalType": "string",
          "name": "_medicalHistory",
          "type": "string"
        }
      ],
      "name": "storePatient",
      "outputs": [],
      "stateMutability": "nonpayable",
      "type": "function"
    }
  ],
  "bytecode": "0x608060405234801561001057600080fd5b50610d3f806100206000396000f3fe608060405234801561001057600080fd5b506004361061004c5760003560e01c806357240498146100515780637d3a67961461006d578063a0303c41146100a0578063d3d188a1146100be575b600080fd5b61006b60048036038101906100669190610761565b6100f2565b005b6100876004803603810190610082919061081c565b6101e7565b60405161009794939291906108d7565b60405180910390f35b6100a86103fd565b6040516100b59190610931565b60405180910390f35b6100d860048036038101906100d3919061081c565b610403565b6040516100e995949392919061094c565b60405180910390f35b60016000815480929190610105906109e3565b91905055506040518060a0016040528060015481526020018581526020018481526020018381526020018281525060008060015481526020019081526020016000206000820151816000015560208201518160010190816101669190610c37565b506040820151816002015560608201518160030190816101869190610c37565b50608082015181600401908161019c9190610c37565b509050507ff94a0197965c04a29c940d2a9ae1cb5186dc790934ca71bfe47a0e878a02377d600154858585856040516101d995949392919061094c565b60405180910390a150505050565b6060600060608060008060008781526020019081526020016000206040518060a00160405290816000820154815260200160018201805461022790610a5a565b80601f016020809104026020016040519081016040528092919081815260200182805461025390610a5a565b80156102a05780601f10610275576101008083540402835291602001916102a0565b820191906000526020600020905b81548152906001019060200180831161028357829003601f168201915b50505050508152602001600282015481526020016003820180546102c390610a5a565b80601f01602080910402602001604051908101604052809291908181526020018280546102ef90610a5a565b801561033c5780601f106103115761010080835404028352916020019161033c565b820191906000526020600020905b81548152906001019060200180831161031f57829003601f168201915b5050505050815260200160048201805461035590610a5a565b80601f016020809104026020016040519081016040528092919081815260200182805461038190610a5a565b80156103ce5780601f106103a3576101008083540402835291602001916103ce565b820191906000526020600020905b8154815290600101906020018083116103b157829003601f168201915b505050505081525050905080602001518160400151826060015183608001519450945094509450509193509193565b60015481565b600060205280600052604060002060009150905080600001549080600101805461042c90610a5a565b80601f016020809104026020016040519081016040528092919081815260200182805461045890610a5a565b80156104a55780601f1061047a576101008083540402835291602001916104a5565b820191906000526020600020905b81548152906001019060200180831161048857829003601f168201915b5050505050908060020154908060030180546104c090610a5a565b80601f01602080910402602001604051908101604052809291908181526020018280546104ec90610a5a565b80156105395780601f1061050e57610100808354040283529160200191610539565b820191906000526020600020905b81548152906001019060200180831161051c57829003601f168201915b50505050509080600401805461054e90610a5a565b80601f016020809104026020016040519081016040528092919081815260200182805461057a90610a5a565b80156105c75780601f1061059c576101008083540402835291602001916105c7565b820191906000526020600020905b8154815290600101906020018083116105aa57829003601f168201915b5050505050905085565b6000604051905090565b600080fd5b600080fd5b600080fd5b600080fd5b6000601f19601f8301169050919050565b7f4e487b7100000000000000000000000000000000000000000000000000000000600052604160045260246000fd5b610638826105ef565b810181811067ffffffffffffffff8211171561065757610656610600565b5b80604052505050565b600061066a6105d1565b9050610676828261062f565b919050565b600067ffffffffffffffff82111561069657610695610600565b5b61069f826105ef565b9050602081019050919050565b82818337600083830152505050565b60006106ce6106c98461067b565b610660565b9050828152602081018484840111156106ea576106e96105ea565b5b6106f58482856106ac565b509392505050565b600082601f830112610712576107116105e5565b5b81356107228482602086016106bb565b91505092915050565b6000819050919050565b61073e8161072b565b811461074957600080fd5b50565b60008135905061075b81610735565b92915050565b6000806000806080858703121561077b5761077a6105db565b5b600085013567ffffffffffffffff811115610799576107986105e0565b5b6107a5878288016106fd565b94505060206107b68782880161074c565b935050604085013567ffffffffffffffff8111156107d7576107d66105e0565b5b6107e3878288016106fd565b925050606085013567ffffffffffffffff811115610804576108036105e0565b5b610810878288016106fd565b91505092959194509250565b600060208284031215610832576108316105db565b5b60006108408482850161074c565b91505092915050565b600081519050919050565b600082825260208201905092915050565b60005b83811015610883578082015181840152602081019050610868565b60008484015250505050565b600061089a82610849565b6108a48185610854565b93506108b4818560208601610865565b6108bd816105ef565b840191505092915050565b6108d18161072b565b82525050565b600060808201905081810360008301526108f1818761088f565b905061090060208301866108c8565b8181036040830152610912818561088f565b90508181036060830152610926818461088f565b905095945050505050565b600060208201905061094660008301846108c8565b92915050565b600060a08201905061096160008301886108c8565b8181036020830152610973818761088f565b905061098260408301866108c8565b8181036060830152610994818561088f565b905081810360808301526109a8818461088f565b90509695505050505050565b7f4e487b7100000000000000000000000000000000000000000000000000000000600052601160045260246000fd5b60006109ee8261072b565b91507fffffffffffffffffffffffffffffffffffffffffffffffffffffffffffffffff8203610a2057610a1f6109b4565b5b600182019050919050565b7f4e487b7100000000000000000000000000000000000000000000000000000000600052602260045260246000fd5b60006002820490506001821680610a7257607f821691505b602082108103610a8557610a84610a2b565b5b50919050565b60008190508160005260206000209050919050565b60006020601f8301049050919050565b600082821b905092915050565b600060088302610aed7fffffffffffffffffffffffffffffffffffffffffffffffffffffffffffffffff82610ab0565b610af78683610ab0565b95508019841693508086168417925050509392505050565b6000819050919050565b6000610b34610b2f610b2a8461072b565b610b0f565b61072b565b9050919050565b6000819050919050565b610b4e83610b19565b610b62610b5a82610b3b565b848454610abd565b825550505050565b600090565b610b77610b6a565b610b82818484610b45565b505050565b5b81811015610ba657610b9b600082610b6f565b600181019050610b88565b5050565b601f821115610beb57610bbc81610a8b565b610bc584610aa0565b81016020851015610bd4578190505b610be8610be085610aa0565b830182610b87565b50505b505050565b600082821c905092915050565b6000610c0e60001984600802610bf0565b1980831691505092915050565b6000610c278383610bfd565b9150826002028217905092915050565b610c4082610849565b67ffffffffffffffff811115610c5957610c58610600565b5b610c638254610a5a565b610c6e828285610baa565b600060209050601f831160018114610ca15760008415610c8f578287015190505b610c998582610c1b565b865550610d01565b601f198416610caf86610a8b565b60005b82811015610cd757848901518255600182019150602085019450602081019050610cb2565b86831015610cf45784890151610cf0601f891682610bfd565b8355505b6001600288020188555050505b50505050505056fea2646970667358221220df93ced901c57e98034f6259559042b127cc485f389ed1da0c3b1bdf402311f664736f6c63430008140033",
  "linkReferences": {},
  "deployedLinkReferences": {}
}