{
  "_format": "hh-sol-artifact-1",
  "contractName": "HealthRecordContract",
  "sourceName": "contracts/HealthRecordContract.sol",
  "abi": [
    {
      "anonymous": false,
      "inputs": [
        {
          "indexed": false,
          "internalType": "uint256",
          "name": "id",
          "type": "uint256"
        },
        {
          "indexed": false,
          "internalType": "string",
          "name": "doctor",
          "type": "string"
        },
        {
          "indexed": false,
          "internalType": "string",
          "name": "diagnosis",
          "type": "string"
        }
      ],
      "name": "HealthRecordStored",
      "type": "event"
    },
    {
      "inputs": [
        {
          "internalType": "uint256",
          "name": "",
          "type": "uint256"
        }
      ],
      "name": "healthRecords",
      "outputs": [
        {
          "internalType": "uint256",
          "name": "id",
          "type": "uint256"
        },
        {
          "internalType": "string",
          "name": "date",
          "type": "string"
        },
        {
          "internalType": "string",
          "name": "doctor",
          "type": "string"
        },
        {
          "internalType": "string",
          "name": "diagnosis",
          "type": "string"
        },
        {
          "internalType": "string",
          "name": "prescription",
          "type": "string"
        }
      ],
      "stateMutability": "view",
      "type": "function"
    },
    {
      "inputs": [],
      "name": "recordCount",
      "outputs": [
        {
          "internalType": "uint256",
          "name": "",
          "type": "uint256"
        }
      ],
      "stateMutability": "view",
      "type": "function"
    },
    {
      "inputs": [
        {
          "internalType": "string",
          "name": "_date",
          "type": "string"
        },
        {
          "internalType": "string",
          "name": "_doctor",
          "type": "string"
        },
        {
          "internalType": "string",
          "name": "_diagnosis",
          "type": "string"
        },
        {
          "internalType": "string",
          "name": "_prescription",
          "type": "string"
        }
      ],
      "name": "storeHealthRecord",
      "outputs": [],
      "stateMutability": "nonpayable",
      "type": "function"
    }
  ],
  "bytecode": "0x608060405234801561001057600080fd5b50610b89806100206000396000f3fe608060405234801561001057600080fd5b50600436106100415760003560e01c8063118267f114610046578063900407bc14610062578063b665c0d314610080575b600080fd5b610060600480360381019061005b9190610567565b6100b4565b005b61006a6101b1565b6040516100779190610657565b60405180910390f35b61009a6004803603810190610095919061069e565b6101b7565b6040516100ab95949392919061074a565b60405180910390f35b600160008154809291906100c7906107e8565b91905055506040518060a0016040528060015481526020018581526020018481526020018381526020018281525060008060015481526020019081526020016000206000820151816000015560208201518160010190816101289190610a3c565b50604082015181600201908161013e9190610a3c565b5060608201518160030190816101549190610a3c565b50608082015181600401908161016a9190610a3c565b509050507f6fb7cee3b1a1364a0bda293044e0678ffcd573e4d83609f9651859a756f8f23760015484846040516101a393929190610b0e565b60405180910390a150505050565b60015481565b60006020528060005260406000206000915090508060000154908060010180546101e09061085f565b80601f016020809104026020016040519081016040528092919081815260200182805461020c9061085f565b80156102595780601f1061022e57610100808354040283529160200191610259565b820191906000526020600020905b81548152906001019060200180831161023c57829003601f168201915b50505050509080600201805461026e9061085f565b80601f016020809104026020016040519081016040528092919081815260200182805461029a9061085f565b80156102e75780601f106102bc576101008083540402835291602001916102e7565b820191906000526020600020905b8154815290600101906020018083116102ca57829003601f168201915b5050505050908060030180546102fc9061085f565b80601f01602080910402602001604051908101604052809291908181526020018280546103289061085f565b80156103755780601f1061034a57610100808354040283529160200191610375565b820191906000526020600020905b81548152906001019060200180831161035857829003601f168201915b50505050509080600401805461038a9061085f565b80601f01602080910402602001604051908101604052809291908181526020018280546103b69061085f565b80156104035780601f106103d857610100808354040283529160200191610403565b820191906000526020600020905b8154815290600101906020018083116103e657829003601f168201915b5050505050905085565b6000604051905090565b600080fd5b600080fd5b600080fd5b600080fd5b6000601f19601f8301169050919050565b7f4e487b7100000000000000000000000000000000000000000000000000000000600052604160045260246000fd5b6104748261042b565b810181811067ffffffffffffffff821117156104935761049261043c565b5b80604052505050565b60006104a661040d565b90506104b2828261046b565b919050565b600067ffffffffffffffff8211156104d2576104d161043c565b5b6104db8261042b565b9050602081019050919050565b82818337600083830152505050565b600061050a610505846104b7565b61049c565b90508281526020810184848401111561052657610525610426565b5b6105318482856104e8565b509392505050565b600082601f83011261054e5761054d610421565b5b813561055e8482602086016104f7565b91505092915050565b6000806000806080858703121561058157610580610417565b5b600085013567ffffffffffffffff81111561059f5761059e61041c565b5b6105ab87828801610539565b945050602085013567ffffffffffffffff8111156105cc576105cb61041c565b5b6105d887828801610539565b935050604085013567ffffffffffffffff8111156105f9576105f861041c565b5b61060587828801610539565b925050606085013567ffffffffffffffff8111156106265761062561041c565b5b61063287828801610539565b91505092959194509250565b6000819050919050565b6106518161063e565b82525050565b600060208201905061066c6000830184610648565b92915050565b61067b8161063e565b811461068657600080fd5b50565b60008135905061069881610672565b92915050565b6000602082840312156106b4576106b3610417565b5b60006106c284828501610689565b91505092915050565b600081519050919050565b600082825260208201905092915050565b60005b838110156107055780820151818401526020810190506106ea565b60008484015250505050565b600061071c826106cb565b61072681856106d6565b93506107368185602086016106e7565b61073f8161042b565b840191505092915050565b600060a08201905061075f6000830188610648565b81810360208301526107718187610711565b905081810360408301526107858186610711565b905081810360608301526107998185610711565b905081810360808301526107ad8184610711565b90509695505050505050565b7f4e487b7100000000000000000000000000000000000000000000000000000000600052601160045260246000fd5b60006107f38261063e565b91507fffffffffffffffffffffffffffffffffffffffffffffffffffffffffffffffff8203610825576108246107b9565b5b600182019050919050565b7f4e487b7100000000000000000000000000000000000000000000000000000000600052602260045260246000fd5b6000600282049050600182168061087757607f821691505b60208210810361088a57610889610830565b5b50919050565b60008190508160005260206000209050919050565b60006020601f8301049050919050565b600082821b905092915050565b6000600883026108f27fffffffffffffffffffffffffffffffffffffffffffffffffffffffffffffffff826108b5565b6108fc86836108b5565b95508019841693508086168417925050509392505050565b6000819050919050565b600061093961093461092f8461063e565b610914565b61063e565b9050919050565b6000819050919050565b6109538361091e565b61096761095f82610940565b8484546108c2565b825550505050565b600090565b61097c61096f565b61098781848461094a565b505050565b5b818110156109ab576109a0600082610974565b60018101905061098d565b5050565b601f8211156109f0576109c181610890565b6109ca846108a5565b810160208510156109d9578190505b6109ed6109e5856108a5565b83018261098c565b50505b505050565b600082821c905092915050565b6000610a13600019846008026109f5565b1980831691505092915050565b6000610a2c8383610a02565b9150826002028217905092915050565b610a45826106cb565b67ffffffffffffffff811115610a5e57610a5d61043c565b5b610a68825461085f565b610a738282856109af565b600060209050601f831160018114610aa65760008415610a94578287015190505b610a9e8582610a20565b865550610b06565b601f198416610ab486610890565b60005b82811015610adc57848901518255600182019150602085019450602081019050610ab7565b86831015610af95784890151610af5601f891682610a02565b8355505b6001600288020188555050505b505050505050565b6000606082019050610b236000830186610648565b8181036020830152610b358185610711565b90508181036040830152610b498184610711565b905094935050505056fea2646970667358221220f005ae06dfb1c171f3458a6002855761907d1d217f8e24690fb78686d57fd58564736f6c63430008140033",
  "linkReferences": {},
  "deployedLinkReferences": {}
}