{
  "_format": "hh-sol-artifact-1",
  "contractName": "LabBookingContract",
  "sourceName": "contracts/LabBookingContract.sol",
  "abi": [
    {
      "anonymous": false,
      "inputs": [
        {
          "indexed": false,
          "internalType": "uint256",
          "name": "id",
          "type": "uint256"
        },
        {
          "indexed": false,
          "internalType": "string",
          "name": "name",
          "type": "string"
        },
        {
          "indexed": false,
          "internalType": "string",
          "name": "testType",
          "type": "string"
        }
      ],
      "name": "LabBookingStored",
      "type": "event"
    },
    {
      "inputs": [],
      "name": "bookingCount",
      "outputs": [
        {
          "internalType": "uint256",
          "name": "",
          "type": "uint256"
        }
      ],
      "stateMutability": "view",
      "type": "function"
    },
    {
      "inputs": [
        {
          "internalType": "uint256",
          "name": "",
          "type": "uint256"
        }
      ],
      "name": "bookings",
      "outputs": [
        {
          "internalType": "uint256",
          "name": "id",
          "type": "uint256"
        },
        {
          "internalType": "string",
          "name": "name",
          "type": "string"
        },
        {
          "internalType": "string",
          "name": "email",
          "type": "string"
        },
        {
          "internalType": "string",
          "name": "phone",
          "type": "string"
        },
        {
          "internalType": "string",
          "name": "testType",
          "type": "string"
        },
        {
          "internalType": "string",
          "name": "appointmentDate",
          "type": "string"
        },
        {
          "internalType": "string",
          "name": "appointmentTime",
          "type": "string"
        }
      ],
      "stateMutability": "view",
      "type": "function"
    },
    {
      "inputs": [
        {
          "internalType": "string",
          "name": "_name",
          "type": "string"
        },
        {
          "internalType": "string",
          "name": "_email",
          "type": "string"
        },
        {
          "internalType": "string",
          "name": "_phone",
          "type": "string"
        },
        {
          "internalType": "string",
          "name": "_testType",
          "type": "string"
        },
        {
          "internalType": "string",
          "name": "_appointmentDate",
          "type": "string"
        },
        {
          "internalType": "string",
          "name": "_appointmentTime",
          "type": "string"
        }
      ],
      "name": "storeLabBooking",
      "outputs": [],
      "stateMutability": "nonpayable",
      "type": "function"
    }
  ],
  "bytecode": "0x608060405234801561001057600080fd5b50610d69806100206000396000f3fe608060405234801561001057600080fd5b50600436106100415760003560e01c80630c27bfba146100465780631dab301e146100625780636d75917214610098575b600080fd5b610060600480360381019061005b91906106bf565b6100b6565b005b61007c6004803603810190610077919061082a565b6101ed565b60405161008f97969594939291906108e5565b60405180910390f35b6100a061055f565b6040516100ad919061097e565b60405180910390f35b600160008154809291906100c9906109c8565b91905055506040518060e0016040528060015481526020018781526020018681526020018581526020018481526020018381526020018281525060008060015481526020019081526020016000206000820151816000015560208201518160010190816101369190610c1c565b50604082015181600201908161014c9190610c1c565b5060608201518160030190816101629190610c1c565b5060808201518160040190816101789190610c1c565b5060a082015181600501908161018e9190610c1c565b5060c08201518160060190816101a49190610c1c565b509050507fb1880d62e421f96f680c72f6e62d86ff09d85c42ebb2c67022c10772000a789b60015487856040516101dd93929190610cee565b60405180910390a1505050505050565b600060205280600052604060002060009150905080600001549080600101805461021690610a3f565b80601f016020809104026020016040519081016040528092919081815260200182805461024290610a3f565b801561028f5780601f106102645761010080835404028352916020019161028f565b820191906000526020600020905b81548152906001019060200180831161027257829003601f168201915b5050505050908060020180546102a490610a3f565b80601f01602080910402602001604051908101604052809291908181526020018280546102d090610a3f565b801561031d5780601f106102f25761010080835404028352916020019161031d565b820191906000526020600020905b81548152906001019060200180831161030057829003601f168201915b50505050509080600301805461033290610a3f565b80601f016020809104026020016040519081016040528092919081815260200182805461035e90610a3f565b80156103ab5780601f10610380576101008083540402835291602001916103ab565b820191906000526020600020905b81548152906001019060200180831161038e57829003601f168201915b5050505050908060040180546103c090610a3f565b80601f01602080910402602001604051908101604052809291908181526020018280546103ec90610a3f565b80156104395780601f1061040e57610100808354040283529160200191610439565b820191906000526020600020905b81548152906001019060200180831161041c57829003601f168201915b50505050509080600501805461044e90610a3f565b80601f016020809104026020016040519081016040528092919081815260200182805461047a90610a3f565b80156104c75780601f1061049c576101008083540402835291602001916104c7565b820191906000526020600020905b8154815290600101906020018083116104aa57829003601f168201915b5050505050908060060180546104dc90610a3f565b80601f016020809104026020016040519081016040528092919081815260200182805461050890610a3f565b80156105555780601f1061052a57610100808354040283529160200191610555565b820191906000526020600020905b81548152906001019060200180831161053857829003601f168201915b5050505050905087565b60015481565b6000604051905090565b600080fd5b600080fd5b600080fd5b600080fd5b6000601f19601f8301169050919050565b7f4e487b7100000000000000000000000000000000000000000000000000000000600052604160045260246000fd5b6105cc82610583565b810181811067ffffffffffffffff821117156105eb576105ea610594565b5b80604052505050565b60006105fe610565565b905061060a82826105c3565b919050565b600067ffffffffffffffff82111561062a57610629610594565b5b61063382610583565b9050602081019050919050565b82818337600083830152505050565b600061066261065d8461060f565b6105f4565b90508281526020810184848401111561067e5761067d61057e565b5b610689848285610640565b509392505050565b600082601f8301126106a6576106a5610579565b5b81356106b684826020860161064f565b91505092915050565b60008060008060008060c087890312156106dc576106db61056f565b5b600087013567ffffffffffffffff8111156106fa576106f9610574565b5b61070689828a01610691565b965050602087013567ffffffffffffffff81111561072757610726610574565b5b61073389828a01610691565b955050604087013567ffffffffffffffff81111561075457610753610574565b5b61076089828a01610691565b945050606087013567ffffffffffffffff81111561078157610780610574565b5b61078d89828a01610691565b935050608087013567ffffffffffffffff8111156107ae576107ad610574565b5b6107ba89828a01610691565b92505060a087013567ffffffffffffffff8111156107db576107da610574565b5b6107e789828a01610691565b9150509295509295509295565b6000819050919050565b610807816107f4565b811461081257600080fd5b50565b600081359050610824816107fe565b92915050565b6000602082840312156108405761083f61056f565b5b600061084e84828501610815565b91505092915050565b610860816107f4565b82525050565b600081519050919050565b600082825260208201905092915050565b60005b838110156108a0578082015181840152602081019050610885565b60008484015250505050565b60006108b782610866565b6108c18185610871565b93506108d1818560208601610882565b6108da81610583565b840191505092915050565b600060e0820190506108fa600083018a610857565b818103602083015261090c81896108ac565b9050818103604083015261092081886108ac565b9050818103606083015261093481876108ac565b9050818103608083015261094881866108ac565b905081810360a083015261095c81856108ac565b905081810360c083015261097081846108ac565b905098975050505050505050565b60006020820190506109936000830184610857565b92915050565b7f4e487b7100000000000000000000000000000000000000000000000000000000600052601160045260246000fd5b60006109d3826107f4565b91507fffffffffffffffffffffffffffffffffffffffffffffffffffffffffffffffff8203610a0557610a04610999565b5b600182019050919050565b7f4e487b7100000000000000000000000000000000000000000000000000000000600052602260045260246000fd5b60006002820490506001821680610a5757607f821691505b602082108103610a6a57610a69610a10565b5b50919050565b60008190508160005260206000209050919050565b60006020601f8301049050919050565b600082821b905092915050565b600060088302610ad27fffffffffffffffffffffffffffffffffffffffffffffffffffffffffffffffff82610a95565b610adc8683610a95565b95508019841693508086168417925050509392505050565b6000819050919050565b6000610b19610b14610b0f846107f4565b610af4565b6107f4565b9050919050565b6000819050919050565b610b3383610afe565b610b47610b3f82610b20565b848454610aa2565b825550505050565b600090565b610b5c610b4f565b610b67818484610b2a565b505050565b5b81811015610b8b57610b80600082610b54565b600181019050610b6d565b5050565b601f821115610bd057610ba181610a70565b610baa84610a85565b81016020851015610bb9578190505b610bcd610bc585610a85565b830182610b6c565b50505b505050565b600082821c905092915050565b6000610bf360001984600802610bd5565b1980831691505092915050565b6000610c0c8383610be2565b9150826002028217905092915050565b610c2582610866565b67ffffffffffffffff811115610c3e57610c3d610594565b5b610c488254610a3f565b610c53828285610b8f565b600060209050601f831160018114610c865760008415610c74578287015190505b610c7e8582610c00565b865550610ce6565b601f198416610c9486610a70565b60005b82811015610cbc57848901518255600182019150602085019450602081019050610c97565b86831015610cd95784890151610cd5601f891682610be2565b8355505b6001600288020188555050505b505050505050565b6000606082019050610d036000830186610857565b8181036020830152610d1581856108ac565b90508181036040830152610d2981846108ac565b905094935050505056fea2646970667358221220e42c0a05c3b9f087676a90bfe14fe4c0c78c8fb6b9b69af261d6a4c782a0eeca64736f6c63430008140033",
  "linkReferences": {},
  "deployedLinkReferences": {}
}