{
  "_format": "hh-sol-artifact-1",
  "contractName": "ScheduleEngine",
  "sourceName": "contracts/ScheduleEngine .sol",
  "abi": [
    {
      "anonymous": false,
      "inputs": [
        {
          "indexed": true,
          "internalType": "uint256",
          "name": "scheduleId",
          "type": "uint256"
        },
        {
          "indexed": false,
          "internalType": "string",
          "name": "task",
          "type": "string"
        },
        {
          "indexed": false,
          "internalType": "string",
          "name": "time",
          "type": "string"
        },
        {
          "indexed": false,
          "internalType": "string",
          "name": "status",
          "type": "string"
        },
        {
          "indexed": false,
          "internalType": "address",
          "name": "createdBy",
          "type": "address"
        }
      ],
      "name": "ScheduleCreated",
      "type": "event"
    },
    {
      "anonymous": false,
      "inputs": [
        {
          "indexed": true,
          "internalType": "uint256",
          "name": "scheduleId",
          "type": "uint256"
        }
      ],
      "name": "ScheduleDeleted",
      "type": "event"
    },
    {
      "anonymous": false,
      "inputs": [
        {
          "indexed": true,
          "internalType": "uint256",
          "name": "scheduleId",
          "type": "uint256"
        },
        {
          "indexed": false,
          "internalType": "string",
          "name": "newStatus",
          "type": "string"
        }
      ],
      "name": "ScheduleUpdated",
      "type": "event"
    },
    {
      "inputs": [
        {
          "internalType": "string",
          "name": "_task",
          "type": "string"
        },
        {
          "internalType": "string",
          "name": "_time",
          "type": "string"
        }
      ],
      "name": "addSchedule",
      "outputs": [],
      "stateMutability": "nonpayable",
      "type": "function"
    },
    {
      "inputs": [
        {
          "internalType": "uint256",
          "name": "_scheduleId",
          "type": "uint256"
        }
      ],
      "name": "deleteSchedule",
      "outputs": [],
      "stateMutability": "nonpayable",
      "type": "function"
    },
    {
      "inputs": [],
      "name": "getAllSchedules",
      "outputs": [
        {
          "components": [
            {
              "internalType": "string",
              "name": "task",
              "type": "string"
            },
            {
              "internalType": "string",
              "name": "time",
              "type": "string"
            },
            {
              "internalType": "string",
              "name": "status",
              "type": "string"
            },
            {
              "internalType": "address",
              "name": "createdBy",
              "type": "address"
            }
          ],
          "internalType": "struct ScheduleEngine.Schedule[]",
          "name": "",
          "type": "tuple[]"
        }
      ],
      "stateMutability": "view",
      "type": "function"
    },
    {
      "inputs": [
        {
          "internalType": "uint256",
          "name": "",
          "type": "uint256"
        }
      ],
      "name": "scheduleOwners",
      "outputs": [
        {
          "internalType": "address",
          "name": "",
          "type": "address"
        }
      ],
      "stateMutability": "view",
      "type": "function"
    },
    {
      "inputs": [
        {
          "internalType": "uint256",
          "name": "",
          "type": "uint256"
        }
      ],
      "name": "schedules",
      "outputs": [
        {
          "internalType": "string",
          "name": "task",
          "type": "string"
        },
        {
          "internalType": "string",
          "name": "time",
          "type": "string"
        },
        {
          "internalType": "string",
          "name": "status",
          "type": "string"
        },
        {
          "internalType": "address",
          "name": "createdBy",
          "type": "address"
        }
      ],
      "stateMutability": "view",
      "type": "function"
    },
    {
      "inputs": [
        {
          "internalType": "uint256",
          "name": "_scheduleId",
          "type": "uint256"
        },
        {
          "internalType": "string",
          "name": "_newStatus",
          "type": "string"
        }
      ],
      "name": "updateSchedule",
      "outputs": [],
      "stateMutability": "nonpayable",
      "type": "function"
    }
  ],
  "bytecode": "0x608060405234801561001057600080fd5b506114a3806100206000396000f3fe608060405234801561001057600080fd5b50600436106100625760003560e01c80630847e483146100675780631d106372146100835780633bde032a1461009f57806367de7453146100cf578063ba38f3f1146100ed578063bdc6d9ab14610109575b600080fd5b610081600480360381019061007c9190610aa1565b61013c565b005b61009d60048036038101906100989190610c14565b610289565b005b6100b960048036038101906100b49190610aa1565b610399565b6040516100c69190610cb1565b60405180910390f35b6100d76103cc565b6040516100e49190610e8d565b60405180910390f35b61010760048036038101906101029190610eaf565b610637565b005b610123600480360381019061011e9190610aa1565b610802565b6040516101339493929190610f71565b60405180910390f35b3373ffffffffffffffffffffffffffffffffffffffff166001600083815260200190815260200160002060009054906101000a900473ffffffffffffffffffffffffffffffffffffffff1673ffffffffffffffffffffffffffffffffffffffff16146101dd576040517f08c379a00000000000000000000000000000000000000000000000000000000081526004016101d490611017565b60405180910390fd5b600081815481106101f1576101f0611037565b5b90600052602060002090600402016000808201600061021091906109fa565b60018201600061022091906109fa565b60028201600061023091906109fa565b6003820160006101000a81549073ffffffffffffffffffffffffffffffffffffffff02191690555050807fe9c901bcb50b73bc70e1a55ca4724975b84e067237c7cf1f16fa70efad663ab660405160405180910390a250565b3373ffffffffffffffffffffffffffffffffffffffff166001600084815260200190815260200160002060009054906101000a900473ffffffffffffffffffffffffffffffffffffffff1673ffffffffffffffffffffffffffffffffffffffff161461032a576040517f08c379a000000000000000000000000000000000000000000000000000000000815260040161032190611017565b60405180910390fd5b806000838154811061033f5761033e611037565b5b9060005260206000209060040201600201908161035c9190611272565b50817f8af4a262aa449d4df40aece989bc6fd26860c8fab26370959aca3e940730a7028260405161038d9190611344565b60405180910390a25050565b60016020528060005260406000206000915054906101000a900473ffffffffffffffffffffffffffffffffffffffff1681565b60606000805480602002602001604051908101604052809291908181526020016000905b8282101561062e578382906000526020600020906004020160405180608001604052908160008201805461042390611095565b80601f016020809104026020016040519081016040528092919081815260200182805461044f90611095565b801561049c5780601f106104715761010080835404028352916020019161049c565b820191906000526020600020905b81548152906001019060200180831161047f57829003601f168201915b505050505081526020016001820180546104b590611095565b80601f01602080910402602001604051908101604052809291908181526020018280546104e190611095565b801561052e5780601f106105035761010080835404028352916020019161052e565b820191906000526020600020905b81548152906001019060200180831161051157829003601f168201915b5050505050815260200160028201805461054790611095565b80601f016020809104026020016040519081016040528092919081815260200182805461057390611095565b80156105c05780601f10610595576101008083540402835291602001916105c0565b820191906000526020600020905b8154815290600101906020018083116105a357829003601f168201915b505050505081526020016003820160009054906101000a900473ffffffffffffffffffffffffffffffffffffffff1673ffffffffffffffffffffffffffffffffffffffff1673ffffffffffffffffffffffffffffffffffffffff1681525050815260200190600101906103f0565b50505050905090565b600060405180608001604052808481526020018381526020016040518060400160405280600781526020017f50656e64696e670000000000000000000000000000000000000000000000000081525081526020013373ffffffffffffffffffffffffffffffffffffffff16815250908060018154018082558091505060019003906000526020600020906004020160009091909190915060008201518160000190816106e39190611272565b5060208201518160010190816106f99190611272565b50604082015181600201908161070f9190611272565b5060608201518160030160006101000a81548173ffffffffffffffffffffffffffffffffffffffff021916908373ffffffffffffffffffffffffffffffffffffffff16021790555050506000600160008054905061076d9190611395565b9050336001600083815260200190815260200160002060006101000a81548173ffffffffffffffffffffffffffffffffffffffff021916908373ffffffffffffffffffffffffffffffffffffffff160217905550807fc156367c5745d97ec3740cfc6873ce908f2dbefe7a3c9c0814745cb6312d9c858484336040516107f593929190611415565b60405180910390a2505050565b6000818154811061081257600080fd5b906000526020600020906004020160009150905080600001805461083590611095565b80601f016020809104026020016040519081016040528092919081815260200182805461086190611095565b80156108ae5780601f10610883576101008083540402835291602001916108ae565b820191906000526020600020905b81548152906001019060200180831161089157829003601f168201915b5050505050908060010180546108c390611095565b80601f01602080910402602001604051908101604052809291908181526020018280546108ef90611095565b801561093c5780601f106109115761010080835404028352916020019161093c565b820191906000526020600020905b81548152906001019060200180831161091f57829003601f168201915b50505050509080600201805461095190611095565b80601f016020809104026020016040519081016040528092919081815260200182805461097d90611095565b80156109ca5780601f1061099f576101008083540402835291602001916109ca565b820191906000526020600020905b8154815290600101906020018083116109ad57829003601f168201915b5050505050908060030160009054906101000a900473ffffffffffffffffffffffffffffffffffffffff16905084565b508054610a0690611095565b6000825580601f10610a185750610a37565b601f016020900490600052602060002090810190610a369190610a3a565b5b50565b5b80821115610a53576000816000905550600101610a3b565b5090565b6000604051905090565b600080fd5b600080fd5b6000819050919050565b610a7e81610a6b565b8114610a8957600080fd5b50565b600081359050610a9b81610a75565b92915050565b600060208284031215610ab757610ab6610a61565b5b6000610ac584828501610a8c565b91505092915050565b600080fd5b600080fd5b6000601f19601f8301169050919050565b7f4e487b7100000000000000000000000000000000000000000000000000000000600052604160045260246000fd5b610b2182610ad8565b810181811067ffffffffffffffff82111715610b4057610b3f610ae9565b5b80604052505050565b6000610b53610a57565b9050610b5f8282610b18565b919050565b600067ffffffffffffffff821115610b7f57610b7e610ae9565b5b610b8882610ad8565b9050602081019050919050565b82818337600083830152505050565b6000610bb7610bb284610b64565b610b49565b905082815260208101848484011115610bd357610bd2610ad3565b5b610bde848285610b95565b509392505050565b600082601f830112610bfb57610bfa610ace565b5b8135610c0b848260208601610ba4565b91505092915050565b60008060408385031215610c2b57610c2a610a61565b5b6000610c3985828601610a8c565b925050602083013567ffffffffffffffff811115610c5a57610c59610a66565b5b610c6685828601610be6565b9150509250929050565b600073ffffffffffffffffffffffffffffffffffffffff82169050919050565b6000610c9b82610c70565b9050919050565b610cab81610c90565b82525050565b6000602082019050610cc66000830184610ca2565b92915050565b600081519050919050565b600082825260208201905092915050565b6000819050602082019050919050565b600081519050919050565b600082825260208201905092915050565b60005b83811015610d32578082015181840152602081019050610d17565b60008484015250505050565b6000610d4982610cf8565b610d538185610d03565b9350610d63818560208601610d14565b610d6c81610ad8565b840191505092915050565b610d8081610c90565b82525050565b60006080830160008301518482036000860152610da38282610d3e565b91505060208301518482036020860152610dbd8282610d3e565b91505060408301518482036040860152610dd78282610d3e565b9150506060830151610dec6060860182610d77565b508091505092915050565b6000610e038383610d86565b905092915050565b6000602082019050919050565b6000610e2382610ccc565b610e2d8185610cd7565b935083602082028501610e3f85610ce8565b8060005b85811015610e7b5784840389528151610e5c8582610df7565b9450610e6783610e0b565b925060208a01995050600181019050610e43565b50829750879550505050505092915050565b60006020820190508181036000830152610ea78184610e18565b905092915050565b60008060408385031215610ec657610ec5610a61565b5b600083013567ffffffffffffffff811115610ee457610ee3610a66565b5b610ef085828601610be6565b925050602083013567ffffffffffffffff811115610f1157610f10610a66565b5b610f1d85828601610be6565b9150509250929050565b600082825260208201905092915050565b6000610f4382610cf8565b610f4d8185610f27565b9350610f5d818560208601610d14565b610f6681610ad8565b840191505092915050565b60006080820190508181036000830152610f8b8187610f38565b90508181036020830152610f9f8186610f38565b90508181036040830152610fb38185610f38565b9050610fc26060830184610ca2565b95945050505050565b7f556e617574686f72697a65640000000000000000000000000000000000000000600082015250565b6000611001600c83610f27565b915061100c82610fcb565b602082019050919050565b6000602082019050818103600083015261103081610ff4565b9050919050565b7f4e487b7100000000000000000000000000000000000000000000000000000000600052603260045260246000fd5b7f4e487b7100000000000000000000000000000000000000000000000000000000600052602260045260246000fd5b600060028204905060018216806110ad57607f821691505b6020821081036110c0576110bf611066565b5b50919050565b60008190508160005260206000209050919050565b60006020601f8301049050919050565b600082821b905092915050565b6000600883026111287fffffffffffffffffffffffffffffffffffffffffffffffffffffffffffffffff826110eb565b61113286836110eb565b95508019841693508086168417925050509392505050565b6000819050919050565b600061116f61116a61116584610a6b565b61114a565b610a6b565b9050919050565b6000819050919050565b61118983611154565b61119d61119582611176565b8484546110f8565b825550505050565b600090565b6111b26111a5565b6111bd818484611180565b505050565b5b818110156111e1576111d66000826111aa565b6001810190506111c3565b5050565b601f821115611226576111f7816110c6565b611200846110db565b8101602085101561120f578190505b61122361121b856110db565b8301826111c2565b50505b505050565b600082821c905092915050565b60006112496000198460080261122b565b1980831691505092915050565b60006112628383611238565b9150826002028217905092915050565b61127b82610cf8565b67ffffffffffffffff81111561129457611293610ae9565b5b61129e8254611095565b6112a98282856111e5565b600060209050601f8311600181146112dc57600084156112ca578287015190505b6112d48582611256565b86555061133c565b601f1984166112ea866110c6565b60005b82811015611312578489015182556001820191506020850194506020810190506112ed565b8683101561132f578489015161132b601f891682611238565b8355505b6001600288020188555050505b505050505050565b6000602082019050818103600083015261135e8184610f38565b905092915050565b7f4e487b7100000000000000000000000000000000000000000000000000000000600052601160045260246000fd5b60006113a082610a6b565b91506113ab83610a6b565b92508282039050818111156113c3576113c2611366565b5b92915050565b7f50656e64696e6700000000000000000000000000000000000000000000000000600082015250565b60006113ff600783610f27565b915061140a826113c9565b602082019050919050565b6000608082019050818103600083015261142f8186610f38565b905081810360208301526114438185610f38565b90508181036040830152611456816113f2565b90506114656060830184610ca2565b94935050505056fea26469706673582212200a8ba4e9d3f693f61fd1cb917ac08388e8ec0ca5b65b47c083e6ff6ac8bc042464736f6c63430008140033",
  "linkReferences": {},
  "deployedLinkReferences": {}
}