{
  "_format": "hh-sol-artifact-1",
  "contractName": "DoctorDashboard",
  "sourceName": "contracts/DoctorDashboard.sol",
  "abi": [
    {
      "anonymous": false,
      "inputs": [
        {
          "indexed": true,
          "internalType": "address",
          "name": "doctor",
          "type": "address"
        },
        {
          "indexed": false,
          "internalType": "string",
          "name": "patientName",
          "type": "string"
        },
        {
          "indexed": false,
          "internalType": "string",
          "name": "diagnosis",
          "type": "string"
        },
        {
          "indexed": false,
          "internalType": "string",
          "name": "prescription",
          "type": "string"
        },
        {
          "indexed": false,
          "internalType": "string",
          "name": "notes",
          "type": "string"
        }
      ],
      "name": "RecordAdded",
      "type": "event"
    },
    {
      "inputs": [],
      "name": "getRecords",
      "outputs": [
        {
          "components": [
            {
              "internalType": "string",
              "name": "patientName",
              "type": "string"
            },
            {
              "internalType": "string",
              "name": "diagnosis",
              "type": "string"
            },
            {
              "internalType": "string",
              "name": "prescription",
              "type": "string"
            },
            {
              "internalType": "string",
              "name": "notes",
              "type": "string"
            },
            {
              "internalType": "uint256",
              "name": "timestamp",
              "type": "uint256"
            }
          ],
          "internalType": "struct DoctorDashboard.PatientRecord[]",
          "name": "",
          "type": "tuple[]"
        }
      ],
      "stateMutability": "view",
      "type": "function"
    },
    {
      "inputs": [
        {
          "internalType": "string",
          "name": "_patientName",
          "type": "string"
        },
        {
          "internalType": "string",
          "name": "_diagnosis",
          "type": "string"
        },
        {
          "internalType": "string",
          "name": "_prescription",
          "type": "string"
        },
        {
          "internalType": "string",
          "name": "_notes",
          "type": "string"
        }
      ],
      "name": "storeRecord",
      "outputs": [],
      "stateMutability": "nonpayable",
      "type": "function"
    }
  ],
  "bytecode": "0x608060405234801561001057600080fd5b50610cab806100206000396000f3fe608060405234801561001057600080fd5b50600436106100365760003560e01c80630ad105ce1461003b5780638eff3c2914610057575b600080fd5b6100556004803603810190610050919061060e565b610075565b005b61005f6101c7565b60405161006c91906108ca565b60405180910390f35b60006040518060a001604052808681526020018581526020018481526020018381526020014281525090506000803373ffffffffffffffffffffffffffffffffffffffff1673ffffffffffffffffffffffffffffffffffffffff168152602001908152602001600020819080600181540180825580915050600190039060005260206000209060050201600090919091909150600082015181600001908161011d9190610af8565b5060208201518160010190816101339190610af8565b5060408201518160020190816101499190610af8565b50606082015181600301908161015f9190610af8565b506080820151816004015550503373ffffffffffffffffffffffffffffffffffffffff167f773897eff2eb39f4408a94dd5d2dd2935d444fe50d9a5088af4817425c4d8cfe868686866040516101b89493929190610c14565b60405180910390a25050505050565b60606000803373ffffffffffffffffffffffffffffffffffffffff1673ffffffffffffffffffffffffffffffffffffffff168152602001908152602001600020805480602002602001604051908101604052809291908181526020016000905b828210156104ab57838290600052602060002090600502016040518060a001604052908160008201805461025a9061091b565b80601f01602080910402602001604051908101604052809291908181526020018280546102869061091b565b80156102d35780601f106102a8576101008083540402835291602001916102d3565b820191906000526020600020905b8154815290600101906020018083116102b657829003601f168201915b505050505081526020016001820180546102ec9061091b565b80601f01602080910402602001604051908101604052809291908181526020018280546103189061091b565b80156103655780601f1061033a57610100808354040283529160200191610365565b820191906000526020600020905b81548152906001019060200180831161034857829003601f168201915b5050505050815260200160028201805461037e9061091b565b80601f01602080910402602001604051908101604052809291908181526020018280546103aa9061091b565b80156103f75780601f106103cc576101008083540402835291602001916103f7565b820191906000526020600020905b8154815290600101906020018083116103da57829003601f168201915b505050505081526020016003820180546104109061091b565b80601f016020809104026020016040519081016040528092919081815260200182805461043c9061091b565b80156104895780601f1061045e57610100808354040283529160200191610489565b820191906000526020600020905b81548152906001019060200180831161046c57829003601f168201915b5050505050815260200160048201548152505081526020019060010190610227565b50505050905090565b6000604051905090565b600080fd5b600080fd5b600080fd5b600080fd5b6000601f19601f8301169050919050565b7f4e487b7100000000000000000000000000000000000000000000000000000000600052604160045260246000fd5b61051b826104d2565b810181811067ffffffffffffffff8211171561053a576105396104e3565b5b80604052505050565b600061054d6104b4565b90506105598282610512565b919050565b600067ffffffffffffffff821115610579576105786104e3565b5b610582826104d2565b9050602081019050919050565b82818337600083830152505050565b60006105b16105ac8461055e565b610543565b9050828152602081018484840111156105cd576105cc6104cd565b5b6105d884828561058f565b509392505050565b600082601f8301126105f5576105f46104c8565b5b813561060584826020860161059e565b91505092915050565b60008060008060808587031215610628576106276104be565b5b600085013567ffffffffffffffff811115610646576106456104c3565b5b610652878288016105e0565b945050602085013567ffffffffffffffff811115610673576106726104c3565b5b61067f878288016105e0565b935050604085013567ffffffffffffffff8111156106a05761069f6104c3565b5b6106ac878288016105e0565b925050606085013567ffffffffffffffff8111156106cd576106cc6104c3565b5b6106d9878288016105e0565b91505092959194509250565b600081519050919050565b600082825260208201905092915050565b6000819050602082019050919050565b600081519050919050565b600082825260208201905092915050565b60005b8381101561074b578082015181840152602081019050610730565b60008484015250505050565b600061076282610711565b61076c818561071c565b935061077c81856020860161072d565b610785816104d2565b840191505092915050565b6000819050919050565b6107a381610790565b82525050565b600060a08301600083015184820360008601526107c68282610757565b915050602083015184820360208601526107e08282610757565b915050604083015184820360408601526107fa8282610757565b915050606083015184820360608601526108148282610757565b9150506080830151610829608086018261079a565b508091505092915050565b600061084083836107a9565b905092915050565b6000602082019050919050565b6000610860826106e5565b61086a81856106f0565b93508360208202850161087c85610701565b8060005b858110156108b857848403895281516108998582610834565b94506108a483610848565b925060208a01995050600181019050610880565b50829750879550505050505092915050565b600060208201905081810360008301526108e48184610855565b905092915050565b7f4e487b7100000000000000000000000000000000000000000000000000000000600052602260045260246000fd5b6000600282049050600182168061093357607f821691505b602082108103610946576109456108ec565b5b50919050565b60008190508160005260206000209050919050565b60006020601f8301049050919050565b600082821b905092915050565b6000600883026109ae7fffffffffffffffffffffffffffffffffffffffffffffffffffffffffffffffff82610971565b6109b88683610971565b95508019841693508086168417925050509392505050565b6000819050919050565b60006109f56109f06109eb84610790565b6109d0565b610790565b9050919050565b6000819050919050565b610a0f836109da565b610a23610a1b826109fc565b84845461097e565b825550505050565b600090565b610a38610a2b565b610a43818484610a06565b505050565b5b81811015610a6757610a5c600082610a30565b600181019050610a49565b5050565b601f821115610aac57610a7d8161094c565b610a8684610961565b81016020851015610a95578190505b610aa9610aa185610961565b830182610a48565b50505b505050565b600082821c905092915050565b6000610acf60001984600802610ab1565b1980831691505092915050565b6000610ae88383610abe565b9150826002028217905092915050565b610b0182610711565b67ffffffffffffffff811115610b1a57610b196104e3565b5b610b24825461091b565b610b2f828285610a6b565b600060209050601f831160018114610b625760008415610b50578287015190505b610b5a8582610adc565b865550610bc2565b601f198416610b708661094c565b60005b82811015610b9857848901518255600182019150602085019450602081019050610b73565b86831015610bb55784890151610bb1601f891682610abe565b8355505b6001600288020188555050505b505050505050565b600082825260208201905092915050565b6000610be682610711565b610bf08185610bca565b9350610c0081856020860161072d565b610c09816104d2565b840191505092915050565b60006080820190508181036000830152610c2e8187610bdb565b90508181036020830152610c428186610bdb565b90508181036040830152610c568185610bdb565b90508181036060830152610c6a8184610bdb565b90509594505050505056fea26469706673582212208a0235844300bd4f4b46dfac5ac4b7f8640d1cd0db2f57bbea8dc0afac52b94164736f6c63430008140033",
  "linkReferences": {},
  "deployedLinkReferences": {}
}