{
  "_format": "hh-sol-artifact-1",
  "contractName": "HealthArticles",
  "sourceName": "contracts/HealthArticles.sol",
  "abi": [
    {
      "anonymous": false,
      "inputs": [
        {
          "indexed": false,
          "internalType": "uint256",
          "name": "id",
          "type": "uint256"
        },
        {
          "indexed": false,
          "internalType": "string",
          "name": "title",
          "type": "string"
        },
        {
          "indexed": false,
          "internalType": "uint256",
          "name": "timestamp",
          "type": "uint256"
        }
      ],
      "name": "ArticleAdded",
      "type": "event"
    },
    {
      "anonymous": false,
      "inputs": [
        {
          "indexed": false,
          "internalType": "uint256",
          "name": "id",
          "type": "uint256"
        }
      ],
      "name": "ArticleDeleted",
      "type": "event"
    },
    {
      "inputs": [
        {
          "internalType": "string",
          "name": "_title",
          "type": "string"
        },
        {
          "internalType": "string",
          "name": "_summary",
          "type": "string"
        },
        {
          "internalType": "string",
          "name": "_image",
          "type": "string"
        }
      ],
      "name": "addArticle",
      "outputs": [],
      "stateMutability": "nonpayable",
      "type": "function"
    },
    {
      "inputs": [],
      "name": "articleCount",
      "outputs": [
        {
          "internalType": "uint256",
          "name": "",
          "type": "uint256"
        }
      ],
      "stateMutability": "view",
      "type": "function"
    },
    {
      "inputs": [
        {
          "internalType": "uint256",
          "name": "",
          "type": "uint256"
        }
      ],
      "name": "articles",
      "outputs": [
        {
          "internalType": "uint256",
          "name": "id",
          "type": "uint256"
        },
        {
          "internalType": "string",
          "name": "title",
          "type": "string"
        },
        {
          "internalType": "string",
          "name": "summary",
          "type": "string"
        },
        {
          "internalType": "string",
          "name": "image",
          "type": "string"
        },
        {
          "internalType": "uint256",
          "name": "timestamp",
          "type": "uint256"
        }
      ],
      "stateMutability": "view",
      "type": "function"
    },
    {
      "inputs": [
        {
          "internalType": "uint256",
          "name": "_id",
          "type": "uint256"
        }
      ],
      "name": "deleteArticle",
      "outputs": [],
      "stateMutability": "nonpayable",
      "type": "function"
    },
    {
      "inputs": [
        {
          "internalType": "uint256",
          "name": "_id",
          "type": "uint256"
        }
      ],
      "name": "getArticle",
      "outputs": [
        {
          "components": [
            {
              "internalType": "uint256",
              "name": "id",
              "type": "uint256"
            },
            {
              "internalType": "string",
              "name": "title",
              "type": "string"
            },
            {
              "internalType": "string",
              "name": "summary",
              "type": "string"
            },
            {
              "internalType": "string",
              "name": "image",
              "type": "string"
            },
            {
              "internalType": "uint256",
              "name": "timestamp",
              "type": "uint256"
            }
          ],
          "internalType": "struct HealthArticles.Article",
          "name": "",
          "type": "tuple"
        }
      ],
      "stateMutability": "view",
      "type": "function"
    }
  ],
  "bytecode": "0x608060405234801561001057600080fd5b50610feb806100206000396000f3fe608060405234801561001057600080fd5b50600436106100575760003560e01c8063414e28b01461005c578063498de8b31461007a57806391f0576a14610096578063bd85d867146100b2578063edcfafe6146100e2575b600080fd5b610064610116565b604051610071919061075b565b60405180910390f35b610094600480360381019061008f91906107b6565b61011c565b005b6100b060048036038101906100ab9190610929565b610202565b005b6100cc60048036038101906100c791906107b6565b6102f2565b6040516100d99190610ae2565b60405180910390f35b6100fc60048036038101906100f791906107b6565b6104e8565b60405161010d959493929190610b4e565b60405180910390f35b60015481565b806000808381526020019081526020016000206000015414610173576040517f08c379a000000000000000000000000000000000000000000000000000000000815260040161016a90610c02565b60405180910390fd5b60008082815260200190815260200160002060008082016000905560018201600061019e91906106b6565b6002820160006101ae91906106b6565b6003820160006101be91906106b6565b600482016000905550507f952950ab607c4a7f87f6a9b15935047221e6d7375af7861f5762eafbbdcbd9ae816040516101f7919061075b565b60405180910390a150565b6001600081548092919061021590610c51565b91905055506040518060a0016040528060015481526020018481526020018381526020018281526020014281525060008060015481526020019081526020016000206000820151816000015560208201518160010190816102769190610ea5565b50604082015181600201908161028c9190610ea5565b5060608201518160030190816102a29190610ea5565b50608082015181600401559050507fbfb04ffc487a747233883a4b9c56c05da96a8dd3604d55a568952fef420ceb2060015484426040516102e593929190610f77565b60405180910390a1505050565b6102fa6106f6565b6000808381526020019081526020016000206040518060a00160405290816000820154815260200160018201805461033190610cc8565b80601f016020809104026020016040519081016040528092919081815260200182805461035d90610cc8565b80156103aa5780601f1061037f576101008083540402835291602001916103aa565b820191906000526020600020905b81548152906001019060200180831161038d57829003601f168201915b505050505081526020016002820180546103c390610cc8565b80601f01602080910402602001604051908101604052809291908181526020018280546103ef90610cc8565b801561043c5780601f106104115761010080835404028352916020019161043c565b820191906000526020600020905b81548152906001019060200180831161041f57829003601f168201915b5050505050815260200160038201805461045590610cc8565b80601f016020809104026020016040519081016040528092919081815260200182805461048190610cc8565b80156104ce5780601f106104a3576101008083540402835291602001916104ce565b820191906000526020600020905b8154815290600101906020018083116104b157829003601f168201915b505050505081526020016004820154815250509050919050565b600060205280600052604060002060009150905080600001549080600101805461051190610cc8565b80601f016020809104026020016040519081016040528092919081815260200182805461053d90610cc8565b801561058a5780601f1061055f5761010080835404028352916020019161058a565b820191906000526020600020905b81548152906001019060200180831161056d57829003601f168201915b50505050509080600201805461059f90610cc8565b80601f01602080910402602001604051908101604052809291908181526020018280546105cb90610cc8565b80156106185780601f106105ed57610100808354040283529160200191610618565b820191906000526020600020905b8154815290600101906020018083116105fb57829003601f168201915b50505050509080600301805461062d90610cc8565b80601f016020809104026020016040519081016040528092919081815260200182805461065990610cc8565b80156106a65780601f1061067b576101008083540402835291602001916106a6565b820191906000526020600020905b81548152906001019060200180831161068957829003601f168201915b5050505050908060040154905085565b5080546106c290610cc8565b6000825580601f106106d457506106f3565b601f0160209004906000526020600020908101906106f29190610725565b5b50565b6040518060a0016040528060008152602001606081526020016060815260200160608152602001600081525090565b5b8082111561073e576000816000905550600101610726565b5090565b6000819050919050565b61075581610742565b82525050565b6000602082019050610770600083018461074c565b92915050565b6000604051905090565b600080fd5b600080fd5b61079381610742565b811461079e57600080fd5b50565b6000813590506107b08161078a565b92915050565b6000602082840312156107cc576107cb610780565b5b60006107da848285016107a1565b91505092915050565b600080fd5b600080fd5b6000601f19601f8301169050919050565b7f4e487b7100000000000000000000000000000000000000000000000000000000600052604160045260246000fd5b610836826107ed565b810181811067ffffffffffffffff82111715610855576108546107fe565b5b80604052505050565b6000610868610776565b9050610874828261082d565b919050565b600067ffffffffffffffff821115610894576108936107fe565b5b61089d826107ed565b9050602081019050919050565b82818337600083830152505050565b60006108cc6108c784610879565b61085e565b9050828152602081018484840111156108e8576108e76107e8565b5b6108f38482856108aa565b509392505050565b600082601f8301126109105761090f6107e3565b5b81356109208482602086016108b9565b91505092915050565b60008060006060848603121561094257610941610780565b5b600084013567ffffffffffffffff8111156109605761095f610785565b5b61096c868287016108fb565b935050602084013567ffffffffffffffff81111561098d5761098c610785565b5b610999868287016108fb565b925050604084013567ffffffffffffffff8111156109ba576109b9610785565b5b6109c6868287016108fb565b9150509250925092565b6109d981610742565b82525050565b600081519050919050565b600082825260208201905092915050565b60005b83811015610a195780820151818401526020810190506109fe565b60008484015250505050565b6000610a30826109df565b610a3a81856109ea565b9350610a4a8185602086016109fb565b610a53816107ed565b840191505092915050565b600060a083016000830151610a7660008601826109d0565b5060208301518482036020860152610a8e8282610a25565b91505060408301518482036040860152610aa88282610a25565b91505060608301518482036060860152610ac28282610a25565b9150506080830151610ad760808601826109d0565b508091505092915050565b60006020820190508181036000830152610afc8184610a5e565b905092915050565b600082825260208201905092915050565b6000610b20826109df565b610b2a8185610b04565b9350610b3a8185602086016109fb565b610b43816107ed565b840191505092915050565b600060a082019050610b63600083018861074c565b8181036020830152610b758187610b15565b90508181036040830152610b898186610b15565b90508181036060830152610b9d8185610b15565b9050610bac608083018461074c565b9695505050505050565b7f41727469636c65206e6f7420666f756e64000000000000000000000000000000600082015250565b6000610bec601183610b04565b9150610bf782610bb6565b602082019050919050565b60006020820190508181036000830152610c1b81610bdf565b9050919050565b7f4e487b7100000000000000000000000000000000000000000000000000000000600052601160045260246000fd5b6000610c5c82610742565b91507fffffffffffffffffffffffffffffffffffffffffffffffffffffffffffffffff8203610c8e57610c8d610c22565b5b600182019050919050565b7f4e487b7100000000000000000000000000000000000000000000000000000000600052602260045260246000fd5b60006002820490506001821680610ce057607f821691505b602082108103610cf357610cf2610c99565b5b50919050565b60008190508160005260206000209050919050565b60006020601f8301049050919050565b600082821b905092915050565b600060088302610d5b7fffffffffffffffffffffffffffffffffffffffffffffffffffffffffffffffff82610d1e565b610d658683610d1e565b95508019841693508086168417925050509392505050565b6000819050919050565b6000610da2610d9d610d9884610742565b610d7d565b610742565b9050919050565b6000819050919050565b610dbc83610d87565b610dd0610dc882610da9565b848454610d2b565b825550505050565b600090565b610de5610dd8565b610df0818484610db3565b505050565b5b81811015610e1457610e09600082610ddd565b600181019050610df6565b5050565b601f821115610e5957610e2a81610cf9565b610e3384610d0e565b81016020851015610e42578190505b610e56610e4e85610d0e565b830182610df5565b50505b505050565b600082821c905092915050565b6000610e7c60001984600802610e5e565b1980831691505092915050565b6000610e958383610e6b565b9150826002028217905092915050565b610eae826109df565b67ffffffffffffffff811115610ec757610ec66107fe565b5b610ed18254610cc8565b610edc828285610e18565b600060209050601f831160018114610f0f5760008415610efd578287015190505b610f078582610e89565b865550610f6f565b601f198416610f1d86610cf9565b60005b82811015610f4557848901518255600182019150602085019450602081019050610f20565b86831015610f625784890151610f5e601f891682610e6b565b8355505b6001600288020188555050505b505050505050565b6000606082019050610f8c600083018661074c565b8181036020830152610f9e8185610b15565b9050610fad604083018461074c565b94935050505056fea26469706673582212206b3665bb3acb147f7be6fc13783b56a2fcdb6563e34a01d3114800fc695e514a64736f6c63430008140033",
  "linkReferences": {},
  "deployedLinkReferences": {}
}