{
  "_format": "hh-sol-artifact-1",
  "contractName": "PrescriptionContract",
  "sourceName": "contracts/PrescriptionContract.sol",
  "abi": [
    {
      "anonymous": false,
      "inputs": [
        {
          "indexed": false,
          "internalType": "uint256",
          "name": "id",
          "type": "uint256"
        },
        {
          "indexed": false,
          "internalType": "string",
          "name": "patientName",
          "type": "string"
        },
        {
          "indexed": false,
          "internalType": "string",
          "name": "diagnosis",
          "type": "string"
        },
        {
          "indexed": false,
          "internalType": "string",
          "name": "prescription",
          "type": "string"
        }
      ],
      "name": "PrescriptionAdded",
      "type": "event"
    },
    {
      "inputs": [
        {
          "internalType": "uint256",
          "name": "_id",
          "type": "uint256"
        }
      ],
      "name": "getPrescription",
      "outputs": [
        {
          "internalType": "string",
          "name": "",
          "type": "string"
        },
        {
          "internalType": "uint256",
          "name": "",
          "type": "uint256"
        },
        {
          "internalType": "string",
          "name": "",
          "type": "string"
        },
        {
          "internalType": "string",
          "name": "",
          "type": "string"
        },
        {
          "internalType": "string",
          "name": "",
          "type": "string"
        },
        {
          "internalType": "string",
          "name": "",
          "type": "string"
        }
      ],
      "stateMutability": "view",
      "type": "function"
    },
    {
      "inputs": [],
      "name": "prescriptionCount",
      "outputs": [
        {
          "internalType": "uint256",
          "name": "",
          "type": "uint256"
        }
      ],
      "stateMutability": "view",
      "type": "function"
    },
    {
      "inputs": [
        {
          "internalType": "uint256",
          "name": "",
          "type": "uint256"
        }
      ],
      "name": "prescriptions",
      "outputs": [
        {
          "internalType": "uint256",
          "name": "id",
          "type": "uint256"
        },
        {
          "internalType": "string",
          "name": "patientName",
          "type": "string"
        },
        {
          "internalType": "uint256",
          "name": "age",
          "type": "uint256"
        },
        {
          "internalType": "string",
          "name": "symptoms",
          "type": "string"
        },
        {
          "internalType": "string",
          "name": "diagnosis",
          "type": "string"
        },
        {
          "internalType": "string",
          "name": "prescription",
          "type": "string"
        },
        {
          "internalType": "string",
          "name": "notes",
          "type": "string"
        }
      ],
      "stateMutability": "view",
      "type": "function"
    },
    {
      "inputs": [
        {
          "internalType": "string",
          "name": "_patientName",
          "type": "string"
        },
        {
          "internalType": "uint256",
          "name": "_age",
          "type": "uint256"
        },
        {
          "internalType": "string",
          "name": "_symptoms",
          "type": "string"
        },
        {
          "internalType": "string",
          "name": "_diagnosis",
          "type": "string"
        },
        {
          "internalType": "string",
          "name": "_prescription",
          "type": "string"
        },
        {
          "internalType": "string",
          "name": "_notes",
          "type": "string"
        }
      ],
      "name": "storePrescription",
      "outputs": [],
      "stateMutability": "nonpayable",
      "type": "function"
    }
  ],
  "bytecode": "0x608060405234801561001057600080fd5b506110da806100206000396000f3fe608060405234801561001057600080fd5b506004361061004c5760003560e01c806331dfc91b146100515780636f16af1014610087578063a64ac374146100bc578063b6558498146100d8575b600080fd5b61006b600480360381019061006691906108aa565b6100f6565b60405161007e9796959493929190610976565b60405180910390f35b6100a1600480360381019061009c91906108aa565b6103e0565b6040516100b396959493929190610a08565b60405180910390f35b6100d660048036038101906100d19190610bc1565b61072d565b005b6100e061085a565b6040516100ed9190610cda565b60405180910390f35b600060205280600052604060002060009150905080600001549080600101805461011f90610d24565b80601f016020809104026020016040519081016040528092919081815260200182805461014b90610d24565b80156101985780601f1061016d57610100808354040283529160200191610198565b820191906000526020600020905b81548152906001019060200180831161017b57829003601f168201915b5050505050908060020154908060030180546101b390610d24565b80601f01602080910402602001604051908101604052809291908181526020018280546101df90610d24565b801561022c5780601f106102015761010080835404028352916020019161022c565b820191906000526020600020905b81548152906001019060200180831161020f57829003601f168201915b50505050509080600401805461024190610d24565b80601f016020809104026020016040519081016040528092919081815260200182805461026d90610d24565b80156102ba5780601f1061028f576101008083540402835291602001916102ba565b820191906000526020600020905b81548152906001019060200180831161029d57829003601f168201915b5050505050908060050180546102cf90610d24565b80601f01602080910402602001604051908101604052809291908181526020018280546102fb90610d24565b80156103485780601f1061031d57610100808354040283529160200191610348565b820191906000526020600020905b81548152906001019060200180831161032b57829003601f168201915b50505050509080600601805461035d90610d24565b80601f016020809104026020016040519081016040528092919081815260200182805461038990610d24565b80156103d65780601f106103ab576101008083540402835291602001916103d6565b820191906000526020600020905b8154815290600101906020018083116103b957829003601f168201915b5050505050905087565b6060600060608060608060008060008981526020019081526020016000206040518060e00160405290816000820154815260200160018201805461042390610d24565b80601f016020809104026020016040519081016040528092919081815260200182805461044f90610d24565b801561049c5780601f106104715761010080835404028352916020019161049c565b820191906000526020600020905b81548152906001019060200180831161047f57829003601f168201915b50505050508152602001600282015481526020016003820180546104bf90610d24565b80601f01602080910402602001604051908101604052809291908181526020018280546104eb90610d24565b80156105385780601f1061050d57610100808354040283529160200191610538565b820191906000526020600020905b81548152906001019060200180831161051b57829003601f168201915b5050505050815260200160048201805461055190610d24565b80601f016020809104026020016040519081016040528092919081815260200182805461057d90610d24565b80156105ca5780601f1061059f576101008083540402835291602001916105ca565b820191906000526020600020905b8154815290600101906020018083116105ad57829003601f168201915b505050505081526020016005820180546105e390610d24565b80601f016020809104026020016040519081016040528092919081815260200182805461060f90610d24565b801561065c5780601f106106315761010080835404028352916020019161065c565b820191906000526020600020905b81548152906001019060200180831161063f57829003601f168201915b5050505050815260200160068201805461067590610d24565b80601f01602080910402602001604051908101604052809291908181526020018280546106a190610d24565b80156106ee5780601f106106c3576101008083540402835291602001916106ee565b820191906000526020600020905b8154815290600101906020018083116106d157829003601f168201915b505050505081525050905080602001518160400151826060015183608001518460a001518560c001519650965096509650965096505091939550919395565b6001600081548092919061074090610d84565b91905055506040518060e0016040528060015481526020018781526020018681526020018581526020018481526020018381526020018281525060008060015481526020019081526020016000206000820151816000015560208201518160010190816107ad9190610f78565b506040820151816002015560608201518160030190816107cd9190610f78565b5060808201518160040190816107e39190610f78565b5060a08201518160050190816107f99190610f78565b5060c082015181600601908161080f9190610f78565b509050507f5ac6def3d77423f587903b63f476335d670329fb8dae7e9267df94de8855363760015487858560405161084a949392919061104a565b60405180910390a1505050505050565b60015481565b6000604051905090565b600080fd5b600080fd5b6000819050919050565b61088781610874565b811461089257600080fd5b50565b6000813590506108a48161087e565b92915050565b6000602082840312156108c0576108bf61086a565b5b60006108ce84828501610895565b91505092915050565b6108e081610874565b82525050565b600081519050919050565b600082825260208201905092915050565b60005b83811015610920578082015181840152602081019050610905565b60008484015250505050565b6000601f19601f8301169050919050565b6000610948826108e6565b61095281856108f1565b9350610962818560208601610902565b61096b8161092c565b840191505092915050565b600060e08201905061098b600083018a6108d7565b818103602083015261099d818961093d565b90506109ac60408301886108d7565b81810360608301526109be818761093d565b905081810360808301526109d2818661093d565b905081810360a08301526109e6818561093d565b905081810360c08301526109fa818461093d565b905098975050505050505050565b600060c0820190508181036000830152610a22818961093d565b9050610a3160208301886108d7565b8181036040830152610a43818761093d565b90508181036060830152610a57818661093d565b90508181036080830152610a6b818561093d565b905081810360a0830152610a7f818461093d565b9050979650505050505050565b600080fd5b600080fd5b7f4e487b7100000000000000000000000000000000000000000000000000000000600052604160045260246000fd5b610ace8261092c565b810181811067ffffffffffffffff82111715610aed57610aec610a96565b5b80604052505050565b6000610b00610860565b9050610b0c8282610ac5565b919050565b600067ffffffffffffffff821115610b2c57610b2b610a96565b5b610b358261092c565b9050602081019050919050565b82818337600083830152505050565b6000610b64610b5f84610b11565b610af6565b905082815260208101848484011115610b8057610b7f610a91565b5b610b8b848285610b42565b509392505050565b600082601f830112610ba857610ba7610a8c565b5b8135610bb8848260208601610b51565b91505092915050565b60008060008060008060c08789031215610bde57610bdd61086a565b5b600087013567ffffffffffffffff811115610bfc57610bfb61086f565b5b610c0889828a01610b93565b9650506020610c1989828a01610895565b955050604087013567ffffffffffffffff811115610c3a57610c3961086f565b5b610c4689828a01610b93565b945050606087013567ffffffffffffffff811115610c6757610c6661086f565b5b610c7389828a01610b93565b935050608087013567ffffffffffffffff811115610c9457610c9361086f565b5b610ca089828a01610b93565b92505060a087013567ffffffffffffffff811115610cc157610cc061086f565b5b610ccd89828a01610b93565b9150509295509295509295565b6000602082019050610cef60008301846108d7565b92915050565b7f4e487b7100000000000000000000000000000000000000000000000000000000600052602260045260246000fd5b60006002820490506001821680610d3c57607f821691505b602082108103610d4f57610d4e610cf5565b5b50919050565b7f4e487b7100000000000000000000000000000000000000000000000000000000600052601160045260246000fd5b6000610d8f82610874565b91507fffffffffffffffffffffffffffffffffffffffffffffffffffffffffffffffff8203610dc157610dc0610d55565b5b600182019050919050565b60008190508160005260206000209050919050565b60006020601f8301049050919050565b600082821b905092915050565b600060088302610e2e7fffffffffffffffffffffffffffffffffffffffffffffffffffffffffffffffff82610df1565b610e388683610df1565b95508019841693508086168417925050509392505050565b6000819050919050565b6000610e75610e70610e6b84610874565b610e50565b610874565b9050919050565b6000819050919050565b610e8f83610e5a565b610ea3610e9b82610e7c565b848454610dfe565b825550505050565b600090565b610eb8610eab565b610ec3818484610e86565b505050565b5b81811015610ee757610edc600082610eb0565b600181019050610ec9565b5050565b601f821115610f2c57610efd81610dcc565b610f0684610de1565b81016020851015610f15578190505b610f29610f2185610de1565b830182610ec8565b50505b505050565b600082821c905092915050565b6000610f4f60001984600802610f31565b1980831691505092915050565b6000610f688383610f3e565b9150826002028217905092915050565b610f81826108e6565b67ffffffffffffffff811115610f9a57610f99610a96565b5b610fa48254610d24565b610faf828285610eeb565b600060209050601f831160018114610fe25760008415610fd0578287015190505b610fda8582610f5c565b865550611042565b601f198416610ff086610dcc565b60005b8281101561101857848901518255600182019150602085019450602081019050610ff3565b868310156110355784890151611031601f891682610f3e565b8355505b6001600288020188555050505b505050505050565b600060808201905061105f60008301876108d7565b8181036020830152611071818661093d565b90508181036040830152611085818561093d565b90508181036060830152611099818461093d565b90509594505050505056fea2646970667358221220bfc51be9d65c571fe3f1e421a9177807f4233a8069a375ea043280bf7d4b669d64736f6c63430008140033",
  "linkReferences": {},
  "deployedLinkReferences": {}
}